:020000040800F2
:1000000000000220413D0008C53B0008CB3B000832
:10001000D13B0008D33B0008D93B0008000000009A
:10002000000000000000000000000000DF3B0008AE
:10003000E13B000800000000E33B0008E53B00084E
:10004000913D0008913D0008913D0008913D000858
:10005000913D0008913D0008913D0008913D000848
:10006000913D0008913D0008913D0008913D000838
:10007000913D0008913D0008913D0008913D000828
:10008000913D0008913D0008913D0008913D000818
:10009000913D0008913D0008913D0008913D000808
:1000A000913D0008913D0008913D0008913D0008F8
:1000B000913D0008913D0008913D0008913D0008E8
:1000C000913D0008913D0008913D0008F13B00087A
:1000D000913D0008913D0008013C0008113C0008DA
:1000E000913D0008913D0008913D0008913D0008B8
:1000F000913D0008913D0008913D0008913D0008A8
:10010000913D0008913D0008913D0008913D000897
:10011000213C0008313C0008413C0008913D0008AA
:10012000913D0008913D0008913D0008913D000877
:10013000913D0008913D0008913D0008913D000867
:10014000913D0008913D0008913D0008913D000857
:10015000913D0008913D0008913D0008513C000888
:10016000913D0008913D0008913D0008913D000837
:10017000913D0008913D0008913D000800000000FD
:08018000913D0008913D0008CB
:1001900010B5054C237833B9044B13B10448AFF3C1
:1001A00000800123237010BD100200200000000019
:1001B000ECA8000808B5034B1BB103490348AFF393
:1001C000008008BD0000000014020020ECA8000818
:1001D00001F0FF01102A2BDB10F0070F08D010F8F8
:1001E000013B013A8B422DD010F0070F42B3F6D1FC
:1001F000F0B441EA012141EA014122F007047FF015
:1002000000070023F0E80256083C85EA010586EA6B
:10021000010685FA47F5A3FA87F586FA47F6A5FAA7
:1002200087F68EB9EED1F0BC01F0FF0102F00702B3
:1002300032B110F8013B013A83EA010313B1F8D15E
:100240000020704701387047002D06BF354603383F
:10025000073815F0010F07D1013015F4807F02BF78
:10026000013015F4C03F0130F0BC0138704700BFC9
:10027000034613F8012B002AFBD1181A01387047E6
:1002800081F0004102E000BF83F0004330B54FEA47
:1002900041044FEA430594EA050F08BF90EA020FB4
:1002A0001FBF54EA000C55EA020C7FEA645C7FEA47
:1002B000655C00F0E2804FEA5454D4EB5555B8BF6A
:1002C0006D420CDD2C4480EA020281EA030382EADB
:1002D000000083EA010180EA020281EA0303362D6D
:1002E00088BF30BD11F0004F4FEA01314FF4801C40
:1002F0004CEA113102D0404261EB410113F0004F52
:100300004FEA03334CEA133302D0524263EB430308
:1003100094EA050F00F0A780A4F10104D5F1200EA6
:100320000DDB02FA0EFC22FA05F2801841F1000101
:1003300003FA0EF2801843FA05F359410EE0A5F1D5
:1003400020050EF1200E012A03FA0EFC28BF4CF006
:10035000020C43FA05F3C01851EBE37101F00045BC
:1003600007D54FF0000EDCF1000C7EEB00006EEBC9
:100370000101B1F5801F1BD3B1F5001F0CD3490853
:100380005FEA30004FEA3C0C04F101044FEA4452AA
:1003900012F5800F80F09A80BCF1004F08BF5FEA31
:1003A000500C50F1000041EB045141EA050130BD11
:1003B0005FEA4C0C404141EB0101013C28BFB1F523
:1003C000801FE9D291F0000F04BF01460020B1FA6E
:1003D00081F308BF2033A3F10B03B3F120020CDA41
:1003E0000C3208DD02F1140CC2F10C0201FA0CF01F
:1003F00021FA02F10CE002F11402D8BFC2F1200C84
:1004000001FA02F120FA0CFCDCBF41EA0C01904039
:10041000E41AA2BF01EB0451294330BD6FEA040482
:100420001F3C1CDA0C340EDC04F11404C4F120026D
:1004300020FA04F001FA02F340EA030021FA04F37F
:1004400045EA030130BDC4F10C04C4F1200220FAD6
:1004500002F001FA04F340EA0300294630BD21FA14
:1004600004F0294630BD94F0000F83F4801306BFDA
:1004700081F480110134013D4EE77FEA645C18BFCE
:100480007FEA655C29D094EA050F08BF90EA020F65
:1004900005D054EA000C04BF1946104630BD91EA5D
:1004A000030F1EBF0021002030BD5FEA545C05D160
:1004B0004000494128BF41F0004130BD14F580049F
:1004C0003CBF01F5801130BD01F0004545F0FE4113
:1004D00041F470014FF0000030BD7FEA645C1ABF48
:1004E000194610467FEA655C1CBF0B46024650EA7F
:1004F000013406BF52EA033591EA030F41F40021AB
:1005000030BD00BF90F0000F04BF0021704730B530
:100510004FF4806404F132044FF000054FF0000105
:1005200050E700BF90F0000F04BF0021704730B5C6
:100530004FF4806404F1320410F0004548BF40429B
:100540004FF000013EE700BF42004FEAE2014FEAF0
:1005500031014FEA02701FBF12F07F4393F07F4FCB
:1005600081F06051704732F07F4208BF704793F0CE
:100570007F4F04BF41F40021704730B54FF46074E1
:1005800001F0004521F000411CE700BF50EA0102E4
:1005900008BF704730B54FF000050AE050EA01028D
:1005A00008BF704730B511F0004502D5404261EBFD
:1005B00041014FF4806404F132045FEA915C3FF43E
:1005C000D8AE4FF003025FEADC0C18BF03325FEADB
:1005D000DC0C18BF033202EBDC02C2F1200300FA8C
:1005E00003FC20FA02F001FA03FE40EA0E0021FAB1
:1005F00002F11444BDE600BF70B54FF0FF0C4CF49F
:10060000E06C1CEA11541DBF1CEA135594EA0C0F50
:1006100095EA0C0F00F0DEF82C4481EA030621EA8B
:100620004C5123EA4C5350EA013518BF52EA0335C6
:1006300041F4801143F4801338D0A0FB02CE4FF078
:100640000005E1FB02E506F00042E0FB03E54FF0A8
:100650000006E1FB03569CF0000F18BF4EF0010EA0
:10066000A4F1FF04B6F5007F64F5407404D25FEA9C
:100670004E0E6D4146EB060642EAC62141EA55514F
:100680004FEAC52040EA5E504FEACE2EB4F1FD0C91
:1006900088BFBCF5E06F1ED8BEF1004F08BF5FEA0F
:1006A000500E50F1000041EB045170BD06F00046C1
:1006B00046EA010140EA020081EA0301B4EB5C046E
:1006C000C2BFD4EB0C0541EA045170BD41F4801166
:1006D0004FF0000E013C00F3AB8014F1360FDEBF8B
:1006E000002001F0004170BDC4F10004203C35DA67
:1006F0000C341BDC04F11404C4F1200500FA05F3EA
:1007000020FA04F001FA05F240EA020001F000428A
:1007100021F0004110EBD37021FA04F642EB060100
:100720005EEA430E08BF20EAD37070BDC4F10C042A
:10073000C4F1200500FA04F320FA05F001FA04F2EE
:1007400040EA020001F0004110EBD37041F10001DA
:100750005EEA430E08BF20EAD37070BDC4F12005E5
:1007600000FA05F24EEA020E20FA04F301FA05F24D
:1007700043EA020321FA04F001F0004121FA04F2F5
:1007800020EA020000EBD3705EEA430E08BF20EAC5
:10079000D37070BD94F0000F0FD101F000464000FF
:1007A00041EB010111F4801F08BF013CF7D041EA81
:1007B000060195F0000F18BF704703F00046520085
:1007C00043EB030313F4801F08BF013DF7D043EA56
:1007D0000603704794EA0C0F0CEA135518BF95EA0C
:1007E0000C0F0CD050EA410618BF52EA4306D1D193
:1007F00081EA030101F000414FF0000070BD50EAB2
:10080000410606BF1046194652EA430619D094EA3B
:100810000C0F02D150EA013613D195EA0C0F05D125
:1008200052EA03361CBF104619460AD181EA030179
:1008300001F0004141F0FE4141F470014FF0000031
:1008400070BD41F0FE4141F4780170BD70B54FF0CC
:10085000FF0C4CF4E06C1CEA11541DBF1CEA13554C
:1008600094EA0C0F95EA0C0F00F0A7F8A4EB05042E
:1008700081EA030E52EA03354FEA013100F0888025
:100880004FEA03334FF0805545EA131343EA1263EE
:100890004FEA022245EA111545EA10654FEA0026A3
:1008A0000EF000419D4208BF964244F1FD0404F55C
:1008B000407402D25B084FEA3202B61A65EB0305B8
:1008C0005B084FEA32024FF480104FF4002CB6EB75
:1008D000020E75EB030E22BFB61A754640EA0C00F5
:1008E0005B084FEA3202B6EB020E75EB030E22BF35
:1008F000B61A754640EA5C005B084FEA3202B6EB76
:10090000020E75EB030E22BFB61A754640EA9C0034
:100910005B084FEA3202B6EB020E75EB030E22BF04
:10092000B61A754640EADC0055EA060E18D04FEAC2
:10093000051545EA16754FEA06164FEAC30343EA62
:1009400052734FEAC2025FEA1C1CC0D111F4801F2F
:100950000BD141EA00014FF000004FF0004CB6E728
:1009600011F4801F04BF01430020B4F1FD0C88BFC7
:10097000BCF5E06F3FF6AFAEB5EB030C04BFB6EBD2
:10098000020C5FEA500C50F1000041EB045170BDC5
:100990000EF0004E4EEA113114EB5C04C2BFD4EBF2
:1009A0000C0541EA045170BD41F480114FF0000E76
:1009B000013C90E645EA060E8DE60CEA135594EAF2
:1009C0000C0F08BF95EA0C0F3FF43BAF94EA0C0FF5
:1009D0000AD150EA01347FF434AF95EA0C0F7FF46A
:1009E00025AF104619462CE795EA0C0F06D152EABE
:1009F00003353FF4FDAE1046194622E750EA4106A2
:100A000018BF52EA43067FF4C5AE50EA41047FF4B2
:100A10000DAF52EA43057FF4EBAE12E74FF0FF3C17
:100A200006E000BF4FF0010C02E000BF4FF0010CE8
:100A30004DF804CD4FEA410C7FEA6C5C4FEA430C61
:100A400018BF7FEA6C5C1BD001B050EA410C0CBFB0
:100A500052EA430C91EA030F02BF90EA020F002012
:100A6000704710F1000F91EA030F58BF994208BF79
:100A700090422CBFD8176FEAE37040F00100704736
:100A80004FEA410C7FEA6C5C02D150EA013C07D18D
:100A90004FEA430C7FEA6C5CD6D152EA033CD3D0D8
:100AA0005DF8040B704700BF8446104662468C46D2
:100AB0001946634600E000BF01B5FFF7B7FF002805
:100AC00048BF10F1000F01BD4DF808EDFFF7F4FF2E
:100AD0000CBF012000205DF808FB00BF4DF808EDB9
:100AE000FFF7EAFF34BF012000205DF808FB00BFDC
:100AF0004DF808EDFFF7E0FF94BF012000205DF8FE
:100B000008FB00BF4DF808EDFFF7CEFF94BF0120B2
:100B100000205DF808FB00BF4DF808EDFFF7C4FFAB
:100B200034BF012000205DF808FB00BF4FEA410CF4
:100B30007FEA6C5C02D150EA013C0AD14FEA430CD7
:100B40007FEA6C5C02D152EA033C02D14FF0000014
:100B500070474FF0010070474FEA410212F5001252
:100B600015D211D56FF47873B3EB625212D94FEAF4
:100B7000C12343F0004343EA505311F0004F23FADE
:100B800002F018BF404270474FF00000704750EA33
:100B9000013005D111F0004008BF6FF000407047F0
:100BA0004FF00000704700BF4A0011D212F500124A
:100BB00011D20DD56FF47873B3EB62520ED44FEAB5
:100BC000C12343F0004343EA505323FA02F0704735
:100BD0004FF00000704750EA013002D14FF0FF3073
:100BE00070474FF0000070474FEA4102B2F1E04316
:100BF00024BFB3F5001CDCF1FE5C0DD901F0004C04
:100C00004FEAC0024CEA5070B2F1004F40EB830053
:100C100008BF20F00100704711F0804F21D113F17F
:100C20003872BCBF01F00040704741F480114FEAB8
:100C30005252C2F11802C2F1200C10FA0CF320FA41
:100C400002F018BF40F001004FEAC1234FEAD3235E
:100C500003FA0CFC40EA0C0023FA02F34FEA4303C8
:100C6000CCE77FEA625307D150EA01331EBF4FF051
:100C7000FE4040F44000704701F0004040F0FE406C
:100C800040F40000704700BF53B94AB9002908BFBB
:100C900000281CBF4FF0FF314FF0FF3000F0A6B925
:100CA000ADF1080C6DE904CE00F03CF8DDF804E08D
:100CB000DDE9022304B0704738B500220023044662
:100CC0000D46FFF70BFF28B920462946BDE83840FE
:100CD00000F00AB8204605F1004100F005F8404256
:100CE00061EB410138BD00BFD0B50C4B0022064678
:100CF0000F46FFF781FCFFF757FF0446FFF702FCA2
:100D0000074B0022FFF778FC02460B463046394677
:100D1000FFF7BAFAFFF748FF2146D0BD0000F03DCB
:100D20000000F0412DE9F047089E0D4604460F46AD
:100D3000002B4AD18A42944665D9B2FA82F343B174
:100D400002FA03FCC3F120029F4020FA02F217438B
:100D50009C404FEA1C4E1FFA8CF5B7FBFEF1220CAB
:100D60000EFB117742EA074201FB05F090420AD9D7
:100D70001CEB020201F1FF3780F01C81904240F22F
:100D8000198102396244121AA4B2B2FBFEF00EFBC2
:100D9000102244EA024400FB05F5A5420AD91CEBE7
:100DA000040400F1FF3280F00781A54240F2048183
:100DB0006444023840EA0140641B00211EB1DC405B
:100DC0000023C6E90043BDE8F0878B4208D9002E16
:100DD00000F0ED800021C6E900050846BDE8F08777
:100DE000B3FA83F1002949D1AB4202D3824200F227
:100DF000F880841A65EB030201201746002EE2D02A
:100E0000C6E90047DFE702B9FFDEB2FA82F3002B42
:100E100040F090808A1A4FEA1C471FFA8CFE01218D
:100E2000B2FBF7F507FB1520220C42EA00420EFB4D
:100E300005F0904208D91CEB020205F1FF3802D2FE
:100E4000904200F2CB804546121AA4B2B2FBF7F0F2
:100E500007FB102244EA02440EFB00FEA64508D917
:100E60001CEB040400F1FF3202D2A64500F2BB8065
:100E70001046A4EB0E0440EA05409FE7C1F12007AD
:100E80008B4022FA07FC4CEA030C05FA01F420FA25
:100E900007F3FD404FEA1C492343B5FBF9F81FFA5D
:100EA0008CFE09FB18551C0C44EA054408FB0EF5A2
:100EB000A54202FA01F200FA01F00BD91CEB04047E
:100EC00008F1FF3A80F08880A54240F28580A8F1C1
:100ED00002086444641B9DB2B4FBF9F309FB13449C
:100EE00045EA044403FB0EFEA64508D91CEB0404A6
:100EF00003F1FF356CD2A6456AD9023B644443EA4C
:100F00000843A3FB0295A4EB0E04AC42C846AE46D0
:100F100056D353D056B1B0EB080264EB0E0404FA7A
:100F200007F7CA40CC401743C6E9007418460021B1
:100F3000BDE8F087C3F1200102FA03FC20FA01F2B8
:100F400025FA01F19D402A434FEA1C471FFA8CFE07
:100F5000B1FBF7F007FB1015110C41EA054100FB4E
:100F60000EF58D4204FA03F408D91CEB010100F1DF
:100F7000FF382FD28D422DD902386144491B92B2DD
:100F8000B1FBF7F507FB151142EA014205FB0EF133
:100F9000914208D91CEB020205F1FF3816D29142AA
:100FA00014D9023D6244521A45EA004138E73146FD
:100FB000304608E73946E6E61046FBE64845A9D242
:100FC000B9EB020865EB0C0E013BA3E74546EAE7E7
:100FD0002B4694E74046D1E7D0467BE7023D62448A
:100FE00032E708460AE76444023842E7704700BF28
:100FF00038B504460D4601211C4803F0F1F80128DC
:1010000018D01B4B00221A801A4A13880133138010
:10101000174B1B88952B15D9154B00221A80237866
:101020002BB901232B70144A136801331360012379
:10103000237038BD0E4A1388013313800D4B0022F4
:101040001A80E5E70B4B1B88F92BF2D9094B0022DC
:101050001A802378012B02D000232370E9E72A703D
:10106000064A136801331360F6E700BF0000024030
:101070003A02002038020020300200203402002012
:1010800000B583B00F4802F079F9022300930123E1
:101090000D4A0C210D4802F051F90D4804F07CF87E
:1010A0000C4801F0F3F80C4800F090F80B4800F001
:1010B0002DF90B4800F064FE0A4802F03FF903B036
:1010C0005DF804FB342D00200CA9000820A90008BD
:1010D000DC2B0020842B0020F02C0020AC2C0020E6
:1010E000682C002048A9000808B500F0F5FE02F0C1
:1010F0006BF800F0A7FB01F0A1F900F0C1F8F4E7EC
:1011000008B500F0CFFE00F0E9F800F023F802F097
:1011100047F801F0DDF908BD10B5044600F03CFECB
:10112000204600F0FBF8204600F02CF8204602F0A4
:101130002DF910BD10B5044600F076FE204602F0F1
:1011400037F802490248FFF753FF10BD00000020A6
:101150002C020020024A136801331360704700BF5D
:101160004002002008B501220349044B186804F02E
:101170009AFD034B187008BD3C0200204802002075
:101180003E02002008B50D4B1B681A6803689A429E
:1011900000D008BDFFF7E6FF094B1A78511CC9B211
:1011A0001970084B1B78084883540A2BF1D102F0C0
:1011B000C9F8034B00221A70EBE700BF4802002079
:1011C0003D0200203C020020B41B002008B5024B69
:1011D0001860FFF7C7FF08BD4802002008B50A469F
:1011E000052301460248006804F00BFB08BD00BF60
:1011F000480200200120704738B500240DE01C4B48
:101200001B881C4A03EB831102EB4101002081F88B
:10121000810081F880000134E4B2312C27D8144BCE
:10122000188800EB8012134B03EB420393F88130D4
:10123000002BF0D010490F4B03EB420006F022FCCC
:1012400005460E4B1860FFF713F881B22846FFF7EA
:10125000D1FF0028D3D1064B1B88064A03EB83112C
:1012600002EB410181F8810081F88000D3E738BDAD
:101270004C0200205002002030C10008440200202F
:1012800008B5044B1B7813B9FFF7B6FF08BDFFF78D
:1012900069FFF9E73E020020014B1870704700BF5C
:1012A000010000200C4B93F82930022B0DD90A4B7A
:1012B00093F828304BB1084B93ED027B80ED007B17
:1012C000D3E90623C1E90023704700220023C0E9C7
:1012D0000023C1E900237047F81B0020024A13686D
:1012E00001331360704700BFD41C002008B50122F1
:1012F0000349044B186804F0D6FC034B187008BD72
:10130000D11C0020D81C0020D01C002008B5024BA6
:101310001860FFF7EBFF08BDD81C002008B5234B71
:101320001B681A6803689A4200D008BD204B93F8E6
:1013300000C0204B662202FB0C3393F86400421C71
:10134000D2B283F864201C49097819540A2916D0AE
:10135000174B1B78092B0DD8164A662101FB032277
:1013600092F86420632A05D9124A01FB0322002166
:1013700082F864100F2B15D0FFF7B8FFD5E7023ABB
:101380000C4B662101FB0C339B5C0D2BE0D1094B10
:1013900001FB0C33012283F865209444044B83F84D
:1013A00000C0D5E7024B00221A70E5E7D81C0020E8
:1013B000D6220020DC1C0020D11C002030B583B0D8
:1013C00005460C46144B1B88ADF8043000228DF8FE
:1013D0000620012305E015F803C08CEA0202013360
:1013E000DBB2A4F1030C6345F5DB0C4901A806F060
:1013F000BFFA9DF80420A31EEB5C9A4207D19DF82A
:101400000520013C2B5D9A4204D1002000E0012020
:1014100003B030BD0120FBE708A9000868A9000857
:101420002DE9D04F59EC108B04464FF0000ADFF83D
:1014300060B04BEC11AB09F01DF951EC100B002220
:10144000124BFFF703FA06460F4652465B464046EC
:101450004946FFF7FBF9FFF7A7FBC0B2FFF752F8C9
:1014600002460B4630463946FEF710FF41EC100BA2
:10147000572C01D0532C07D110EE102A10EE901AE1
:1014800001F1004343EC102BBDE8D08F00004E402B
:101490000000594038B52DED028B0C462C2106F08A
:1014A000D2FA451C284604F024FC20602C21284652
:1014B00006F0C9FA10F8013F23712C2106F0C3FA97
:1014C000451C284604F00BFCB0EE408AF0EE608A22
:1014D00084ED020B2C21284606F0B5FA054640782B
:1014E0002C284AD02074B0EE480AF0EE680AFFF7C4
:1014F00097FF84ED020B2C21681C06F0A4FA451C12
:10150000284604F0EFFB10EE100AFFF71DF841EC3F
:10151000180BC4E906012C21284606F094FA05466A
:1015200040782C282BD084F82000B0EE480AF0EE4A
:10153000680AFFF775FF84ED060B2C21681C06F086
:1015400082FA451C284604F0CDFB84ED090A2C21C3
:10155000284606F078FA013004F0C4FB84ED0A0A4C
:10156000236B626B013342F10002236362632379D0
:10157000412B06D0BDEC028B38BD3F20B2E73F20A7
:10158000D1E7064D0FCC0FC50FCC0FC50FCC0FC543
:1015900094E8030085E80300ECE700BF981C0020F6
:1015A00038B52DED028B0C462C2106F04CFA451C6B
:1015B000284604F09EFB20602C21284606F043FAC2
:1015C000451C284604F08BFBB0EE408AF0EE608AA2
:1015D00084ED020B2C21284606F035FA05464078AA
:1015E0002C2869D02074B0EE480AF0EE680AFFF7A4
:1015F00017FF84ED020B2C21681C06F024FA451C11
:10160000284604F06FFB10EE100AFEF79DFF41EC38
:10161000180BC4E906012C21284606F014FA0546E9
:1016200040782C284AD084F82000B0EE480AF0EE2A
:10163000680AFFF7F5FE84ED060B2C21681C06F006
:1016400002FA451C284604F050FB84F828002C219F
:10165000284606F0F8F9451C284604F046FB84F8B5
:1016600029002C21284606F0EEF9451C284604F0F6
:1016700039FB84ED0B0A2C21284606F0E4F90130F1
:1016800004F030FB84ED090A236B626B013342F1F5
:1016900000022363626394F8283053B1084D0FCCE5
:1016A0000FC50FCC0FC50FCC0FC594E8030085E81C
:1016B0000300BDEC028B38BD3F2093E73F20B2E72B
:1016C000481C002070B50E462C2106F0BCF910F81D
:1016D000013F33702C2106F0B6F90546013004F0C5
:1016E00004FB7070002406E02C21681C06F0ABF9A6
:1016F00005460134E4B20B2CF6D92C21681C06F007
:10170000A2F9441C204604F0EDFA86ED010A2C21D2
:10171000204606F098F9441C204604F0E3FA86EDD2
:10172000020A2C21204606F08EF9013004F0DAFA84
:1017300086ED030A33697269013342F100023361B5
:1017400072617378012B06D9034C0FCE0FC496E853
:10175000030084E8030070BD801C002070B50024E5
:101760002EE00120FFF798FD2D4B1D6806222D4924
:10177000284606F075F988B106222B49284606F05E
:101780006FF9002846D006222849284606F068F955
:1017900040B927492846FFF77DFE03E02549284642
:1017A000FFF790FF0220FFF777FD234B662202FB35
:1017B0000633002283F8652083F864200134E4B204
:1017C0000E2C2CD826461C4B662202FB043393F8C1
:1017D0006530002BF2D00020FFF75EFD1749164B55
:1017E000662000FB043006F04DF905460C4B1860EE
:1017F000FEF73EFDC1B22846FFF7E0FD0028B0D05D
:101800000D4B662202FB0433002283F8652083F827
:101810006420D3E70A492846FFF7C2FEC2E770BD3D
:10182000D822002070A9000878A9000880A9000823
:10183000E0220020301C0020DC1C002030C1000809
:10184000F81B002008B5044B1B7813B9FFF786FF7F
:1018500008BDFFF74BFDF9E7D01C0020014B1878BD
:10186000704700BF1E230020014B1870704700BF57
:101870001E230020014B1878704700BF342300203E
:10188000014B1868704700BF20230020014BD3E9AB
:10189000000170473823002008B5FFF7F1FF024B25
:1018A000186000225A6008BD38230020024B002037
:1018B0000021C3E9000170473823002010B5FFF76D
:1018C000DFFF0446FFF7E2FF241A61EB41010A2C17
:1018D00071F1000101D2002010BD0124024B1C70E7
:1018E000FFF7E4FF2046F7E734230020034A13689C
:1018F0005268134314BF0120002070473823002092
:1019000010B501221021124802F071FCFFF7B8FF58
:10191000044620210E4802F063FC01280BD0012070
:1019200002F08AFAFFF7ACFF001BB0F5487FF0D356
:10193000084801F003FD084801F000FD00221021D5
:10194000034802F054FC4FF47A7002F075FA10BDAF
:101950000010024088A90008A4A9000808B50E4B91
:101960001B78012B11D0012210210C4802F03FFC02
:101970000020FFF779FF002000F0D6FD002000F0E6
:10198000B5FD002000F0BEFD08BD00221021034877
:1019900002F02DFCF8E700BF1D23002000100240DC
:1019A00008B50021044B1980044B19704FF40072E4
:1019B000034806F040F808BD4423002034230020EB
:1019C0004823002010B50446FFF7EAFF2046FEF743
:1019D0004FFC282382B221460348006803F011FF20
:1019E00000B910BD0120FCE73023002008B50648EF
:1019F000FFF7E8FF00B108BD044801F09FFC4FF479
:101A0000FA7002F019FAF6E7BCA90008CCA90008A0
:101A100008B50146034806F091F8003818BF0120C8
:101A200008BD00BF4823002010B5A24B1B681BB99E
:101A3000FFF726FF9F4B18609F4B00221A709F4BA9
:101A40001C78112C00F25E81DFE814F012003700E0
:101A5000440052005F006D007A008800BA00C9009F
:101A6000F8000701180127019C00AB00DA00E9002B
:101A70009348FFF7A7FF38B9904A137801331370E2
:101A8000FFF7FEFE8B4B1860FFF7FAFE894B1B68D1
:101A9000C01AB0F5FA7FC0F043818A4B1B78022B45
:101AA00000F23E81854A002111700133854A13708E
:101AB000FFF7E6FE7F4B186036E1FFF7DBFE0028FC
:101AC000E2D08148FFF7A4FF0028DDD001347B4B32
:101AD0001C70D9E77D48FFF775FF0028D4D1774AFD
:101AE000137801331370FFF7CBFE724B1860CBE70E
:101AF000FFF7C0FE0028C7D07348FFF789FF002812
:101B0000C2D001346D4B1C70BEE77148FFF75AFF1D
:101B10000028B9D1694A137801331370FFF7B0FE7A
:101B2000644B1860B0E7FFF7A5FE0028ACD0694809
:101B3000FFF76EFF0028A7D00134604B1C70A3E7AD
:101B40006548FFF73FFF00289ED15C4A13780133B8
:101B50001370FFF795FE574B186095E7FFF78AFE65
:101B6000002891D05D48FFF753FF18B95C48FFF794
:101B70004FFF18B10134514B1C7085E74F4B0E22BB
:101B80001A7081E75748FFF71DFF00287FF47CAFEC
:101B90004A4A137801331370FFF772FE454B186001
:101BA00072E7FFF767FE00283FF46EAF4648FFF785
:101BB0002FFF00283FF468AF404B08221A7063E7FC
:101BC0004948FFF7FFFE00287FF45EAF3B4A1378D9
:101BD00001331370FFF754FE364B186054E7FFF7DC
:101BE00049FE00283FF450AF4048FFF711FF18B1FD
:101BF0000134324B1C7047E7304B10221A7043E718
:101C00003B48FFF7DFFE00287FF43EAF2B4A1378F6
:101C100001331370FFF734FE264B186034E7FFF7EB
:101C200029FE00283FF430AF2748FFF7F1FE0028D7
:101C30003FF42AAF214B0A221A7025E72D48FFF7FF
:101C4000C1FE00287FF420AF1C4A137801331370C3
:101C5000FFF716FE174B186016E7FFF70BFE00287C
:101C60003FF412AF1848FFF7D3FE18B10134134BFD
:101C70001C7009E70134114B1C7005E71E48FFF783
:101C8000A1FE00287FF400AF0C4A137801331370D3
:101C9000FFF7F6FD074B1860F6E6FFF7EBFD0028AF
:101CA0003FF4F2AE0848FFF7B3FE38B3034B1222FD
:101CB0001A70E9E6182300201E2300204A25002080
:101CC000E8A9000842230020F0A90008F4A90008B0
:101CD00000AA00080CAA000814AA000820AA0008FC
:101CE0002CAA000838AA000844AA000850AA000834
:101CF0005CAA00086CAA00087CAA0008124B1222F9
:101D00001A70C1E60023114A1360114A13700E4A7B
:101D10001370104B01221A700F4801F00FFBB3E64D
:101D20000B4B1B78022B00D810BD0023074A136011
:101D3000074A1370044A1370064B02221A700748B0
:101D400001F0FCFAF0E700BF4A250020182300202C
:101D5000422300201E23002088AA0008A4AA00080D
:101D600008B501220349044B186803F09CFF034B9C
:101D7000187008BD46230020302300201C230020BB
:101D800008B5044B1860FFF7EBFFFFF72FFEFFF7D6
:101D9000B7FD08BD3023002008B50A4B1B681A6840
:101DA00003689A4200D008BD074A1388591C118065
:101DB000064A1178064AD154FFF7D2FFFFF76CFDAF
:101DC000F1E700BF302300204423002046230020F9
:101DD00048230020F8B505468E09CFB2B301DBB227
:101DE000FF1AFFB2FFF7DCFD0024204609E01E23A6
:101DF000402205EB84110B48006803F002FD01341A
:101E0000E4B2A3B2B342F2D31FB9003818BF012025
:101E1000F8BD1E233A4605EB86110248006803F020
:101E2000F0FCF2E73023002008B5194A1368516826
:101E3000013341F10001136051602021154802F087
:101E4000CFF9012810D0144A138801331380134BA3
:101E500000221A80104B1B88962B0DD900230E4AA6
:101E600013800F4A137008BD0C4A13880133138086
:101E7000094B00221A80EDE7084B1B88962BF2D9FC
:101E8000064B00221A80064B01221A70EBE700BFB6
:101E90002823002000100240402300204825002075
:101EA0001D23002008B5054A136801331360FFF7AE
:101EB0001DFD00B908BDFFF701FDFBE72023002051
:101EC00008B5034B1A88034905F0C4FE08BD00BFDE
:101ED000442300204823002008B5FFF73FFD074BAF
:101EE0001B7823B9FFF7BAFC012803D108BDFFF71F
:101EF00037FFF7E7FFF798FDF8E700BF1C23002046
:101F0000F0B583B00C4615468DF807000D4E002243
:101F10000821304602F06BF90B4F0A2301220DF124
:101F20000701384602F0EBFD0A232A4621463846CF
:101F300002F0E5FD01220821304602F058F903B015
:101F4000F0BD00BF0010024058250020F0B583B05E
:101F50000D46144660F07F008DF80400134E0022F9
:101F60000821304602F043F9114F0A23012201A94A
:101F7000384602F0C4FD0A23224601A9384602F081
:101F8000B6FF01220821304602F031F9002307E0B4
:101F900003F108026A4412F8042CEA540133DBB25C
:101FA00004F003008342F3D303B0F0BD00100240FD
:101FB0005825002030B583B00C4600258DF8075019
:101FC00058220146334805F045FE94F9033003F0EA
:101FD00007038DF8073094F9002022F00F02134315
:101FE0008DF8073001220DF107012020FFF788FF4F
:101FF0008DF8075094F9023003F0C0038DF80730D4
:1020000094F9012002F0380213438DF807300122C1
:102010000DF107012420FFF773FF2379ABB9637833
:10202000202B1FD8DFE803F01B1E1E1E1E1E1E1EC7
:10203000251E1E1E1E1E1E1E291E1E1E1E1E1E1EAE
:102040002D1E1E1E1E1E1E1E310088238DF80730F9
:1020500001220DF107012320FFF752FFDFE70E4BAE
:102060000E4A1A60012208210D4802F0C0F803B0A0
:1020700030BD094B0B4A1A60F4E7074B0A4A1A6055
:10208000F0E7054B094A1A60ECE7034B084A1A606F
:10209000E8E700BF58250020100000208FC2753DE2
:1020A000001002408FC2F53DEC51383E8FC2753EA4
:1020B00048E13A3F10B584B00446022203A9282023
:1020C000FFF744FF9DF80D209DF80C3003EB022331
:1020D000ADF80430022203A92A20FFF737FF9DF84C
:1020E0000D209DF80C3003EB0223ADF806300222E0
:1020F00003A92C20FFF72AFF9DF80D209DF80C3036
:1021000003EB0223ADF8083001982060BDF80830D9
:10211000A380204604B010BD00B58DB007A8FFF71E
:10212000C9FFBDF91C3007EE903A294BD3ED006A88
:10213000F8EEE77A67EEA67A264B93ED007A67EE23
:10214000877A9FED257A77EE877A244B93ED006AA4
:1021500077EEC67ACDED047ABDF91E3007EE903ADF
:10216000F8EEE77A67EEA67A1D4B93ED006A67EE0C
:10217000867A77EE877A1B4B93ED006A77EEC67A04
:10218000CDED057ABDF9203007EE903AF8EEE77A0A
:1021900067EEA67A144BD3ED006A67EEA67A77EE67
:1021A000877A124B93ED007A77EEC77ACDED067AF7
:1021B00004AB93E807000CAB03E907009DED090AA7
:1021C000DDED0A0A9DED0B1A0DB05DF804FB00BFB2
:1021D0001000002004000020000000004C2500201A
:1021E00008000020502500200C000020542500206D
:1021F00070EE807AB6EE007A67EE877A064BC3ED12
:10220000007A70EEC00A9FED057AC7EE207A044B83
:10221000C3ED007A704700BF4C2500200000FA444F
:102220000400002070EE807AB6EE007A67EE877ABE
:10223000064BC3ED007A70EEC00A9FED057AC7EE3B
:10224000207A044BC3ED007A704700BF5025002070
:102250000000FA440800002070EE807AB6EE007AA2
:1022600067EE877A064BC3ED007A70EEC00A9FEDE9
:10227000057AC7EE207A044BC3ED007A704700BFA1
:10228000542500200000FA440C00002008B52DED74
:10229000028B124960230B7020234B70C0238B707C
:1022A0000723CB7001230B71FFF784FEDFED0C0ACF
:1022B0009FED0C0AFFF79CFF9FED0B8AF0EE480A9A
:1022C0009FED0A0AFFF7AEFFF0EE480A9FED080AFD
:1022D000FFF7C2FFBDEC028B08BD00BFB425002094
:1022E0000000754400007AC40000824400007FC4EE
:1022F000000066C42DE9F8430546164601EB41018E
:102300008F0000EB8104D4ED007AF0EEE77A17EE4F
:10231000900AFEF719F9804689460C3F3D44D5EDF9
:10232000007AF0EEE77A17EE900AFEF70DF9024612
:102330000B4640464946FDF7A7FF21F000412B4BD5
:10234000C3E9000100222A4BFEF7E6FB10B13388F7
:1023500001333380D4ED017AF0EEE77A17EE900A7C
:10236000FEF7F2F880468946D5ED017AF0EEE77A7D
:1023700017EE900AFEF7E8F802460B46404649463B
:10238000FDF782FF21F000411A4BC3E90001002252
:10239000174BFEF7C1FB10B1738801337380D4ED86
:1023A000027AF0EEE77A17EE900AFEF7CDF8804653
:1023B0008946D5ED027AF0EEE77A17EE900AFEF73D
:1023C000C3F802460B4640464946FDF75DFF21F043
:1023D0000041094BC3E900010022084BFEF79CFBBA
:1023E00010B1B3880133B380BDE8F88328280020FA
:1023F00000004440302800203828002000004940D8
:1024000003880A2B04D90023038083790133837165
:1024100043880A2B04D900234380C3790133C37155
:1024200083880A2B04D900238380037A0133037243
:1024300070470023038043808380704738B51F4C6A
:10244000012221462720FFF781FD237813F0080F92
:1024500000D138BD1A4D2B7803EB4303194C04EB24
:102460008304FFF759FE84ED000AC4ED010A84EDF0
:10247000021A297801291BD8114A13780133DBB2DB
:102480001370312BE5D9134600221A700E4A1378C7
:102490000133DBB21370022BDBD9134600221A7012
:1024A0000A4C2046FFF7ACFF2046FFF7C2FFD0E7FB
:1024B000064A0448FFF71EFFDEE700BF222800207F
:1024C00014280020BC250020B0250020182800205A
:1024D000024A136801331360704700BF24280020AC
:1024E000014B1870704700BF44280020014B187042
:1024F000704700BF42280020014B1878704700BF8A
:1025000042280020014B1870704700BF412800206E
:10251000014B1878704700BF41280020014B187804
:10252000704700BF40280020014B1870704700BF63
:1025300040280020014B1868704700BF5828002031
:102540002DE9F843FFF7F6FF07460026344601253C
:10255000A9467AE04B48FFF735FA00286CD10134E0
:10256000E4B2FFF7E7FF0746A84603E0FFF782F96A
:1025700068B9A846FFF7DEFFC31BB3F5C87F61D378
:10258000022E5FD80136F6B2074600245CE03E48D2
:10259000FFF73EFA18B10134E4B2A846EAE73B4837
:1025A000FFF736FA0028F6D1A846E3E73848FFF7E8
:1025B00009FA002842D10134E4B2FFF7BBFF074615
:1025C000A846D7E7FFF756F908B9A846D2E72E483C
:1025D000FFF71EFA18B10134E4B2A846CAE72B4847
:1025E000FFF716FA0028F6D1A846C3E72948FFF7F7
:1025F000E9F928BB0134E4B2FFF79CFF0746A8467F
:10260000B8E7FFF737F908B9A846B3E71E48FFF760
:10261000FFF918B10134E4B2A846ABE71B48FFF755
:10262000F7F90028F6D1A846A4E71B4800F086FE7B
:102630004FF00008C1469DE7A8469BE7A84699E7EA
:10264000A84697E7022E13D84546C5B1052CECD80D
:1026500001A353F824F000BF552500086D2500089C
:10266000AD250008C5250008ED2500080326000853
:102670000A4800F063FEA9464FF00008E4E7484628
:10268000BDE8F883B8BA0008F0A90008D8BA000875
:10269000E0BA000804BB000828BB000850BB0008D3
:1026A0002DE9F047FFF746FF07460026344601258F
:1026B000A946FFE09348FFF785F9002840F0DC8049
:1026C0000134E4B2FFF736FF0746A84603E0FFF700
:1026D000D1F878B9A846FFF72DFFC31BB3F5C87F23
:1026E000C0F0E580022E00F2E2800136F6B2074625
:1026F0000024DEE08448FFF78BF918B10134E4B21E
:10270000A846E8E78148FFF783F910B1A8460424FA
:10271000E1E77F48FFF77CF9002840F0AF80A8464A
:10272000D9E740F2A4417B48FFF754FB002840F072
:10273000A8800134E4B2FFF7FDFE0746A846CAE7C9
:10274000FFF798F808B9A846C5E77348FFF760F99E
:10275000002800F098800134E4B2A846BBE76F4837
:10276000FFF730F9002840F090800134E4B2FFF721
:10277000E1FE0746A846AEE7FFF77CF808B9A84691
:10278000A9E76148FFF744F9804618B10134E4B283
:10279000A846A0E75D48FFF73BF9824610B14446E2
:1027A000A84698E75A48FFF733F900286FD1A846A2
:1027B00091E740F2C3415A48FFF70CFB002869D16A
:1027C0000134E4B2FFF7B6FE0746A84683E7FFF7F9
:1027D00051F808B9A8467EE75248FFF719F90028D2
:1027E0005AD00134E4B2A84675E74F48FFF7EAF83B
:1027F000002853D10134E4B2FFF79CFE0746A846F7
:1028000069E7FFF737F808B9A84664E73E48FFF7DD
:10281000FFF818B10134E4B2A8465CE73B48FFF783
:10282000F7F810B1A8460C2455E73948FFF7F0F83F
:10283000B0BBA8464FE740F28F613C48FFF7CAFAA9
:1028400088BB0134E4B2FFF775FE0746A84642E7AD
:10285000FFF710F808B9A8463DE73548FFF7D8F864
:1028600018B30134E4B2A84635E7324800F066FDFB
:102870004FF00008C1462EE7A8462CE7A8460424DE
:1028800029E7A84627E7A84625E7A84623E75446B0
:10289000A84620E7A8461EE7A8461CE7A8461AE770
:1028A000A8460C2417E7A84615E7A84613E7022E0A
:1028B0001ED845461DB30B2CD7D801A353F824F0DE
:1028C000B5260008CF260008232700084127000866
:1028D0005F27000879270008B3270008CF270008E2
:1028E000EB270008032800083728000851280008B3
:1028F000114800F023FDA9460026B046D9E7484616
:10290000BDE8F08778BB0008A4BB0008ACBB00089A
:10291000BCBB0008C0AA0008C8BB0008E0BB000898
:1029200064AF000810BC000828BC000828B40008E8
:1029300054BC00086CBC000894BC000808B5FEF745
:102940008DFF012822D1A34B00221A70A24B1B68D5
:102950001BB9FFF7EFFDA04B1860A04B1B78112BA4
:1029600000F2B881DFE813F0160026004F0068007F
:1029700081009200A300B400C700D900EC00FE0063
:10298000110123016C017E019101A3010020FEF7DA
:102990006BFFB1E1924800F0D1FC9248FFF712F8CA
:1029A00070B98E4A137801331370FFF7C3FD8A4B59
:1029B000186005E08C4800F0C1FCFEF75BFFC0B971
:1029C000FFF7B8FD844B1B68C01AB0F5FA7FC0F062
:1029D0008F81864B1B78022B00F28A817F4A00216F
:1029E00011700133814A1370FFF7A4FD7A4B186010
:1029F00082E17F48FFF70CF80028E1D0774A13788E
:102A000001331370DCE77B4800F098FCFFF798FD7A
:102A100040B9724A137801331370FFF78BFD6E4B88
:102A20001860CDE7744800F089FC6C4B12221A70D4
:102A3000684B02221A70C3E7704800F07FFCFFF772
:102A40002FFE40B9654A137801331370FFF772FD0A
:102A5000614B1860B4E76A4800F070FC5F4B1222CB
:102A60001A705C4B02221A70AAE7664800F066FCF6
:102A70006548FEF7A7FF0028A2D1584A1378013312
:102A80001370FFF757FD544B186099E75F4800F04B
:102A900055FCFEF7EFFE002892D05548FEF7B8FF30
:102AA00000288DD04D4A13780133137088E75848B9
:102AB00000F044FC5748FEF785FF002880D1474AC4
:102AC000137801331370FFF735FD434B186077E738
:102AD000514800F033FCFEF7CDFE00283FF470AF04
:102AE0004348FEF795FF00283FF46AAF3B4A13784E
:102AF0000133137064E7494800F020FC4848FEF7B2
:102B000061FF00287FF45CAF344A137801331370FF
:102B1000FFF710FD304B186052E7424800F00EFC02
:102B2000FEF7A8FE00283FF44BAF3148FEF770FFD8
:102B300000283FF445AF294A1378013313703FE76B
:102B4000394800F0FBFB3948FEF73CFF00287FF4D2
:102B500037AF224A137801331370FFF7EBFC1E4B9B
:102B600018602DE7324800F0E9FBFEF783FE0028ED
:102B70003FF426AF1E48FEF74BFF00283FF420AF7E
:102B8000164A1378013313701AE72A4800F0D6FB6F
:102B90002948FEF717FF00287FF412AF0F4A137879
:102BA00001331370FFF7C6FC0B4B186008E723488E
:102BB00000F0C4FBFEF75EFE00283FF401AF0C48B6
:102BC000FEF726FF00283FF4FBAE044A13780133DA
:102BD0001370F5E6402800204C280020EC28002047
:102BE000BCBC0008C8BC0008E0BC0008E828002005
:102BF000F0A90008F4BC00080CBD00082CBD0008BA
:102C000044BD000860BD000874BD0008A0BD0008F8
:102C1000B8BD0008CCBD000800BE000818BE000802
:102C20002CBE00085CBE000874BE000888BE000808
:102C3000A4BE0008C0BE0008D8BE0008F8BE000848
:102C4000354800F07BFB3548FEF7BCFE00287FF4DA
:102C5000B7AE334A137801331370FFF76BFC314B77
:102C60001860ADE6304800F069FBFEF703FE00286F
:102C70003FF4A6AE2D48FEF7CBFE00283FF4A0AEF1
:102C8000274A1378013313709AE6294800F056FB5F
:102C90002848FEF797FE00287FF492AE204A13786A
:102CA00001331370FFF746FC1E4B186088E622487C
:102CB00000F044FBFEF7DEFD00283FF481AE1B4828
:102CC000FEF7A6FE00283FF47BAE154A13780133C9
:102CD000137075E60023134A1360184A1370104AE4
:102CE0001370174B01221A70164800F027FB67E695
:102CF000124B1B78022B00D808BD0023094A136031
:102D00000E4A1370064A13700D4B02221A700E48B9
:102D100000F014FBF0E700BF14BF00082CBF000850
:102D2000EC2800204C28002054BF0008F0A900081F
:102D300070BF00088CBF0008ACBF0008E828002066
:102D400040280020CCBF0008E4BF000810B590B0B8
:102D500004463E4B4FF0000C83F800C03C4B1B6810
:102D60001BB9FFF7E7FB3A4B1860002100913C22AA
:102D700001A804F060FE374B1B78012B26D0022BF4
:102D800041D083B10023334A1370314A1360FFF7F7
:102D9000D1FB2F4B1B68C01A44F6E763984248D812
:102DA000002010B010BD21462B4800F0C7FA224683
:102DB0002A49684604F0DCFD6846FEF703FE002859
:102DC000E5D1244A137801331370E0E72146244803
:102DD00000F0B4FAFEF74EFD0028D8D02148FEF7E7
:102DE00017FE40B11B4A137801331370FFF7A2FBA3
:102DF000174B1860CBE70023164A1370144A136070
:102E0000124A1370C3E7FEF735FD0028BFD01648FD
:102E1000FEF7FEFD18B90D4B00221A70B7E70D4BF7
:102E200003221A70094B01221A70104800F086FA2A
:102E3000ADE70023064A1360064A1370034B0222D3
:102E40001A700B4800F07AFAAAE700BF4128002068
:102E500048280020EB280020FCBF000818C000080C
:102E60002CC00008F0A9000844C0000854C00008A5
:102E700078C0000870B590B005460E463E4B002263
:102E80001A703E4B1B681BB9FFF754FB3B4B186095
:102E9000002100913C2201A804F0CDFD384B1C78A4
:102EA000012C2BD0022C45D07CB10023344A137066
:102EB000324A1360FFF73EFB304B1B68C01A314BA0
:102EC00098424DD8002010B070BD324629462E4899
:102ED00000F034FA33462A462C49684604F048FD8F
:102EE00069462B4800F02AFA6846FEF76BFD002879
:102EF000E0D1234A137801331370DBE7254800F053
:102F00001DFAFEF7B7FC0028D4D02348FEF780FD59
:102F100040B11B4A137801331370FFF70BFB174BBB
:102F20001860C7E70023164A1370144A13601B4A3F
:102F30001370BFE7FEF79EFC0028BBD01848FEF7D1
:102F400067FD18B9154B00221A70B3E70C4B03222A
:102F50001A70124B01221A70124800F0EFF9A9E71B
:102F60000023064A1360064A13700C4B02221A70A3
:102F70000D4800F0E3F9A5E7412800205028002083
:102F8000EA280020BF2501009CC00008BCC0000842
:102F9000D4C00008F0C00008F0A9000842280020B2
:102FA00004C1000814C1000834C1000870B5A0B005
:102FB00006460D4614466A4B00221A70694B1B6880
:102FC0001BB9FFF7B7FA674B1860002100917C220C
:102FD00001A804F030FD644B1B78042B00F2AD8097
:102FE000DFE803F003153B5F8F0031465F4800F0D8
:102FF000A5F932465E49684604F0BAFC6846FEF719
:10300000E1FC50B9584A13780133137005E0594870
:1030100000F094F9FEF72EFC60B9FFF78BFA514BE4
:103020001B68C01A44F6E763984200F28C800020C7
:1030300020B070BD5048FEF7EBFC20B14A4A13782F
:1030400001331370E9E70024474B1C70FFF772FA55
:10305000444B1860424B1C70DFE71A232B55013498
:1030600000232B552946454800F068F9A1B22846AF
:10307000FEF7B0FE48B100243B4B1C70FFF75AFA34
:10308000384B1860364B1C70C7E7374A137801334A
:103090001370FFF74FFA334B1860394800F04EF9C0
:1030A000BBE7384800F04AF9FEF7E4FB0028B4D04B
:1030B0003548FEF7ADFC38B900232B4A1370294A76
:1030C0001360274A1370A8E7274A13780133137057
:1030D000FFF730FA234B18602C4800F02FF92C48EA
:1030E000FEF796FC002898D01F4B05221A701C4B47
:1030F00001221A700020FFF7F3F9264800F01EF9AC
:103100008BE7FEF7B7FB002887D02148FEF780FC4D
:1031100060B1154B05221A70114B01221A70002064
:10312000FFF7DEF91B4800F009F976E70C4B0022A7
:103130001A70194800F002F96FE700230A4A137069
:10314000084A136069E70023064A1360064A1370B1
:10315000034B02221A70114800F0F0F867E700BF35
:103160004328002054280020E928002054C10008EA
:1031700070C100088CC10008A4C10008A8C10008E3
:10318000C4C10008F8C10008F0A9000814C2000872
:103190003CC200084CC200086CC200088CC2000887
:1031A000024A136801331360704700BF582800209B
:1031B000044A13685168013341F100011360516002
:1031C000704700BF60280020F0B587B0FFF7A6F970
:1031D000012803D0FFF7B2FB07B0F0BDFEF74AFBB2
:1031E000002866D1FFF788F9012872D1FFF790F91E
:1031F000012874D1FFF79EF93F4B1B68C31AB3F542
:103200007A7F21D33C4B18603C4A138801331380EA
:103210003B4A1388013313803A4A1388013B1380D9
:10322000394C31A3D3E90023D4E90001FDF72EF88E
:10323000C4E90001354C2EA3D3E90023D4E90001F1
:10324000FDF724F8C4E90001FFF762F90128C3D1B2
:103250002F4B1B78012BBFD12B4F2C4E39463046BC
:10326000FEF720F82B4D2C4B1A882C49284604F0E9
:103270007FFB2B4CD7E90023CDE90423D6E90023BB
:10328000CDE902231F4B1B8801931D4B1B88009324
:103290001A4B1B88234A2449204604F069FB204628
:1032A000FCF7E6FF821C92B221462846FFF77EFE1D
:1032B00092E71E48FEF7ACFB002893D01C4C20463A
:1032C000FEF7FEFD237B302B8CD00020FFF70EF99C
:1032D00088E742F2B3211748FFF7CCFD7CE7164898
:1032E000FFF734FD78E700BF4BB0389CF9D52C3F91
:1032F0002D431CEBE2362A3FF02A00201800002064
:10330000F42A0020140000202800002020000020C3
:1033100044280020F82A002016000020F4C20008EB
:10332000F02800203000002008C30008ACC20008CC
:1033300068280020B8C20008ECC200080FB40020C2
:1033400004B0704708B50A460123014602480068E8
:1033500002F057FA08BD00BF7C2B002008B50122FF
:103360000349044B186802F09EFC034B187008BD1B
:10337000812B00207C2B0020802B002008B5024BE5
:103380001860FFF7EBFF08BD7C2B002008B50D4B44
:103390001B681A6803689A4200D008BDFFF7DEFF79
:1033A000094B1A78511CC9B21970084B1B78084890
:1033B00083540A2BF1D1FDF711FF034B00221A7041
:1033C000EBE700BF7C2B0020782B0020812B002016
:1033D000382B00202DE9F04F8DB00024079408947D
:1033E00009940A940B940194694B1A6B42F01002F1
:1033F0001A631A6B02F010020192019A02941A6B7E
:1034000042F004021A631A6B02F004020292029A5A
:1034100003941A6B42F080021A631A6B02F0800266
:103420000392039A04941A6B42F001021A631A6B16
:1034300002F001020492049A05941A6B42F002020F
:103440001A631A6B02F002020592059A06941A6B2F
:1034500042F008021A631B6B03F008030693069BF5
:103460004C4D22461821284600F0C1FEDFF82C9171
:1034700022460221484600F0BAFE474F22464FF24C
:103480001001384600F0B3FE4FF6C57307930326CC
:103490000896099407A9284600F0ACFD1823079365
:1034A0004FF00108CDF8208009940A9407A9284616
:1034B00000F0A0FD4FF0200BCDF81CB0089409944B
:1034C00007A9284600F096FD42F23D33079308967F
:1034D000099407A9484600F08DFD4FF0020ACDF887
:1034E0001CA0CDF8208009940A9407A9484600F052
:1034F00081FDCDF81C8008940994A9F5006907A9FD
:10350000484600F077FD49F6127307930896099430
:1035100007A9484600F06EFD4FF2F3730793089633
:10352000099409F5806907A9484600F063FD042362
:1035300007930894099407A9484600F05BFD40F6FC
:10354000CB6307930896099407A9384600F052FD0B
:103550004FF210030793CDF8208009940A9407A92D
:10356000384600F047FDCDF81CB00894099407A92F
:10357000384600F03FFDCDF81CA04FF488130893A7
:10358000099407A9284600F035FD0DB0BDE8F08F7D
:103590000038024000100240000C024000080240C7
:1035A00072B6BFF34F8F0549CA6802F4E062044B5C
:1035B0001343CB60BFF34F8F00BFFDE700ED00E08A
:1035C0000400FA0508B50B480B4B03604FF4E133D8
:1035D000436000238360C36003610C224261836106
:1035E0004FF40043C36102F0DDF800B908BDFFF7F6
:1035F000D7FF00BF242C00200044004008B50B4832
:103600000B4B03604FF4E133436000238360C360DE
:1036100003610C22426183614FF40043C36102F0F5
:10362000C1F800B908BDFFF7BBFF00BF682C002040
:103630000048004000B583B00023009301930E487A
:103640000E4A02600122426083604FF44863C36007
:103650008023836101F00AFF50B900230093019396
:103660006946054801F02EFF20B903B05DF804FB60
:10367000FFF796FFFFF794FFDC2B002000100040BF
:1036800008B50A480A4B03604FF4E1334360002356
:103690008360C36003610C2242618361C36102F0F5
:1036A00081F800B908BDFFF77BFF00BF342D002073
:1036B0000014014008B50A480A4B03604FF4165342
:1036C000436000238360C36003610C224261836115
:1036D000C36102F067F800B908BDFFF761FF00BFE2
:1036E000AC2C0020004C004008B50A480A4B03608F
:1036F0004FF4E133436000238360C36003610C2215
:1037000042618361C36102F04DF800B908BDFFF763
:1037100047FF00BFF02C00200050004008B50D48C6
:103720000D4B03604FF48273436000238360C360DA
:10373000036143614FF4007282611822C261036227
:10374000436283620A23C36201F07AF900B908BDBB
:10375000FFF726FF842B00200030014000B595B014
:103760003022002108A804F066F900230393049393
:1037700005930693079301931E4A116C41F0805103
:103780001164126C02F080520192019A02931A4A5B
:10379000116841F480411160126802F48042029283
:1037A000029A0222089201210B9110210C910E9293
:1037B0000F9308231093402311931292072313931E
:1037C00008A800F01BFD80B90F2303930221049188
:1037D000002305934FF480520692079303A800F04C
:1037E00077FF20B915B05DF804FBFFF7D9FEFFF7AE
:1037F000D7FE00BF003802400070004008B500F05E
:10380000EFFAFFF7ABFFFFF7E5FDFFF7DBFEFFF792
:10381000F5FEFFF70FFFFFF733FFFFF74BFFFFF753
:1038200063FFFFF77BFFFDF72BFCFDF75DFCFEE779
:1038300000B583B0002100910C4B5A6C42F48042D9
:103840005A645A6C02F480420092009A01911A6CF8
:1038500042F080521A641B6C03F080530193019B69
:10386000072000F0FDFA03B05DF804FB00380240C9
:1038700010B588B000230393049305930693079330
:103880000268174B9A4201D008B010BD0024019481
:1038900003F584335A6C42F480525A645A6C02F431
:1038A00080520192019A02941A6B42F001021A634B
:1038B0001B6B03F001030293029BE023039302239B
:1038C00004930523079303A9064800F093FB2246BF
:1038D0002146232000F0D6FA232000F00BFBD3E78B
:1038E000003001400000024002680E4B9A4200D0B6
:1038F000704700B583B00021019103F50A331A6CBB
:1039000042F010021A641B6C03F010030193019B38
:103910000A46362000F0B6FA362000F0EBFA03B083
:103920005DF804FB001000402DE9F04192B0002347
:103930000D930E930F931093119303688E4A934245
:1039400010D08E4A934239D08D4A934276D08D4A18
:10395000934200F0A0808C4A934200F0E28012B0C3
:10396000BDE8F08100240194884B1A6C42F40022D7
:103970001A641A6C02F400220192019A02941A6BE2
:1039800042F004021A631B6B03F004030293029BD0
:103990004FF440630D9302230E93032310930823E7
:1039A00011930DA97A4800F025FB224621463420C8
:1039B00000F068FA342000F09DFAD0E70024039468
:1039C000724B1A6C42F480121A641A6C02F4801260
:1039D0000392039A04941A6B42F004021A631A6B5E
:1039E00002F004020492049A05941A6B42F0080251
:1039F0001A631B6B03F008030593059B4FF4805378
:103A00000D9302270E9703261096082511950DA9F0
:103A10005F4800F0EFFA04230D930E970F94109671
:103A200011950DA95B4800F0E5FA224621463520A4
:103A300000F028FA352000F05DFA90E700240694A3
:103A4000524B1A6C42F400321A641A6C02F40032BF
:103A50000692069A07941A6B42F001021A631B6BD6
:103A600003F001030793079B0C230D9302230E938E
:103A700001230F9303231093072311930DA94648A5
:103A800000F0B8FA22462146262000F0FBF9262055
:103A900000F030FA63E7002408943C4B1A6C42F4BF
:103AA00080221A641A6C02F480220892089A0994FF
:103AB0001A6B42F002021A631A6B02F002020992B8
:103AC000099A0A941A6B42F008021A631B6B03F0FE
:103AD00008030A930A9B4FF400630D934FF002080A
:103AE000CDF8388001270F970326109607251195EA
:103AF0000DA92A4800F07EFA4FF480730D93CDF89B
:103B000038800F97109611950DA9224800F072FA8F
:103B100022462146272000F0B5F9272000F0EAF9D7
:103B20001DE700240B94194B5A6C42F020025A6492
:103B30005A6C02F020020B920B9A0C941A6B42F012
:103B400004021A631B6B03F004030C930C9BC02349
:103B50000D9302230E9303231093082311930DA9B1
:103B60000B4800F047FA22462146472000F08AF928
:103B7000472000F0BFF9F2E6004C00400050004042
:103B8000004400400048004000140140003802405A
:103B900000080240000C0240000002400004024005
:103BA000BFF34F8F0549CA6802F4E062044B134328
:103BB000CB60BFF34F8F00BFFDE700BF00ED00E01B
:103BC0000400FA0508B5FFF7EBFF08B5FFF7E8FFBB
:103BD000FEE708B5FFF7E4FF08B5FFF7E1FF704720
:103BE0007047704708B500F015F9FDF789FA08BD70
:103BF00008B5024801F03CFA08BD00BF842B002044
:103C000008B5024801F0F2FE08BD00BF242C0020D8
:103C100008B5024801F0EAFE08BD00BF682C00208C
:103C200008B5024801F0E2FE08BD00BFAC2C002040
:103C300008B5024801F0DAFE08BD00BFF02C0020F4
:103C400008B5024801F0F0FA08BD00BFDC2B0020E7
:103C500008B5024801F0CAFE08BD00BF342D00209F
:103C600008B5FDF759FA08BD08B5FDF763FA08BDB8
:103C70000120704708B503F0C1FF162303604FF021
:103C8000FF3008BD08B54FF0FF31FFF7F3FFFEE747
:103C900070B50C461646002506E0AFF300802146BD
:103CA00001F8010B01350C46B542F6DB304670BD1C
:103CB00070B50C461646002504E014F8010BAFF36E
:103CC00000800135B542F8DB304670BD4FF0FF3063
:103CD00070474FF400534B6000207047012070473D
:103CE0000020704710B503460C4A0D490D48006886
:103CF00040B10C4800680344521A934206D8094A5E
:103D0000136010BD0748084C0460F2E703F076FF2B
:103D10000C2303604FF0FF30F3E700BF00000220E8
:103D200000120000782D0020D02E0020034AD2F887
:103D3000883043F47003C2F88830704700ED00E02B
:103D4000DFF834D00D480E490E4A002302E0D45863
:103D5000C4500433C4188C42F9D30B4A0B4C0023D3
:103D600001E013600432A242FBD3FFF7DFFF03F050
:103D70004BFFFFF743FD70470000022000000020CA
:103D80000C02002020C8000810020020CC2E0020C9
:103D9000FEE7000010B504460E4B1A784FF47A7314
:103DA000B3FBF2F30C4A1068B0FBF3F000F0B0F88C
:103DB00068B90F2C01D901200AE0002221464FF0FA
:103DC000FF3000F05FF8054B1C60002000E0012090
:103DD00010BD00BF3C000020380000204000002043
:103DE00008B50B4B1A6842F400721A601A6842F464
:103DF00080621A601A6842F480721A60032000F030
:103E00002FF80020FFF7C6FFFFF712FD002008BDC6
:103E1000003C0240034A1168034B1B780B441360BB
:103E2000704700BF7C2D00203C000020014B18682B
:103E3000704700BF7C2D002038B50446FFF7F6FF21
:103E40000546B4F1FF3F02D0044B1B781C44FFF73A
:103E5000EDFF401BA042FAD338BD00BF3C0000205C
:103E6000074AD36823F4E0631B041B0C000200F430
:103E7000E060034343F0BF6343F40033D360704713
:103E800000ED00E000B5194BDB68C3F30223C3F17A
:103E9000070CBCF1040F28BF4FF0040C03F1040E13
:103EA000BEF1060F18D9033B4FF0FF3E0EFA0CFC93
:103EB00021EA0C0199400EFA03FE22EA0E020A439F
:103EC00000280BDB1201D2B200F1604000F5614026
:103ED00080F800235DF804FB0023E5E700F00F0005
:103EE0001201D2B2024B1A54F4E700BF00ED00E019
:103EF00014ED00E0002807DB00F01F024009012359
:103F00009340024A42F82030704700BF00E100E0D1
:103F10000138B0F1807F0BD24FF0E0235861054AA1
:103F2000F02182F823100020986107221A6170475F
:103F30000120704700ED00E070B50446866DFFF784
:103F400075FF94F83530DBB2022B06D08023636511
:103F5000002384F83430012070BD054622681368C0
:103F600023F0160313602268536923F08003536122
:103F7000236CE3B12268136823F0080313602268FE
:103F8000136823F00103136023681B6813F0010F0B
:103F900011D0FFF74BFF431B052BF5D92023636599
:103FA000032084F83500002384F83430D4E7A36C70
:103FB000002BDFD1E3E7E26D3F239340B3600123A1
:103FC00084F83530002084F83400C5E790F83530A7
:103FD000DBB2022B03D08023436501207047052309
:103FE00080F835300268136823F001031360002065
:103FF0007047000000230F2B00F2E98070B582B0FB
:1040000065E085684FEA430E032404FA0EF425EABE
:104010000405CC6804FA0EF42C438460446824EA56
:1040200002044A68C2F300129A40224342605CE0F4
:10403000DC08083450F8242003F00705AD004FF0E9
:104040000F0E0EFA05FE22EA0E0E0A69AA4042EA97
:104050000E0240F824205CE0072200E0002202FA71
:104060000EF22A4302345A4D45F82420594A9468E6
:104070006FEA0C0224EA0C054E6816F4801F01D08A
:104080004CEA0405534CA560E46802EA04054E6856
:1040900016F4001F01D04CEA04054E4CE56064683C
:1040A00002EA04054E6816F4003F01D04CEA04050C
:1040B000484C6560246822404D6815F4803F01D06B
:1040C0004CEA0402434C226001330F2B7DD80122BD
:1040D0009A400C6804EA020C32EA0404F4D14C68F9
:1040E00004F00304013C012C8BD94A6802F003025E
:1040F000032A09D0C4685D000322AA4024EA02040E
:104100008A68AA402243C2604A6802F00302022A77
:104110008ED004684FEA430E032202FA0EF224EA1C
:1041200002044A6802F0030202FA0EF2224302601D
:104130004A6812F4403FC7D000220192264A546CCC
:1041400044F480445464526C02F480420192019A17
:104150009C08A51C1E4A52F8255003F0030E4FEA96
:104160008E0E0F2202FA0EF225EA02051B4A904239
:104170003FF474AF02F5806290421AD002F580627B
:10418000904218D002F58062904216D002F580620B
:10419000904214D002F58062904212D002F5806203
:1041A000904210D002F5806290423FF455AF082251
:1041B00055E7012253E7022251E703224FE7042289
:1041C0004DE705224BE7062249E702B070BD704774
:1041D00000380140003C014000380240000002402D
:1041E0000369194201D001207047002070470AB1CD
:1041F000816170470904816170470000002800F068
:10420000E08170B582B00446036813F0010F3BD023
:104210009F4B9B6803F00C03042B2CD09C4B9B689A
:1042200003F00C03082B21D06368B3F5803F4FD017
:10423000B3F5A02F52D0964B1A6822F480321A6040
:104240001A6822F480221A606368002B50D0FFF7AE
:10425000EDFD05468E4B1B6813F4003F14D1FFF7AC
:10426000E5FD401B6428F5D90320B1E1884B5B686C
:1042700013F4800FD8D0864B1B6813F4003F03D093
:104280006368002B00F09F81236813F0020F54D065
:104290007F4B9B6813F00C0F3ED07D4B9B6803F067
:1042A0000C03082B33D0E368002B68D0794B012234
:1042B0001A60FFF7BBFD0546754B1B6813F0020F34
:1042C00054D1FFF7B3FD401B0228F5D903207FE14D
:1042D0006F4A136843F480331360B5E76C4B1A6878
:1042E00042F480221A601A6842F480321A60ABE706
:1042F000FFF79CFD0546664B1B6813F4003FC3D0D7
:10430000FFF794FD401B6428F5D9032060E1604B62
:104310005B6813F4800FC6D15D4B1B6813F0020F6E
:1043200003D0E368012B40F05081594A136823F011
:10433000F803216943EAC1031360236813F0080FEF
:1043400042D063696BB3534B0122C3F8802EFFF751
:104350006DFD05464E4B5B6F13F0020F34D1FFF736
:1043600065FD401B0228F5D9032031E1484A136856
:1043700023F0F803216943EAC1031360DDE7454BED
:1043800000221A60FFF752FD0546414B1B6813F0EF
:10439000020FD2D0FFF74AFD401B0228F5D90320B7
:1043A00016E13C4B0022C3F8802EFFF73FFD054687
:1043B000374B5B6F13F0020F06D0FFF737FD401B42
:1043C0000228F5D9032003E1236813F0040F77D006
:1043D0002F4B1B6C13F0805F33D1002301932C4BC8
:1043E0001A6C42F080521A641B6C03F080530193E4
:1043F000019B0125284B1B6813F4807F23D0A36801
:10440000012B34D0052B38D0214B1A6F22F001023A
:104410001A671A6F22F004021A67A368002B3DD0B6
:10442000FFF704FD06461A4B1B6F13F0020F46D12F
:10443000FFF7FCFC801B41F288339842F3D903203C
:10444000C6E00025D6E7144A136843F4807313606E
:10445000FFF7ECFC0646104B1B6813F4807FCED1AF
:10446000FFF7E4FC801B0228F5D90320B0E0084ADE
:10447000136F43F001031367CFE7054B1A6F42F048
:1044800004021A671A6F42F001021A67C5E700BFFB
:10449000003802400000474200700040FFF7C6FCB1
:1044A0000646524B1B6F13F0020F08D0FFF7BEFCFD
:1044B000801B41F288339842F3D9032088E0EDB99C
:1044C000A369002B00F08380484A926802F00C0236
:1044D000082A51D0022B17D0454B00221A66FFF74D
:1044E000A5FC0446414B1B6813F0007F42D0FFF748
:1044F0009DFC001B0228F5D9032069E03B4A136CA0
:1045000023F080531364DBE7394B00221A66FFF770
:104510008DFC0546354B1B6813F0007F06D0FFF776
:1045200085FC401B0228F5D9032051E0E369226A8B
:104530001343626A43EA8213A26A5208013A43EAC9
:104540000243E26A43EA0263284A5360284B01228D
:104550001A66FFF76BFC0446244B1B6813F0007FC0
:1045600006D1FFF763FC001B0228F5D903202FE0DA
:1045700000202DE000202BE0012B2BD01B4B5B6893
:1045800003F48001E269914226D103F03F02216ADF
:104590008A4223D1616A47F6C0721A40B2EB811F8A
:1045A0001ED103F44031A26A5208013AB1EB024F26
:1045B00018D103F07063E26AB3EB026F14D10020EC
:1045C00006E001207047012002E0012000E0002009
:1045D00002B070BD0120FBE70120F9E70120F7E7F9
:1045E0000120F5E70120F3E70120F1E70038024060
:1045F0000000474208B5334B9B6803F00C03042BC3
:104600005BD0082B5BD12F4B5A6802F03F025B68EE
:1046100013F4800F2CD02B4B5868C0F388104FEA4E
:10462000401CBCEB000C6EEB0E0E4FEA8E1343EAFF
:104630009C634FEA8C11B1EB0C0163EB0E03DB00C2
:1046400043EA5173C90011EB000C43F10003590216
:1046500000234FEA4C2041EADC51FCF715FB194BD3
:104660005B68C3F3014301335B00B0FBF3F027E069
:10467000144B5868C0F388104FEA401CBCEB000C88
:104680006EEB0E0E4FEA8E1343EA9C634FEA8C11D9
:10469000B1EB0C0163EB0E03DB0043EA5173C9007D
:1046A00011EB000C43F10003990200234FEA8C2028
:1046B00041EA9C51FCF7E8FAD1E7034800E00348DF
:1046C00008BD00BF0038024000127A000024F40048
:1046D000002800F09B8070B50D4604464F4B1B68C8
:1046E00003F007038B4208D2CBB24C4A1370136815
:1046F00003F007038B4240F08B80236813F0020F16
:1047000017D013F0040F04D0454A936843F4E053E4
:104710009360236813F0080F04D0414A936843F470
:10472000604393603E4A936823F0F003A1680B4313
:104730009360236813F0010F32D06368012B21D0FE
:104740009A1E012A25D9364A126812F0020F61D04A
:1047500033498A6822F0030213438B60FFF766FB3C
:1047600006462F4B9B6803F00C036268B3EB820F85
:1047700016D0FFF75BFB801B41F288339842F0D9DB
:10478000032042E0264A126812F4003FE0D10120E3
:104790003BE0234A126812F0007FD9D1012034E0B7
:1047A0001E4B1B6803F00703AB4207D9EAB21B4B51
:1047B0001A701B6803F00703AB422DD1236813F076
:1047C000040F06D0164A936823F4E053E1680B43C4
:1047D0009360236813F0080F07D0114A936823F4FD
:1047E0006043216943EAC1039360FFF703FF0C4B69
:1047F0009B68C3F303130B4AD35CD8400A4B186081
:104800000A4B1868FFF7C6FA002070BD01207047F8
:104810000120FAE70120F8E70120F6E7003C02401A
:104820000038024064C30008380000204000002027
:10483000014B1868704700BF3800002008B5FFF72B
:10484000F7FF044B9B68C3F38223034AD35CD84031
:1048500008BD00BF0038024074C3000808B5FFF768
:10486000E7FF044B9B68C3F34233034AD35CD84051
:1048700008BD00BF0038024074C300082DE9F047AE
:1048800082B00546884617461E46FFF7CFFA0A9BB8
:104890001B1A03EB0609FFF7C9FA82462A4B1B686D
:1048A000C3F3CB3309FB03F301932B689C6838EA0D
:1048B00004040CBF01230023BB4240D0B6F1FF3FEC
:1048C000F3D0FFF7B3FAA0EB0A0048450AD2B9F1DA
:1048D000000F07D0019A02B14A46019B013B0193A8
:1048E0009146E2E72A68536823F0E00353606B685F
:1048F000B3F5827F0BD0AB6AB3F5005F14D0012310
:1049000085F85130002385F85030032018E0AB685B
:10491000B3F5004F02D0B3F5806FECD12A6813686D
:1049200023F040031360E6E72A68136823F400537A
:1049300013602A68136843F400531360DFE7002014
:1049400002B0BDE8F08700BF3800002010B584B089
:104950000446164B1868164BA3FB0030400D4FF46D
:104960007A7303FB00F003906368B3F5827F0BD08A
:10497000039BBBB1039B013B039323689B6813F02C
:10498000800FF5D100200EE000920B46002280211E
:104990002046FFF773FF30B1636D43F0200363657A
:1049A000032000E0002004B010BD00BF380000204C
:1049B000819F5E1610B582B004460B464168B1F582
:1049C000827F14D06168B1F5827F2AD1A168B1F5E8
:1049D000806F19D00092002280212046FFF74EFF01
:1049E00030B3636D43F020036365032020E08168EA
:1049F000B1F5004F02D0B1F5806FE3D120680168B6
:104A000021F040010160DDE70092002201212046F3
:104A1000FFF734FF60B1636D43F02003636503204B
:104A200006E00092002201212046FFF727FF08B987
:104A300002B010BD636D43F0200363650320F7E708
:104A400000285AD010B50446436A33B94368B3F519
:104A5000827F05D00023C36102E00023036143612C
:104A60000023A36294F85130002B40D0022384F835
:104A700051302268136823F040031360636803F425
:104A80008273A26802F404421343E26802F40062F3
:104A90001343226902F002021343626902F0010229
:104AA0001343A26902F400721343E26902F0380270
:104AB0001343226A02F080021343A26A02F40052F6
:104AC000216813430B60638B03F00403626A02F0F6
:104AD0001002216813434B602268D36923F40063FA
:104AE000D36100206065012384F8513010BD84F843
:104AF00050302046FEF7BCFEB8E7012070472DE994
:104B0000F04383B01D4690F85030012B00F0D18067
:104B1000044688469146012380F85030FFF786F915
:104B2000074694F85160F6B2012E40F0AF80B8F11C
:104B3000000F00F0AC80B9F1000F00F0A880032353
:104B400084F8513000236365C4F83080A4F83490B1
:104B5000A4F83690A363A387E38763642364A36800
:104B6000B3F5004F1ED023681A6812F0400F03D12E
:104B70001A6842F040021A60E368B3F5006F1CD077
:104B8000636813B1B9F1010F52D1226B2368127817
:104B90001A73236B01332363E38E9BB2013B9BB2F9
:104BA000E38645E02268136823F04003136022681F
:104BB000136843F480431360D5E7636813B1B9F118
:104BC000010F16D1226B23681288DA60236B02333F
:104BD0002363E38E9BB2013B9BB2E38609E0FFF7C0
:104BE00025F9C01BA84202D3B5F1FF3F59D1002DD2
:104BF00059D0E38E9BB2002B33D023689A6812F011
:104C0000020FECD0226B1288DA60236B023323632D
:104C1000E38E9BB2013B9BB2E386EAE7FFF706F91E
:104C2000C01BA84202D3B5F1FF3F3ED1002D3ED0BC
:104C3000E38E9BB2ABB123689A6812F0020FEDD0FD
:104C4000226B12781A73236B01332363B4F836C0D6
:104C50001FFA8CFC0CF1FF3C1FFA8CFCA4F836C048
:104C6000E6E73A4629462046FFF770FE08B12023C2
:104C70006365A36833B901932368DA6801929B687E
:104C80000193019B636D13B9002600E00226012306
:104C900084F85130002384F85030304603B0BDE82A
:104CA000F0830326F3E70326F1E70326EFE7032665
:104CB000EDE70226F1E72DE9F04383B01F460A9D98
:104CC00090F85030012B00F0108104468846914640
:104CD000012380F85030FFF7A9F8064694F85130C8
:104CE000DBB26268012B0AD0B2F5827F40F0E3802C
:104CF000A268002A40F0E980042B40F0E880B8F177
:104D0000000F00F0E680B9F1000F00F0E480002F02
:104D100000F0E38094F85130DBB2042B02D005237D
:104D200084F8513000236365C4F83890E787A7877B
:104D3000C4F83080E786A7862364636423681A6812
:104D400012F0400F03D11A6842F040021A60E36883
:104D5000B3F5006F11D063680BB1012F0BD1226B3B
:104D6000236812781A73236B01332363E38E9BB29B
:104D7000013B9BB2E38601276BE063680BB1012F17
:104D80000BD1226B23681288DA60236B0233236312
:104D9000E38E9BB2013B9BB2E38601271CE02368B4
:104DA0009A6812F0010F0ED0E28F92B25AB1DA680F
:104DB000A36B1A80A36B0233A363E38F9BB2013B07
:104DC0009BB2E3870127FFF731F8801BA84203D38A
:104DD000B5F1FF3F40F08380E38E9BB21BB9E38FB8
:104DE0009BB2002B53D023689A6812F0020FD6D0E2
:104DF000E28E92B2002AD2D0002FD0D0226B12883D
:104E0000DA60236B02332363E38E9BB2013B9BB2D8
:104E1000E3860027C3E723689A6812F0010F0ED0DB
:104E2000E28F92B25AB1DA68A36B1A70A36B0133A6
:104E3000A363E38F9BB2013B9BB2E3870127FEF79D
:104E4000F5FF831BAB4202D3B5F1FF3F49D1002DE3
:104E500049D0E38E9BB213B9E38F9BB2BBB12368F9
:104E60009A6812F0020FD6D0E28E92B2002AD2D007
:104E7000002FD0D0226B12781A73236B0133236377
:104E8000E38E9BB2013B9BB2E3860027C3E7324629
:104E900029462046FFF75AFD48B9A36863B9019334
:104EA0002368DA6801929B680193019B04E0202348
:104EB0006365012000E00220012384F851300023C3
:104EC00084F8503003B0BDE8F0830220F4E70220FC
:104ED000F2E70120F0E70120EEE70120ECE70320F4
:104EE000EAE70320E8E70320E6E70220EAE72DE906
:104EF000F04383B00446884691461D464068B0F5AD
:104F0000827F38D094F85030012B00F0AE8001231E
:104F100084F85030FEF78AFF074694F85160F6B2E5
:104F2000012E40F08F80B8F1000F00F08C80B9F1B5
:104F3000000F00F08880042384F85130002363655B
:104F4000C4F83880A4F83C90A4F83E902363A3866C
:104F5000E38623646364A368B3F5004F19D0236824
:104F60001A6812F0400F03D11A6842F040021A602A
:104F7000E3681BB341E0A368002BC3D1042384F88A
:104F80005130009513460A462046FFF794FE064628
:104F90005FE02268136823F04003136022681368FF
:104FA00023F480431360DAE7FEF740FFC01BA842FA
:104FB00002D3B5F1FF3F50D1002D50D0E38F9BB20B
:104FC000002B33D023689A6812F0010FECD0A26B4B
:104FD0001B7B1370A36B0133A363E38F9BB2013B75
:104FE0009BB2E387EAE7FEF721FFC01BA84202D38A
:104FF000B5F1FF3F35D1002D35D0E38F9BB2ABB17A
:1050000023689A6812F0010FEDD0DA68A36B1A805A
:10501000A36B0233A363B4F83EC01FFA8CFC0CF1FF
:10502000FF3C1FFA8CFCA4F83EC0E6E73A4629464E
:105030002046FFF7BFFC08B120236365636D13B9F9
:10504000002600E00226012384F85130002384F872
:105050005030304603B0BDE8F0830326F3E7032663
:10506000F1E70326EFE70326EDE70226F1E77047B5
:1050700010B584B0044602685168936803F041009B
:10508000012867D013F0020F02D011F0800F68D111
:1050900013F4B07F68D011F0200F65D013F0400FEB
:1050A0000FD094F85100C0B203285FD0606D40F07B
:1050B0000400606500200090D06800909068009027
:1050C000009813F0200F0CD0606D40F00100606577
:1050D0000020029090680290106820F0400010605C
:1050E000029A13F4807F09D0636D43F0080363656F
:1050F0000023039323689B680393039B636D002B3A
:1051000032D02268536823F0E0035360012384F80F
:10511000513011F0030F31D02268536823F003039C
:105120005360E36C4BB1174A1A65E06CFEF74EFF13
:1051300018B1636D43F040036365A36CA3B1114ADA
:105140001A65A06CFEF742FF70B1636D43F0400337
:10515000636509E011F0400F94D0236C2046984716
:1051600002E0636C2046984704B010BD0023019311
:10517000D368019393680193019BF5E72046FFF7FD
:1051800076FFF1E78951000808B5806B0023C387DB
:10519000C386FFF76CFF08BD90F83D30DBB2012BF2
:1051A00037D1022380F83D300268D36843F0010311
:1051B000D3600368194A934220D0B3F1804F1DD0C9
:1051C000A2F57C42934219D002F58062934215D039
:1051D00002F58062934211D002F5784293420DD0DD
:1051E00002F57052934209D0A2F59432934205D051
:1051F0001A6842F001021A60002070479A6802F0B3
:105200000702062A07D01A6842F001021A6000203D
:105210007047012070470020704700BF0000014028
:10522000704770477047704710B5044603681A69A5
:1052300012F0020F11D0DA6812F0020F0DD06FF0E9
:1052400002021A610123037703689B6913F0030FBD
:1052500070D0FFF7E6FF0023237723681A6912F066
:10526000040F12D0DA6812F0040F0ED06FF00402AF
:105270001A610223237723689B6913F4407F5FD070
:105280002046FFF7CEFF0023237723681A6912F028
:10529000080F12D0DA6812F0080F0ED06FF0080273
:1052A0001A61042323772368DB6913F0030F4ED0C0
:1052B0002046FFF7B6FF0023237723681A6912F010
:1052C000100F12D0DA6812F0100F0ED06FF010022B
:1052D0001A61082323772368DB6913F4407F3DD0EC
:1052E0002046FFF79EFF0023237723681A6912F0F8
:1052F000010F03D0DA6812F0010F36D123681A6962
:1053000012F0800F03D0DA6812F0800F34D12368D6
:105310001A6912F0400F03D0DA6812F0400F32D150
:1053200023681A6912F0200F03D0DA6812F0200FF8
:1053300030D110BDFFF774FF2046FFF773FF8AE7F7
:105340002046FFF76DFF2046FFF76CFF9BE72046E6
:10535000FFF766FF2046FFF765FFACE72046FFF743
:105360005FFF2046FFF75EFFBDE76FF001021A61A5
:105370002046FEF779FCC1E76FF080021A612046F3
:1053800000F0E7F8C3E76FF040021A612046FFF72C
:105390004AFFC5E76FF020021A61204600F0D8F8F6
:1053A000C7E700000368304A904212D0B0F1804F46
:1053B0000FD0A2F57C4290420BD002F58062904261
:1053C00007D002F58062904203D002F57842904205
:1053D00003D123F070034A681343234A90422AD032
:1053E000B0F1804F27D0A2F57C42904223D002F545
:1053F000806290421FD002F5806290421BD002F57D
:105400007842904217D002F57052904213D002F5C4
:10541000806290420FD002F5806290420BD0A2F5DC
:105420009832904207D002F58062904203D002F594
:105430008062904203D123F44073CA68134323F07F
:1054400080034A69134303608B68C3620B688362FD
:10545000054B984203D003F58063984201D10B6954
:1054600003630123436170470000014040B310B55E
:10547000044690F83D30F3B1022384F83D302146D4
:1054800051F8040BFFF78EFF012384F8463084F8AF
:105490003E3084F83F3084F8403084F8413084F85E
:1054A000423084F8433084F8443084F8453084F83E
:1054B0003D30002010BD80F83C30FEF715FADBE7E8
:1054C0000120704790F83C20012A3DD010B40346DB
:1054D000012280F83C20022280F83D2002685068BA
:1054E000946820F0700C086840EA0C0050601A685C
:1054F000164882421AD0B2F1804F17D0A0F57C40F6
:10550000824213D000F5806082420FD000F58060A7
:1055100082420BD000F57840824207D000F57050EF
:10552000824203D0A0F59430824204D124F080045A
:10553000496821439160012283F83D20002083F8CF
:105540003C005DF8044B70470220704700000140AA
:1055500070477047026802F10C0353E8003F23F4E0
:1055600090730C3242E800310029F3D1026802F155
:10557000140353E8003F23F00103143242E80031E2
:105580000029F3D1036B012B05D0202380F83E3096
:10559000002303637047026802F10C0353E8003FE5
:1055A00023F010030C3242E800310029F3D1ECE77C
:1055B00090F83D30DBB2212B01D002207047836888
:1055C000B3F5805F17D0036A5A1C02621A78036829
:1055D0005A60C38C9BB2013B9BB2C3844BB9026837
:1055E000D36823F08003D3600268D36843F040039C
:1055F000D360002070470369002BE4D1036A1B8845
:105600000268C3F308035360036A02330362E0E7EE
:1056100010B504460268136923F44053C1680B4374
:105620001361836802691A4343691A43C3691A43C1
:105630000168CB6823F4164323F00C031343CB60BB
:105640000268536923F4407381690B435361036813
:10565000314A934206D002F58062934202D0FFF7AE
:10566000EDF801E0FFF7FAF8E369B3F5004F29D050
:105670000021031849411B1841F10001C90041EA0A
:105680005371DB00181863684FEA83024FEA937383
:1056900041F10001FBF7F8FA204AA2FB0031490969
:1056A000642303FB11031B013233A2FB03235B09B9
:1056B00003F0F00202EB011203F00F032168134420
:1056C0008B6010BD0023021843EB0301121841F157
:1056D0000001C90041EA5271D200101841F10001E5
:1056E000626892185B41FBF7CFFA0C4AA2FB0031CB
:1056F0004909642303FB1103DB003233A2FB0323BC
:105700005B095A0002F4F87202EB011203F007037E
:10571000216813448B60D4E7001001401F85EB51D2
:105720002DE9F84305460F4616469946DDF82080D8
:105730002B681C6837EA04040CBF01240024B4421F
:105740002DD1B8F1FF3FF3D0B8F1000F05D0FEF72F
:105750006DFBA0EB09004045EAD92A6802F10C0371
:1057600053E8003F23F4D0730C3242E800310029A3
:10577000F3D12A6802F1140353E8003F23F0010338
:10578000143242E800310029F3D1202385F83D305E
:1057900085F83E30002385F83C30032000E00020EF
:1057A000BDE8F88358B310B5044690F83D300BB30C
:1057B000242384F83D302268D36823F40053D36057
:1057C0002046FFF725FF2268136923F490431361F5
:1057D0002268536923F02A0353612268D36843F493
:1057E0000053D36000202064202384F83D3084F8E7
:1057F0003E3010BD80F83C30FEF796F8D8E7012027
:1058000070472DE9F04182B01E4690F83D30DBB282
:10581000202B54D104460D469046002953D0002A2F
:1058200053D090F83C30012B51D0012380F83C300C
:1058300000230364212380F83D30FEF7F7FA074682
:10584000A4F82480A4F82680A368B3F5805F05D06F
:105850004FF00008002384F83C3012E0236913B1B4
:105860004FF00008F6E7A8460025F3E738F8023BBA
:105870002268C3F308035360E28C92B2013A92B2F9
:10588000E284E38C9BB273B100963B4600228021F8
:105890002046FFF745FFE0B9002DE7D015F8012BB2
:1058A00023685A60E8E700963B46002240212046E4
:1058B000FFF736FF78B9202384F83D3000E002205E
:1058C00002B0BDE8F0810120FAE70120F8E70220EC
:1058D000F6E70320F4E70320F2E7704708B5016814
:1058E000CA6822F04002CA60202280F83D20FFF7FB
:1058F000F4FF002008BD704708B5806B0023C38506
:10590000C384FFF7F8FF08BD704790F83E30DBB264
:10591000222B67D18368B3F5805F4DD0826AB3F5DF
:10592000805F04D0002B54D10369002B51D1036850
:105930005B681370836A01338362C38D9BB2013B42
:105940009BB2C385002B4FD100B583B00268D368EA
:1059500023F02003D3600268D36823F48073D360FC
:105960000268536923F001035361202380F83E301D
:10597000036B012B33D100230363026802F10C0394
:1059800053E8003F23F010030C3242E800310029B5
:10599000F3D103681A6812F0100F06D000220192AA
:1059A0001A6801925B680193019B818DFFF7ACFF40
:1059B000002003B05DF804FB0269002AAED1826AC0
:1059C00003685B68C3F308031380836A023383624E
:1059D000B3E703685B6803F07F031370AAE7FEF781
:1059E0003FF9E5E7022070470020704730B583B0EB
:1059F000044602681368D068516913F00F0505D199
:105A000013F0200F02D010F0200F19D12DB111F09A
:105A1000010119D110F4907F16D1216B01297DD09D
:105A200013F0800F03D010F0800F40F0158113F0B9
:105A3000400F03D010F0400F40F0128103B030BD92
:105A40002046FFF762FFF9E713F0010F06D010F4CC
:105A5000807F03D0226C42F00102226413F0040F15
:105A600004D019B1226C42F00202226413F0020F3A
:105A700004D019B1226C42F00402226413F0080F22
:105A800007D010F0200F00D119B1226C42F00802AB
:105A90002264226C002AD1D013F0200F02D010F023
:105AA000200F29D123685B6903F04003226C12F0B8
:105AB000080F00D163B32046FFF74CFD23685B69F4
:105AC00013F0400F20D0226802F1140353E8003F86
:105AD00023F04003143242E800310029F3D1A36BD4
