:020000040800F2
:10000000000002205D490008C5470008CD470008F0
:10001000D5470008D9470008E14700080000000064
:10002000000000000000000000000000E947000898
:10003000ED47000800000000F1470008F547000800
:10004000AD490008AD490008AD490008AD490008B8
:10005000AD490008AD490008AD490008AD490008A8
:10006000AD490008AD490008AD490008AD49000898
:10007000AD490008AD490008AD490008AD49000888
:10008000AD490008AD490008AD4900080548000821
:10009000114800081D48000829480008AD4900081B
:1000A000AD490008AD490008AD490008AD49000858
:1000B000AD490008AD490008AD490008AD49000848
:1000C000AD490008AD490008AD49000835480008B1
:1000D000AD490008AD490008414800084D480008F6
:1000E000AD490008AD490008AD490008AD49000818
:1000F000AD490008AD490008AD490008AD49000808
:10010000AD490008AD490008AD490008AD490008F7
:10011000594800086548000871480008AD490008C2
:10012000AD490008AD490008AD490008AD490008D7
:10013000AD490008AD490008AD490008AD490008C7
:10014000AD490008AD490008AD490008AD490008B7
:10015000AD490008AD490008AD4900087D480008D8
:10016000AD490008AD490008AD490008AD49000897
:10017000AD490008AD490008AD4900080000000085
:08018000AD490008AD4900087B
:1001900010B5054C237833B9044B13B10448AFF3C1
:1001A00000800123237010BD4802002000000000E1
:1001B00054B8000808B5034B1BB103490348AFF31B
:1001C000008008BD000000004C02002054B8000868
:1001D00001F0FF01102A2BDB10F0070F08D010F8F8
:1001E000013B013A8B422DD010F0070F42B3F6D1FC
:1001F000F0B441EA012141EA014122F007047FF015
:1002000000070023F0E80256083C85EA010586EA6B
:10021000010685FA47F5A3FA87F586FA47F6A5FAA7
:1002200087F68EB9EED1F0BC01F0FF0102F00702B3
:1002300032B110F8013B013A83EA010313B1F8D15E
:100240000020704701387047002D06BF354603383F
:10025000073815F0010F07D1013015F4807F02BF78
:10026000013015F4C03F0130F0BC0138704700BFC9
:10027000034613F8012B002AFBD1181A01387047E6
:1002800081F0004102E000BF83F0004330B54FEA47
:1002900041044FEA430594EA050F08BF90EA020FB4
:1002A0001FBF54EA000C55EA020C7FEA645C7FEA47
:1002B000655C00F0E2804FEA5454D4EB5555B8BF6A
:1002C0006D420CDD2C4480EA020281EA030382EADB
:1002D000000083EA010180EA020281EA0303362D6D
:1002E00088BF30BD11F0004F4FEA01314FF4801C40
:1002F0004CEA113102D0404261EB410113F0004F52
:100300004FEA03334CEA133302D0524263EB430308
:1003100094EA050F00F0A780A4F10104D5F1200EA6
:100320000DDB02FA0EFC22FA05F2801841F1000101
:1003300003FA0EF2801843FA05F359410EE0A5F1D5
:1003400020050EF1200E012A03FA0EFC28BF4CF006
:10035000020C43FA05F3C01851EBE37101F00045BC
:1003600007D54FF0000EDCF1000C7EEB00006EEBC9
:100370000101B1F5801F1BD3B1F5001F0CD3490853
:100380005FEA30004FEA3C0C04F101044FEA4452AA
:1003900012F5800F80F09A80BCF1004F08BF5FEA31
:1003A000500C50F1000041EB045141EA050130BD11
:1003B0005FEA4C0C404141EB0101013C28BFB1F523
:1003C000801FE9D291F0000F04BF01460020B1FA6E
:1003D00081F308BF2033A3F10B03B3F120020CDA41
:1003E0000C3208DD02F1140CC2F10C0201FA0CF01F
:1003F00021FA02F10CE002F11402D8BFC2F1200C84
:1004000001FA02F120FA0CFCDCBF41EA0C01904039
:10041000E41AA2BF01EB0451294330BD6FEA040482
:100420001F3C1CDA0C340EDC04F11404C4F120026D
:1004300020FA04F001FA02F340EA030021FA04F37F
:1004400045EA030130BDC4F10C04C4F1200220FAD6
:1004500002F001FA04F340EA0300294630BD21FA14
:1004600004F0294630BD94F0000F83F4801306BFDA
:1004700081F480110134013D4EE77FEA645C18BFCE
:100480007FEA655C29D094EA050F08BF90EA020F65
:1004900005D054EA000C04BF1946104630BD91EA5D
:1004A000030F1EBF0021002030BD5FEA545C05D160
:1004B0004000494128BF41F0004130BD14F580049F
:1004C0003CBF01F5801130BD01F0004545F0FE4113
:1004D00041F470014FF0000030BD7FEA645C1ABF48
:1004E000194610467FEA655C1CBF0B46024650EA7F
:1004F000013406BF52EA033591EA030F41F40021AB
:1005000030BD00BF90F0000F04BF0021704730B530
:100510004FF4806404F132044FF000054FF0000105
:1005200050E700BF90F0000F04BF0021704730B5C6
:100530004FF4806404F1320410F0004548BF40429B
:100540004FF000013EE700BF42004FEAE2014FEAF0
:1005500031014FEA02701FBF12F07F4393F07F4FCB
:1005600081F06051704732F07F4208BF704793F0CE
:100570007F4F04BF41F40021704730B54FF46074E1
:1005800001F0004521F000411CE700BF50EA0102E4
:1005900008BF704730B54FF000050AE050EA01028D
:1005A00008BF704730B511F0004502D5404261EBFD
:1005B00041014FF4806404F132045FEA915C3FF43E
:1005C000D8AE4FF003025FEADC0C18BF03325FEADB
:1005D000DC0C18BF033202EBDC02C2F1200300FA8C
:1005E00003FC20FA02F001FA03FE40EA0E0021FAB1
:1005F00002F11444BDE600BF70B54FF0FF0C4CF49F
:10060000E06C1CEA11541DBF1CEA135594EA0C0F50
:1006100095EA0C0F00F0DEF82C4481EA030621EA8B
:100620004C5123EA4C5350EA013518BF52EA0335C6
:1006300041F4801143F4801338D0A0FB02CE4FF078
:100640000005E1FB02E506F00042E0FB03E54FF0A8
:100650000006E1FB03569CF0000F18BF4EF0010EA0
:10066000A4F1FF04B6F5007F64F5407404D25FEA9C
:100670004E0E6D4146EB060642EAC62141EA55514F
:100680004FEAC52040EA5E504FEACE2EB4F1FD0C91
:1006900088BFBCF5E06F1ED8BEF1004F08BF5FEA0F
:1006A000500E50F1000041EB045170BD06F00046C1
:1006B00046EA010140EA020081EA0301B4EB5C046E
:1006C000C2BFD4EB0C0541EA045170BD41F4801166
:1006D0004FF0000E013C00F3AB8014F1360FDEBF8B
:1006E000002001F0004170BDC4F10004203C35DA67
:1006F0000C341BDC04F11404C4F1200500FA05F3EA
:1007000020FA04F001FA05F240EA020001F000428A
:1007100021F0004110EBD37021FA04F642EB060100
:100720005EEA430E08BF20EAD37070BDC4F10C042A
:10073000C4F1200500FA04F320FA05F001FA04F2EE
:1007400040EA020001F0004110EBD37041F10001DA
:100750005EEA430E08BF20EAD37070BDC4F12005E5
:1007600000FA05F24EEA020E20FA04F301FA05F24D
:1007700043EA020321FA04F001F0004121FA04F2F5
:1007800020EA020000EBD3705EEA430E08BF20EAC5
:10079000D37070BD94F0000F0FD101F000464000FF
:1007A00041EB010111F4801F08BF013CF7D041EA81
:1007B000060195F0000F18BF704703F00046520085
:1007C00043EB030313F4801F08BF013DF7D043EA56
:1007D0000603704794EA0C0F0CEA135518BF95EA0C
:1007E0000C0F0CD050EA410618BF52EA4306D1D193
:1007F00081EA030101F000414FF0000070BD50EAB2
:10080000410606BF1046194652EA430619D094EA3B
:100810000C0F02D150EA013613D195EA0C0F05D125
:1008200052EA03361CBF104619460AD181EA030179
:1008300001F0004141F0FE4141F470014FF0000031
:1008400070BD41F0FE4141F4780170BD70B54FF0CC
:10085000FF0C4CF4E06C1CEA11541DBF1CEA13554C
:1008600094EA0C0F95EA0C0F00F0A7F8A4EB05042E
:1008700081EA030E52EA03354FEA013100F0888025
:100880004FEA03334FF0805545EA131343EA1263EE
:100890004FEA022245EA111545EA10654FEA0026A3
:1008A0000EF000419D4208BF964244F1FD0404F55C
:1008B000407402D25B084FEA3202B61A65EB0305B8
:1008C0005B084FEA32024FF480104FF4002CB6EB75
:1008D000020E75EB030E22BFB61A754640EA0C00F5
:1008E0005B084FEA3202B6EB020E75EB030E22BF35
:1008F000B61A754640EA5C005B084FEA3202B6EB76
:10090000020E75EB030E22BFB61A754640EA9C0034
:100910005B084FEA3202B6EB020E75EB030E22BF04
:10092000B61A754640EADC0055EA060E18D04FEAC2
:10093000051545EA16754FEA06164FEAC30343EA62
:1009400052734FEAC2025FEA1C1CC0D111F4801F2F
:100950000BD141EA00014FF000004FF0004CB6E728
:1009600011F4801F04BF01430020B4F1FD0C88BFC7
:10097000BCF5E06F3FF6AFAEB5EB030C04BFB6EBD2
:10098000020C5FEA500C50F1000041EB045170BDC5
:100990000EF0004E4EEA113114EB5C04C2BFD4EBF2
:1009A0000C0541EA045170BD41F480114FF0000E76
:1009B000013C90E645EA060E8DE60CEA135594EAF2
:1009C0000C0F08BF95EA0C0F3FF43BAF94EA0C0FF5
:1009D0000AD150EA01347FF434AF95EA0C0F7FF46A
:1009E00025AF104619462CE795EA0C0F06D152EABE
:1009F00003353FF4FDAE1046194622E750EA4106A2
:100A000018BF52EA43067FF4C5AE50EA41047FF4B2
:100A10000DAF52EA43057FF4EBAE12E74FF0FF3C17
:100A200006E000BF4FF0010C02E000BF4FF0010CE8
:100A30004DF804CD4FEA410C7FEA6C5C4FEA430C61
:100A400018BF7FEA6C5C1BD001B050EA410C0CBFB0
:100A500052EA430C91EA030F02BF90EA020F002012
:100A6000704710F1000F91EA030F58BF994208BF79
:100A700090422CBFD8176FEAE37040F00100704736
:100A80004FEA410C7FEA6C5C02D150EA013C07D18D
:100A90004FEA430C7FEA6C5CD6D152EA033CD3D0D8
:100AA0005DF8040B704700BF8446104662468C46D2
:100AB0001946634600E000BF01B5FFF7B7FF002805
:100AC00048BF10F1000F01BD4DF808EDFFF7F4FF2E
:100AD0000CBF012000205DF808FB00BF4DF808EDB9
:100AE000FFF7EAFF34BF012000205DF808FB00BFDC
:100AF0004DF808EDFFF7E0FF94BF012000205DF8FE
:100B000008FB00BF4DF808EDFFF7CEFF94BF0120B2
:100B100000205DF808FB00BF4DF808EDFFF7C4FFAB
:100B200034BF012000205DF808FB00BF4FEA410CF4
:100B30007FEA6C5C02D150EA013C0AD14FEA430CD7
:100B40007FEA6C5C02D152EA033C02D14FF0000014
:100B500070474FF0010070474FEA410212F5001252
:100B600015D211D56FF47873B3EB625212D94FEAF4
:100B7000C12343F0004343EA505311F0004F23FADE
:100B800002F018BF404270474FF00000704750EA33
:100B9000013005D111F0004008BF6FF000407047F0
:100BA0004FF00000704700BF4A0011D212F500124A
:100BB00011D20DD56FF47873B3EB62520ED44FEAB5
:100BC000C12343F0004343EA505323FA02F0704735
:100BD0004FF00000704750EA013002D14FF0FF3073
:100BE00070474FF0000070474FEA4102B2F1E04316
:100BF00024BFB3F5001CDCF1FE5C0DD901F0004C04
:100C00004FEAC0024CEA5070B2F1004F40EB830053
:100C100008BF20F00100704711F0804F21D113F17F
:100C20003872BCBF01F00040704741F480114FEAB8
:100C30005252C2F11802C2F1200C10FA0CF320FA41
:100C400002F018BF40F001004FEAC1234FEAD3235E
:100C500003FA0CFC40EA0C0023FA02F34FEA4303C8
:100C6000CCE77FEA625307D150EA01331EBF4FF051
:100C7000FE4040F44000704701F0004040F0FE406C
:100C800040F40000704700BF53B94AB9002908BFBB
:100C900000281CBF4FF0FF314FF0FF3000F0A6B925
:100CA000ADF1080C6DE904CE00F03CF8DDF804E08D
:100CB000DDE9022304B0704738B500220023044662
:100CC0000D46FFF70BFF28B920462946BDE83840FE
:100CD00000F00AB8204605F1004100F005F8404256
:100CE00061EB410138BD00BFD0B50C4B0022064678
:100CF0000F46FFF781FCFFF757FF0446FFF702FCA2
:100D0000074B0022FFF778FC02460B463046394677
:100D1000FFF7BAFAFFF748FF2146D0BD0000F03DCB
:100D20000000F0412DE9F047089E0D4604460F46AD
:100D3000002B4AD18A42944665D9B2FA82F343B174
:100D400002FA03FCC3F120029F4020FA02F217438B
:100D50009C404FEA1C4E1FFA8CF5B7FBFEF1220CAB
:100D60000EFB117742EA074201FB05F090420AD9D7
:100D70001CEB020201F1FF3780F01C81904240F22F
:100D8000198102396244121AA4B2B2FBFEF00EFBC2
:100D9000102244EA024400FB05F5A5420AD91CEBE7
:100DA000040400F1FF3280F00781A54240F2048183
:100DB0006444023840EA0140641B00211EB1DC405B
:100DC0000023C6E90043BDE8F0878B4208D9002E16
:100DD00000F0ED800021C6E900050846BDE8F08777
:100DE000B3FA83F1002949D1AB4202D3824200F227
:100DF000F880841A65EB030201201746002EE2D02A
:100E0000C6E90047DFE702B9FFDEB2FA82F3002B42
:100E100040F090808A1A4FEA1C471FFA8CFE01218D
:100E2000B2FBF7F507FB1520220C42EA00420EFB4D
:100E300005F0904208D91CEB020205F1FF3802D2FE
:100E4000904200F2CB804546121AA4B2B2FBF7F0F2
:100E500007FB102244EA02440EFB00FEA64508D917
:100E60001CEB040400F1FF3202D2A64500F2BB8065
:100E70001046A4EB0E0440EA05409FE7C1F12007AD
:100E80008B4022FA07FC4CEA030C05FA01F420FA25
:100E900007F3FD404FEA1C492343B5FBF9F81FFA5D
:100EA0008CFE09FB18551C0C44EA054408FB0EF5A2
:100EB000A54202FA01F200FA01F00BD91CEB04047E
:100EC00008F1FF3A80F08880A54240F28580A8F1C1
:100ED00002086444641B9DB2B4FBF9F309FB13449C
:100EE00045EA044403FB0EFEA64508D91CEB0404A6
:100EF00003F1FF356CD2A6456AD9023B644443EA4C
:100F00000843A3FB0295A4EB0E04AC42C846AE46D0
:100F100056D353D056B1B0EB080264EB0E0404FA7A
:100F200007F7CA40CC401743C6E9007418460021B1
:100F3000BDE8F087C3F1200102FA03FC20FA01F2B8
:100F400025FA01F19D402A434FEA1C471FFA8CFE07
:100F5000B1FBF7F007FB1015110C41EA054100FB4E
:100F60000EF58D4204FA03F408D91CEB010100F1DF
:100F7000FF382FD28D422DD902386144491B92B2DD
:100F8000B1FBF7F507FB151142EA014205FB0EF133
:100F9000914208D91CEB020205F1FF3816D29142AA
:100FA00014D9023D6244521A45EA004138E73146FD
:100FB000304608E73946E6E61046FBE64845A9D242
:100FC000B9EB020865EB0C0E013BA3E74546EAE7E7
:100FD0002B4694E74046D1E7D0467BE7023D62448A
:100FE00032E708460AE76444023842E7704700BF28
:100FF00010B582B00F48022402F082FF0E4A00941E
:1010000001230C210D4802F08BFF0D4805F076F905
:101010000C4801F0C9FC0C4800F0C4FA0B4800F081
:10102000DFFB0B4800F0D2FF0A4802B0BDE81040D9
:1010300002F076BF4415002074B8000888B8000894
:10104000EC1300209413002000150020BC14002095
:1010500078140020B0B8000808B5084C01F008FB6F
:1010600002F08EFB00F086FF01F064FD00F0B8FA9C
:1010700002F0CAFE204604F0C1F8EFE78813002012
:1010800008B501F0C1FA00F0BBFB00F049FB02F02B
:1010900063FB01F0C7FDBDE8084002F0F7BE00BFEA
:1010A0000C4B1A68036893420ED00B4A12689342A5
:1010B0000CD00A4A126893420AD0094A1268934235
:1010C00000D0704702F030BF01F0F8B900F0A0BBCB
:1010D00000F0E8BA78140020BC14002000150020AD
:1010E0004415002010B5044601F056FA204602F0DF
:1010F0003BFB1B48012104F077F8012811D0194A65
:101100001948138801339BB20021F92B1380018009
:1011100006D9164B11801A78012A19D000221A70AC
:1011200010BD114A0F4C138801339BB20021952B3F
:1011300021801380F4D90D4B11801A782AB90C49FB
:101140000C4C0A68207001320A6001221A7010BD2E
:101150000948084C0268217001320260DEE700BFD6
:101160000000024070020020720200206402002091
:1011700068020020000000206C020020014B18785B
:10118000704700BF0203002010B504462246034802
:10119000012104F02FF8024B1C7010BD000C02401E
:1011A000FE020020014B1878704700BFFE020020AD
:1011B00010B5084B084C86464FF0000C0A4683F8E1
:1011C00000C0206871460F2305F064FA003818BF8C
:1011D000012010BDF802002008030020014B187800
:1011E000704700BFFC0200202DE9F041504DDFF8B0
:1011F00078812C6814B9D8F800402C604D4F4E4EC1
:1012000000233B703378052B00F28280DFE803F087
:10121000233A47566303494B1B7833B14849494841
:1012200007F040FC08B106233370D8F800301B1BD0
:10123000B3F5967F444B1A7820D9022A5AD94349EC
:10124000434800220A70022102702A601A7032702C
:101250003970BDE8F0813F4A3F4B10683F4900229A
:101260001A700F23042205F015FA00284ED1D8F881
:10127000003001222B60344B32701A78022ADED8FB
:10128000BDE8F0812D4B1B78002BCED02C492D488A
:1012900007F008FC0028C8D002233370C5E72D4AA8
:1012A0002D4B10682E4900221A700F23042205F0DE
:1012B000F1F958BBD8F800300322DBE71F4B1B784D
:1012C000002BB2D01E491F4807F0ECFB0028ACD021
:1012D00004233370A9E71F4A1F4B106821490022DD
:1012E0001A700F23042205F0D5F978B9D8F8003028
:1012F0000522BFE701321649D2B21A70134A002301
:101300000B7013702B603370BDE8F0812C688CE794
:10131000D8F800000C4B0E4900222A601A70327077
:10132000B0F5967F4FF001023A700A70E5D890E769
:101330002C030020FB020020FA020020FF02002004
:10134000D8B800087802002026030020FC02002004
:101350000103002008030020F8020020D0B8000894
:10136000DCB80008E8B80008040300202DE9F04FBD
:10137000764DDFF82C822C688BB014B9D8F8004079
:101380002C60734F734E00233B703378052B00F2B3
:10139000CD80DFE803F02A42508997036E4B1B781B
:1013A0005BB16E496E4807F07DFB002800F0878036
:1013B00006226C4B327001221A70D8F800301B1BC9
:1013C000B3F5967F684B1A7822D9022A40F28580BD
:1013D0006449664800220A70022102702A601A706D
:1013E000327039700BB0BDE8F08F614A614B106804
:1013F000614900221A700F23042205F04BF90028DE
:1014000078D1D8F8003001222B60574B32701A780F
:10141000022ADDD80BB0BDE8F08F4F4B1B78002BB4
:10142000CBD056494E4807F03DFB8146002873D08B
:1014300002233370C1E75249494807F0D7FA5149AE
:1014400007F0D4FA4F49002007F0D0FA02AC034667
:1014500070B1DFF830B1A2460DF114094AF8043B2F
:101460005946002007F0C2FA034608B1CA45F5D133
:10147000049B454900934548DDE9022307F02CFA17
:10148000424A4349204607F027FA394B1868394B3E
:1014900000221A7021460F231E2205F0FBF848BBDC
:1014A000D8F800300322AFE72B4B1B78002B84D0F9
:1014B00038492B4807F0F6FA00283FF47EAF0423A2
:1014C00033707AE7344A13780133DBB2052B13709B
:1014D00012D90023137033706FE70132D2B21A7041
:1014E0002249204A00230B7013702B6033700BB01D
:1014F000BDE8F08F2C6860E71D4A1E4B1068274935
:1015000000221A700F23042205F0C4F80028F1D13C
:10151000D8F80030052277E71E49114807F0C2FAD3
:1015200000283FF44AAF86F8009046E7D8F800005C
:101530000D4B194C00210122B0F5967F3A703170A5
:10154000296019702170CAD84CE700BF2803002019
:10155000FD020020F9020020FF02002030B900083F
:1015600078020020FC020020250300200103002057
:1015700008030020F802002004B9000810B9000890
:10158000F4B800088CD20008F8B800080C0300205A
:1015900014B90008D8B800082403002024B90008B2
:1015A0000403002008B5094B09491860012205F021
:1015B0001FF9084B84460022074883F800C0012128
:1015C00003F018FE054B00221A7008BD0803002026
:1015D0007402002000030020000C0240FE020020E4
:1015E00010B5264C2378002B35D1254C2378012BC0
:1015F0000CD1244B1B78012B35D1234B1B78012BAD
:1016000015D0224B1B78012B19D110BD0122114698
:101610001F4803F0EFFD1F4B01221A70FFF7E4FD96
:101620002378012BE5D0184B1B78012BE9D11A4BFD
:101630001B78012BE9D0154B1B78012BE5D001223B
:101640001146134803F0D6FD124B01221A70BDE873
:101650001040FFF7C9BD114B11491868012205F070
:10166000C7F82070C1E701221146094803F0C2FD06
:10167000084B01221A70FFF779FEBEE70003002035
:10168000FB020020FD020020FC02002001030020DC
:10169000000C0240FE02002002030020080300208C
:1016A0007402002038B5154B02681B681968914216
:1016B00000D038BD124C134D227829781846531C9F
:1016C0002370114B99540122294605F091F80F4BD4
:1016D0000F4A18700F4B12681A6094F900200E49D7
:1016E00000239A42B8BF23700B700C4B1B78012B60
:1016F000DFD12878BDE8384002F0DEBB08030020C7
:10170000F80200207402002078020020000300206C
:10171000040300201C030020FF020020FC02002024
:101720001B4A1C4813680168013310B5136011B1DE
:101730005B1A042B13D81848022103F055FD012829
:1017400018D0164A1648138801339BB20021182B73
:101750001380018002D9134B1180197010BD124AF9
:10176000012100231170036002210B4803F03CFDAE
:101770000128E6D10A4A094C138801339BB20021A3
:10178000182B21801380E9D9064B1180187010BDE9
:10179000040300201C030020000C02402003002052
:1017A0002203002002030020FF0200200B4B93F8CD
:1017B0002920022A02D993F8282032B900220023D6
:1017C000C0E90023C1E90023704793ED027B80ED5F
:1017D000007BD3E90623C1E90023704730030020D2
:1017E00008B5044B04491860012205F001F8034BC9
:1017F000187008BD1004002009040020080400200F
:10180000024A136801331360704700BF0C040020C4
:1018100038B5204B1C68036822689A4200D038BD56
:101820001D4D1E4829781E4B662202FB010293F8CB
:1018300000C092F8643002F803C00133DBB2BCF19F
:101840000A0F82F8643018D00E290AD8662303FBE9
:10185000010090F86430632B07D9002380F86430CE
:1018600003E00F2904BF00232B700D4901222046FD
:1018700004F0BEFF0B4B187038BD134413F8023C44
:101880000D2BE1D10131C9B20123297082F86530F5
:10189000DAE700BF100400200E0A00201404002024
:1018A00009040020080400202DE9F04F2DED028BE3
:1018B0000C4683B02C2107F07AF8451C284605F029
:1018C000CDF92C212060284607F071F810F8013F6F
:1018D00023712C2107F06BF80130019005F0B4F969
:1018E0000198B0EE408AF0EE608A84ED020B2C2164
:1018F00007F05DF8B0EE480AF0EE680A46782C2E44
:101900009FED731B054600F0C08009F067FE72A3CF
:10191000D3E9002351EC180B59EC108BFEF76CFE49
:10192000FFF742F9C0B2FEF7EDFD6D4B82468B46E4
:101930004FF0113240464946FEF75EFE0B46024626
:1019400059465046FEF7A2FC06F0FB03532B02D18A
:1019500001F100431946C4E9020126742C21681CD8
:1019600007F025F8451C284605F071F910EE100A1D
:10197000FEF7EAFD06460F462846C4E906672C2115
:1019800007F015F890F80180B8F12C0F9FED501B6F
:1019900047EC106B054656D009F020FE4EA3D3E964
:1019A0000023304639465BEC10ABFEF725FEFFF70F
:1019B000FBF8C0B2FEF7A6FD494B06460F464FF0B6
:1019C000113250465946FEF717FE0B46024639467D
:1019D0003046FEF75BFC08F0FB03532B02D101F10C
:1019E00000431946C4E9060184F820802C21681CB4
:1019F00006F0DDFF0130019005F029F92C21019856
:101A000084ED090A06F0D3FF013005F020F9D4E98E
:101A10000C32217984ED0A0A013342F10002412996
:101A2000C4E90C320AD10FCC2E4D0FC50FCC0FC517
:101A30000FCC0FC594E8030085E8030003B0BDECAC
:101A4000028BBDE8F08F09F0C9FD23A3D3E9002381
:101A5000304639465BEC10ABFEF7CEFDFFF7A4F83D
:101A6000C0B2FEF74FFD1E4B06460F465046594684
:101A70004FF01132FEF7C0FD02460B4630463946A4
:101A80004FF03F08FEF702FCACE709F0A7FD12A3F8
:101A9000D3E9002351EC180B5BEC10ABFEF7ACFD67
:101AA000FFF782F8C0B2FEF72DFD0D4B8046894648
:101AB000504659464FF01132FEF79EFD02460B4646
:101AC000404649463F26FEF7E1FB44E7AFF300807E
:101AD00000000000000059407B14AE47E17A843FCB
:101AE0001111913FD00300202DE9F04F2DED028B15
:101AF0000C4683B02C2106F05AFF451C284605F001
:101B0000ADF82C212060284606F051FF01300190ED
:101B100005F09AF80198B0EE408AF0EE608A84ED04
:101B2000020B2C2106F043FFB0EE480AF0EE680AE3
:101B300046782C2E9FED7E1B054600F0B38009F001
:101B40004DFD7DA3D3E9002351EC180B59EC108B0C
:101B5000FEF752FDFFF728F8C0B2FEF7D3FC784B32
:101B600082468B464FF0113240464946FEF744FD0F
:101B70000B46024659465046FEF788FB06F0FB032B
:101B8000532B02D101F100431946C4E90201267426
:101B90002C21681C06F00BFF451C284605F057F861
:101BA00010EE100AFEF7D0FC06460F462846C4E9A0
:101BB00006672C2106F0FBFE90F80180B8F12C0F8F
:101BC0009FED5B1B47EC106B054600F08C8009F025
:101BD00005FD59A3D3E90023304639465BEC10AB31
:101BE000FEF70AFDFEF7E0FFC0B2FEF78BFC544B98
:101BF00006460F464FF0113250465946FEF7FCFCA0
:101C00000B46024639463046FEF740FB08F0FB0320
:101C1000532B02D101F100431946C4E9060184F8AF
:101C200020802C21681C06F0C2FE451C284605F0C9
:101C300011F82C2184F82800284606F0B8FE451C2F
:101C4000284605F007F82C2184F82900284606F0DC
:101C5000AEFE0130019004F0FAFF2C21019884EDD2
:101C60000B0A06F0A4FE013004F0F1FFD4E90C32B7
:101C700094F8281084ED090A013342F10002C4E906
:101C80000C3251B10FCC2F4D0FC50FCC0FC50FCC5F
:101C90000FC594E8030085E8030003B0BDEC028B98
:101CA000BDE8F08F09F09AFC23A3D3E9002351EC9F
:101CB000180B5BEC10ABFEF79FFCFEF775FFC0B294
:101CC000FEF720FC1E4B80468946504659464FF091
:101CD0001132FEF791FC02460B46404649463F262C
:101CE000FEF7D4FA51E709F079FC13A3D3E90023F6
:101CF000304639465BEC10ABFEF77EFCFEF754FF36
:101D0000C0B2FEF7FFFB0E4B06460F465046594643
:101D10004FF01132FEF770FC02460B463046394652
:101D20004FF03F08FEF7B2FA77E700BFAFF300804D
:101D300000000000000059407B14AE47E17A843F68
:101D40001111913F8003002070B50E4682B02C2106
:101D500006F02DFE10F8013F33702C2106F027FE0F
:101D6000441C204604F076FF0C25707000E0441CF3
:101D70002C21204606F01BFE6B1E13F0FF05F6D14A
:101D80002C21013006F013FE0130019004F05FFFBA
:101D9000019886ED010A2C2106F009FE0130019020
:101DA00004F055FF2C21019886ED020A06F0FFFD94
:101DB000013004F04CFFD6E90432717886ED030A55
:101DC000013342F100020129C6E9043206D90FCEDF
:101DD000034C0FC496E8030084E8030002B070BD12
:101DE000B80300202DE9F04F564C574FDFF87C9197
:101DF000DFF87C8183B004F2FA5602E06634B44224
:101E00007DD094F86530002BF8D049464FF0000B98
:101E1000204687F800B006F0E9FD0546C8F8000046
:101E2000FEF726FA494B8DF806B05FFA80FAAAF160
:101E300003011B88ADF8043001297BDDAAF11003F2
:101E4000F22B63D85B46AAF1040C4FEA9C0B6A1C88
:101E50009E4652F8040B01335B4580EA0E0EF8D320
:101E6000CEF30722CEF307438EEA02025A400CF06B
:101E7000FC0382EA1E62581C1CF0030FD2B2C0B2EF
:101E80000ED0285C4240981CC0B2884208DA033366
:101E9000285CDBB2994282EA000201DDEB5C5A4029
:101EA00055442B4901A806F017FD9DF8042015F8AC
:101EB000023C9A4226D19DF8052015F8013C9A4231
:101EC00020D1D8F8005023490123042228463B7032
:101ED00006F07AFD20B320490422284606F074FD5E
:101EE00018B31E490422284606F06EFD20B30023D5
:101EF000A4F8643066340222B4423A7081D103B04F
:101F0000BDE8F08F0023A4F8643077E75A46012338
:101F1000E85C0133DBB28B4282EA0002F8DBBFE708
:101F20000F492846FFF710FFE1E70E492846FFF763
:101F3000DBFDDCE75A46B3E70B492846FFF7B4FC64
:101F4000D5E700BF140400200100002070B800088D
:101F500044B900084CB9000854B900085CB900083D
:101F60006803002030030020180A002008D1000870
:101F7000100A002010B5094C23781BB9BDE81040A9
:101F8000FFF730BF064B07491868012204F030FC08
:101F90002070BDE81040FFF725BF00BF08040020F7
:101FA0001004002009040020014B1878704700BF7E
:101FB000560A0020014B1870704700BF560A0020D7
:101FC000014B1878704700BF6C0A002070B5254C93
:101FD00025492060012204F00BFC244B244D18708D
:101FE000244B254800214FF400721970298006F017
:101FF000D6FC2249206828230C2204F04BFB30B980
:102000001F4801F08DFF4FF4FA7002F021FD1D4CC6
:102010001D481D4D0122102103F0ECF8266806E052
:1020200002F016FD23689B1BB3F5487F15D22021D3
:10203000284603F0D9F8034601208342F0D1134823
:1020400001F06EFF10480022102103F0D3F8BDE824
:1020500070404FF47A7002F0FBBC0D4801F060FF55
:10206000EDE700BF680A00207E0A0020540A002025
:102070007C0A00206C0A0020800A002064B9000855
:1020800074B90008580A002000100240ACB90008DA
:1020900090B900082DE9F0419E4D9F4F2C6882B009
:1020A0000CB93C682C60DFF8BC829C4E002388F899
:1020B00000303378112B00F2AE81DFE813F02E00F0
:1020C0004D005B006A017A01F70007011C01550110
:1020D00070007F009300A000B400C100D600E200B1
:1020E00012008F4B1B78002B40F080818D4B39689C
:1020F0000C1BB4F5FA7F29D31A78022A40F26E81BC
:102100008948002202212A601A70327088F8001073
:1021100002B0BDE8F04101F003BF844B84480021C8
:1021200019807F4B4FF40072197006F038FC814B18
:10213000814918680622282304F0ACFA00282CD123
:1021400033783A682A6001333370764B1A78022A62
:10215000D6D802B0BDE8F081714B1B78002BC5D0FA
:102160007649734806F09EFC0028BFD002233370E6
:102170006C4BBCE76D4B6E4800211980684B4FF4E7
:102180000072197006F00BFC6A4B6D4918680B223F
:10219000282304F07FFA0028D2D02C68A6E7604BF1
:1021A0001B78002BA2D06749614806F07BFC002811
:1021B00000F02E810A2333705A4B98E75B4B5C4842
:1021C00000211980564B4FF40072197006F0E7FB9E
:1021D000584B5D4918680D22282304F05BFA00284B
:1021E000AED0DAE74E4B1B78002B3FF47FAF53495C
:1021F0004F4806F057FC0C2333704A4B77E74B4BA4
:102200004B4800211980464B4FF40072197006F0BC
:10221000C6FB484B4D4918680A22282304F03AFAB5
:1022200000288DD0B9E73E4B1B78002B3FF45EAF02
:1022300042493F4806F036FC12233370394B56E7CB
:102240003A4B3B4800211980354B4FF4007219700E
:1022500006F0A5FB374B3E4918680B22282304F0F3
:1022600019FA00283FF46CAF97E72D4B1B78002B31
:102270003FF43CAF31492E4806F014FC002845D10C
:1022800034E72A4B2A4800211980254B4FF400726D
:10229000197006F084FB274B2E4918680C2228235E
:1022A00004F0F8F900283FF44BAF76E71C4B1B789D
:1022B000002B3FF41BAF28491D4806F0F3FB002814
:1022C0003FF414AF06233370164B10E7174B184832
:1022D00000211980124B4FF40072197006F05FFB59
:1022E000144B1E4918680A22282304F0D3F9002849
:1022F0003FF426AF51E70A4B1B78002B3FF4F6AEB4
:1023000017490B4806F0CEFB002877D0082333701E
:10231000044BECE6500A0020580A0020820C0020F2
:102320006C0A00207A0A00207CBA00087C0A00208F
:10233000800A0020680A0020C4B90008D8B8000844
:10234000CCB9000828BA000844BA000854BA0008FA
:1023500010BA000834BA0008E4B90008ECB9000863
:10236000F8B90008560A0020324B33480021198082
:10237000324B4FF40072197006F011FB304B3149AB
:1023800018680B22282304F085F900283FF4D8AE02
:1023900003E72A4B1B78002B3FF4A8AE2A492648B6
:1023A00006F080FB00283FF4A1AE04233370274BD6
:1023B0009DE6204B204800211980204B4FF40072ED
:1023C000197006F0ECFA1E4B214918680A222823DE
:1023D00004F060F900283FF4B3AEDEE601321A7073
:1023E00000232960337002B0BDE8F081164912481D
:1023F00006F058FB00287FF4DDAE77E615490E485D
:1024000006F050FB002881D10E2333700F4B6EE68F
:1024100010233370C1E60D4B0F48019300221A7050
:102420002A603270012288F8002001F079FD2C68C2
:10243000019B5CE67C0A0020800A00206C0A0020D8
:10244000680A00201CBA0008D8B800087A0A0020E0
:10245000D8B9000804BA000860BA000838B50D4BB6
:102460000D4D002104464FF400720C48298019706C
:1024700006F095FA2046FDF7FBFE0949024628239F
:10248000086892B2214604F005F9003818BF01200F
:1024900038BD00BF6C0A00207C0A0020800A0020A2
:1024A000680A0020014608B5034806F0FBFA003828
:1024B00018BF012008BD00BF800A00200E4B026833
:1024C0001B681968914200D0704710B50B4C0C493D
:1024D00022881846531C23800A4B0C789C540122F6
:1024E00004F086F9084A094C1168094B2070002253
:1024F000C3E9001210BD00BF680A00207C0A00205A
:102500007E0A0020800A0020580A0020540A002079
:10251000700A00202DE9F8431B4B8D090024A1EB24
:1025200085111C80194B0646CFB219481C704FF418
:10253000007221464FEA851906F031FA0DB3DFF833
:102540005480D8F8000006EB84111E230134402289
:1025500004F0A0F8E3B2AB421C46F2D327B900382E
:1025600018BF0120BDE8F8830A4A1E23106806EB55
:1025700009013A4604F08EF8003818BF0120BDE882
:10258000F8832846EAE700BF7C0A00206C0A002096
:10259000800A0020680A0020154A1648D2E9003156
:1025A000013310B541F100042021C2E9003402F0EA
:1025B0001BFE01280DD0104A1048138801339BB22E
:1025C0000021962B1380018002D90D4B11801970C8
:1025D00010BD0A4A084C138801339BB20021962B88
:1025E00021801380F4D9064B1180187010BD00BFF4
:1025F000600A002000100240780A0020800C0020B1
:10260000550A00200000000010B41149114CD1E916
:10261000000223680133236050EA020406D01B1A2B
:1026200062EB42020A2B72F1000202D25DF8044B07
:1026300070479FED057B084B01221A7081ED007BEE
:102640005DF8044B704700BF000000000000000070
:10265000700A0020580A00206C0A0020024B03492F
:102660001A8806F0ABBA00BF7C0A0020800A00205E
:1026700038B51A4B1B78012B17D0002401221021EA
:102680001748184D02F0B6FD20462C7000F0DEFA17
:10269000204600F0CFFA2046134C00F0D1FA237800
:1026A0006BB92B78012B14D138BD0F4C0C480D4D54
:1026B0000022102102F09EFD2378002BF1D00B4B5D
:1026C0000B491868012204F093F82B782070012B35
:1026D000EAD0BDE83840FFF7DDBC00BF550A002056
:1026E00000100240560A0020540A0020680A002008
:1026F0007E0A002010B50C4682B0014658224E4892
:1027000006F05CFAE37822784C4822F00F0203F0DE
:1027100007034FF0200C1343082100228DF807C057
:102720008DF8063002F066FD0A2301220DF1070143
:10273000414803F03BF90A2301220DF106013E480E
:1027400003F034F93D480122082102F053FDA3783B
:1027500062783A4802F03802242123F03F03134301
:102760008DF80710002208218DF8063002F042FD96
:102770000A2301220DF107012F4803F017F90A235C
:1027800001220DF106012C4803F010F92B4801221B
:10279000082102F02FFD2379FBB96378202B15D88F
:1027A000DFE803F03E141414141414144214141427
:1027B00014141414461414141414141411141414AA
:1027C000141414143A001E4B1E4A1A601B480122AE
:1027D000082102F00FFD02B010BD88238DF80630ED
:1027E00016482323002208218DF8073002F002FD4D
:1027F0000DF107010A2301220F4803F0D7F80DF16C
:10280000060101220A230C4803F0D0F80B480122EC
:10281000082102F0EFFCC0E7094B0B4A1A60D5E72C
:10282000074B0A4A1A60D1E7054B094A1A60CDE7FF
:10283000034B084A1A60C9E7900C002000100240C0
:10284000100000208FC2753E48E13A3F8FC2753DAF
:102850008FC2F53DEC51383E2DE9F043494E4A4FC9
:1028600089B0A8233046002208218DF8143002F0E8
:10287000C1FC05A90A230122384603F097F80A2370
:1028800005A90222384603F039FB3046012208210F
:1028900002F0B0FC3046AA23002208219DF8144023
:1028A0009DF815908DF8143002F0A4FC05A90A23B8
:1028B0000122384603F07AF80A2305A90222384695
:1028C00003F01CFB30460122082102F093FC304645
:1028D000AC23002208219DF814509DF815808DF836
:1028E000143002F087FC05A90A230122384603F0C0
:1028F0005DF805A90A233846022203F0FFFA3046A4
:102900000122082102F076FC9DF815109DF8143084
:102910001E4A05EB082592ED006A1D4A03EB0123D0
:102920001C49D2ED005AD1ED004A1B4A1B4992EDD9
:10293000000A91ED005A1A4A1A4992ED001AD1ED97
:10294000000A2DB207EE105A04EB092424B21BB280
:10295000F8EEC76A07EE904A07EE103A66EE255A7F
:1029600026EE055AF8EEE77AB8EEC77A26EE246A24
:10297000D6EE850A97EE061A97EEA50A09B0BDE8CD
:10298000F08300BF00100240900C002010000020D7
:10299000040000200C000020840C0020080000200F
:1029A0008C0C0020880C00200F49104A08B5012328
:1029B0000A600B71FFF79EFE0D4B0E4A1A600E491E
:1029C0000E4B0F480F4ADFF850E01A60C1F800E0E4
:1029D000DFF848C00C490D4B0D4AC0F800C00D4847
:1029E00008601A6008BD00BFEC0C00206020C00722
:1029F000840C0020000020C1880C0020080000206A
:102A0000040000202F8B783F8C0C00200C0000204D
:102A1000BC9C823F0000704200002041FD4A813F83
:102A200001EB41012DE9F84300EB8106D6ED007A78
:102A30003B4FF0EEE77A17EE900AA6F10C0415462C
:102A4000FDF782FDD4ED007AF0EEE77A804617EECE
:102A5000900A8946FDF778FD02460B4640464946F6
:102A6000FDF712FC21F000430246C7E90023194696
:102A700000222C4BFEF750F810B12B8801332B802D
:102A8000D6ED017A284FF0EEE77A17EE900AFDF7BF
:102A90005BFDD4ED017AF0EEE77A804617EE900AFE
:102AA0008946FDF751FD02460B4640464946FDF773
:102AB000EBFB21F000430246C7E900231946002240
:102AC000184BFEF729F810B16B8801336B80D6EDF7
:102AD000027AF0EEE77A17EE900AFDF735FDD4EDB5
:102AE000027AF0EEE77A064617EE900A0F46FDF7F7
:102AF0002BFD02460B4630463946FDF7C5FB0B4B16
:102B000021F000470646C3E900670022084B39461A
:102B1000FEF702F810B1AB880133AB80BDE8F88353
:102B2000600F002000004440680F0020700F00205C
:102B30000000494070B582B0A72333488DF80430B7
:102B40000022082102F056FB0A23012201A92F4886
:102B500002F02CFF0A23012201A92C4803F0CEF930
:102B600001222948082102F045FB9DF80430284A3B
:102B700013701B0701D402B070BD264D264E2C7871
:102B8000FFF76AFE297804EB440406EB840401296C
:102B900084ED000AC4ED010A84ED021A11D8013156
:102BA000C9B231290AD91D4A13780133DBB2002199
:102BB000022B29700FD8137002B070BD297002B0BB
:102BC00070BD174A3046FFF72BFF29780131C9B293
:102BD0003129E8D8F2E7124B11701A880A2A02D973
:102BE0009A7901329A715A880A2A02D9DA7901321D
:102BF000DA719A880A2A02D91A7A01321A720022E4
:102C00001A609A80B7E700BF00100240900C0020C5
:102C10005A0F00204C0F0020F40C0020E80C00207C
:102C2000500F0020024A136801331360704700BF41
:102C30005C0F0020014B1870704700BF7A0F002016
:102C4000014B1870704700BF790F0020014B1870BE
:102C5000704700BF780F00202DE9F84F584EDFF87D
:102C600070913568DFF86CA10024032C00F0998086
:102C70004846FFF7F3FB78B133685A1BB2F5C87FBB
:102C8000F6D31D460134042CEFD101274D4801F045
:102C900047F93846BDE8F88F3768FFF791F940B932
:102CA0003568EB1BB3F5C87FECD2FFF789F9002834
:102CB000F6D05046FFF7F6FB002860D03568EB1BD6
:102CC000B3F5C87FDED2DFF810814046FFF7C6FBC0
:102CD00048B13568EB1BB3F5C87FD3D24046FFF748
:102CE000BDFB0028F5D1D6F80080FFF769F948B997
:102CF0003568A5EB0803B3F5C87FC3D2FFF760F9C9
:102D00000028F5D05046FFF7CDFB002843D03568AA
:102D1000A5EB0803B3F5C87FB4D2DFF8C0B05846BE
:102D2000FFF79CFB074658B13568A5EB0802B2F5E2
:102D3000C87FA7D25846FFF791FB07460028F3D17A
:102D4000D6F80080FFF73CF948B93568A5EB0803D1
:102D5000B3F5C87F96D2FFF733F90028F5D0504677
:102D6000FFF7A0FB88B13568A5EB0808B8F5C87F68
:102D700088D2154801F0D4F83846BDE8F88F1348DA
:102D8000FFF790FB002899D18AE71048FFF78AFBEC
:102D90000028E8D1D9E70D48FFF784FB0028B6D119
:102DA000A6E74846FFF75AFB00283FF46EAF3368AA
:102DB0005D1BB5F5C87FFFF468AF1D4662E700BF35
:102DC000900F002028CB000800CB0008B0CA0008F4
:102DD00090CA0008D8B80008B8CA0008DCCA0008C1
:102DE0002DE9F04F9D4D9E4F2B68DFF88482DFF870
:102DF00084A283B0002438460193FFF72FFB019B88
:102E000080B9032C2E6815D0DFF86C92FFF7D8F844
:102E1000C0B92A68931BB3F5C87FF7D30134E4B275
:102E20001346E8E72A68D11AB1F5C87FC0F01281CD
:102E3000032CF3D18B4801F073F80126304603B020
:102E4000BDE8F08F4046FFF72DFB00285BD02A68D5
:102E5000931BB3F5C87FE1D2DFF8209240F2A44182
:102E60004846FFF757FB002858D12E68DFF810922C
:102E700004E02A68931BB3F5C87FCFD2FFF7A0F810
:102E80000028F6D04846FFF70DFB0028F1D02A684D
:102E9000931BB3F5C87FC1D2DFF8E8914846FFF72E
:102EA000DDFA002840D12E68DFF8CC91FFF788F8D2
:102EB00040B92A68931BB3F5C87FAFD2FFF780F8FB
:102EC0000028F6D04046FFF7EDFA002858D02A68CF
:102ED000931BB3F5C87FA1D2DFF8AC9140F2C34198
:102EE0004846FFF717FB28BBD5F800905E4EFFF76A
:102EF00067F828BB2B68A3EB0902B2F5C87FF6D3AD
:102F00000134E4B277E75046FFF7CCFA0028BED18F
:102F10004846FFF7C7FA0028B9D17AE72A68931B19
:102F2000B3F5C87F9AD379E72A68931BB3F5C87FB6
:102F3000B4D373E72B689A1BB2F5C87FE0D2CDE714
:102F40003046FFF7AFFA0028D4D02B68A3EB090274
:102F5000B2F5C87FD4D2DFF834B15846FFF77EFA15
:102F6000064628BBD5F80090DFF80CB1FFF728F82B
:102F700028BB2B68A3EB0902B2F5C87FC0D2F5E7E6
:102F80005046FFF78FFA38B12A68931BB3F5C87F14
:102F9000BFF444AF33462EE74846FFF783FA2B6869
:102FA0009A1B002851D0B2F5C87FA9D2334622E738
:102FB0002B68A3EB0902B2F5C87FA1D2CDE740464A
:102FC000FFF770FAB0B32B68A3EB0902B2F5C87F24
:102FD00096D2DFF8BCB040F28F615846FFF79AFAFC
:102FE00068B9D5F80090DFF8ACB0FEF7E9FF70B92A
:102FF0002B68A3EB0902B2F5C87F81D2F5E72B68F5
:10300000A3EB0902B2F5C87FBFF47AAFE3E75846F5
:10301000FFF748FA0028EBD02B68A3EB0909B9F5B4
:10302000C87FBFF46DAF114800F07AFF304603B09F
:10303000BDE8F08F5046FFF735FA0028ECD158462E
:10304000FFF730FA0028E7D193E7B2F5C87FBFF465
:1030500057AF2BE7032C7FF4CEAEEBE6900F0020AA
:1030600050CB00087CCB000810CC00086CCC0008CA
:10307000A4CB0008ACCB0008BCCB000898BA000871
:10308000C8CB0008E0CB00083CBF000828CC0008F3
:1030900000C4000854CC00082DE9F041824CDFF850
:1030A00094822368814E002288F800200BB933688F
:1030B00023607F4D2B78112B00F2EA80DFE813F0BC
:1030C00030004300D000BC00C6009700A000A9005B
:1030D000B20053005B0064006C0075007D00860048
:1030E0008E001200734800F01BFFFEF769FF0028F6
:1030F00030D1714F32682368D31AB3F5FA7F1DD3EC
:103100003B78022B40F2BD800023022223603B70FB
:103110002B7088F800206948BDE8F04100F000BF3E
:10312000674800F0FDFE6748FFF798F90028E0D1F6
:103130002B783268604F226001332B703B78022B72
:10314000E2D8BDE8F081604800F0EAFEFEF738FF03
:103150000028CED05D48FFF7A5F90028C9D02B780C
:1031600001332B70C5E75A4800F0DAFEFEF728FF5E
:103170000028BED0EEE7574800F0D2FE5648FFF7D1
:103180006DF90028D4D0B4E7544800F0C9FEFEF72A
:1031900017FF0028ADD0DDE7514800F0C1FE5148CF
:1031A000FFF75CF90028C3D0A3E74F4800F0B8FE52
:1031B000FEF706FF00289CD0CCE74C4800F0B0FE9C
:1031C0004B48FFF74BF90028B2D092E7494800F08E
:1031D000A7FEFEF7F5FE00288BD0BBE7464800F0BF
:1031E0009FFE4648FFF73AF90028A1D081E74448FE
:1031F00000F096FEFEF7E4FE00283FF47AAFA9E760
:10320000404800F08DFE4048FFF728F900288FD095
:103210006FE73E4800F084FEFEF7D2FE00283FF440
:1032200068AF97E73A4800F07BFE3A48FFF716F997
:1032300000283FF47DAF5CE7374800F071FEFFF7F0
:10324000CFFD00283FF474AF344812E0344800F05A
:1032500067FE3448FFF702F900283FF469AF48E7FA
:10326000314800F05DFEFFF7F7FC00283FF460AF47
:103270002E4800F055FE12232B70022388F80030F0
:1032800037E701333B70002322602B70BDE8F081EB
:10329000094F2748002323602B703B70012388F8D7
:1032A000003000F03DFE25E7840F0020900F002045
:1032B0002410002084CF000820100020BCCF00087C
:1032C00094CC0008A0CC0008B8CC0008D8B80008FE
:1032D00034CE00084CCE000860CE00087CCE00083A
:1032E00098CE0008B0CE0008D0CE0008ECCE000882
:1032F00004CF00082CCF000848CF000864CF000896
:1033000078CD000890CD0008A4CD0008D8CD0008E5
:10331000F0CD000804CE000804CD00081CCD000844
:1033200038CD00084CCD0008CCCC0008E4CC000817
:10333000A4CF0008780F00202DE9F043DFF80881C2
:10334000374FD8F80030374E002291B081463A709E
:1033500013B93368C8F800300024334D00943C2280
:10336000214601A805F01BFB2B78012B31D0022B45
:1033700029D0ABB12C70C8F80040336844F6E7623E
:103380001B1B934208D9002302222848C8F80030AA
:103390002B703A7000F0C4FD002011B0BDE8F0833E
:1033A0004946234800F0BCFD22494A46684605F0DC
:1033B00093FA6846FFF752F840B92B78D8F80040E6
:1033C00001332B70D9E7FEF7FBFDA8B9D8F8004010
:1033D000D3E74946184800F0A3FDFEF7F1FD0028A9
:1033E000F4D01648FFF75EF860B12B783268C8F861
:1033F000002001332B70CFE71148FFF753F838B99D
:103400003870E3E72870C8F8000038700446B4E765
:1034100003232B700B4801233B7000F081FDD5E79F
:10342000790F0020900F00202310002050D00008BA
:10343000D4CF0008F0CF000804D00008D8B80008A6
:103440001CD000082CD00008800F00202DE9F04788
:103450003A4B3B4EDFF8188100221A70336890B067
:1034600081468A4613B9D8F8003033600024354FBE
:1034700000943C22214601A805F091FA3D78012DE7
:1034800034D0022D2DD0A5B13C703460D8F8003076
:103490002D4A1B1B934208D92C4A2D480023022198
:1034A00033603B70117000F03BFD002010B0BDE8B0
:1034B000F08752464946274800F032FD26495346D8
:1034C0004A46684605F008FA2448694600F028FD97
:1034D0006846FEF7C3FF38B93B78346801333B7068
:1034E000D4E7FEF76DFD98B93468CFE71C4800F0CB
:1034F00017FDFEF765FD0028F6D01A48FEF7D2FF4B
:1035000068B13B78D8F80020326001333B70CCE7DB
:103510001548FEF7C7FF0D4B38B91870E4E70B4BA1
:103520003870306018700446B0E703223A700F48D4
:1035300001221A7000F0F4FCD6E700BF790F0020DA
:10354000880F002022100020BF2501007A0F0020E4
:103550000CD1000874D0000894D00008ACD000084A
:10356000C8D00008D8B80008DCD00008ECD00008AB
:10357000900F00202DE9F047DFF8D091644CDFF880
:10358000D0A1002389F800302368A0B007460E467A
:10359000154613B9DAF800302360DFF8B88100214E
:1035A0007C2201A8009105F0FAF998F80030042B6C
:1035B00000F2A880DFE803F01D32465E0300FEF74C
:1035C000FFFC002874D12068DAF8003044F6E76286
:1035D0001B1A934209D9002302224E48236088F81F
:1035E000003089F8002000F09BFC002020B0BDE8EE
:1035F000F0873946484800F093FC48493A46684607
:1036000005F06AF96846FEF729FF0028DBD198F833
:1036100000302068013388F80030D5E7404800F0DA
:103620007FFCFEF7CDFC0028CDD03E48FEF73AFFE8
:103630000028ECD1DAF8003088F80000236089F81F
:103640000000D2E71A2331467353374800F068FC74
:10365000691C89B23046FEF75DFFE0B1DAF8002060
:1036600022600023002088F8003089F8003020B064
:10367000BDE8F0872D4800F053FCFEF7A1FC0028C0
:10368000A1D02B48FEF70EFF50BB88F80000206049
:1036900089F8000098E798F800302648013388F848
:1036A0000030DAF80030236000F03AFC20688BE745
:1036B0002148FEF7F7FE68B1052388F800300123A2
:1036C00089F800301D4B1E4800221A7000F028FCBB
:1036D000206879E789F800001A4800F021FC72E7B9
:1036E00098F800301848013388F80030DAF80030D4
:1036F000236000F015FC1048FEF7D4FE00283FF4CC
:1037000062AFD9E7002088F8000020605CE700BFC6
:103710008C0F002064D200082CD1000848D100088A
:1037200064D100087CD1000880D10008D0D1000805
:10373000D8B800089CD1000814D200087C0F0020E3
:1037400024D2000844D20008ECD100087B0F0020EE
:10375000900F002021100020024A136801331360EB
:10376000704700BF900F0020044AD2E900310133B6
:1037700041F10001C2E90031704700BF980F0020FD
:1037800030B5514B1B78012B87B008D0FEF70CFCED
:1037900001283FD107B0BDE83040FFF77DBCFEF700
:1037A0000FFC00283CD1494B1B78012B47D1484BDB
:1037B0001B78012B4BD1474B474A19681368CB1A2A
:1037C000B3F57A7F20D3454C45482388116045499D
:1037D0000288454D013323800B88444C0132013B64
:1037E00002800B8034A3D3E90023D5E90001FCF764
:1037F0004DFD33A3D3E90023C5E90001D4E900015D
:10380000FCF744FDC4E90001394B1B78012B24D09F
:1038100007B030BD002007B0BDE83040FEF7CABB9E
:103820003448FEF73FFE0028BDD0334C2046FEF75B
:1038300015FF237B302BB6D0244B00221A702F4863
:1038400042F2B32107B0BDE83040FFF7FFBD2C487E
:1038500007B0BDE83040FFF76FBD234D234C29462C
:103860002046FDF7A3FF274B27491A88274805F074
:1038700033F895ED007BD4E900018DED047B194A06
:10388000174C164B128824881B880192CDE902013F
:103890001F4A20490094204805F01EF81E48FCF7F6
:1038A000E7FC1D49821C194892B207B0BDE83040C0
:1038B000FFF760BEAFF300804BB0389CF9D52C3FCA
:1038C0002D431CEBE2362A3F780F00207A0F0020B0
:1038D000790F0020900F00202812002018000020EF
:1038E0002C120020140000202800002020000020BE
:1038F0007C0F002084D20008A00F002090D2000886
:10390000C4D2000816000020CCD2000830120020DB
:1039100030000020E0D20008281000202DE9F043FC
:103920008C4D87B00024CDE90144CDE903440594D2
:103930002C70FDF753FC012809D087488749884A35
:10394000002303600B70137007B0BDE8F083FDF730
:1039500015FC01280646F0D1FDF724FC002840F0B4
:10396000DB807D4FDFF828923C6814B9D9F800401D
:103970003C60DFF8EC8198F80030092B00F2DB8026
:10398000DFE803F0B7A9958672634C3E2305754BBB
:103990001B783BB17449754805F084F810B10A23CF
:1039A00088F80030D9F800301B1BB3F5967F6B4BBD
:1039B00022D91E78022E40F2B380002202213A6002
:1039C0001A7088F800202970BEE7694B6748002408
:1039D000214680221C7004F0E2FF624B65481C7097
:1039E0000421FDF7E5FB00282DD1D9F8003007268A
:1039F0003B605A4B88F800601A78022AA4D9DCE7A9
:103A0000584B1B78002BCDD05B49584805F04AF83D
:103A10000028C7D0082388F80030C3E7524A574926
:103A200001A804F059FF0024514B50481C70214656
:103A3000802204F0B4FF4B4B01A804211C70FDF759
:103A4000B7FB0028D1D03C68ACE7464B1B78002B75
:103A5000A8D04949454805F025F80028A2D00623FA
:103A60003C6888F800309DE7414B404800242146DF
:103A700080221C7004F093FF3A4B41481C700421D3
:103A8000FDF796FB0028DED1D9F800300526AFE718
:103A9000344B1B78002B85D03749344805F002F8A9
:103AA00000283FF47FAF042388F800307AE7304BDA
:103AB0002E480024214680221C7004F070FF294B00
:103AC00030481C700421FDF773FB0028BBD1D9F8E6
:103AD000003003268CE7234B1B78002B3FF462AFAA
:103AE0002949224804F0DEFF10B3022388F8003091
:103AF00058E71F4B1D480024214680221C7004F00B
:103B00004EFF184B21481C700421FDF751FB002883
:103B100099D1D9F800306BE72046FDF735FB20E757
:103B20000136F6B200223A6088F800201E700BE7DA
:103B300088F8000036E7D9F80010084B00223A60F8
:103B40001A7088F80020B1F5967F4FF001022A70B4
:103B5000E8D8F9E6751200201013002003130020A6
:103B600006130020FD120020700000207C120020AF
:103B7000FC12002060D30008D8B8000854D3000815
:103B80004CD30008C4B9000844D300083CD3000853
:103B90007812002070B5404D88B02C680023CDE924
:103BA0000033CDE90233CDE904330693ADF81C3080
:103BB00014B93A4B1C682C60394E3378032B69D802
:103BC000DFE803F032491702364B1B78002B58D13F
:103BD000324B1B681B1BB3F5967F1ED9324B1A78EC
:103BE000022A46D900222A601A703270022008B0D8
:103BF00070BD2E4B2E480024214680221C7004F0FC
:103C0000CEFE284B2B481C700421FDF7D1FA00BBD7
:103C1000224A012312682A603370234B1A78022A41
:103C2000E0D8012008B070BD02462349684604F080
:103C300053FE00241D4B1E481C702146802204F0B8
:103C4000AEFE184B684604211C70FDF7B1FA00283F
:103C5000DED02C68BCE7134B1B78002BB8D017497B
:103C6000134804F01FFF0028B2D002232C683370E1
:103C7000AEE7002101320120296031701A7008B0CE
:103C800070BD0F490A4804F00DFF0028A0D004239E
:103C900033709DE70020AAE70C1300207812002063
:103CA00005130020FD12002002130020FC1200204A
:103CB0007C12002060D3000854D30008D8B8000854
:103CC000700000202DE9F041424E434A3568DFF88C
:103CD0003481002382B0CDE90033137015B9D8F8D0
:103CE000005035603D4F3C78BCB1012C40D03C4980
:103CF0003C4CD8F8000000230B703B492370336024
:103D00000B70C7284FF00203137003D90123002260
:103D10000B70326002B0BDE8F0813149334A0B7854
:103D200052F8232001330B706846314904F0D4FD6A
:103D30006846FCF79DFA2F4B054621462E481C701D
:103D4000802204F02CFE2D4BE9B268461C70FDF772
:103D50002FFA48BBD8F80020326001233B70224B79
:103D60001B78022B84BF02233B7002B0BDE8F081B8
:103D7000224B1B7873B122491F4804F093FE184B65
:103D8000F0B11A78042A11D8164A00233B70137830
:103D900001331370D8F800305B1BC72BDFD91249F1
:103DA0000B780133DBB2B2E73568F3E70D4A1278DE
:103DB000042AEFD902223A70002235681A70E9E726
:103DC000084A10701A78042A88BF187000233B70C4
:103DD000E0E700BF08130020741200200413002045
:103DE00000130020FF120020011300205C000020BF
:103DF00094D10008FC1200207C120020FD1200204B
:103E000068D300087812002010B5FDF7E7F920B359
:103E1000194B1A4C1A7812B92278012A07D00022BD
:103E20001A70FFF77BFD2378012B00D010BD144CD6
:103E30002378022B1CD1134A13481378082B8DBF0B
:103E40000023591CC9B2012150F823001170FFF75B
:103E5000A1FE0028EAD1207010BD074A1378002B7C
:103E6000E4D1064908780128E0D110700B7010BD2C
:103E7000BDE81040FFF726BF761200207512002023
:103E800074120020FE120020380000200749084864
:103E90000B68026801339A1AB2F5967F0B6004D35F
:103EA000044A01210023117003607047781200203A
:103EB00070120020FD12002010B40C4A0C4C117836
:103EC00060540C4C4B1C0C4924680C60DBB23E283F
:103ED000137004D1094801240470002008601B06F7
:103EE00044BF002313705DF8044B7047FC120020A0
:103EF0007C1200207812002070120020FD12002099
:103F000008B5044B04491860012202F071FC034B10
:103F1000187008BD581300205D1300205C130020AA
:103F20000FB4002004B0704738B50F4B02681B680F
:103F30001968914200D038BD0C4D0D4C0122294624
:103F4000184602F055FC22780A492B7808700A4876
:103F5000511CC9B20A2B83542170ECD1FDF728F90A
:103F60000023237038BD00BF581300205D130020CC
:103F7000541300205C1300201413002072B6BFF30A
:103F80004F8F0549054BCA6802F4E0621343CB60CA
:103F9000BFF34F8F00BFFDE700ED00E00400FA051E
:103FA00010B5002394B0CDE90933CDE90233CDE952
:103FB0000433234900930693086C224A40F0805052
:103FC0000864096C01F08051009100990193116817
:103FD00041F48041116012680F93012002F4804285
:103FE0001023CDE90B03019202240A220823CDE914
:103FF0000D04089210934022072308A8CDE911244C
:104000000199139301F000F980B99FED097B8DEDC3
:10401000027B9FED097B0346214602A88DED047BC0
:10402000069301F009FB08B914B010BDFFF7A6FF15
:104030000F0000000200000000000000001000005F
:10404000003802400070004080B500248CB000F0C1
:10405000D3FCFFF7A5FFCDE90744CDE90944B44BF4
:1040600001940B941A6BB34842F010021A631A6B56
:1040700002F010020192019A02941A6B42F00402BB
:104080001A631A6B02F004020292029A03941A6BEA
:1040900042F080021A631A6B02F080020392039AC4
:1040A00004941A6B42F001021A631A6B02F00102C7
:1040B0000492049A05941A6B42F002021A631A6B76
:1040C00002F002020592059A06941A6B42F0080269
:1040D0001A631B6B03F00803224618210693069B04
:1040E00001F088F822469448022101F083F8224624
:1040F00092484FF2110101F07DF803274FF6C57386
:104100008C48099407A9CDE907374FF0010800F062
:1041100049FF1826874807A9CDE90944CDE9076872
:1041200000F040FF20238348079307A9CDE9084406
:1041300000F038FF42F23D337F48079307A9CDE9ED
:1041400008744FF0020900F02DFF7B480A9407A97C
:10415000CDE90884CDF81C9000F024FF784809943C
:1041600007A9CDE9078400F01DFF48F212737448D7
:10417000079307A9CDE9087400F014FF4FF2F37319
:104180007048079307A9CDE90874042500F00AFFD9
:104190006C48079507A9CDE9084400F003FF40F6F5
:1041A000C8636648079307A9CDE9087400F0FAFED2
:1041B0004FF2110361480A9407A9CDE908840793D7
:1041C00000F0F0FE22235D48079307A9CDE90844DB
:1041D00000F0E8FE4FF488135648CDF81C9007A96C
:1041E0000994089300F0DEFE5748584B0461C0E97B
:1041F000024484614FF4E1370C244FF40049C0E9D4
:1042000000374461C0F81C9002F0AAF9002840F081
:104210008D804F4B4F4AC3F81C90C3E90170C3E92E
:104220000300C3E9054018461A6002F099F9002816
:104230007CD1DFF85091484BC9F800304FF4486307
:10424000CDE90700C9E90180C9F80C304846802350
:10425000C9F8183001F0C4FF0346002866D107A949
:104260004846CDE9073302F037F900285ED13B4BD1
:104270003B4AD861C3E90170C3E90300C3E90540C3
:1042800018461A6002F06CF900284FD1354BC3E98B
:104290000200C3E90404C3E9060033484FF4165290
:1042A000C3E90002184602F05BF9024600283DD13E
:1042B0002E48C0E90172C0E90322C0E90542C2618B
:1042C0002B4A026002F04CF980BB2A4B2A494FF47A
:1042D0008272C3E900124FF40072C3E90200C3E91D
:1042E0000400C3E90760C3E909009A6118460A227D
:1042F000DA6201F0F9FA0246C0B9204B20499A83EC
:104300004FF41020C3E900154FF480014FF0807482
:104310001861C3E905121846C3E9022400F0AAFB9C
:1043200020B9FCF765FEFCF797FEFEE7FFF726FED7
:10433000003802400010024000080240000C024019
:1043400000000240000402403414002000440040F9
:104350007814002000480040001000404415002060
:1043600000140140BC140020004C00400015002047
:1043700000500040941300200030014060130020E2
:1043800000640040EC13002082B00C4B002100912F
:104390005A6C42F480425A645A6C02F48042009291
:1043A000009A01911A6C42F080521A641B6C03F05F
:1043B00080530193019B02B0704700BF0038024058
:1043C00030B5294B026889B000249A42CDE90244F5
:1043D000CDE90444069401D009B030BD03F5EA33B9
:1043E00000941A6C214842F000721A641A6C02F0B0
:1043F00000720092009A01941A6B42F001021A6353
:104400001B6B03F0010301934FF4C0520223CDE96B
:10441000022302A909230322CDE90523019D00F00F
:10442000C1FD22462146132000F0FAFC132000F0C3
:1044300035FD22462146142000F0F2FC142000F045
:104440002DFD22462146152000F0EAFC152000F043
:1044500025FD22462146162000F0E2FC162000F041
:104460001DFD09B030BD00BF0064004000000240E7
:1044700010B51B4B026888B000249A42CDE9024473
:10448000CDE90444069401D008B010BD03F584338F
:1044900000945A6C134842F480525A645A6C02F4E5
:1044A00080520092009A01941A6B42F001021A6342
:1044B0001B6B03F001030193E0220223CDE90223E9
:1044C00002A905230693019A00F06CFD22462146BD
:1044D000232000F0A5FC232000F0E0FC08B010BD74
:1044E00000300140000002400E4B02689A4200D0AA
:1044F000704700B583B0002203F50A330192196CAE
:1045000041F0100119641B6C03F010030193362075
:104510001146019B00F084FC362003B05DF804EBEB
:1045200000F0BCBC001000402DE9F0410368924A45
:1045300092B000249342CDE90C44CDE90E4410948E
:1045400052D08E4A93427CD08D4A934200F0BB8079
:104550008C4A934206D08C4A934200F0E28012B01B
:10456000BDE8F081894B07941A6C894842F4802297
:104570001A641A6C02F480220792079A08941A6B44
:1045800002252A431A631A6B2A400892089A099452
:104590001A6B42F008021A631B6B0D9503F00803B7
:1045A00009934FF00108032707260CA94FF4006375
:1045B0000C93CDE90E87099B109600F0F3FC4FF4A5
:1045C00080730CA973480C93CDE90F760D95CDF847
:1045D000388000F0E7FC22462146272000F020FC2E
:1045E000272000F05BFCBAE7684B00941A6C6A481D
:1045F00042F400221A641A6C02F400220092009A1B
:1046000001941A6B42F004021A631B6B03F004035B
:1046100001934FF440620223CDE90C230CA9082337
:104620000322CDE90F23019D00F0BCFC2246214668
:10463000342000F0F5FB342000F030FC12B0BDE86F
:10464000F081524B02941A6C534842F480121A645F
:104650001A6C02F480120292029A03941A6B42F0CE
:1046600004021A631A6B02F004020392039A049480
:104670001A6B42F008021A631B6B03F008030493E1
:104680004FF48052032608250CA90223CDE90C2300
:10469000CDE90F65049B00F085FC04230CA90C9365
:1046A0003C48109502230D93CDE90E4600F07AFCAC
:1046B00022462146352000F0B3FB352000F0EEFB0A
:1046C00012B0BDE8F081314B05941A6C334842F4C6
:1046D00000321A641A6C02F400320592059A0694AC
:1046E0001A6B42F001021A631B6B03F0010306937D
:1046F0000C220223CDE90C2301220323CDE90E2352
:104700000CA907231093069D00F04CFC224621467D
:10471000262000F085FB262000F0C0FB12B0BDE88B
:10472000F0811A4B0A945A6C1B4842F020025A64DA
:104730005A6C02F020020A920A9A0B941A6B42F009
:1047400004021A631B6B03F004030B93C0220223C1
:10475000CDE90C230CA908230322CDE90F230B9DDF
:1047600000F020FC22462146472000F059FB47205C
:1047700000F094FBF3E600BF004C00400050004006
:10478000004400400048004000140140003802404E
:1047900000040240000C02400008024000000240F9
:1047A000BFF34F8F0549064BCA6802F4E06213431A
:1047B000CB60BFF34F8F00BFFDE700BF00ED00E00F
:1047C0000400FA0508B5FFF7EBFF00BF08B5FFF7D7
:1047D000E7FF00BFFEE700BF08B5FFF7E1FF00BF3E
:1047E00008B5FFF7DDFF00BF704700BF704700BF8F
:1047F000704700BF08B500F019F9BDE80840FCF7A4
:104800003FBC00BF014800F0CFB900BF60130020DB
:10481000014800F0C9B900BF60130020014800F052
:10482000C3B900BF60130020014800F0BDB900BF4C
:1048300060130020014801F049BC00BF9413002020
:10484000014802F075B800BF34140020014802F09E
:104850006FB800BF78140020014802F069B800BFAB
:10486000BC140020014802F063B800BF001500200E
:10487000014801F087BD00BFEC130020014802F0A1
:1048800057B800BF44150020FCF70ABCFCF72ABC4F
:104890000120704708B504F065F9162303604FF056
:1048A000FF3008BD08B504F05DF916230360FEE78C
:1048B00070B5161E07DD0C468D19AFF3008004F8A5
:1048C000010BA542F9D1304670BD00BF70B5161E70
:1048D00007DD0C468D1914F8010BAFF30080AC42D4
:1048E000F9D1304670BD00BF4FF0FF30704700BFB8
:1048F0004FF400534B600020704700BF0120704709
:10490000002070470C490D4A0B6810B50C4C121B67
:104910002BB11844904207D80860184610BD094BC7
:104920000B6018449042F7D904F01CF90C23036083
:104930004FF0FF33184610BD8815002000000220FC
:1049400000120000E0160020034AD2F8883043F439
:104950007003C2F88830704700ED00E0DFF834D013
:104960000D480E490E4A002302E0D458C4500433C7
:10497000C4188C42F9D30B4A0B4C002301E013609E
:104980000432A242FBD3FFF7DFFF04F0F1F8FFF798
:104990005BFB70470000022000000020480200205E
:1049A00078D8000848020020DC160020FEE700004E
:1049B00038B50E4A0E4B12781B6805464FF47A70D4
:1049C000B0FBF2F0B3FBF0F000F076FA08B90F2D6F
:1049D00001D9012038BD0446024629464FF0FF3078
:1049E00000F01EFA034B20461D6038BD7800002001
:1049F000740000207C00002008B50B4B1A6842F4BC
:104A000000721A601A6842F480621A601A6842F4EE
:104A100080721A60032000F0F1F90020FFF7C8FF50
:104A2000FFF7B2FC002008BD003C0240034A044BE3
:104A300011681B780B441360704700BF8C15002071
:104A400078000020014B1868704700BF8C150020CB
:104A500038B50446FFF7F6FF631C054602D0044B49
:104A60001B781C44FFF7EEFF431BA342FAD338BD6B
:104A70007800002000287BD038B590F8203004461C
:104A8000002B72D02268136843F001031360FFF714
:104A9000D9FF054604E0FFF7D5FF431B0A2B5BD87F
:104AA00023685A68D107F6D51A6822F002021A6004
:104AB000FFF7C8FF054604E0FFF7C4FF401B0A28C4
:104AC0004AD823685A689207F6D4227E012A1A68C7
:104AD0000CBF42F0800222F080021A60627E012A3E
:104AE0001A680CBF42F0400222F040021A60A27E17
:104AF000012A1A680CBF42F0200222F020021A603C
:104B0000E27E012A1A680CBF22F0100242F0100265
:104B10001A60227F012A1A680CBF42F0080222F0B4
:104B200008021A60627F012A1A680CBF42F0040270
:104B300022F004021A60D4E90220216902430A43E8
:104B400060696168024301390A4300200121DA618A
:104B5000606284F8201038BD636A052243F4003394
:104B6000636284F82020012038BDFFF729FC89E723
:104B700001207047704700BF704700BF704700BFFB
:104B8000704700BF704700BF704700BF704700BF4D
:104B9000704700BF704700BF704700BF704700BF3D
:104BA000704700BF704700BF2DE9F84F03685C698C
:104BB000D3F804809F68D3F80CB0D3F810A0D3F8D2
:104BC000189014F00106054625D017F0010640F0B4
:104BD0008F804FF400524FF48041F8050DD52B68BB
:104BE0004FF480709860BB0500F1BE80780500F13D
:104BF000E4803B0540F1F0800E46F8030BD52B68AE
:104C00004FF48032B9039A6000F1BA807A0340F120
:104C1000CF8046F40046270702D51BF0100F61D164
:104C2000600703D51BF0080F40F08C80A10704D566
:104C30002B68DB689A0740F08C80630602D51AF077
:104C4000100F49D1A70602D51AF0080F73D1E0065C
:104C500003D52B681B69990762D1A20302D518F00E
:104C6000100F61D1E30302D518F0080F75D12704A6
:104C700005D518F0040F06D12B6804225A60002EC7
:104C800046D1BDE8F88FE00504D519F0010F18BF33
:104C900046F00106A10504D519F0020F18BF46F031
:104CA0000206620504D519F0040F18BF46F0040689
:104CB0002305E1D519F07009DED0B9F1400F00F0FD
:104CC0009A8061D8B9F1200F00F08380B9F1300FDC
:104CD00068D146F020065FE02B68102246F480661B
:104CE0001A61AFE72B68102246F40076DA6097E786
:104CF00001229A60BB073BD47E0760D417F00806F8
:104D00006ED04FF440524FF4A0414FF4805664E708
:104D10006B6A334328466B62FFF744FFBDE8F88FA8
:104D20002846FFF737FF98E72B6810225A6028467D
:104D3000FFF734FF96E72B6808221A612846FFF731
:104D40002BFF84E72B680822DA602846FFF720FF54
:104D50006CE72846FFF71AFF6FE72B6808225A60B6
:104D60002846FFF71DFF82E72846FFF705FF44E7C7
:104D7000FFF700FF00264FF400524FF480412CE76C
:104D80002846FFF7FBFE46E7B9F1500F1ED0B9F1F8
:104D9000600F08BF46F480762B689A6922F0700293
:104DA0009A616AE7B9F1100FF6D146F00806F3E709
:104DB0003B031CD546F480362DE716461DE74FF41D
:104DC00020524FF490414FF4006606E746F080060B
:104DD000E2E746F01006DFE72846FFF7D3FE0CE7D0
:104DE000FFF7CEFE4FF400524FF48041F5E628461F
:104DF000FFF7CAFE0FE746F04006CDE70749CA684D
:104E000003024FF6FF0003F4E0630240134343F054
:104E1000BF6343F40033CB60704700BF00ED00E098
:104E20001C4BDB68C3F3022300B5C3F1070EBEF1D0
:104E3000040F03F1040C28BF4FF0040EBCF1060F61
:104E40001BD9033B4FF0FF3C0CFA03FC22EA0C0297
:104E50004FF0FF3C0CFA0EFC21EA0C0199400028AF
:104E600041EA02010CDB00F16040090100F56140FC
:104E7000C9B280F800135DF804FB00221346E7E78F
:104E8000054B00F00F0009010344C9B219765DF823
:104E900004FB00BF00ED00E0FCEC00E0002807DBB5
:104EA0004109044A00F01F000123834042F82130E9
:104EB000704700BF00E100E00138B0F1807F10D200
:104EC00010B44FF0E023084C58614FF0F00C84F818
:104ED00023C00022072110469A615DF8044B196136
:104EE00070470120704700BF00ED00E070B5044638
:104EF000866DFFF7A7FD94F83530022B06D080238E
:104F00006365002384F83430012070BD23681A687B
:104F100022F016021A605A6922F080025A61226C4D
:104F2000054642B31A6822F008021A601A6822F095
:104F300001021A6005E0FFF785FD431B052B10D821
:104F400023681B6813F00103F5D1E16D3F228A400D
:104F5000184601210023B26084F8351084F83430FB
:104F600070BD032320226265184684F83530002383
:104F700084F8343070BDA26C002AD3D1D6E700BFCC
:104F800090F83530022B03D0802343650120704711
:104F90000268052380F83530136823F001030020F0
:104FA000136070472DE9F04F00220C68DFF830A243
:104FB000844E85B01346894605E00133102B02F17B
:104FC000020200F08A800121994001EA040BA1430A
:104FD000F3D1D9F804C00CF003014D1E012D7FD987
:104FE000032940F0C0809140CD4307683D402943EC
:104FF0001CF4403F0160E0D000210391DAF8441036
:1050000041F48041CAF84410DAF8441001F48041B8
:105010000391039923F0030101F1804101F59C31D3
:1050200003F003078D68BF004FF00F0E0EFA07FE66
:1050300025EA0E08644DA84224D005F58065A842F3
:1050400000F09580614DA84200F09880604DA84224
:1050500000F09B805F4DA84200F09E805E4DA8420C
:1050600000F0A1805D4DA84200F0A480DFF874E15B
:1050700070450CBF4FF0070E4FF0080E0EFA07F701
:1050800048EA0708C1F80880B1686FEA0B051CF40C
:10509000801F0CBF29404BEA0101B160F1681CF48C
:1050A000001F0CBF29404BEA0101F16071681CF43C
:1050B000003F0CBF29404BEA0101716031681CF4CC
:1050C000803F03F101030CBF29404BEA0101102B83
:1050D000316002F102027FF476AF05B0BDE8F08FD7
:1050E000D9F80C50D0F808E005FA02F7032505FAC4
:1050F00002F82EEA080E47EA0E078760476827EA9B
:105100000B0ECCF300179F4047EA0E076FEA080525
:105110004760C76807EA050ED9F80870974047EA64
:105120000E070229C76001FA02F17FF45EAF4FEA71
:10513000D30E00EB8E0E03F00708DEF82070009708
:10514000D9F810704FEA880807FA08F701970F2777
:1051500007FA08F8009F27EA0808019F47EA0807AE
:10516000CEF8207041E703259540ED43D1E74FF09D
:10517000010E0EFA07F748EA070883E74FF0020E20
:105180000EFA07F748EA07087CE74FF0030E0EFA1D
:1051900007F748EA070875E74FF0040E0EFA07F71D
:1051A00048EA07086EE74FF0050E0EFA07F748EADF
:1051B000070867E74FF0060E0EFA07F748EA0708F8
:1051C00060E700BF003C01400000024000080240D0
:1051D000000C02400010024000140240001802407F
:1051E00000380240001C02400369194214BF01202C
:1051F0000020704702B909048161704703684AF6CC
:10520000AA2200201A607047002800F0A2812DE930
:10521000F0410368DD0782B004462FD59E498A68B5
:1052200002F00C02042A00F0ED808A6802F00C0201
:10523000082A00F0E3806368B3F5803F00F0EC805B
:10524000B3F5A02F00F07581934D2A6822F48032C7
:105250002A602A6822F480222A60002B40F0E18034
:10526000FFF7F0FB064605E0FFF7ECFB801B642828
:1052700000F201812B689B03F6D423689F0728D591
:10528000854A916811F00C0F00F09080916801F050
:105290000C01082900F08680E368002B00F00E81E5
:1052A0007E4B7D4E01221A60FFF7CCFB054605E0E0
:1052B000FFF7C8FB401B022800F2DD803368980727
:1052C000F6D53368226923F0F80343EAC20333605A
:1052D00023681A0751D458072FD56F4A136C13F05F
:1052E00080537FD000256E4E3368D90540F1B380DE
:1052F000A368012B00F0C380052B00F02C81664EC3
:10530000326F22F001023267326F22F004023267FC
:10531000002B40F0B980FFF795FB41F28838074633
:1053200005E0FFF78FFBC01B404500F2A480336F00
:105330009807F6D4002D40F00681A069C8B1564DFB
:10534000AB6803F00C03082B00F0C980534B00221C
:1053500002281A6600F00981FFF774FB044605E095
:10536000FFF770FB001B022800F285802B689B0171
:10537000F6D4002002B0BDE8F08163690BB3474B5F
:10538000454E0122C3F8802EFFF75CFB054604E082
:10539000FFF758FB401B02286DD8736F9B07F7D5AA
:1053A000236898E7526856023FF576AF3A4A12688A
:1053B000950744D5E268012A41D0012002B0BDE83A
:1053C000F081364A344EC2F8803EFFF73BFB05467B
:1053D00004E0FFF737FB401B02284CD8736F9F0790
:1053E000F7D4DDE70193136C43F080531364136C1F
:1053F00003F080530193019B012574E74A68500232
:105400007FF519AF244A126891037FF537AF6268C0
:10541000002A7FF433AFD0E71F4A136843F4803388
:105420001360FFF70FFB1C4E054604E0FFF70AFB75
:10543000401B64281FD833689A03F7D51DE7164927
:1054400020690A6822F0F80242EAC0020A601A07DC
:105450007FF541AF91E7336843F480733360FFF722
:10546000F1FA07463368DA053FF542AFFFF7EAFA8B
:10547000C01B0228F6D9032002B0BDE8F081064A1D
:10548000136F43F001031367FFF7DCFA024F064680
:1054900041F288380BE000BF00380240000047426C
:1054A00000700040FFF7CEFA801B4045E3D83B6F09
:1054B0009B07F7D5002D3FF440AF44E0424A434EEE
:1054C0001360FFF7BFFA054604E0FFF7BBFA401B85
:1054D0000228D0D833689907F7D42368F9E6012861
:1054E0003FF448AF6B68E26903F4800191427FF4B6
:1054F00064AF226A03F03F0191427FF45EAF616ABC
:1055000047F6C0721A40B2EB811F7FF456AFA26A11
:10551000520803F44031013AB1EB024F7FF44DAF32
:10552000E26A03F07063B3EB026F14BF0120002046
:1055300020E7264B1A6842F480221A601A6842F467
:1055400080321A606DE7214A136C23F08053136494
:10555000F3E6012070471D4B1A6F42F004021A67F0
:105560001A6F42F001021A678EE7FFF76BFA0646E0
:1055700005E0FFF767FA801B02283FF67CAF2B6837
:105580009901F6D4D4E90731626A0B4343EA8213E6
:10559000D4E90A21520843EA0163013A0A4943EA7D
:1055A000024301226B600A66FFF74CFA074D04467E
:1055B00005E0FFF747FA001B02283FF65CAF2B68B7
:1055C0009A01F6D5D5E600BF0000474200380240F8
:1055D000164908B58B6803F00C03042B1BD0082B6D
:1055E00017D14A684B68496813F4800302F03F0200
:1055F00013D10F48C1F38811A1FB0001FBF744FB55
:105600000A4B5B68C3F3014301335B00B0FBF3F06B
:1056100008BD074808BD074808BD0648C1F3881102
:105620000023A1FB0001FBF72FFBE9E70038024054
:105630000024F40000127A00002800F08780484A15
:10564000136803F007038B422DE9F0410D46044631
:1056500009D2CBB21370136803F007038B4202D058
:105660000120BDE8F0812368980714D5590704D5B7
:105670003C498A6842F4E0528A601A0704D53949E5
:105680008A6842F460428A603649A0688A6822F0DB
:10569000F00202438A60DF0721D56268012A57D0F1
:1056A000931E012B2F4B1B684DD99907D8D52D4E32
:1056B000B36823F003031343B360FFF7C3F941F268
:1056C0008838074604E0FFF7BDF9C01B404544D8C1
:1056D000B368626803F00C03B3EB820FF3D1204A86
:1056E000136803F00703AB4206D9EBB213701368DB
:1056F00003F00703AB42B3D123685A0706D5194913
:10570000E0688A6822F4E05202438A601B0707D5EA
:10571000144A2169936823F4604343EAC103936008
:10572000FFF756FF0F4A104C92681049C2F303125C
:105730000346A25C0E48D34000680B60FFF738F9BF
:105740000020BDE8F0819801B1D489E701207047BD
:10575000044B1B689E03AAD482E7032081E700BFA5
:10576000003C024000380240BCD300087400002016
:105770007C000020044B05499B68054A0868C3F378
:105780008223D35CD8407047003802407400002068
:10579000CCD30008044B05499B68054A0868C3F34D
:1057A0004233D35CD8407047003802407400002078
:1057B000CCD300082DE9F04182B01D4616460C46B8
:1057C0000746FFF73FF935442D1AFFF73BF9274B02
:1057D0001B68C3F3CB3305FB03F380460193731CB3
:1057E000396807D18B6834EA0303FBD0002002B08C
:1057F000BDE8F0818B6834EA0303F7D1FFF722F9A3
:10580000A0EB0800A84208D2019B002B019B03F1EA
:10581000FF3308BF00250193E1E7D7E900315A685B
:10582000B1F5827F22F0E0025A6013D0BA6AB2F575
:10583000005F07D11A6822F400521A601A6842F415
:1058400000521A600122002387F8512087F8503057
:105850000320CCE7BA68B2F5004F02D0B2F5806FF2
:10586000E4D11A6822F040021A60DFE774000020D9
:1058700038B513464268B2F5827F044606D00A4620
:105880000121FFF797FF78B9002038BD8268B2F593
:10589000004F1CD0B2F5806F0CD00A462046802104
:1058A000FFF788FF0028EFD0636D43F0200303204B
:1058B000636538BD05680A46296821F04001296002
:1058C0000121FFF777FF0028EED10020DDE7006817
:1058D000026822F0400202600A4620468021FFF75B
:1058E00069FF0028D0D0DFE700285CD070B50446FF
:1058F000406A002847D00023C4E9043394F85130AB
:105900000022A26203F0FF01002B42D094462168DE
:10591000A568A269266A022384F851300B6823F037
:1059200040030B60636805F4044503F482732B4362
:10593000E56805F400652B43256905F002052B4356
:10594000656905F001052B43E56906F0800E02F458
:10595000007605F0380533432B43120C00F010009D
:1059600043EA0E0302F0040243EA0C0302430B6015
:105970004A60CB69002023F400630122CB6160659B
:1059800084F8512070BD6368B3F5827FB6D0E061C2
:10599000B4E7204684F85010FEF76AFDD4E9090305
:1059A00003F4005CB3E70120704700BF2DE9F0412C
:1059B000044690F85000012882B000F085801D4612
:1059C000012384F8503088461746FFF73BF894F8D7
:1059D0005130012B0646D8B209D002200122002303
:1059E00084F8512084F8503002B0BDE8F081B8F15D
:1059F000000FF3D0002FF1D0A2682068C4F83080E7
:105A000000230321B2F5004F84F85110C4E910338C
:105A10006365A786E786A363A387E38700F0858095
:105A200003685B06024603D4036843F04003036047
:105A3000E368B3F5006F4BD06368002B00F09780EC
:105A4000012F00F09480E38E9BB2ABB1681C40F054
:105A5000838023689A68910740F19480226B1278C2
:105A60001A73E18E236B013989B2E186E18E01332D
:105A700089B223630029ECD161685B4B5B4A1B68E8
:105A8000A2FB03235B0D4FF47A7202FB03F3B1F523
:105A9000827F019307D198E0019B2268013B01932B
:105AA00093681B0602D5019B002BF5D1A36833B97F
:105AB00022680093D368009393680093009B606D05
:105AC000003818BF012089E7022002B0BDE8F0814C
:105AD0006168002976D1434633F8027BC7602363AF
