S01100006D39355F74657374312E73726563E8
S3150800000000000220D54B00086D4A0008754A000812
S315080000107D4A0008814A0008894A00080000000055
S31508000020000000000000000000000000914A0008DF
S31508000030954A000800000000994A00089D4A0008F1
S31508000040254C0008254C0008254C0008254C0008BE
S31508000050254C0008254C0008254C0008254C0008AE
S31508000060254C0008254C0008254C0008254C00089E
S31508000070254C0008254C0008254C0008254C00088E
S31508000080254C0008254C0008254C0008254C00087E
S31508000090254C0008254C0008254C0008254C00086E
S315080000A0254C0008254C0008254C0008254C00085E
S315080000B0254C0008254C0008254C0008254C00084E
S315080000C0254C0008254C0008254C0008AD4A0008B8
S315080000D0254C0008254C0008B94A0008C54A0008FE
S315080000E0254C0008254C0008254C0008254C00081E
S315080000F0254C0008254C0008254C0008254C00080E
S31508000100254C0008254C0008254C0008254C0008FD
S31508000110D14A0008DD4A0008E94A0008254C0008CB
S31508000120254C0008254C0008254C0008254C0008DD
S31508000130254C0008254C0008254C0008254C0008CD
S31508000140254C0008254C0008254C0008254C0008BD
S31508000150254C0008254C0008254C0008F54A0008DF
S31508000160254C0008254C0008254C0008254C00089D
S31508000170254C0008254C0008254C00080000000006
S30D08000180254C0008254C000877
S3150800019010B5054C237833B9044B13B10448AFF3B3
S315080001A000800123237010BD6002002000000000BB
S315080001B02CB8000808B5034B1BB103490348AFF335
S315080001C0008008BD00000000640200202CB800086A
S315080001D001F0FF01102A2BDB10F0070F08D010F8EA
S315080001E0013B013A8B422DD010F0070F42B3F6D1EE
S315080001F0F0B441EA012141EA014122F007047FF007
S3150800020000070023F0E80256083C85EA010586EA5D
S31508000210010685FA47F5A3FA87F586FA47F6A5FA99
S3150800022087F68EB9EED1F0BC01F0FF0102F00702A5
S3150800023032B110F8013B013A83EA010313B1F8D150
S315080002400020704701387047002D06BF3546033831
S31508000250073815F0010F07D1013015F4807F02BF6A
S31508000260013015F4C03F0130F0BC0138704700BFBB
S31508000270034613F8012B002AFBD1181A01387047D8
S3150800028081F0004102E000BF83F0004330B54FEA39
S3150800029041044FEA430594EA050F08BF90EA020FA6
S315080002A01FBF54EA000C55EA020C7FEA645C7FEA39
S315080002B0655C00F0E2804FEA5454D4EB5555B8BF5C
S315080002C06D420CDD2C4480EA020281EA030382EACD
S315080002D0000083EA010180EA020281EA0303362D5F
S315080002E088BF30BD11F0004F4FEA01314FF4801C32
S315080002F04CEA113102D0404261EB410113F0004F44
S315080003004FEA03334CEA133302D0524263EB4303FA
S3150800031094EA050F00F0A780A4F10104D5F1200E98
S315080003200DDB02FA0EFC22FA05F2801841F10001F3
S3150800033003FA0EF2801843FA05F359410EE0A5F1C7
S3150800034020050EF1200E012A03FA0EFC28BF4CF0F8
S31508000350020C43FA05F3C01851EBE37101F00045AE
S3150800036007D54FF0000EDCF1000C7EEB00006EEBBB
S315080003700101B1F5801F1BD3B1F5001F0CD3490845
S315080003805FEA30004FEA3C0C04F101044FEA44529C
S3150800039012F5800F80F09A80BCF1004F08BF5FEA23
S315080003A0500C50F1000041EB045141EA050130BD03
S315080003B05FEA4C0C404141EB0101013C28BFB1F515
S315080003C0801FE9D291F0000F04BF01460020B1FA60
S315080003D081F308BF2033A3F10B03B3F120020CDA33
S315080003E00C3208DD02F1140CC2F10C0201FA0CF011
S315080003F021FA02F10CE002F11402D8BFC2F1200C76
S3150800040001FA02F120FA0CFCDCBF41EA0C0190402B
S31508000410E41AA2BF01EB0451294330BD6FEA040474
S315080004201F3C1CDA0C340EDC04F11404C4F120025F
S3150800043020FA04F001FA02F340EA030021FA04F371
S3150800044045EA030130BDC4F10C04C4F1200220FAC8
S3150800045002F001FA04F340EA0300294630BD21FA06
S3150800046004F0294630BD94F0000F83F4801306BFCC
S3150800047081F480110134013D4EE77FEA645C18BFC0
S315080004807FEA655C29D094EA050F08BF90EA020F57
S3150800049005D054EA000C04BF1946104630BD91EA4F
S315080004A0030F1EBF0021002030BD5FEA545C05D152
S315080004B04000494128BF41F0004130BD14F5800491
S315080004C03CBF01F5801130BD01F0004545F0FE4105
S315080004D041F470014FF0000030BD7FEA645C1ABF3A
S315080004E0194610467FEA655C1CBF0B46024650EA71
S315080004F0013406BF52EA033591EA030F41F400219D
S3150800050030BD00BF90F0000F04BF0021704730B522
S315080005104FF4806404F132044FF000054FF00001F7
S3150800052050E700BF90F0000F04BF0021704730B5B8
S315080005304FF4806404F1320410F0004548BF40428D
S315080005404FF000013EE700BF42004FEAE2014FEAE2
S3150800055031014FEA02701FBF12F07F4393F07F4FBD
S3150800056081F06051704732F07F4208BF704793F0C0
S315080005707F4F04BF41F40021704730B54FF46074D3
S3150800058001F0004521F000411CE700BF50EA0102D6
S3150800059008BF704730B54FF000050AE050EA01027F
S315080005A008BF704730B511F0004502D5404261EBEF
S315080005B041014FF4806404F132045FEA915C3FF430
S315080005C0D8AE4FF003025FEADC0C18BF03325FEACD
S315080005D0DC0C18BF033202EBDC02C2F1200300FA7E
S315080005E003FC20FA02F001FA03FE40EA0E0021FAA3
S315080005F002F11444BDE600BF70B54FF0FF0C4CF491
S31508000600E06C1CEA11541DBF1CEA135594EA0C0F42
S3150800061095EA0C0F00F0DEF82C4481EA030621EA7D
S315080006204C5123EA4C5350EA013518BF52EA0335B8
S3150800063041F4801143F4801338D0A0FB02CE4FF06A
S315080006400005E1FB02E506F00042E0FB03E54FF09A
S315080006500006E1FB03569CF0000F18BF4EF0010E92
S31508000660A4F1FF04B6F5007F64F5407404D25FEA8E
S315080006704E0E6D4146EB060642EAC62141EA555141
S315080006804FEAC52040EA5E504FEACE2EB4F1FD0C83
S3150800069088BFBCF5E06F1ED8BEF1004F08BF5FEA01
S315080006A0500E50F1000041EB045170BD06F00046B3
S315080006B046EA010140EA020081EA0301B4EB5C0460
S315080006C0C2BFD4EB0C0541EA045170BD41F4801158
S315080006D04FF0000E013C00F3AB8014F1360FDEBF7D
S315080006E0002001F0004170BDC4F10004203C35DA59
S315080006F00C341BDC04F11404C4F1200500FA05F3DC
S3150800070020FA04F001FA05F240EA020001F000427C
S3150800071021F0004110EBD37021FA04F642EB0601F2
S315080007205EEA430E08BF20EAD37070BDC4F10C041C
S31508000730C4F1200500FA04F320FA05F001FA04F2E0
S3150800074040EA020001F0004110EBD37041F10001CC
S315080007505EEA430E08BF20EAD37070BDC4F12005D7
S3150800076000FA05F24EEA020E20FA04F301FA05F23F
S3150800077043EA020321FA04F001F0004121FA04F2E7
S3150800078020EA020000EBD3705EEA430E08BF20EAB7
S31508000790D37070BD94F0000F0FD101F000464000F1
S315080007A041EB010111F4801F08BF013CF7D041EA73
S315080007B0060195F0000F18BF704703F00046520077
S315080007C043EB030313F4801F08BF013DF7D043EA48
S315080007D00603704794EA0C0F0CEA135518BF95EAFE
S315080007E00C0F0CD050EA410618BF52EA4306D1D185
S315080007F081EA030101F000414FF0000070BD50EAA4
S31508000800410606BF1046194652EA430619D094EA2D
S315080008100C0F02D150EA013613D195EA0C0F05D117
S3150800082052EA03361CBF104619460AD181EA03016B
S3150800083001F0004141F0FE4141F470014FF0000023
S3150800084070BD41F0FE4141F4780170BD70B54FF0BE
S31508000850FF0C4CF4E06C1CEA11541DBF1CEA13553E
S3150800086094EA0C0F95EA0C0F00F0A7F8A4EB050420
S3150800087081EA030E52EA03354FEA013100F0888017
S315080008804FEA03334FF0805545EA131343EA1263E0
S315080008904FEA022245EA111545EA10654FEA002695
S315080008A00EF000419D4208BF964244F1FD0404F54E
S315080008B0407402D25B084FEA3202B61A65EB0305AA
S315080008C05B084FEA32024FF480104FF4002CB6EB67
S315080008D0020E75EB030E22BFB61A754640EA0C00E7
S315080008E05B084FEA3202B6EB020E75EB030E22BF27
S315080008F0B61A754640EA5C005B084FEA3202B6EB68
S31508000900020E75EB030E22BFB61A754640EA9C0026
S315080009105B084FEA3202B6EB020E75EB030E22BFF6
S31508000920B61A754640EADC0055EA060E18D04FEAB4
S31508000930051545EA16754FEA06164FEAC30343EA54
S3150800094052734FEAC2025FEA1C1CC0D111F4801F21
S315080009500BD141EA00014FF000004FF0004CB6E71A
S3150800096011F4801F04BF01430020B4F1FD0C88BFB9
S31508000970BCF5E06F3FF6AFAEB5EB030C04BFB6EBC4
S31508000980020C5FEA500C50F1000041EB045170BDB7
S315080009900EF0004E4EEA113114EB5C04C2BFD4EBE4
S315080009A00C0541EA045170BD41F480114FF0000E68
S315080009B0013C90E645EA060E8DE60CEA135594EAE4
S315080009C00C0F08BF95EA0C0F3FF43BAF94EA0C0FE7
S315080009D00AD150EA01347FF434AF95EA0C0F7FF45C
S315080009E025AF104619462CE795EA0C0F06D152EAB0
S315080009F003353FF4FDAE1046194622E750EA410694
S31508000A0018BF52EA43067FF4C5AE50EA41047FF4A4
S31508000A100DAF52EA43057FF4EBAE12E74FF0FF3C09
S31508000A2006E000BF4FF0010C02E000BF4FF0010CDA
S31508000A304DF804CD4FEA410C7FEA6C5C4FEA430C53
S31508000A4018BF7FEA6C5C1BD001B050EA410C0CBFA2
S31508000A5052EA430C91EA030F02BF90EA020F002004
S31508000A60704710F1000F91EA030F58BF994208BF6B
S31508000A7090422CBFD8176FEAE37040F00100704728
S31508000A804FEA410C7FEA6C5C02D150EA013C07D17F
S31508000A904FEA430C7FEA6C5CD6D152EA033CD3D0CA
S31508000AA05DF8040B704700BF8446104662468C46C4
S31508000AB01946634600E000BF01B5FFF7B7FF0028F7
S31508000AC048BF10F1000F01BD4DF808EDFFF7F4FF20
S31508000AD00CBF012000205DF808FB00BF4DF808EDAB
S31508000AE0FFF7EAFF34BF012000205DF808FB00BFCE
S31508000AF04DF808EDFFF7E0FF94BF012000205DF8F0
S31508000B0008FB00BF4DF808EDFFF7CEFF94BF0120A4
S31508000B1000205DF808FB00BF4DF808EDFFF7C4FF9D
S31508000B2034BF012000205DF808FB00BF4FEA410CE6
S31508000B307FEA6C5C02D150EA013C0AD14FEA430CC9
S31508000B407FEA6C5C02D152EA033C02D14FF0000006
S31508000B5070474FF0010070474FEA410212F5001244
S31508000B6015D211D56FF47873B3EB625212D94FEAE6
S31508000B70C12343F0004343EA505311F0004F23FAD0
S31508000B8002F018BF404270474FF00000704750EA25
S31508000B90013005D111F0004008BF6FF000407047E2
S31508000BA04FF00000704700BF4A0011D212F500123C
S31508000BB011D20DD56FF47873B3EB62520ED44FEAA7
S31508000BC0C12343F0004343EA505323FA02F0704727
S31508000BD04FF00000704750EA013002D14FF0FF3065
S31508000BE070474FF0000070474FEA4102B2F1E04308
S31508000BF024BFB3F5001CDCF1FE5C0DD901F0004CF6
S31508000C004FEAC0024CEA5070B2F1004F40EB830045
S31508000C1008BF20F00100704711F0804F21D113F171
S31508000C203872BCBF01F00040704741F480114FEAAA
S31508000C305252C2F11802C2F1200C10FA0CF320FA33
S31508000C4002F018BF40F001004FEAC1234FEAD32350
S31508000C5003FA0CFC40EA0C0023FA02F34FEA4303BA
S31508000C60CCE77FEA625307D150EA01331EBF4FF043
S31508000C70FE4040F44000704701F0004040F0FE405E
S31508000C8040F40000704700BF53B94AB9002908BFAD
S31508000C9000281CBF4FF0FF314FF0FF3000F0A6B917
S31508000CA0ADF1080C6DE904CE00F03CF8DDF804E07F
S31508000CB0DDE9022304B0704738B500220023044654
S31508000CC00D46FFF70BFF28B920462946BDE83840F0
S31508000CD000F00AB8204605F1004100F005F8404248
S31508000CE061EB410138BD00BFD0B50C4B002206466A
S31508000CF00F46FFF781FCFFF757FF0446FFF702FC94
S31508000D00074B0022FFF778FC02460B463046394669
S31508000D10FFF7BAFAFFF748FF2146D0BD0000F03DBD
S31508000D200000F0412DE9F047089E0D4604460F469F
S31508000D30002B4AD18A42944665D9B2FA82F343B166
S31508000D4002FA03FCC3F120029F4020FA02F217437D
S31508000D509C404FEA1C4E1FFA8CF5B7FBFEF1220C9D
S31508000D600EFB117742EA074201FB05F090420AD9C9
S31508000D701CEB020201F1FF3780F01C81904240F221
S31508000D80198102396244121AA4B2B2FBFEF00EFBB4
S31508000D90102244EA024400FB05F5A5420AD91CEBD9
S31508000DA0040400F1FF3280F00781A54240F2048175
S31508000DB06444023840EA0140641B00211EB1DC404D
S31508000DC00023C6E90043BDE8F0878B4208D9002E08
S31508000DD000F0ED800021C6E900050846BDE8F08769
S31508000DE0B3FA83F1002949D1AB4202D3824200F219
S31508000DF0F880841A65EB030201201746002EE2D01C
S31508000E00C6E90047DFE702B9FFDEB2FA82F3002B34
S31508000E1040F090808A1A4FEA1C471FFA8CFE01217F
S31508000E20B2FBF7F507FB1520220C42EA00420EFB3F
S31508000E3005F0904208D91CEB020205F1FF3802D2F0
S31508000E40904200F2CB804546121AA4B2B2FBF7F0E4
S31508000E5007FB102244EA02440EFB00FEA64508D909
S31508000E601CEB040400F1FF3202D2A64500F2BB8057
S31508000E701046A4EB0E0440EA05409FE7C1F120079F
S31508000E808B4022FA07FC4CEA030C05FA01F420FA17
S31508000E9007F3FD404FEA1C492343B5FBF9F81FFA4F
S31508000EA08CFE09FB18551C0C44EA054408FB0EF594
S31508000EB0A54202FA01F200FA01F00BD91CEB040470
S31508000EC008F1FF3A80F08880A54240F28580A8F1B3
S31508000ED002086444641B9DB2B4FBF9F309FB13448E
S31508000EE045EA044403FB0EFEA64508D91CEB040498
S31508000EF003F1FF356CD2A6456AD9023B644443EA3E
S31508000F000843A3FB0295A4EB0E04AC42C846AE46C2
S31508000F1056D353D056B1B0EB080264EB0E0404FA6C
S31508000F2007F7CA40CC401743C6E9007418460021A3
S31508000F30BDE8F087C3F1200102FA03FC20FA01F2AA
S31508000F4025FA01F19D402A434FEA1C471FFA8CFEF9
S31508000F50B1FBF7F007FB1015110C41EA054100FB40
S31508000F600EF58D4204FA03F408D91CEB010100F1D1
S31508000F70FF382FD28D422DD902386144491B92B2CF
S31508000F80B1FBF7F507FB151142EA014205FB0EF125
S31508000F90914208D91CEB020205F1FF3816D291429C
S31508000FA014D9023D6244521A45EA004138E73146EF
S31508000FB0304608E73946E6E61046FBE64845A9D234
S31508000FC0B9EB020865EB0C0E013BA3E74546EAE7D9
S31508000FD02B4694E74046D1E7D0467BE7023D62447C
S31508000FE032E708460AE76444023842E7704700BF1A
S31508000FF010B582B00F48022403F040F90E4A009457
S3150800100001230C210D4803F049F90D4805F0E8F8CD
S315080010100C4801F0C5FC0C4800F0BEFA0B4800F07D
S31508001020D9FB0B4800F0CEFF0A4802B0BDE81040D5
S3150800103003F034B98815002050B8000864B80008D1
S3150800104030140020D8130020441500200015002075
S31508001050BC1400208CB8000808B501F005FB02F0A6
S31508001060ADFB00F083FF01F061FD00F0B3FA03F079
S3150800107083F8F2E708B501F0C3FA00F0BBFB00F00D
S3150800108049FB02F075FB01F0C9FDBDE8084003F015
S31508001090BBB800BF0C4B1A68036893420ED00B4AC4
S315080010A0126893420CD00A4A126893420AD0094A37
S315080010B01268934200D0704703F0F4B801F0FAB909
S315080010C000F0A0BB00F0E8BABC1400200015002010
S315080010D0441500208815002010B5044601F058FA7A
S315080010E0204602F05FFB1B48012103F0F5FF0128AB
S315080010F011D0194A1948138801339BB20021F92BDC
S315080011001380018006D9164B11801A78012A19D046
S3150800111000221A7010BD114A0F4C138801339BB276
S315080011200021952B21801380F4D90D4B11801A7854
S315080011302AB90C490C4C0A68207001320A6001224F
S315080011401A7010BD0948084C026821700132026005
S31508001150DEE700BF00000240880200208A02002065
S315080011607C0200208002002000000020840200206B
S31508001170014B1878704700BF1A03002010B50446C3
S3150800118022460348012103F0ADFF024B1C7010BD37
S31508001190000C024016030020014B1878704700BF68
S315080011A01603002010B5084B084C86464FF0000C75
S315080011B00A4683F800C0206871460F2305F0DCF95B
S315080011C0003818BF012010BD10030020200300209E
S315080011D0014B1878704700BF140300202DE9F04131
S315080011E0504DDFF878812C6814B9D8F800402C6087
S315080011F04D4F4E4E00233B703378052B00F282800C
S31508001200DFE803F0233A47566303494B1B7833B1AB
S315080012104849494807F032FC08B106233370D8F824
S3150800122000301B1BB3F5967F444B1A7820D9022A47
S315080012305AD94349434800220A70022102702A609B
S315080012401A7032703970BDE8F0813F4A3F4B10681A
S315080012503F4900221A700F23042205F08DF9002851
S315080012604ED1D8F8003001222B60344B32701A78F0
S31508001270022ADED8BDE8F0812D4B1B78002BCED094
S315080012802C492D4807F0FAFB0028C8D002233370F2
S31508001290C5E72D4A2D4B10682E4900221A700F23D8
S315080012A0042205F069F958BBD8F800300322DBE7B9
S315080012B01F4B1B78002BB2D01E491F4807F0DEFBD8
S315080012C00028ACD004233370A9E71F4A1F4B1068C7
S315080012D0214900221A700F23042205F04DF978B926
S315080012E0D8F800300522BFE701321649D2B21A7083
S315080012F0134A00230B7013702B603370BDE8F0811E
S315080013002C688CE7D8F800000C4B0E4900222A609E
S315080013101A703270B0F5967F4FF001023A700A7073
S31508001320E5D890E7440300201303002012030020A9
S3150800133017030020B4B80008900200203E030020DE
S3150800134014030020190300202003002010030020A6
S31508001350ACB80008B8B80008C4B800081C030020D8
S315080013602DE9F04F764DDFF82C822C688BB014B936
S31508001370D8F800402C60734F734E00233B703378C7
S31508001380052B00F2CD80DFE803F02A425089970347
S315080013906E4B1B785BB16E496E4807F06FFB0028F1
S315080013A000F0878006226C4B327001221A70D8F83A
S315080013B000301B1BB3F5967F684B1A7822D9022A90
S315080013C040F285806449664800220A70022102704C
S315080013D02A601A70327039700BB0BDE8F08F614A16
S315080013E0614B1068614900221A700F23042205F028
S315080013F0C3F8002878D1D8F8003001222B60574B63
S3150800140032701A78022ADDD80BB0BDE8F08F4F4B40
S315080014101B78002BCBD056494E4807F02FFB814648
S31508001420002873D002233370C1E75249494807F0B0
S31508001430C9FA514907F0C6FA4F49002007F0C2FA1F
S3150800144002AC034670B1DFF830B1A2460DF11409BB
S315080014504AF8043B5946002007F0B4FA034608B197
S31508001460CA45F5D1049B454900934548DDE9022361
S3150800147007F01EFA424A4349204607F019FA394B43
S315080014801868394B00221A7021460F231E2205F0D0
S3150800149073F848BBD8F800300322AFE72B4B1B780C
S315080014A0002B84D038492B4807F0E8FA00283FF487
S315080014B07EAF042333707AE7344A13780133DBB2FC
S315080014C0052B137012D90023137033706FE701329E
S315080014D0D2B21A702249204A00230B7013702B606F
S315080014E033700BB0BDE8F08F2C6860E71D4A1E4BC1
S315080014F01068274900221A700F23042205F03CF8C9
S315080015000028F1D1D8F80030052277E71E4911489E
S3150800151007F0B4FA00283FF44AAF86F8009046E789
S31508001520D8F800000D4B194C00210122B0F5967F22
S315080015303A703170296019702170CAD84CE700BF1B
S315080015404003002015030020110300201703002084
S315080015500CB9000890020020140300203D03002067
S31508001560190300202003002010030020E0B800081B
S31508001570ECB80008D0B8000868D20008D4B800084B
S3150800158024030020F0B80008B4B800083C03002083
S3150800159000B900081C03002008B5094B0949186062
S315080015A0012205F097F8084B84460022074883F87D
S315080015B000C0012103F096FD054B00221A7008BDF4
S315080015C0200300208C02002018030020000C024093
S315080015D01603002010B5264C2378002B35D1254C50
S315080015E02378012B0CD1244B1B78012B35D1234BA7
S315080015F01B78012B15D0224B1B78012B19D110BD56
S31508001600012211461F4803F06DFD1F4B01221A7077
S31508001610FFF7E4FD2378012BE5D0184B1B78012B47
S31508001620E9D11A4B1B78012BE9D0154B1B78012BF6
S31508001630E5D001221146134803F054FD124B01224E
S315080016401A70BDE81040FFF7C9BD114B114918685B
S31508001650012205F03FF82070C1E70122114609482A
S3150800166003F040FD084B01221A70FFF779FEBEE72A
S31508001670180300201303002015030020140300207C
S3150800168019030020000C0240160300201A0300204C
S31508001690200300208C02002038B5154B02681B6811
S315080016A01968914200D038BD124C134D227829781A
S315080016B01846531C2370114B99540122294605F0EC
S315080016C009F80F4B0F4A18700F4B12681A6094F9F5
S315080016D000200E4900239A42B8BF23700B700C4BAA
S315080016E01B78012BDFD12878BDE8384002F0A2BD6F
S315080016F020030020100300208C0200209002002006
S31508001700180300201C0300203403002017030020C0
S31508001710140300201B4A1C4813680168013310B5DE
S31508001720136011B15B1A042B13D81848022103F071
S31508001730D3FC012818D0164A1648138801339BB2E1
S315080017400021182B1380018002D9134B11801970C0
S3150800175010BD124A012100231170036002210B48B3
S3150800176003F0BAFC0128E6D10A4A094C138801336A
S315080017709BB20021182B21801380E9D9064B1180D2
S31508001780187010BD1C03002034030020000C024012
S31508001790380300203A0300201A030020170300200C
S315080017A00B4B93F82920022A02D993F8282032B93C
S315080017B000220023C0E90023C1E90023704793ED06
S315080017C0027B80ED007BD3E90623C1E9002370473D
S315080017D04803002008B5044B04491860012204F0A8
S315080017E079FF034B187008BD280400202104002047
S315080017F020040020024A136801331360704700BFB3
S315080018002404002038B5204B1C68036822689A42D5
S3150800181000D038BD1D4D1E4829781E4B662202FB96
S31508001820010293F800C092F8643002F803C001334D
S31508001830DBB2BCF10A0F82F8643018D00E290AD838
S31508001840662303FB010090F86430632B07D9002355
S3150800185080F8643003E00F2904BF00232B700D497C
S315080018600122204604F036FF0B4B187038BD13448E
S3150800187013F8023C0D2BE1D10131C9B201232970BD
S3150800188082F86530DAE700BF28040020260A00201F
S315080018902C04002021040020200400200000000061
S315080018A02DE9F04F2DED028B0C4683B02C2107F065
S315080018B06AF8451C284605F043F92C21206028467D
S315080018C007F061F810F8013F23712C2107F05BF847
S315080018D00130019005F02AF90198B0EE408AF0EE41
S315080018E0608A84ED020B2C2107F04DF8B0EE480A09
S315080018F0F0EE680A46782C2E9FED731B054600F01D
S31508001900C08009F057FE72A3D3E9002351EC180BE7
S3150800191059EC108BFEF770FEFFF746F9C0B2FEF7DA
S31508001920F1FD6D4B82468B464FF0113240464946D3
S31508001930FEF762FE0B46024659465046FEF7A6FCDF
S3150800194006F0FB03532B02D101F100431946C4E903
S31508001950020126742C21681C07F015F8451C284638
S3150800196005F0E7F810EE100AFEF7EEFD06460F46FC
S315080019702846C4E906672C2107F005F890F8018087
S31508001980B8F12C0F9FED501B47EC106B054656D04F
S3150800199009F010FE4EA3D3E90023304639465BEC26
S315080019A010ABFEF729FEFFF7FFF8C0B2FEF7AAFD57
S315080019B0494B06460F464FF0113250465946FEF738
S315080019C01BFE0B46024639463046FEF75FFC08F01A
S315080019D0FB03532B02D101F100431946C4E9060162
S315080019E084F820802C21681C06F0CDFF0130019078
S315080019F005F09FF82C21019884ED090A06F0C3FF2B
S31508001A00013005F096F8D4E90C32217984ED0A0AFA
S31508001A10013342F100024129C4E90C320AD10FCC44
S31508001A202E4D0FC50FCC0FC50FCC0FC594E803007C
S31508001A3085E8030003B0BDEC028BBDE8F08F09F022
S31508001A40B9FD23A3D3E90023304639465BEC10AB36
S31508001A50FEF7D2FDFFF7A8F8C0B2FEF753FD1E4BFE
S31508001A6006460F46504659464FF01132FEF7C4FD5A
S31508001A7002460B46304639464FF03F08FEF706FC4D
S31508001A80ACE709F097FD12A3D3E9002351EC180B34
S31508001A905BEC10ABFEF7B0FDFFF786F8C0B2FEF7B9
S31508001AA031FD0D4B80468946504659464FF0113256
S31508001AB0FEF7A2FD02460B46404649463F26FEF77C
S31508001AC0E5FB44E7AFF30080000000000000594042
S31508001AD07B14AE47E17A843F1111913FE803002059
S31508001AE02DE9F04F2DED028B0C4683B02C2106F024
S31508001AF04AFF451C284605F023F82C212060284675
S31508001B0006F041FF0130019005F010F80198B0EE9B
S31508001B10408AF0EE608A84ED020B2C2106F033FF32
S31508001B20B0EE480AF0EE680A46782C2E9FED7E1B2A
S31508001B30054600F0B38009F03DFD7DA3D3E90023F7
S31508001B4051EC180B59EC108BFEF756FDFFF72CF8E5
S31508001B50C0B2FEF7D7FC784B82468B464FF011325F
S31508001B6040464946FEF748FD0B460246594650464A
S31508001B70FEF78CFB06F0FB03532B02D101F1004361
S31508001B801946C4E9020126742C21681C06F0FBFEDE
S31508001B90451C284604F0CDFF10EE100AFEF7D4FCCB
S31508001BA006460F462846C4E906672C2106F0EBFED2
S31508001BB090F80180B8F12C0F9FED5B1B47EC106B7A
S31508001BC0054600F08C8009F0F5FC59A3D3E90023FB
S31508001BD0304639465BEC10ABFEF70EFDFEF7E4FF28
S31508001BE0C0B2FEF78FFC544B06460F464FF0113233
S31508001BF050465946FEF700FD0B4602463946304622
S31508001C00FEF744FB08F0FB03532B02D101F1004316
S31508001C101946C4E9060184F820802C21681C06F0C0
S31508001C20B2FE451C284604F087FF2C2184F82800BC
S31508001C30284606F0A8FE451C284604F07DFF2C2100
S31508001C4084F82900284606F09EFE0130019004F02B
S31508001C5070FF2C21019884ED0B0A06F094FE0130E2
S31508001C6004F067FFD4E90C3294F8281084ED090AC9
S31508001C70013342F10002C4E90C3251B10FCC2F4DA9
S31508001C800FC50FCC0FC50FCC0FC594E8030085E828
S31508001C90030003B0BDEC028BBDE8F08F09F08AFCA7
S31508001CA023A3D3E9002351EC180B5BEC10ABFEF72A
S31508001CB0A3FCFEF779FFC0B2FEF724FC1E4B804654
S31508001CC08946504659464FF01132FEF795FC0246B2
S31508001CD00B46404649463F26FEF7D8FA51E709F033
S31508001CE069FC13A3D3E90023304639465BEC10ABF5
S31508001CF0FEF782FCFEF758FFC0B2FEF703FC0E4B58
S31508001D0006460F46504659464FF01132FEF774FC08
S31508001D1002460B46304639464FF03F08FEF7B6FAFC
S31508001D2077E700BFAFF300800000000000005940CD
S31508001D307B14AE47E17A843F1111913F9803002046
S31508001D4070B50E4682B02C2106F01DFE10F8013F34
S31508001D5033702C2106F017FE441C204604F0ECFED6
S31508001D600C25707000E0441C2C21204606F00BFE62
S31508001D706B1E13F0FF05F6D12C21013006F003FE89
S31508001D800130019004F0D5FE019886ED010A2C2158
S31508001D9006F0F9FD0130019004F0CBFE2C210198E4
S31508001DA086ED020A06F0EFFD013004F0C2FED6E920
S31508001DB00432717886ED030A013342F100020129E3
S31508001DC0C6E9043206D90FCE034C0FC496E80300C1
S31508001DD084E8030002B070BDD00300202DE9F04F5F
S31508001DE0564C574FDFF87C91DFF87C8183B004F2BC
S31508001DF0FA5602E06634B4427DD094F86530002B7A
S31508001E00F8D049464FF0000B204687F800B006F098
S31508001E10D9FD0546C8F80000FEF72AFA494B8DF8A1
S31508001E2006B05FFA80FAAAF103011B88ADF8043000
S31508001E3001297BDDAAF11003F22B63D85B46AAF1D0
S31508001E40040C4FEA9C0B6A1C9E4652F8040B01339D
S31508001E505B4580EA0E0EF8D3CEF30722CEF307438E
S31508001E608EEA02025A400CF0FC0382EA1E62581CF3
S31508001E701CF0030FD2B2C0B20ED0285C4240981CA8
S31508001E80C0B2884208DA0333285CDBB2994282EA98
S31508001E90000201DDEB5C5A4055442B4901A806F0C7
S31508001EA007FD9DF8042015F8023C9A4226D19DF8B4
S31508001EB0052015F8013C9A4220D1D8F8005023494C
S31508001EC00123042228463B7006F06AFD20B3204908
S31508001ED00422284606F064FD18B31E490422284643
S31508001EE006F05EFD20B30023A4F8643066340222AF
S31508001EF0B4423A7081D103B0BDE8F08F0023A4F84C
S31508001F00643077E75A460123E85C0133DBB28B423B
S31508001F1082EA0002F8DBBFE70F492846FFF710FF01
S31508001F20E1E70E492846FFF7DBFDDCE75A46B3E74B
S31508001F300B492846FFF7B4FCD5E700BF2C04002060
S31508001F400100002048B8000820B9000828B9000890
S31508001F5030B9000838B9000880030020480300207B
S31508001F60300A0020E4D00008280A002010B5094CE1
S31508001F7023781BB9BDE81040FFF730BF064B074969
S31508001F801868012204F0A6FB2070BDE81040FFF790
S31508001F9025BF00BF200400202804002021040020BB
S31508001FA0014B1878704700BF6E0A0020014B187065
S31508001FB0704700BF6E0A0020014B1878704700BFB3
S31508001FC0840A002070B5254C25492060012204F0BA
S31508001FD081FB244B244D1870244B254800214FF4CF
S31508001FE000721970298006F0C6FC22492068282349
S31508001FF00C2204F0C1FA30B91F4802F04FF94FF429
S31508002000FA7002F061FE1D4C1D481D4D012210217B
S3150800201003F068F8266806E002F056FE23689B1B64
S31508002020B3F5487F15D22021284603F055F8034614
S3150800203001208342F0D1134802F030F910480022FB
S31508002040102103F04FF8BDE870404FF47A7002F0A3
S315080020503BBE0D4802F022F9EDE700BF800A0020DA
S31508002060960A00206C0A0020940A0020840A0020A0
S31508002070980A002040B9000850B90008700A0020E4
S315080020800010024088B900086CB900082DE9F04133
S315080020909E4D9F4F2C6882B00CB93C682C60DFF8C7
S315080020A0BC829C4E002388F800303378112B00F24E
S315080020B0AE81DFE813F02E004D005B006A017A015D
S315080020C0F70007011C01550170007F009300A0006E
S315080020D0B400C100D600E20012008F4B1B78002B1B
S315080020E040F080818D4B39680C1BB4F5FA7F29D3F3
S315080020F01A78022A40F26E818948002202212A6053
S315080021001A70327088F8001002B0BDE8F04102F08B
S31508002110C5B8844B8448002119807F4B4FF4007260
S31508002120197006F028FC814B814918680622282375
S3150800213004F022FA00282CD133783A682A60013351
S315080021403370764B1A78022AD6D802B0BDE8F081E9
S31508002150714B1B78002BC5D07649734806F08EFC68
S315080021600028BFD0022333706C4BBCE76D4B6E481A
S3150800217000211980684B4FF40072197006F0FBFBBA
S315080021806A4B6D4918680B22282304F0F5F90028D4
S31508002190D2D02C68A6E7604B1B78002BA2D06749E3
S315080021A0614806F06BFC002800F02E810A23337084
S315080021B05A4B98E75B4B5C4800211980564B4FF405
S315080021C00072197006F0D7FB584B5D4918680D2246
S315080021D0282304F0D1F90028AED0DAE74E4B1B7855
S315080021E0002B3FF47FAF53494F4806F047FC0C23BA
S315080021F033704A4B77E74B4B4B4800211980464BC7
S315080022004FF40072197006F0B6FB484B4D49186832
S315080022100A22282304F0B0F900288DD0B9E73E4BEE
S315080022201B78002B3FF45EAF42493F4806F026FC78
S3150800223012233370394B56E73A4B3B480021198035
S31508002240354B4FF40072197006F095FB374B3E4933
S3150800225018680B22282304F08FF900283FF46CAF86
S3150800226097E72D4B1B78002B3FF43CAF31492E489E
S3150800227006F004FC002845D134E72A4B2A480021F9
S315080022801980254B4FF40072197006F074FB274B22
S315080022902E4918680C22282304F06EF900283FF40A
S315080022A04BAF76E71C4B1B78002B3FF41BAF284936
S315080022B01D4806F0E3FB00283FF414AF06233370ED
S315080022C0164B10E7174B184800211980124B4FF48C
S315080022D00072197006F04FFB144B1E4918680A2243
S315080022E0282304F049F900283FF426AF51E70A4BA2
S315080022F01B78002B3FF4F6AE17490B4806F0BEFBD9
S31508002300002877D008233370044BECE6680A0020CF
S31508002310700A00209A0C0020840A0020920A0020E5
S3150800232058BA0008940A0020980A0020800A00205B
S31508002330A0B90008B4B80008A8B9000804BA00088B
S3150800234020BA000830BA0008ECB9000810BA00082C
S31508002350C0B90008C8B90008D4B900086E0A002038
S31508002360324B334800211980324B4FF400721970F2
S3150800237006F001FB304B314918680B22282304F07C
S31508002380FBF800283FF4D8AE03E72A4B1B78002B4E
S315080023903FF4A8AE2A49264806F070FB00283FF409
S315080023A0A1AE04233370274B9DE6204B204800211D
S315080023B01980204B4FF40072197006F0DCFA1E4B98
S315080023C0214918680A22282304F0D6F800283FF481
S315080023D0B3AEDEE601321A7000232960337002B00C
S315080023E0BDE8F0811649124806F048FB00287FF43C
S315080023F0DDAE77E615490E4806F040FB002881D188
S315080024000E2333700F4B6EE610233370C1E60D4B67
S315080024100F48019300221A702A603270012288F848
S31508002420002001F03BFF2C68019B5CE6940A002023
S31508002430980A0020840A0020800A0020F8B90008BB
S31508002440B4B80008920A0020B4B90008E0B9000838
S315080024503CBA000838B50D4B0D4D002104464FF423
S3150800246000720C482980197006F085FA2046FDF797
S31508002470FFFE094902462823086892B2214604F05D
S315080024807BF8003818BF012038BD00BF840A002039
S31508002490940A0020980A0020800A0020014608B500
S315080024A0034806F0EBFA003818BF012008BD00BF44
S315080024B0980A00200E4B02681B681968914200D0E2
S315080024C0704710B50B4C0C4922881846531C2380BC
S315080024D00A4B0C789C54012204F0FCF8084A094C73
S315080024E01168094B20700022C3E9001210BD00BF15
S315080024F0800A0020940A0020960A0020980A0020E4
S31508002500700A00206C0A0020880A00202DE9F8438A
S315080025101B4B8D090024A1EB85111C80194B06461F
S31508002520CFB219481C704FF4007221464FEA85193C
S3150800253006F021FA0DB3DFF85480D8F8000006EB50
S3150800254084111E230134402204F016F8E3B2AB428C
S315080025501C46F2D327B9003818BF0120BDE8F88316
S315080025600A4A1E23106806EB09013A4604F004F8E5
S31508002570003818BF0120BDE8F8832846EAE700BFFF
S31508002580940A0020840A0020980A0020800A002065
S31508002590154A1648D2E90031013310B541F1000455
S315080025A02021C2E9003402F097FD01280DD0104A17
S315080025B01048138801339BB20021962B13800180A3
S315080025C002D90D4B1180197010BD0A4A084C1388A0
S315080025D001339BB20021962B21801380F4D9064B38
S315080025E01180187010BD00BF780A00200010024044
S315080025F0900A0020980C00206D0A002000000000B8
S3150800260010B41149114CD1E9000223680133236043
S3150800261050EA020406D01B1A62EB42020A2B72F138
S31508002620000202D25DF8044B70479FED057B084B0C
S3150800263001221A7081ED007B5DF8044B704700BFDC
S315080026400000000000000000880A0020700A002030
S31508002650840A0020024B03491A8806F09BBA00BF79
S31508002660940A0020980A002038B51A4B1B78012BCB
S3150800267017D00024012210211748184D02F032FD08
S3150800268020462C7000F0DEFA204600F0CFFA2046ED
S31508002690134C00F0D1FA23786BB92B78012B14D19F
S315080026A038BD0F4C0C480D4D0022102102F01AFDC2
S315080026B02378002BF1D00B4B0B491868012204F044
S315080026C009F82B782070012BEAD0BDE83840FFF7CF
S315080026D0DDBC00BF6D0A0020001002406E0A002013
S315080026E06C0A0020800A0020960A002010B50C46C5
S315080026F082B0014658224E4806F04CFAE378227812
S315080027004C4822F00F0203F007034FF0200C134346
S31508002710082100228DF807C08DF8063002F0E2FC89
S315080027200A2301220DF10701414803F0B1F80A23F3
S3150800273001220DF106013E4803F0AAF83D480122A0
S31508002740082102F0CFFCA37862783A4802F03802F2
S31508002750242123F03F0313438DF807100022082194
S315080027608DF8063002F0BEFC0A2301220DF107019E
S315080027702F4803F08DF80A2301220DF106012C4893
S3150800278003F086F82B480122082102F0ABFC2379D6
S31508002790FBB96378202B15D8DFE803F03E14141430
S315080027A0141414144214141414141414461414147B
S315080027B01414141411141414141414143A001E4B7B
S315080027C01E4A1A601B480122082102F08BFC02B03F
S315080027D010BD88238DF806301648232300220821C9
S315080027E08DF8073002F07EFC0DF107010A2301225D
S315080027F00F4803F04DF80DF1060101220A230C4893
S3150800280003F046F80B480122082102F06BFCC0E7EA
S31508002810094B0B4A1A60D5E7074B0A4A1A60D1E7F3
S31508002820054B094A1A60CDE7034B084A1A60C9E7FF
S31508002830A80C002000100240100000208FC2753E30
S3150800284048E13A3F8FC2753D8FC2F53DEC51383E9F
S315080028502DE9F043494E4A4F89B0A8233046002255
S3150800286008218DF8143002F03DFC05A90A2301223F
S31508002870384603F00DF80A2305A90222384603F064
S31508002880AFFA30460122082102F02CFC3046AA2372
S31508002890002208219DF814409DF815908DF81430F3
S315080028A002F020FC05A90A230122384602F0F0FFAF
S315080028B00A2305A90222384603F092FA3046012275
S315080028C0082102F00FFC3046AC23002208219DF8AF
S315080028D014509DF815808DF8143002F003FC05A9F4
S315080028E00A230122384602F0D3FF05A90A233846EF
S315080028F0022203F075FA30460122082102F0F2FBA3
S315080029009DF815109DF814301E4A05EB082592ED22
S31508002910006A1D4A03EB01231C49D2ED005AD1ED8A
S31508002920004A1B4A1B4992ED000A91ED005A1A4AC1
S315080029301A4992ED001AD1ED000A2DB207EE105A87
S3150800294004EB092424B21BB2F8EEC76A07EE904AD4
S3150800295007EE103A66EE255A26EE055AF8EEE77A9D
S31508002960B8EEC77A26EE246AD6EE850A97EE061AD8
S3150800297097EEA50A09B0BDE8F08300BF0010024033
S31508002980A80C002010000020040000200C000020E5
S315080029909C0C002008000020A40C0020A00C00209D
S315080029A00F49104A08B501230A600B71FFF79EFE0E
S315080029B00D4B0E4A1A600E490E4B0F480F4ADFF8A8
S315080029C050E01A60C1F800E0DFF848C00C490D4B2A
S315080029D00D4AC0F800C00D4808601A6008BD00BF5F
S315080029E0040D00206020C0079C0C0020000020C1B8
S315080029F0A00C002008000020040000202F8B783F40
S31508002A00A40C00200C000020BC9C823F00007042F1
S31508002A1000002041FD4A813F01EB41012DE9F843C1
S31508002A2000EB8106D6ED007A3B4FF0EEE77A17EE1B
S31508002A30900AA6F10C041546FDF786FDD4ED007A3A
S31508002A40F0EEE77A804617EE900A8946FDF77CFD98
S31508002A5002460B4640464946FDF716FC21F0004360
S31508002A600246C7E90023194600222C4BFEF754F804
S31508002A7010B12B8801332B80D6ED017A284FF0EE62
S31508002A80E77A17EE900AFDF75FFDD4ED017AF0EECE
S31508002A90E77A804617EE900A8946FDF755FD024605
S31508002AA00B4640464946FDF7EFFB21F00043024638
S31508002AB0C7E9002319460022184BFEF72DF810B176
S31508002AC06B8801336B80D6ED027AF0EEE77A17EE63
S31508002AD0900AFDF739FDD4ED027AF0EEE77A06465C
S31508002AE017EE900A0F46FDF72FFD02460B463046B5
S31508002AF03946FDF7C9FB0B4B21F000470646C3E9EB
S31508002B0000670022084B3946FEF706F810B1AB8875
S31508002B100133AB80BDE8F883780F002000004440FD
S31508002B20800F0020880F00200000494070B582B051
S31508002B30A72333488DF804300022082102F0D2FA80
S31508002B400A23012201A92F4802F0A2FE0A23012224
S31508002B5001A92C4803F044F901222948082102F06A
S31508002B60C1FA9DF80430284A13701B0701D402B035
S31508002B7070BD264D264E2C78FFF76AFE297804EBA1
S31508002B80440406EB8404012984ED000AC4ED010A15
S31508002B9084ED021A11D80131C9B231290AD91D4A60
S31508002BA013780133DBB20021022B29700FD813707A
S31508002BB002B070BD297002B070BD174A3046FFF7E3
S31508002BC02BFF29780131C9B23129E8D8F2E7124B2F
S31508002BD011701A880A2A02D99A7901329A715A8882
S31508002BE00A2A02D9DA790132DA719A880A2A02D9C6
S31508002BF01A7A01321A7200221A609A80B7E700BF61
S31508002C0000100240A80C0020720F0020640F00205C
S31508002C100C0D0020000D0020680F0020024A1368E2
S31508002C2001331360704700BF740F0020014B187002
S31508002C30704700BF920F0020014B1870704700BF05
S31508002C40910F0020014B1870704700BF900F0020AD
S31508002C502DE9F84F584EDFF870913568DFF86CA10A
S31508002C600024032C00F099804846FFF7F3FB78B15F
S31508002C7033685A1BB2F5C87FF6D31D460134042CB7
S31508002C80EFD101274D4801F009FB3846BDE8F88F1A
S31508002C903768FFF791F940B93568EB1BB3F5C87F7C
S31508002CA0ECD2FFF789F90028F6D05046FFF7F6FB75
S31508002CB0002860D03568EB1BB3F5C87FDED2DFF895
S31508002CC010814046FFF7C6FB48B13568EB1BB3F5E4
S31508002CD0C87FD3D24046FFF7BDFB0028F5D1D6F80A
S31508002CE00080FFF769F948B93568A5EB0803B3F51D
S31508002CF0C87FC3D2FFF760F90028F5D05046FFF722
S31508002D00CDFB002843D03568A5EB0803B3F5C87F8B
S31508002D10B4D2DFF8C0B05846FFF79CFB074658B157
S31508002D203568A5EB0802B2F5C87FA7D25846FFF763
S31508002D3091FB07460028F3D1D6F80080FFF73CF947
S31508002D4048B93568A5EB0803B3F5C87F96D2FFF7EF
S31508002D5033F90028F5D05046FFF7A0FB88B135684F
S31508002D60A5EB0808B8F5C87F88D2154801F096FA89
S31508002D703846BDE8F88F1348FFF790FB002899D12D
S31508002D808AE71048FFF78AFB0028E8D1D9E70D48FB
S31508002D90FFF784FB0028B6D1A6E74846FFF75AFB9B
S31508002DA000283FF46EAF33685D1BB5F5C87FFFF4A6
S31508002DB068AF1D4662E700BFB00F002004CB0008CD
S31508002DC0DCCA00088CCA00086CCA0008B4B8000837
S31508002DD094CA0008B8CA00082DE9F04F9D4D9E4FC9
S31508002DE02B68DFF88482DFF884A283B00024384693
S31508002DF00193FFF72FFB019B80B9032C2E6815D092
S31508002E00DFF86C92FFF7D8F8C0B92A68931BB3F5B8
S31508002E10C87FF7D30134E4B21346E8E72A68D11A23
S31508002E20B1F5C87FC0F01281032CF3D18B4801F0AD
S31508002E3035FA0126304603B0BDE8F08F4046FFF765
S31508002E402DFB00285BD02A68931BB3F5C87FE1D217
S31508002E50DFF8209240F2A4414846FFF757FB0028C6
S31508002E6058D12E68DFF8109204E02A68931BB3F550
S31508002E70C87FCFD2FFF7A0F80028F6D04846FFF75C
S31508002E800DFB0028F1D02A68931BB3F5C87FC1D281
S31508002E90DFF8E8914846FFF7DDFA002840D12E68AA
S31508002EA0DFF8CC91FFF788F840B92A68931BB3F589
S31508002EB0C87FAFD2FFF780F80028F6D04046FFF764
S31508002EC0EDFA002858D02A68931BB3F5C87FA1D21B
S31508002ED0DFF8AC9140F2C3414846FFF717FB28BB21
S31508002EE0D5F800905E4EFFF767F828BB2B68A3EB72
S31508002EF00902B2F5C87FF6D30134E4B277E7504643
S31508002F00FFF7CCFA0028BED14846FFF7C7FA0028D3
S31508002F10B9D17AE72A68931BB3F5C87F9AD379E7BC
S31508002F202A68931BB3F5C87FB4D373E72B689A1B3B
S31508002F30B2F5C87FE0D2CDE73046FFF7AFFA0028F2
S31508002F40D4D02B68A3EB0902B2F5C87FD4D2DFF838
S31508002F5034B15846FFF77EFA064628BBD5F80090E6
S31508002F60DFF80CB1FFF728F828BB2B68A3EB09029A
S31508002F70B2F5C87FC0D2F5E75046FFF78FFA38B1E9
S31508002F802A68931BB3F5C87FBFF444AF33462EE7D0
S31508002F904846FFF783FA2B689A1B002851D0B2F5EA
S31508002FA0C87FA9D2334622E72B68A3EB0902B2F5FC
S31508002FB0C87FA1D2CDE74046FFF770FAB0B32B68B9
S31508002FC0A3EB0902B2F5C87F96D2DFF8BCB040F28F
S31508002FD08F615846FFF79AFA68B9D5F80090DFF876
S31508002FE0ACB0FEF7E9FF70B92B68A3EB0902B2F59E
S31508002FF0C87F81D2F5E72B68A3EB0902B2F5C87F33
S31508003000BFF47AAFE3E75846FFF748FA0028EBD053
S315080030102B68A3EB0909B9F5C87FBFF46DAF114852
S3150800302001F03CF9304603B0BDE8F08F5046FFF793
S3150800303035FA0028ECD15846FFF730FA0028E7D1D0
S3150800304093E7B2F5C87FBFF457AF2BE7032C7FF49D
S31508003050CEAEEBE6B00F00202CCB000858CB00080C
S31508003060ECCB000848CC000880CB000888CB0008C9
S3150800307098CB000874BA0008A4CB0008BCCB00089B
S3150800308018BF000804CC0008DCC3000830CC0008D0
S315080030902DE9F041824CDFF894822368814E0022A4
S315080030A088F800200BB9336823607F4D2B78112BE5
S315080030B000F2EA80DFE813F030004300D000BC00DD
S315080030C0C6009700A000A900B20053005B00640088
S315080030D06C0075007D0086008E001200734801F0B2
S315080030E0DDF8FEF769FF002830D1714F3268236892
S315080030F0D31AB3F5FA7F1DD33B78022B40F2BD8075
S315080031000023022223603B702B7088F80020694850
S31508003110BDE8F04101F0C2B8674801F0BFF867485A
S31508003120FFF798F90028E0D12B783268604F2260C3
S3150800313001332B703B78022BE2D8BDE8F08160485A
S3150800314001F0ACF8FEF738FF0028CED05D48FFF74F
S31508003150A5F90028C9D02B7801332B70C5E75A4842
S3150800316001F09CF8FEF728FF0028BED0EEE7574886
S3150800317001F094F85648FFF76DF90028D4D0B4E763
S31508003180544801F08BF8FEF717FF0028ADD0DDE7AD
S31508003190514801F083F85148FFF75CF90028C3D07D
S315080031A0A3E74F4801F07AF8FEF706FF00289CD0FF
S315080031B0CCE74C4801F072F84B48FFF74BF900286A
S315080031C0B2D092E7494801F069F8FEF7F5FE002803
S315080031D08BD0BBE7464801F061F84648FFF73AF955
S315080031E00028A1D081E7444801F058F8FEF7E4FE2C
S315080031F000283FF47AAFA9E7404801F04FF8404865
S31508003200FFF728F900288FD06FE73E4801F046F807
S31508003210FEF7D2FE00283FF468AF97E73A4801F078
S315080032203DF83A48FFF716F900283FF47DAF5CE70A
S31508003230374801F033F8FFF7CFFD00283FF474AFA5
S31508003240344812E0344801F029F83448FFF702F907
S3150800325000283FF469AF48E7314801F01FF8FFF747
S31508003260F7FC00283FF460AF2E4801F017F8122348
S315080032702B70022388F8003037E701333B700023B0
S3150800328022602B70BDE8F081094F27480023236090
S315080032902B703B70012388F8003000F0FFFF25E70C
S315080032A0A40F0020B00F00204410002060CF0008B3
S315080032B04010002098CF000870CC00087CCC00088D
S315080032C094CC0008B4B8000810CE000828CE000830
S315080032D03CCE000858CE000874CE00088CCE0008F4
S315080032E0ACCE0008C8CE0008E0CE000808CF00081B
S315080032F024CF000840CF000854CD00086CCD000844
S3150800330080CD0008B4CD0008CCCD0008E0CD00087B
S31508003310E0CC0008F8CC000814CD000828CD000839
S31508003320A8CC0008C0CC000880CF0008900F002069
S315080033302DE9F0433F4CDFF824812368DFF820911C
S31508003340002291B0054688F8002013B9D9F8003054
S3150800335023600026384F00963C22314601A805F026
S315080033600AFB3B78012B36D0022B2CD0B3B1334A5B
S31508003370D9F800303E702660136044F6E76293423F
S3150800338008D9002302222E4823603B7088F80020C3
S3150800339000F084FF002011B0BDE8F08329462948D3
S315080033A000F07CFF28492A46684605F081FA6846F7
S315080033B0FFF750F850B93A78D9F8003001323A7028
S315080033C022689B1AD9E7FEF7F7FDB8B9D9F8003095
S315080033D022689B1AD1E729461C4800F05FFFFEF7D2
S315080033E0EBFD0028F2D01A48FFF758F888B13B7869
S315080033F0D9F80020226001333B70CBE71548FFF768
S315080034004DF868B9D9F80030226888F800009B1A88
S31508003410B3E7D9F800303870206088F80000ACE7C8
S3150800342003233B700C48012388F8003000F036FF70
S31508003430CCE700BFA00F002043100020980F002003
S315080034402CD00008B0CF0008CCCF0008E0CF000889
S31508003450B4B80008F8CF000808D00008910F00207B
S31508003460B00F00202DE9F0473A4B3B4EDFF81881A4
S3150800347000221A70336890B081468A4613B9D8F884
S31508003480003033600024354F00943C22214601A8C1
S3150800349005F071FA3D78012D34D0022D2DD0A5B155
S315080034A03C703460D8F800302D4A1B1B934208D96B
S315080034B02C4A2D480023022133603B70117000F01E
S315080034C0EDFE002010B0BDE8F08752464946274871
S315080034D000F0E4FE264953464A46684605F0E8F9F0
S315080034E02448694600F0DAFE6846FEF7B3FF38B9A5
S315080034F03B78346801333B70D4E7FEF75DFD98B935
S315080035003468CFE71C4800F0C9FEFEF755FD0028D1
S31508003510F6D01A48FEF7C2FF68B13B78D8F8002003
S31508003520326001333B70CCE71548FEF7B7FF0D4B09
S3150800353038B91870E4E70B4B3870306018700446D9
S31508003540B0E703223A700F4801221A7000F0A6FE6F
S31508003550D6E700BF910F0020A80F002042100020D8
S31508003560BF250100920F0020E8D0000850D00008BF
S3150800357070D0000888D00008A4D00008B4B80008A5
S31508003580B8D00008C8D00008B00F00202DE9F047D1
S31508003590DFF8D091644CDFF8D0A1002389F8003019
S315080035A02368A0B007460E46154613B9DAF8003068
S315080035B02360DFF8B88100217C2201A8009105F07C
S315080035C0DAF998F80030042B00F2A880DFE803F057
S315080035D01D32465E0300FEF7EFFC002874D1206812
S315080035E0DAF8003044F6E7621B1A934209D9002339
S315080035F002224E48236088F8003089F8002000F03F
S315080036004DFE002020B0BDE8F0873946484800F056
S3150800361045FE48493A46684605F04AF96846FEF7BF
S3150800362019FF0028DBD198F800302068013388F8A4
S315080036300030D5E7404800F031FEFEF7BDFC002813
S31508003640CDD03E48FEF72AFF0028ECD1DAF8003044
S3150800365088F80000236089F80000D2E71A2331466B
S315080036607353374800F01AFE691C89B23046FEF7D4
S315080036704DFFE0B1DAF8002022600023002088F828
S31508003680003089F8003020B0BDE8F0872D4800F0FA
S3150800369005FEFEF791FC0028A1D02B48FEF7FEFE9A
S315080036A050BB88F80000206089F8000098E798F871
S315080036B000302648013388F80030DAF800302360F5
S315080036C000F0ECFD20688BE72148FEF7E7FE68B1BD
S315080036D0052388F80030012389F800301D4B1E4861
S315080036E000221A7000F0DAFD206879E789F80000F0
S315080036F01A4800F0D3FD72E798F8003018480133ED
S3150800370088F80030DAF80030236000F0C7FD10486A
S31508003710FEF7C4FE00283FF462AFD9E7002088F818
S31508003720000020605CE700BFAC0F002040D2000814
S3150800373008D1000824D1000840D1000858D1000853
S315080037405CD10008ACD10008B4B8000878D10008EC
S31508003750F0D100089C0F002000D2000820D20008F3
S31508003760C8D10008930F0020B00F00204110002098
S31508003770084909480B68026801330B6042B10749DA
S3150800378009689A1A8A4203D3054A0360012111700F
S31508003790704700BFB00F0020980F002014000020CB
S315080037A0940F0020044AD2E90031013341F10001A7
S315080037B0C2E90031704700BFB80F00202DE9F0417B
S315080037C04E4B1B78012B92B008D0FEF7E9FB012877
S315080037D020D112B0BDE8F041FFF75ABCFEF7ECFB6A
S315080037E028BB474B1B78012B30D1464B1B78012B46
S315080037F07ED1454D2B7C9BB942F21073434A44490E
S3150800380012780B60012A29D0424B1A785ABB12B09B
S31508003810BDE8F081002012B0BDE8F041FEF7C6BB56
S31508003820C3F1FF0303EB8302C3EBC203E6E73A489F
S31508003830FEF734FE0028D4D0384C2046FEF70AFF9F
S31508003840237B302BCDD02E4B00221A70344842F2FF
S31508003850B32112B0BDE8F041FFF704BE00F07EF8D0
S315080038600128D1D12B4B2F492F4A304F304E0968AA
S3150800387011604FF000083946304683F80080FDF79E
S315080038808FFF06A800F044FA0DF1180CBCE80F00EB
S315080038901D4C0FC4BCE80F000FC49CE8070084E861
S315080038A00700404600F054F8224B23491A8823485B
S315080038B004F0FEFFD7E90023D6E90001CDE9042389
S315080038C02C7C2A7A6B690192CDE902011C4A1D49B2
S315080038D000941D4804F0ECFF1B48FCF7C9FC1A4984
S315080038E0821C164892B212B0BDE8F041FFF74EBEF0
S315080038F0164812B0BDE8F041FFF71ABD900F002038
S31508003900920F0020910F0020881200209C0F0020A3
S3150800391014000020940F002060D20008C00F002079
S315080039206CD20008B00F0020980F00202800002055
S315080039302000002018000020A8D200084812002005
S3150800394030000020BCD2000848100020A0D2000891
S31508003950014B1870704700BFBD120020014B187844
S31508003960704700BFBD1200202DE9F0438C4D87B08B
S315080039700024CDE90144CDE9034405942C70FDF7F4
S3150800398027FC012809D087488749884A002303600D
S315080039900B70137007B0BDE8F083FDF7E9FB01284B
S315080039A00646F0D1FDF7F8FB002840F0DB807D4F96
S315080039B0DFF828923C6814B9D9F800403C60DFF873
S315080039C0EC8198F80030092B00F2DB80DFE803F081
S315080039D0B7A9958672634C3E2305754B1B783BB198
S315080039E07449754805F04AF810B10A2388F800307A
S315080039F0D9F800301B1BB3F5967F6B4B22D91E787E
S31508003A00022E40F2B380002202213A601A7088F82A
S31508003A1000202970BEE7694B6748002421468022AA
S31508003A201C7004F0A8FF624B65481C700421FDF762
S31508003A30B9FB00282DD1D9F8003007263B605A4B30
S31508003A4088F800601A78022AA4D9DCE7584B1B7854
S31508003A50002BCDD05B49584805F010F80028C7D090
S31508003A60082388F80030C3E7524A574901A804F0EA
S31508003A701FFF0024514B50481C702146802204F039
S31508003A807AFF4B4B01A804211C70FDF78BFB00281D
S31508003A90D1D03C68ACE7464B1B78002BA8D04949E7
S31508003AA0454804F0EBFF0028A2D006233C6888F8B6
S31508003AB000309DE7414B40480024214680221C7077
S31508003AC004F059FF3A4B41481C700421FDF76AFB84
S31508003AD00028DED1D9F800300526AFE7344B1B782D
S31508003AE0002B85D03749344804F0C8FF00283FF436
S31508003AF07FAF042388F800307AE7304B2E4800243D
S31508003B00214680221C7004F036FF294B30481C7071
S31508003B100421FDF747FB0028BBD1D9F8003003265E
S31508003B208CE7234B1B78002B3FF462AF29492248C8
S31508003B3004F0A4FF10B3022388F8003058E71F4B9F
S31508003B401D480024214680221C7004F014FF184BDF
S31508003B5021481C700421FDF725FB002899D1D9F8C6
S31508003B6000306BE72046FDF709FB20E70136F6B281
S31508003B7000223A6088F800201E700BE788F80000DB
S31508003B8036E7D9F80010084B00223A601A7088F810
S31508003B900020B1F5967F4FF001022A70E8D8F9E6C1
S31508003BA0BE120020881300207A1300207D130020FF
S31508003BB04513002084000020C4120020441300206E
S31508003BC040D30008B4B8000838D3000830D300083A
S31508003BD028D3000820D3000818D30008C0120020F4
S31508003BE070B5404D88B02C680023CDE90033CDE987
S31508003BF00233CDE904330693ADF81C3014B93A4BB9
S31508003C001C682C60394E3378032B69D8DFE803F03B
S31508003C1032491702364B1B78002B58D1324B1B689A
S31508003C201B1BB3F5967F1ED9324B1A78022A46D942
S31508003C3000222A601A703270022008B070BD2E4B1E
S31508003C402E480024214680221C7004F094FE284B3E
S31508003C502B481C700421FDF7A5FA00BB224A012354
S31508003C6012682A603370234B1A78022AE0D801209A
S31508003C7008B070BD02462349684604F019FE0024C0
S31508003C801D4B1E481C702146802204F074FE184BFA
S31508003C90684604211C70FDF785FA0028DED02C68DA
S31508003CA0BCE7134B1B78002BB8D01749134804F010
S31508003CB0E5FE0028B2D002232C683370AEE7002157
S31508003CC001320120296031701A7008B070BD0F49A1
S31508003CD00A4804F0D3FE0028A0D0042333709DE7D9
S31508003CE00020AAE784130020C01200207C130020BD
S31508003CF0451300207913002044130020C412002025
S31508003D0040D3000838D30008B4B80008840000205F
S31508003D1010B5074C864684460FCCACE80F000FCC8E
S31508003D20ACE80F0094E807008CE80700704610BD61
S31508003D304C130020000000002DE9F04FAE4BAF49B0
S31508003D401B88AF488BB00025ADF808308DF80A50AF
S31508003D50ADF80C308DF80E5004F034FE20B3A74FA2
S31508003D600446EEB20AAB03EB8603394643F8144C15
S31508003D70002004F027FE013504460028F1D1013E53
S31508003D80F6B2FD2E10D8059D01462B88ADF80C30ED
S31508003D90102203A803F05CFEC6B2A6F14103082B65
S31508003DA006D9613E022E56D900200BB0BDE8F08F29
S31508003DB02846FCF75DFAC0B20328F5D9432E50D140
S31508003DC0871E48BF471C05288DF8074004944FEA0C
S31508003DD0A70740F2FB8000248A4EDFF834A2DFF8FA
S31508003DE034922346A04605EB83024FEA830B002153
S31508003DF093788DF8073010220DF1070003F028FE9E
S31508003E000BF10303C2B2E81896F82A108078EB5A29
S31508003E108DF81200062000FB016002EB4202013118
S31508003E200134ADF8103086F82A1004ABE4B25244D7
S31508003E30183049468DF8138004F03AFDBC422346F3
S31508003E40D1DB96F82A3013B1013B86F82A300120D7
S31508003E500BB0BDE8F08F2846FCF70AFAC3B2032B6D
S31508003E60A2D96B88ADF808301022002102A803F009
S31508003E70EFFD102204460021281D03F0E9FDE3B2F8
S31508003E802F2B024660D814F0FC048DD0043B2B2B54
S31508003E908AD801A151F823F0B73F0008AD3F0008C2
S31508003EA0A93D0008A93D0008A93D0008A93D00084C
S31508003EB0A13F0008A93D00088D3F0008853F00087E
S31508003EC0A93D0008A93D0008A93D0008A93D00082C
S31508003ED0A93D0008A93D0008A93D0008A93D00081C
S31508003EE0A93D0008A93D0008A93D0008A93D00080C
S31508003EF0A93D0008A93D0008A93D0008A93D0008FC
S31508003F00A93D0008A93D0008A93D0008A93D0008EB
S31508003F10A93D0008A93D0008A93D0008A93D0008DB
S31508003F20A93D0008A93D0008A93D0008A93D0008CB
S31508003F30A93D0008A93D0008A93D0008A93D0008BB
S31508003F40A93D00086F3F00085E2B41D0A62B06D17D
S31508003F502D4B2C49A3FB0030C008486177E75C2B42
S31508003F607FF422AF274B2838587201201DE72749CE
S31508003F70244A642300FB03F3A1FB0313DB09137232
S31508003F80012012E71F4B01201A740EE7800807EE7E
S31508003F90900A1C4BF8EEE77A0120C3ED017A04E794
S31508003FA0184B00EB400058800120FEE6154B2838D8
S31508003FB058700120F9E61549124A642300FB03F3F9
S31508003FC0A1FB0313DB0913700120EEE60D4E38E75B
S31508003FD0FCF798FA06A3D3E90023FCF70DFBFCF7D8
S31508003FE003FE084B0246DA600120DEE6AFF30080E6
S31508003FF09A9999999999A93F4CB800082CD3000821
S31508004000C41200204C130020CDCCCCCC81808080FB
S31508004010C8D3000848D300082DE9F043474E484A5C
S315080040203568DFF85081002383B0CDE9003313707B
S3150800403015B9D8F800503560424F3C78BCB1012C10
S3150800404040D002201070404AD8F800103F4800239C
S3150800405013703F4A3B70C72933600370137003D946
S31508004060012300211370316003B0BDE8F08336499F
S31508004070384A0B7852F8232001330B7068463649C4
S3150800408004F016FC6846FCF7F3F8344B054621465F
S3150800409033481C70802204F06EFC324BE9B2684645
S315080040A01C70FDF77FF858BBD8F800203260012352
S315080040B03B70274B1B78022B84BF02233B7003B04F
S315080040C0BDE8F083274B1B7883B12749244804F0C1
S315080040D0D5FC814608B31C4B1A78092A1B4A11D805
S315080040E000233B701378356801331370D8F8003015
S315080040F05B1BC72BDDD9164A13780133DBB2B0E751
S315080041003568F3E71278092AF0D9184A3568147021
S3150800411002223A7000221A70E8E70C4B1870FFF773
S315080041200BFE094B87F800901A78092AE8D983F814
S3150800413000900F4B35681C70D8E700BF801300202D
S31508004140BC1200207B1300204813002047130020D0
S31508004150781300205C0000203CD30008441300209C
S31508004160C41200204513002050D30008B4120020C2
S31508004170BD120020C012002038B5FDF729F8D0B1CD
S315080041801B4B1C4C1A7812B92278012A07D0002238
S315080041901A70FFF7E9FB2378012B00D038BD164CBF
S315080041A02378022B03D1154D2B78012B0ED0BDE8B1
S315080041B03840FFF731BF0E4A1378002BEED10D4970
S315080041C008780128EAD110700B7038BD0C490A78B6
S315080041D0082A9ABF531CDBB200220B70094B53F80E
S315080041E02200FFF7FDFC0028D8D12070287038BDC2
S315080041F0BF120020BE120020BC120020B4120020FC
S315080042004613002038000020074908480B68026852
S3150800421001339A1AB2F5967F0B6004D3044A01213A
S315080042200023117003607047C0120020B8120020E6
S315080042304513002010B40C4A0C4C117860540C4CF1
S315080042404B1C0C4924680C60DBB23E28137004D161
S31508004250094801240470002008601B0644BF002397
S3150800426013705DF8044B704744130020C4120020F5
S31508004270C0120020B81200204513002008B5044BD0
S3150800428004491860012202F025FA034B187008BD8C
S31508004290D0130020D5130020D41300200FB400201B
S315080042A004B0704738B50F4B02681B68196891420D
S315080042B000D038BD0C4D0D4C01222946184602F097
S315080042C009FA22780A492B7808700A48511CC9B29B
S315080042D00A2B83542170ECD1FCF764FF002323706A
S315080042E038BD00BFD0130020D5130020CC13002002
S315080042F0D41300208C13002072B6BFF34F8F0549E4
S31508004300054BCA6802F4E0621343CB60BFF34F8FD4
S3150800431000BFFDE700ED00E00400FA0510B5002334
S3150800432094B0CDE90B33CDE90933CDE90333CDE9B3
S3150800433005331F4901930D930793086C1D4A40F0F6
S3150800434080500864096C01F080510191019902932B
S31508004350116841F48041116012680F9302F480429B
S31508004360102301210292CDE90B1308224023CDE93F
S3150800437010230224029808940222072308A8CDE9EC
S3150800438012230E9400F0B2FE78B90F210346CDE948
S3150800439003144FF4805203A82146CDE9053207934A
S315080043A001F0BCF808B914B010BDFFF7A5FF00BFAF
S315080043B0003802400070004080B500248CB000F040
S315080043C057FCFFF7ABFFCDE90644CDE90844B04BEF
S315080043D000940A941A6BAF4842F010021A631A6BDB
S315080043E002F010020092009A01941A6B42F004023D
S315080043F01A631A6B02F004020192019A02941A6B6C
S3150800440042F080021A631A6B02F080020292029A44
S3150800441003941A6B42F001021A631A6B02F0010246
S315080044200392039A04941A6B42F002021A631A6BF7
S3150800443002F002020492049A05941A6B42F00802EA
S315080044401A631B6B03F00803224618210593059B84
S3150800445000F048FE22469048022100F043FE22461C
S315080044608E484FF21101182500F03CFE4FF6C57232
S3150800447003238848089406A9CDE906234FF00108C6
S3150800448000F008FD83480DEB0501CDE90844CDE9A8
S31508004490065800F0FFFC202200237E4808940DEB06
S315080044A00501CDE9062300F0F5FC42F23D3203236F
S315080044B0794808940DEB0501CDE9062300F0EAFCDE
S315080044C00223754806930DEB0501CDE90784099487
S315080044D000F0E0FC01220023714808940DEB050169
S315080044E0CDE9062300F0D6FC49F6127203236C4880
S315080044F008940DEB0501CDE9062300F0CBFC4FF23D
S31508004500F3720323674808940DEB0501CDE90623EA
S3150800451000F0C0FC04220023624808940DEB050154
S31508004520CDE9062300F0B6FC40F6C86203235B48D3
S3150800453008940DEB0501CDE9062300F0ABFC4FF21C
S315080045401103564806930DEB0501CDE90784099436
S3150800455000F0A0FC22220023504808940DEB050128
S31508004560CDE9062300F096FC4FF4881349480894D1
S3150800457002220DEB0501CDE9062300F08BFC4A4823
S315080045804A4B0461C0E9024484614FF400474FF482
S31508004590E1360C24C0E90036C761446101F052FFD8
S315080045A0002873D1424B434ADF61C3E90160C3E97E
S315080045B00300C3E9054018461A6001F043FF0028C6
S315080045C064D13D4F3D4B3B604FF44863CDE906004F
S315080045D0C7E90180FB6038468023BB6101F072FDA4
S315080045E0002853D10022002306A93846CDE9062320
S315080045F001F0E4FE002849D1314B324AD861C3E9BB
S315080046000160C3E90300C3E9054018461A6001F0D2
S3150800461019FF00283AD12C4B2C494FF41652C3E9FE
S315080046200200C3E90404C3E906001846C3E90012F8
S3150800463001F008FF024648BB2548C0E90162C0E907
S315080046400322C0E90542C261224A026001F0FAFE6D
S315080046500246D8B9204B21484FF48271C3E90001BC
S315080046604FF40070C3E906050A211846C3E9022279
S31508004670C3E90422C3E90822C3E90A2101F0A6F81E
S3150800468020B9FCF7B5FCFCF7E7FCFEE7FFF734FEBC
S31508004690003802400010024000080240000C0240A8
S315080046A00000024000040240781400200044004044
S315080046B0BC140020004800403014002000100040C0
S315080046C0881500200014014000150020004C004009
S315080046D04415002000500040D81300200030014047
S315080046E082B00C4B002100915A6C42F480425A6405
S315080046F05A6C02F480420092009A01911A6C42F0B8
S3150800470080521A641B6C03F080530193019B02B01C
S31508004710704700BF0038024010B51B4B026888B0CE
S3150800472000249A42CDE90244CDE90444069401D016
S3150800473008B010BD03F5843300945A6C134842F44C
S3150800474080525A645A6C02F480520092009A01947C
S315080047501A6B42F001021A631B6B03F00103019303
S31508004760E0220223CDE9022302A905230693019A32
S3150800477000F090FB22462146232000F0C9FA2320A8
S3150800478000F004FB08B010BD0030014000000240F4
S315080047900E4B02689A4200D0704700B583B00022DB
S315080047A003F50A330192196C41F0100119641B6C68
S315080047B003F01003019336201146019B00F0A8FA76
S315080047C0362003B05DF804EB00F0E0BA00100040B4
S315080047D02DE9F0410368924A92B000249342CDE94C
S315080047E00C44CDE90E44109452D08E4A93427CD0A4
S315080047F08D4A934200F0BB808C4A934206D08C4A7D
S31508004800934200F0E28012B0BDE8F081894B07942C
S315080048101A6C894842F480221A641A6C02F48022BF
S315080048200792079A08941A6B02252A431A631A6B89
S315080048302A400892089A09941A6B42F008021A63E9
S315080048401B6B0D9503F0080309934FF00108032726
S3150800485007260CA94FF400630C93CDE90E87099B34
S31508004860109600F017FB4FF480730CA973480C934D
S31508004870CDE90F760D95CDF8388000F00BFB224672
S315080048802146272000F044FA272000F07FFABAE7ED
S31508004890684B00941A6C6A4842F400221A641A6C2F
S315080048A002F400220092009A01941A6B42F0040264
S315080048B01A631B6B03F0040301934FF4406202234F
S315080048C0CDE90C230CA908230322CDE90F23019D6A
S315080048D000F0E0FA22462146342000F019FA342086
S315080048E000F054FA12B0BDE8F081524B02941A6CEB
S315080048F0534842F480121A641A6C02F48012029227
S31508004900029A03941A6B42F004021A631A6B02F0B5
S3150800491004020392039A04941A6B42F008021A637B
S315080049201B6B03F0080304934FF4805203260825F3
S315080049300CA90223CDE90C23CDE90F65049B00F0F1
S31508004940A9FA04230CA90C933C48109502230D934D
S31508004950CDE90E4600F09EFA22462146352000F0A3
S31508004960D7F9352000F012FA12B0BDE8F081314BC4
S3150800497005941A6C334842F400321A641A6C02F42D
S3150800498000320592059A06941A6B42F001021A63E0
S315080049901B6B03F0010306930C220223CDE90C23BB
S315080049A001220323CDE90E230CA907231093069DA4
S315080049B000F070FA22462146262000F0A9F92620A2
S315080049C000F0E4F912B0BDE8F0811A4B0A945A6C6B
S315080049D01B4842F020025A645A6C02F020020A92DE
S315080049E00A9A0B941A6B42F004021A631B6B03F0C3
S315080049F004030B93C0220223CDE90C230CA9082338
S31508004A000322CDE90F230B9D00F044FA22462146E6
S31508004A10472000F07DF9472000F0B8F9F3E600BF1B
S31508004A20004C004000500040004400400048004050
S31508004A30001401400038024000040240000C024005
S31508004A400008024000000240BFF34F8F0549064B9D
S31508004A50CA6802F4E0621343CB60BFF34F8F00BF0E
S31508004A60FDE700BF00ED00E00400FA0508B5FFF712
S31508004A70EBFF00BF08B5FFF7E7FF00BFFEE700BF83
S31508004A8008B5FFF7E1FF00BF08B5FFF7DDFF00BF78
S31508004A90704700BF704700BF704700BF08B500F0F9
S31508004AA001F9BDE80840FCF7E5BA00BF014801F086
S31508004AB07FBA00BFD8130020014801F0ABBE00BF83
S31508004AC078140020014801F0A5BE00BFBC140020E0
S31508004AD0014801F09FBE00BF00150020014801F003
S31508004AE099BE00BF44150020014801F0BDBB00BFB8
S31508004AF030140020014801F08DBE00BF8815002043
S31508004B00FCF7C8BAFCF7E8BA0120704708B504F004
S31508004B1015F8162303604FF0FF3008BD08B504F0FA
S31508004B200DF816230360FEE770B5161E07DD0C4662
S31508004B308D19AFF3008004F8010BA542F9D1304670
S31508004B4070BD00BF70B5161E07DD0C468D1914F82A
S31508004B50010BAFF30080AC42F9D1304670BD00BFFF
S31508004B604FF0FF30704700BF4FF400534B600020F2
S31508004B70704700BF01207047002070470C490D4A56
S31508004B800B6810B50C4C121B2BB11844904207D871
S31508004B900860184610BD094B0B6018449042F7D9B7
S31508004BA003F0CCFF0C2303604FF0FF33184610BD0B
S31508004BB0CC1500200000022000120000201700205B
S31508004BC0034AD2F8883043F47003C2F88830704735
S31508004BD000ED00E0DFF834D00D480E490E4A0023F8
S31508004BE002E0D458C4500433C4188C42F9D30B4A93
S31508004BF00B4C002301E013600432A242FBD3FFF7FB
S31508004C00DFFF03F0A1FFFFF7D7FB70470000022084
S31508004C10000000205C020020B8D8000860020020CE
S31508004C2020170020FEE7000038B50E4A0E4B127812
S31508004C301B6805464FF47A70B0FBF2F0B3FBF0F050
S31508004C4000F0B2F808B90F2D01D9012038BD044685
S31508004C50024629464FF0FF3000F05AF8034B20462B
S31508004C601D6038BD8C0000208800002090000020C0
S31508004C7008B50B4B1A6842F400721A601A6842F4B7
S31508004C8080621A601A6842F480721A60032000F083
S31508004C902DF80020FFF7C8FFFFF722FD002008BD0A
S31508004CA0003C0240034A044B11681B780B4413600E
S31508004CB0704700BFD01500208C000020014B1868F3
S31508004CC0704700BFD015002038B50446FFF7F6FF39
S31508004CD0631C054602D0044B1B781C44FFF7EEFF05
S31508004CE0431BA342FAD338BD8C0000200749CA6883
S31508004CF003024FF6FF0003F4E0630240134343F058
S31508004D00BF6343F40033CB60704700BF00ED00E09B
S31508004D101C4BDB68C3F3022300B5C3F1070EBEF1D3
S31508004D20040F03F1040C28BF4FF0040EBCF1060F64
S31508004D301BD9033B4FF0FF3C0CFA03FC22EA0C029A
S31508004D404FF0FF3C0CFA0EFC21EA0C0199400028B2
S31508004D5041EA02010CDB00F16040090100F56140FF
S31508004D60C9B280F800135DF804FB00221346E7E792
S31508004D70054B00F00F0009010344C9B219765DF826
S31508004D8004FB00BF00ED00E0FCEC00E0002807DBB8
S31508004D904109044A00F01F000123834042F82130EC
S31508004DA0704700BF00E100E00138B0F1807F10D203
S31508004DB010B44FF0E023084C58614FF0F00C84F81B
S31508004DC023C00022072110469A615DF8044B196139
S31508004DD070470120704700BF00ED00E070B504463B
S31508004DE0866DFFF76BFF94F83530022B06D08023CB
S31508004DF06365002384F83430012070BD23681A687F
S31508004E0022F016021A605A6922F080025A61226C50
S31508004E10054642B31A6822F008021A601A6822F098
S31508004E2001021A6005E0FFF749FF431B052B10D85E
S31508004E3023681B6813F00103F5D1E16D3F228A4010
S31508004E40184601210023B26084F8351084F83430FE
S31508004E5070BD032320226265184684F83530002386
S31508004E6084F8343070BDA26C002AD3D1D6E700BFCF
S31508004E7090F83530022B03D0802343650120704714
S31508004E800268052380F83530136823F001030020F3
S31508004E90136070472DE9F04F00220C68DFF830A246
S31508004EA0844E85B01346894605E00133102B02F17E
S31508004EB0020200F08A800121994001EA040BA1430D
S31508004EC0F3D1D9F804C00CF003014D1E012D7FD98A
S31508004ED0032940F0C0809140CD4307683D402943EF
S31508004EE01CF4403F0160E0D000210391DAF8441039
S31508004EF041F48041CAF84410DAF8441001F48041BC
S31508004F000391039923F0030101F1804101F59C31D6
S31508004F1003F003078D68BF004FF00F0E0EFA07FE69
S31508004F2025EA0E08644DA84224D005F58065A842F6
S31508004F3000F09580614DA84200F09880604DA84227
S31508004F4000F09B805F4DA84200F09E805E4DA8420F
S31508004F5000F0A1805D4DA84200F0A480DFF874E15E
S31508004F6070450CBF4FF0070E4FF0080E0EFA07F704
S31508004F7048EA0708C1F80880B1686FEA0B051CF40F
S31508004F80801F0CBF29404BEA0101B160F1681CF48F
S31508004F90001F0CBF29404BEA0101F16071681CF43F
S31508004FA0003F0CBF29404BEA0101716031681CF4CF
S31508004FB0803F03F101030CBF29404BEA0101102B86
S31508004FC0316002F102027FF476AF05B0BDE8F08FDA
S31508004FD0D9F80C50D0F808E005FA02F7032505FAC7
S31508004FE002F82EEA080E47EA0E078760476827EA9E
S31508004FF00B0ECCF300179F4047EA0E076FEA080529
S315080050004760C76807EA050ED9F80870974047EA67
S315080050100E070229C76001FA02F17FF45EAF4FEA74
S31508005020D30E00EB8E0E03F00708DEF8207000970B
S31508005030D9F810704FEA880807FA08F701970F277A
S3150800504007FA08F8009F27EA0808019F47EA0807B1
S31508005050CEF8207041E703259540ED43D1E74FF0A0
S31508005060010E0EFA07F748EA070883E74FF0020E23
S315080050700EFA07F748EA07087CE74FF0030E0EFA20
S3150800508007F748EA070875E74FF0040E0EFA07F720
S3150800509048EA07086EE74FF0050E0EFA07F748EAE2
S315080050A0070867E74FF0060E0EFA07F748EA0708FB
S315080050B060E700BF003C01400000024000080240D3
S315080050C0000C024000100240001402400018024082
S315080050D000380240001C02400369194214BF01202F
S315080050E00020704702B9090481617047002800F062
S315080050F0A2812DE9F0410368DD0782B004462FD569
S315080051009E498A6802F00C02042A00F0ED808A683B
S3150800511002F00C02082A00F0E3806368B3F5803FCA
S3150800512000F0EC80B3F5A02F00F07581934D2A6846
S3150800513022F480322A602A6822F480222A60002B10
S3150800514040F0E180FFF7BAFD064605E0FFF7B6FD39
S31508005150801B642800F201812B689B03F6D4236820
S315080051609F0728D5854A916811F00C0F00F09080AA
S31508005170916801F00C01082900F08680E368002B8D
S3150800518000F00E817E4B7D4E01221A60FFF796FDD8
S31508005190054605E0FFF792FD401B022800F2DD8078
S315080051A033689807F6D53368226923F0F80343EA8B
S315080051B0C203336023681A0751D458072FD56F4A9C
S315080051C0136C13F080537FD000256E4E3368D905D3
S315080051D040F1B380A368012B00F0C380052B00F0D3
S315080051E02C81664E326F22F001023267326F22F04E
S315080051F004023267002B40F0B980FFF75FFD41F2E9
S315080052008838074605E0FFF759FDC01B404500F200
S31508005210A480336F9807F6D4002D40F00681A06964
S31508005220C8B1564DAB6803F00C03082B00F0C980D3
S31508005230534B002202281A6600F00981FFF73EFD4B
S31508005240044605E0FFF73AFD001B022800F28580B8
S315080052502B689B01F6D4002002B0BDE8F081636993
S315080052600BB3474B454E0122C3F8802EFFF726FDA8
S31508005270054604E0FFF722FD401B02286DD8736F30
S315080052809B07F7D5236898E7526856023FF576AF2D
S315080052903A4A1268950744D5E268012A41D00120A6
S315080052A002B0BDE8F081364A344EC2F8803EFFF7B8
S315080052B005FD054604E0FFF701FD401B02284CD812
S315080052C0736F9F07F7D4DDE70193136C43F08053A0
S315080052D01364136C03F080530193019B012574E753
S315080052E04A6850027FF519AF244A126891037FF580
S315080052F037AF6268002A7FF433AFD0E71F4A1368D6
S3150800530043F480331360FFF7D9FC1C4E054604E0CE
S31508005310FFF7D4FC401B64281FD833689A03F7D5D7
S315080053201DE7164920690A6822F0F80242EAC00217
S315080053300A601A077FF541AF91E7336843F4807333
S315080053403360FFF7BBFC07463368DA053FF542AF23
S31508005350FFF7B4FCC01B0228F6D9032002B0BDE84B
S31508005360F081064A136F43F001031367FFF7A6FCA3
S31508005370024F064641F288380BE000BF003802406B
S315080053800000474200700040FFF798FC801B40452C
S31508005390E3D83B6F9B07F7D5002D3FF440AF44E0B9
S315080053A0424A434E1360FFF789FC054604E0FFF7BF
S315080053B085FC401B0228D0D833689907F7D42368A0
S315080053C0F9E601283FF448AF6B68E26903F4800107
S315080053D091427FF464AF226A03F03F0191427FF461
S315080053E05EAF616A47F6C0721A40B2EB811F7FF45E
S315080053F056AFA26A520803F44031013AB1EB024FA4
S315080054007FF44DAFE26A03F07063B3EB026F14BF2B
S315080054100120002020E7264B1A6842F480221A60F1
S315080054201A6842F480321A606DE7214A136C23F039
S3150800543080531364F3E6012070471D4B1A6F42F040
S3150800544004021A671A6F42F001021A678EE7FFF71D
S3150800545035FC064605E0FFF731FC801B02283FF6BF
S315080054607CAF2B689901F6D4D4E90731626A0B43FD
S3150800547043EA8213D4E90A21520843EA0163013A4E
S315080054800A4943EA024301226B600A66FFF716FCE3
S31508005490074D044605E0FFF711FC001B02283FF6FE
S315080054A05CAF2B689A01F6D5D5E600BF00004742E7
S315080054B000380240164908B58B6803F00C03042B24
S315080054C01BD0082B17D14A684B68496813F4800328
S315080054D002F03F0213D10F48C1F38811A1FB000166
S315080054E0FBF7D2FB0A4B5B68C3F3014301335B004E
S315080054F0B0FBF3F008BD074808BD074808BD0648D5
S31508005500C1F388110023A1FB0001FBF7BDFBE9E706
