:020000040800F2
:10000000000002203D400008D53E0008DD3E00080B
:10001000E53E0008E93E0008F13E0008000000004F
:10002000000000000000000000000000F93E000891
:10003000FD3E000800000000013F0008053F0008E9
:100040008D4000088D4000088D4000088D4000085C
:100050008D4000088D4000088D4000088D4000084C
:100060008D4000088D4000088D4000088D4000083C
:100070008D4000088D4000088D4000088D4000082C
:100080008D4000088D4000088D4000088D4000081C
:100090008D4000088D4000088D4000088D4000080C
:1000A0008D4000088D4000088D4000088D400008FC
:1000B0008D4000088D4000088D4000088D400008EC
:1000C0008D4000088D4000088D400008153F000855
:1000D0008D4000088D400008213F00082D3F00089A
:1000E0008D4000088D4000088D4000088D400008BC
:1000F0008D4000088D4000088D4000088D400008AC
:100100008D4000088D4000088D4000088D4000089B
:10011000393F0008453F0008513F00088D40000866
:100120008D4000088D4000088D4000088D4000087B
:100130008D4000088D4000088D4000088D4000086B
:100140008D4000088D4000088D4000088D4000085B
:100150008D4000088D4000088D4000085D3F00087C
:100160008D4000088D4000088D4000088D4000083B
:100170008D4000088D4000088D4000080000000000
:080180008D4000088D400008CD
:1001900010B5054C237833B9044B13B10448AFF3C1
:1001A00000800123237010BD100200200000000019
:1001B000FCAB000808B5034B1BB103490348AFF380
:1001C000008008BD0000000014020020FCAB000805
:1001D00001F0FF01102A2BDB10F0070F08D010F8F8
:1001E000013B013A8B422DD010F0070F42B3F6D1FC
:1001F000F0B441EA012141EA014122F007047FF015
:1002000000070023F0E80256083C85EA010586EA6B
:10021000010685FA47F5A3FA87F586FA47F6A5FAA7
:1002200087F68EB9EED1F0BC01F0FF0102F00702B3
:1002300032B110F8013B013A83EA010313B1F8D15E
:100240000020704701387047002D06BF354603383F
:10025000073815F0010F07D1013015F4807F02BF78
:10026000013015F4C03F0130F0BC0138704700BFC9
:10027000034613F8012B002AFBD1181A01387047E6
:1002800081F0004102E000BF83F0004330B54FEA47
:1002900041044FEA430594EA050F08BF90EA020FB4
:1002A0001FBF54EA000C55EA020C7FEA645C7FEA47
:1002B000655C00F0E2804FEA5454D4EB5555B8BF6A
:1002C0006D420CDD2C4480EA020281EA030382EADB
:1002D000000083EA010180EA020281EA0303362D6D
:1002E00088BF30BD11F0004F4FEA01314FF4801C40
:1002F0004CEA113102D0404261EB410113F0004F52
:100300004FEA03334CEA133302D0524263EB430308
:1003100094EA050F00F0A780A4F10104D5F1200EA6
:100320000DDB02FA0EFC22FA05F2801841F1000101
:1003300003FA0EF2801843FA05F359410EE0A5F1D5
:1003400020050EF1200E012A03FA0EFC28BF4CF006
:10035000020C43FA05F3C01851EBE37101F00045BC
:1003600007D54FF0000EDCF1000C7EEB00006EEBC9
:100370000101B1F5801F1BD3B1F5001F0CD3490853
:100380005FEA30004FEA3C0C04F101044FEA4452AA
:1003900012F5800F80F09A80BCF1004F08BF5FEA31
:1003A000500C50F1000041EB045141EA050130BD11
:1003B0005FEA4C0C404141EB0101013C28BFB1F523
:1003C000801FE9D291F0000F04BF01460020B1FA6E
:1003D00081F308BF2033A3F10B03B3F120020CDA41
:1003E0000C3208DD02F1140CC2F10C0201FA0CF01F
:1003F00021FA02F10CE002F11402D8BFC2F1200C84
:1004000001FA02F120FA0CFCDCBF41EA0C01904039
:10041000E41AA2BF01EB0451294330BD6FEA040482
:100420001F3C1CDA0C340EDC04F11404C4F120026D
:1004300020FA04F001FA02F340EA030021FA04F37F
:1004400045EA030130BDC4F10C04C4F1200220FAD6
:1004500002F001FA04F340EA0300294630BD21FA14
:1004600004F0294630BD94F0000F83F4801306BFDA
:1004700081F480110134013D4EE77FEA645C18BFCE
:100480007FEA655C29D094EA050F08BF90EA020F65
:1004900005D054EA000C04BF1946104630BD91EA5D
:1004A000030F1EBF0021002030BD5FEA545C05D160
:1004B0004000494128BF41F0004130BD14F580049F
:1004C0003CBF01F5801130BD01F0004545F0FE4113
:1004D00041F470014FF0000030BD7FEA645C1ABF48
:1004E000194610467FEA655C1CBF0B46024650EA7F
:1004F000013406BF52EA033591EA030F41F40021AB
:1005000030BD00BF90F0000F04BF0021704730B530
:100510004FF4806404F132044FF000054FF0000105
:1005200050E700BF90F0000F04BF0021704730B5C6
:100530004FF4806404F1320410F0004548BF40429B
:100540004FF000013EE700BF42004FEAE2014FEAF0
:1005500031014FEA02701FBF12F07F4393F07F4FCB
:1005600081F06051704732F07F4208BF704793F0CE
:100570007F4F04BF41F40021704730B54FF46074E1
:1005800001F0004521F000411CE700BF50EA0102E4
:1005900008BF704730B54FF000050AE050EA01028D
:1005A00008BF704730B511F0004502D5404261EBFD
:1005B00041014FF4806404F132045FEA915C3FF43E
:1005C000D8AE4FF003025FEADC0C18BF03325FEADB
:1005D000DC0C18BF033202EBDC02C2F1200300FA8C
:1005E00003FC20FA02F001FA03FE40EA0E0021FAB1
:1005F00002F11444BDE600BF70B54FF0FF0C4CF49F
:10060000E06C1CEA11541DBF1CEA135594EA0C0F50
:1006100095EA0C0F00F0DEF82C4481EA030621EA8B
:100620004C5123EA4C5350EA013518BF52EA0335C6
:1006300041F4801143F4801338D0A0FB02CE4FF078
:100640000005E1FB02E506F00042E0FB03E54FF0A8
:100650000006E1FB03569CF0000F18BF4EF0010EA0
:10066000A4F1FF04B6F5007F64F5407404D25FEA9C
:100670004E0E6D4146EB060642EAC62141EA55514F
:100680004FEAC52040EA5E504FEACE2EB4F1FD0C91
:1006900088BFBCF5E06F1ED8BEF1004F08BF5FEA0F
:1006A000500E50F1000041EB045170BD06F00046C1
:1006B00046EA010140EA020081EA0301B4EB5C046E
:1006C000C2BFD4EB0C0541EA045170BD41F4801166
:1006D0004FF0000E013C00F3AB8014F1360FDEBF8B
:1006E000002001F0004170BDC4F10004203C35DA67
:1006F0000C341BDC04F11404C4F1200500FA05F3EA
:1007000020FA04F001FA05F240EA020001F000428A
:1007100021F0004110EBD37021FA04F642EB060100
:100720005EEA430E08BF20EAD37070BDC4F10C042A
:10073000C4F1200500FA04F320FA05F001FA04F2EE
:1007400040EA020001F0004110EBD37041F10001DA
:100750005EEA430E08BF20EAD37070BDC4F12005E5
:1007600000FA05F24EEA020E20FA04F301FA05F24D
:1007700043EA020321FA04F001F0004121FA04F2F5
:1007800020EA020000EBD3705EEA430E08BF20EAC5
:10079000D37070BD94F0000F0FD101F000464000FF
:1007A00041EB010111F4801F08BF013CF7D041EA81
:1007B000060195F0000F18BF704703F00046520085
:1007C00043EB030313F4801F08BF013DF7D043EA56
:1007D0000603704794EA0C0F0CEA135518BF95EA0C
:1007E0000C0F0CD050EA410618BF52EA4306D1D193
:1007F00081EA030101F000414FF0000070BD50EAB2
:10080000410606BF1046194652EA430619D094EA3B
:100810000C0F02D150EA013613D195EA0C0F05D125
:1008200052EA03361CBF104619460AD181EA030179
:1008300001F0004141F0FE4141F470014FF0000031
:1008400070BD41F0FE4141F4780170BD70B54FF0CC
:10085000FF0C4CF4E06C1CEA11541DBF1CEA13554C
:1008600094EA0C0F95EA0C0F00F0A7F8A4EB05042E
:1008700081EA030E52EA03354FEA013100F0888025
:100880004FEA03334FF0805545EA131343EA1263EE
:100890004FEA022245EA111545EA10654FEA0026A3
:1008A0000EF000419D4208BF964244F1FD0404F55C
:1008B000407402D25B084FEA3202B61A65EB0305B8
:1008C0005B084FEA32024FF480104FF4002CB6EB75
:1008D000020E75EB030E22BFB61A754640EA0C00F5
:1008E0005B084FEA3202B6EB020E75EB030E22BF35
:1008F000B61A754640EA5C005B084FEA3202B6EB76
:10090000020E75EB030E22BFB61A754640EA9C0034
:100910005B084FEA3202B6EB020E75EB030E22BF04
:10092000B61A754640EADC0055EA060E18D04FEAC2
:10093000051545EA16754FEA06164FEAC30343EA62
:1009400052734FEAC2025FEA1C1CC0D111F4801F2F
:100950000BD141EA00014FF000004FF0004CB6E728
:1009600011F4801F04BF01430020B4F1FD0C88BFC7
:10097000BCF5E06F3FF6AFAEB5EB030C04BFB6EBD2
:10098000020C5FEA500C50F1000041EB045170BDC5
:100990000EF0004E4EEA113114EB5C04C2BFD4EBF2
:1009A0000C0541EA045170BD41F480114FF0000E76
:1009B000013C90E645EA060E8DE60CEA135594EAF2
:1009C0000C0F08BF95EA0C0F3FF43BAF94EA0C0FF5
:1009D0000AD150EA01347FF434AF95EA0C0F7FF46A
:1009E00025AF104619462CE795EA0C0F06D152EABE
:1009F00003353FF4FDAE1046194622E750EA4106A2
:100A000018BF52EA43067FF4C5AE50EA41047FF4B2
:100A10000DAF52EA43057FF4EBAE12E74FF0FF3C17
:100A200006E000BF4FF0010C02E000BF4FF0010CE8
:100A30004DF804CD4FEA410C7FEA6C5C4FEA430C61
:100A400018BF7FEA6C5C1BD001B050EA410C0CBFB0
:100A500052EA430C91EA030F02BF90EA020F002012
:100A6000704710F1000F91EA030F58BF994208BF79
:100A700090422CBFD8176FEAE37040F00100704736
:100A80004FEA410C7FEA6C5C02D150EA013C07D18D
:100A90004FEA430C7FEA6C5CD6D152EA033CD3D0D8
:100AA0005DF8040B704700BF8446104662468C46D2
:100AB0001946634600E000BF01B5FFF7B7FF002805
:100AC00048BF10F1000F01BD4DF808EDFFF7F4FF2E
:100AD0000CBF012000205DF808FB00BF4DF808EDB9
:100AE000FFF7EAFF34BF012000205DF808FB00BFDC
:100AF0004DF808EDFFF7E0FF94BF012000205DF8FE
:100B000008FB00BF4DF808EDFFF7CEFF94BF0120B2
:100B100000205DF808FB00BF4DF808EDFFF7C4FFAB
:100B200034BF012000205DF808FB00BF4FEA410CF4
:100B30007FEA6C5C02D150EA013C0AD14FEA430CD7
:100B40007FEA6C5C02D152EA033C02D14FF0000014
:100B500070474FF0010070474FEA410212F5001252
:100B600015D211D56FF47873B3EB625212D94FEAF4
:100B7000C12343F0004343EA505311F0004F23FADE
:100B800002F018BF404270474FF00000704750EA33
:100B9000013005D111F0004008BF6FF000407047F0
:100BA0004FF00000704700BF4A0011D212F500124A
:100BB00011D20DD56FF47873B3EB62520ED44FEAB5
:100BC000C12343F0004343EA505323FA02F0704735
:100BD0004FF00000704750EA013002D14FF0FF3073
:100BE00070474FF0000070474FEA4102B2F1E04316
:100BF00024BFB3F5001CDCF1FE5C0DD901F0004C04
:100C00004FEAC0024CEA5070B2F1004F40EB830053
:100C100008BF20F00100704711F0804F21D113F17F
:100C20003872BCBF01F00040704741F480114FEAB8
:100C30005252C2F11802C2F1200C10FA0CF320FA41
:100C400002F018BF40F001004FEAC1234FEAD3235E
:100C500003FA0CFC40EA0C0023FA02F34FEA4303C8
:100C6000CCE77FEA625307D150EA01331EBF4FF051
:100C7000FE4040F44000704701F0004040F0FE406C
:100C800040F40000704700BF53B94AB9002908BFBB
:100C900000281CBF4FF0FF314FF0FF3000F0A6B925
:100CA000ADF1080C6DE904CE00F03CF8DDF804E08D
:100CB000DDE9022304B0704738B500220023044662
:100CC0000D46FFF70BFF28B920462946BDE83840FE
:100CD00000F00AB8204605F1004100F005F8404256
:100CE00061EB410138BD00BFD0B50C4B0022064678
:100CF0000F46FFF781FCFFF757FF0446FFF702FCA2
:100D0000074B0022FFF778FC02460B463046394677
:100D1000FFF7BAFAFFF748FF2146D0BD0000F03DCB
:100D20000000F0412DE9F047089E0D4604460F46AD
:100D3000002B4AD18A42944665D9B2FA82F343B174
:100D400002FA03FCC3F120029F4020FA02F217438B
:100D50009C404FEA1C4E1FFA8CF5B7FBFEF1220CAB
:100D60000EFB117742EA074201FB05F090420AD9D7
:100D70001CEB020201F1FF3780F01C81904240F22F
:100D8000198102396244121AA4B2B2FBFEF00EFBC2
:100D9000102244EA024400FB05F5A5420AD91CEBE7
:100DA000040400F1FF3280F00781A54240F2048183
:100DB0006444023840EA0140641B00211EB1DC405B
:100DC0000023C6E90043BDE8F0878B4208D9002E16
:100DD00000F0ED800021C6E900050846BDE8F08777
:100DE000B3FA83F1002949D1AB4202D3824200F227
:100DF000F880841A65EB030201201746002EE2D02A
:100E0000C6E90047DFE702B9FFDEB2FA82F3002B42
:100E100040F090808A1A4FEA1C471FFA8CFE01218D
:100E2000B2FBF7F507FB1520220C42EA00420EFB4D
:100E300005F0904208D91CEB020205F1FF3802D2FE
:100E4000904200F2CB804546121AA4B2B2FBF7F0F2
:100E500007FB102244EA02440EFB00FEA64508D917
:100E60001CEB040400F1FF3202D2A64500F2BB8065
:100E70001046A4EB0E0440EA05409FE7C1F12007AD
:100E80008B4022FA07FC4CEA030C05FA01F420FA25
:100E900007F3FD404FEA1C492343B5FBF9F81FFA5D
:100EA0008CFE09FB18551C0C44EA054408FB0EF5A2
:100EB000A54202FA01F200FA01F00BD91CEB04047E
:100EC00008F1FF3A80F08880A54240F28580A8F1C1
:100ED00002086444641B9DB2B4FBF9F309FB13449C
:100EE00045EA044403FB0EFEA64508D91CEB0404A6
:100EF00003F1FF356CD2A6456AD9023B644443EA4C
:100F00000843A3FB0295A4EB0E04AC42C846AE46D0
:100F100056D353D056B1B0EB080264EB0E0404FA7A
:100F200007F7CA40CC401743C6E9007418460021B1
:100F3000BDE8F087C3F1200102FA03FC20FA01F2B8
:100F400025FA01F19D402A434FEA1C471FFA8CFE07
:100F5000B1FBF7F007FB1015110C41EA054100FB4E
:100F60000EF58D4204FA03F408D91CEB010100F1DF
:100F7000FF382FD28D422DD902386144491B92B2DD
:100F8000B1FBF7F507FB151142EA014205FB0EF133
:100F9000914208D91CEB020205F1FF3816D29142AA
:100FA00014D9023D6244521A45EA004138E73146FD
:100FB000304608E73946E6E61046FBE64845A9D242
:100FC000B9EB020865EB0C0E013BA3E74546EAE7E7
:100FD0002B4694E74046D1E7D0467BE7023D62448A
:100FE00032E708460AE76444023842E7704700BF28
:100FF00010B582B00F48022402F05AFB0E4A00944A
:1010000001230C210D4802F063FB0D4804F04AFB5C
:101010000C4801F06DFB0C4800F0C0F90B4800F0E3
:1010200081FA0B4800F076FE0A4802B0BDE8104095
:1010300002F04EBB381400201CAC000830AC000895
:10104000E012002088120020F4130020B0130020CA
:101050006C13002058AC000808B5084C01F0ACF93E
:1010600002F032FA00F02AFE01F008FC00F00CFA5F
:1010700002F0F8FA204603F095FAEFE77C12002020
:1010800008B501F065F900F05DFA00F06BF802F0C8
:1010900007FA01F06BFCBDE8084002F001BB00BF9D
:1010A00010B5044601F0AEF8204600F053FA204691
:1010B00000F06EF82046BDE8104002F00DBB00BF06
:1010C00010B5044601F00CF9204602F0F1F91B4876
:1010D000012103F035FA012811D0194A1948138863
:1010E00001339BB20021F92B1380018006D9164BE6
:1010F00011801A78012A19D000221A7010BD114AE5
:101100000F4C138801339BB20021952B2180138053
:10111000F4D90D4B11801A782AB90C490C4C0A6885
:10112000207001320A6001221A7010BD0948084C73
:101130000268217001320260DEE700BF0000024059
:10114000380200203A0200202C0200203002002049
:101150000000002034020020014B1878704700BFC7
:10116000C6020020074A084813680168013313606B
:1011700039B15B1A042B04D9044A012100231170F0
:1011800003607047CC020020D4020020C602002079
:101190000E4B02681B681968914200D0704710B569
:1011A0000B4C0C4922781846531C23700A4B0C78C0
:1011B0009C54012204F0F0FC0849094A094C0A4BEE
:1011C00009681160002220701A7010BDD002002042
:1011D000C00200203C02002040020020CC0200207F
:1011E000D4020020C7020020C60200202DE9F041F1
:1011F000504DDFF878812C6814B9D8F800402C6085
:101200004D4F4E4E00233B703378052B00F2828009
:10121000DFE803F0233A47566303494B1B7833B1A9
:101220004849494806F012FE08B106233370D8F841
:1012300000301B1BB3F5967F444B1A7820D9022A45
:101240005AD94349434800220A70022102702A6099
:101250001A7032703970BDE8F0813F4A3F4B106818
:101260003F4900221A700F23042204F0E7FB0028F4
:101270004ED1D8F8003001222B60344B32701A78EE
:10128000022ADED8BDE8F0812D4B1B78002BCED092
:101290002C492D4806F0DAFD0028C8D0022333700F
:1012A000C5E72D4A2D4B10682E4900221A700F23D6
:1012B000042204F0C3FB58BBD8F800300322DBE75C
:1012C0001F4B1B78002BB2D01E491F4806F0BEFDF5
:1012D0000028ACD004233370A9E71F4A1F4B1068C5
:1012E000214900221A700F23042204F0A7FB78B9C9
:1012F000D8F800300522BFE701321649D2B21A7081
:10130000134A00230B7013702B603370BDE8F0811B
:101310002C688CE7D8F800000C4B0E4900222A609C
:101320001A703270B0F5967F4FF001023A700A7071
:10133000E5D890E7E0020020C3020020C2020020AE
:10134000C602002080AC000840020020D902002024
:10135000C4020020C8020020D0020020C0020020E9
:1013600078AC000884AC000890AC0008CC020020E7
:1013700010B5084B084C86464FF0000C0A4683F81F
:1013800000C0206871460F2304F058FB003818BFD6
:10139000012010BDC0020020D002002008B5044B7F
:1013A00004491860012204F0F7FB034B187008BDD4
:1013B000D00200203C020020C7020020014B187818
:1013C000704700BFC4020020F8B5254C254F2368A4
:1013D0000BB93B682360244D244E2A7800233370D8
:1013E00002B33968224A2B7023601370B1F5967FDF
:1013F0004FF0010333700CD8F8BD22683B689B1A8C
:101400001B4AB3F5967F13781DD9022B1DD80133E3
:10141000DBB213701749184A00230B701370236056
:101420002B70F8BD154B16491868164B1A700F2310
:10143000042204F003FB0028DFD10D4A3B6823603F
:10144000012113782970022BD6D90B4909480023B2
:101450000B7003700221137023602B703170F8BD84
:10146000DC020020CC020020C1020020C5020020C6
:10147000D8020020C8020020C4020020D0020020B0
:101480009CAC0008C002002010B5124C2378C3B9F0
:10149000114B1B78012B01D0FFF7A8FE0F4B1B78D7
:1014A000012B01D0FFF790FF0D4B1B78012B03D0D0
:1014B0000C4B1B78012B00D110BDBDE81040FFF78D
:1014C00095BE094B09491868012204F065FB20709C
:1014D000DEE700BFC7020020C3020020C5020020D3
:1014E000C4020020C8020020D00200203C020020DC
:1014F0000B4B93F82920022A02D993F8282032B9FD
:1015000000220023C0E90023C1E90023704793EDC6
:10151000027B80ED007BD3E90623C1E900237047FD
:10152000E802002008B5044B04491860012204F0C9
:1015300033FB034B187008BDC8030020C103002013
:10154000C0030020024A136801331360704700BFD4
:10155000C403002038B5204B1C68036822689A42F7
:1015600000D038BD1D4D1E4829781E4B662202FB57
:10157000010293F800C092F8643002F803C001330E
:10158000DBB2BCF10A0F82F8643018D00E290AD8F9
:10159000662303FB010090F86430632B07D9002316
:1015A00080F8643003E00F2904BF00232B700D493D
:1015B0000122204604F0F0FA0B4B187038BD13449A
:1015C00013F8023C0D2BE1D10131C9B2012329707E
:1015D00082F86530DAE700BFC8030020C6090020A2
:1015E000CC030020C1030020C00300200000000045
:1015F0002DE9F04F2DED028B0C4683B02C2106F027
:10160000AAFB451C284604F0FDFC2C21206028463E
:1016100006F0A1FB10F8013F23712C2106F09BFB83
:101620000130019004F0E4FC0198B0EE408AF0EE45
:10163000608A84ED020B2C2106F08DFBB0EE480A87
:10164000F0EE680A46782C2E9FED731B054600F0DD
:10165000C08009F097F972A3D3E9002351EC180B6D
:1016600059EC108BFEF7C8FFFFF79EFAC0B2FEF7E9
:1016700049FF6D4B82468B464FF01132404649463A
:10168000FEF7BAFF0B46024659465046FEF7FEFDEE
:1016900006F0FB03532B02D101F100431946C4E9C4
:1016A000020126742C21681C06F055FB451C2846B7
:1016B00004F0A1FC10EE100AFEF746FF06460F46A6
:1016C0002846C4E906672C2106F045FB90F8018006
:1016D000B8F12C0F9FED501B47EC106B054656D010
:1016E00009F050F94EA3D3E90023304639465BECAC
:1016F00010ABFEF781FFFFF757FAC0B2FEF702FF0B
:10170000494B06460F464FF0113250465946FEF7F8
:1017100073FF0B46024639463046FEF7B7FD08F028
:10172000FB03532B02D101F100431946C4E9060122
:1017300084F820802C21681C06F00DFB01300190FC
:1017400004F059FC2C21019884ED090A06F003FBF2
:10175000013004F050FCD4E90C32217984ED0A0AFE
:10176000013342F100024129C4E90C320AD10FCC05
:101770002E4D0FC50FCC0FC50FCC0FC594E803003D
:1017800085E8030003B0BDEC028BBDE8F08F09F0E3
:10179000F9F823A3D3E90023304639465BEC10ABBC
:1017A000FEF72AFFFFF700FAC0B2FEF7ABFE1E4BB2
:1017B00006460F46504659464FF01132FEF71CFFC1
:1017C00002460B46304639464FF03F08FEF75EFDB5
:1017D000ACE709F0D7F812A3D3E9002351EC180BBA
:1017E0005BEC10ABFEF708FFFFF7DEF9C0B2FEF7C7
:1017F00089FE0D4B80468946504659464FF01132BE
:10180000FEF7FAFE02460B46404649463F26FEF7E3
:101810003DFD44E7AFF300800000000000005940A8
:101820007B14AE47E17A843F1111913F8803002079
:101830002DE9F04F2DED028B0C4683B02C2106F0E4
:101840008AFA451C284604F0DDFB2C21206028463E
:1018500006F081FA0130019004F0CAFB0198B0EE65
:10186000408AF0EE608A84ED020B2C2106F073FAB8
:10187000B0EE480AF0EE680A46782C2E9FED7E1BEB
:10188000054600F0B38009F07DF87DA3D3E900237D
:1018900051EC180B59EC108BFEF7AEFEFFF784F9F4
:1018A000C0B2FEF72FFE784B82468B464FF01132C6
:1018B00040464946FEF7A0FE0B46024659465046B2
:1018C000FEF7E4FC06F0FB03532B02D101F10043C9
:1018D0001946C4E9020126742C21681C06F03BFA63
:1018E000451C284604F087FB10EE100AFEF72CFE7C
:1018F00006460F462846C4E906672C2106F02BFA57
:1019000090F80180B8F12C0F9FED5B1B47EC106B3A
:10191000054600F08C8009F035F859A3D3E900237F
:10192000304639465BEC10ABFEF766FEFFF73CF93C
:10193000C0B2FEF7E7FD544B06460F464FF011329A
:1019400050465946FEF758FE0B4602463946304689
:10195000FEF79CFC08F0FB03532B02D101F100437E
:101960001946C4E9060184F820802C21681C06F081
:10197000F2F9451C284604F041FB2C2184F828008C
:10198000284606F0E8F9451C284604F037FB2C21D0
:1019900084F82900284606F0DEF90130019004F0B1
:1019A0002AFB2C21019884ED0B0A06F0D4F90130B2
:1019B00004F021FBD4E90C3294F8281084ED090AD4
:1019C000013342F10002C4E90C3251B10FCC2F4D6A
:1019D0000FC50FCC0FC50FCC0FC594E8030085E8E9
:1019E000030003B0BDEC028BBDE8F08F08F0CAFF26
:1019F00023A3D3E9002351EC180B5BEC10ABFEF7EB
:101A0000FBFDFFF7D1F8C0B2FEF77CFD1E4B804610
:101A10008946504659464FF01132FEF7EDFD024619
:101A20000B46404649463F26FEF730FC51E708F09A
:101A3000A9FF13A3D3E90023304639465BEC10AB72
:101A4000FEF7DAFDFFF7B0F8C0B2FEF75BFD0E4B14
:101A500006460F46504659464FF01132FEF7CCFD70
:101A600002460B46304639464FF03F08FEF70EFC63
:101A700077E700BFAFF3008000000000000059408E
:101A80007B14AE47E17A843F1111913F3803002067
:101A900070B50E4682B02C2106F05DF910F8013FBA
:101AA00033702C2106F057F9441C204604F0A6FAA6
:101AB0000C25707000E0441C2C21204606F04BF9E8
:101AC0006B1E13F0FF05F6D12C21013006F043F90F
:101AD0000130019004F08FFA019886ED010A2C2163
:101AE00006F039F90130019004F085FA2C210198B3
:101AF00086ED020A06F02FF9013004F07CFAD6E9EF
:101B00000432717886ED030A013342F100020129A3
:101B1000C6E9043206D90FCE034C0FC496E8030081
:101B200084E8030002B070BD700300202DE9F04F7F
:101B3000564C574FDFF87C91DFF87C8183B004F27C
:101B4000FA5602E06634B4427DD094F86530002B3A
:101B5000F8D049464FF0000B204687F800B006F059
:101B600019F90546C8F80000FEF782FB494B8DF8CD
:101B700006B05FFA80FAAAF103011B88ADF80430C1
:101B800001297BDDAAF11003F22B63D85B46AAF191
:101B9000040C4FEA9C0B6A1C9E4652F8040B01335E
:101BA0005B4580EA0E0EF8D3CEF30722CEF307434F
:101BB0008EEA02025A400CF0FC0382EA1E62581CB4
:101BC0001CF0030FD2B2C0B20ED0285C4240981C69
:101BD000C0B2884208DA0333285CDBB2994282EA59
:101BE000000201DDEB5C5A4055442B4901A806F088
:101BF00047F89DF8042015F8023C9A4226D19DF83A
:101C0000052015F8013C9A4220D1D8F8005023490C
:101C10000123042228463B7006F0AAF820B320498D
:101C20000422284606F0A4F818B31E4904222846C8
:101C300006F09EF820B30023A4F864306634022234
:101C4000B4423A7081D103B0BDE8F08F0023A4F80C
:101C5000643077E75A460123E85C0133DBB28B42FC
:101C600082EA0002F8DBBFE70F492846FFF710FFC2
:101C7000E1E70E492846FFF7DBFDDCE75A46B3E70C
:101C80000B492846FFF7B4FCD5E700BFCC03002082
:101C90000100002018AC0008A8AC0008B0AC000897
:101CA000B8AC0008C0AC000820030020E802002007
:101CB000D00900206CC40008C809002010B5094CE8
:101CC00023781BB9BDE81040FFF730BF064B07492A
:101CD0001868012203F060FF2070BDE81040FFF794
:101CE00025BF00BFC0030020C8030020C10300209F
:101CF000014B1878704700BF0E0A0020014B187086
:101D0000704700BF0E0A0020014B1878704700BFD3
:101D1000240A002070B5254C25492060012203F0DB
:101D20003BFF244B244D1870244B254800214FF4D1
:101D300000721970298006F006F8224920682823CD
:101D40000C2203F07BFE30B91F4801F0C1FC4FF4B8
:101D5000FA7002F0EDF91D4C1D481D4D01221021B5
:101D600002F0F4FB266806E002F0E2F923689B1B10
:101D7000B3F5487F15D22021284602F0E1FB034647
:101D800001208342F0D1134801F0A2FC1048002248
:101D9000102102F0DBFBBDE870404FF47A7002F0D6
:101DA000C7B90D4801F094FCEDE700BF200A002000
:101DB000360A00200C0A0020340A0020240A0020E1
:101DC000380A0020C8AC0008D8AC0008100A00206F
:101DD0000010024010AD0008F4AC00082DE9F041FD
:101DE0009E4D9F4F2C6882B00CB93C682C60DFF888
:101DF000BC829C4E002388F800303378112B00F20F
:101E0000AE81DFE813F02E004D005B006A017A011D
:101E1000F70007011C01550170007F009300A0002E
:101E2000B400C100D600E20012008F4B1B78002BDB
:101E300040F080818D4B39680C1BB4F5FA7F29D3B3
:101E40001A78022A40F26E818948002202212A6013
:101E50001A70327088F8001002B0BDE8F04101F04D
:101E600037BC844B8448002119807F4B4FF40072AB
:101E7000197005F068FF814B8149186806222823F4
:101E800003F0DCFD00282CD133783A682A60013356
:101E90003370764B1A78022AD6D802B0BDE8F081AA
:101EA000714B1B78002BC5D07649734805F0CEFFE7
:101EB0000028BFD0022333706C4BBCE76D4B6E48DB
:101EC00000211980684B4FF40072197005F03BFF38
:101ED0006A4B6D4918680B22282303F0AFFD0028D8
:101EE000D2D02C68A6E7604B1B78002BA2D06749A4
:101EF000614805F0ABFF002800F02E810A23337003
:101F00005A4B98E75B4B5C4800211980564B4FF4C5
:101F10000072197005F017FF584B5D4918680D22C3
:101F2000282303F08BFD0028AED0DAE74E4B1B7858
:101F3000002B3FF47FAF53494F4805F087FF0C2338
:101F400033704A4B77E74B4B4B4800211980464B87
:101F50004FF40072197005F0F6FE484B4D491868B1
:101F60000A22282303F06AFD00288DD0B9E73E4BF2
:101F70001B78002B3FF45EAF42493F4805F066FFF7
:101F800012233370394B56E73A4B3B4800211980F6
:101F9000354B4FF40072197005F0D5FE374B3E49B2
:101FA00018680B22282303F049FD00283FF46CAF8A
:101FB00097E72D4B1B78002B3FF43CAF31492E485F
:101FC00005F044FF002845D134E72A4B2A48002178
:101FD0001980254B4FF40072197005F0B4FE274BA1
:101FE0002E4918680C22282303F028FD00283FF40E
:101FF0004BAF76E71C4B1B78002B3FF41BAF2849F7
:102000001D4805F023FF00283FF414AF062333706A
:10201000164B10E7174B184800211980124B4FF44C
:102020000072197005F08FFE144B1E4918680A22C1
:10203000282303F003FD00283FF426AF51E70A4BA5
:102040001B78002B3FF4F6AE17490B4805F0FEFE57
:10205000002877D008233370044BECE6080A0020F0
:10206000100A00203A0C0020240A0020320A002026
:10207000E0AD0008340A0020380A0020200A0020C1
:1020800028AD000880AC000830AD00088CAD000819
:10209000A8AD0008B8AD000874AD000898AD000800
:1020A00048AD000850AD00085CAD00080E0A0020E5
:1020B000324B334800211980324B4FF400721970B3
:1020C00005F041FE304B314918680B22282303F0FC
:1020D000B5FC00283FF4D8AE03E72A4B1B78002B51
:1020E0003FF4A8AE2A49264805F0B0FE00283FF488
:1020F000A1AE04233370274B9DE6204B20480021DE
:102100001980204B4FF40072197005F01CFE1E4B15
:10211000214918680A22282303F090FC00283FF484
:10212000B3AEDEE601321A7000232960337002B0CC
:10213000BDE8F0811649124805F088FE00287FF4BA
:10214000DDAE77E615490E4805F080FE002881D106
:102150000E2333700F4B6EE610233370C1E60D4B28
:102160000F48019300221A702A603270012288F809
:10217000002001F0ADFA2C68019B5CE6340A0020D7
:10218000380A0020240A0020200A002080AD000820
:1021900080AC0008320A00203CAD000868AD0008A1
:1021A000C4AD000838B50D4B0D4D002104464FF469
:1021B00000720C482980197005F0C5FD2046FEF715
:1021C00057F8094902462823086892B2214603F0CD
:1021D00035FC003818BF012038BD00BF240A00209C
:1021E000340A0020380A0020200A0020014608B5E1
:1021F000034805F02BFE003818BF012008BD00BFC2
:10220000380A00200E4B02681B681968914200D002
:10221000704710B50B4C0C4922881846531C23807C
:102220000A4B0C789C54012203F0B6FC084A094C76
:102230001168094B20700022C3E9001210BD00BFD5
:10224000200A0020340A0020360A0020380A002024
:10225000100A00200C0A0020280A00202DE9F8436B
:102260001B4B8D090024A1EB85111C80194B0646E0
:10227000CFB219481C704FF4007221464FEA8519FD
:1022800005F061FD0DB3DFF85480D8F8000006EBCF
:1022900084111E230134402203F0D0FBE3B2AB4291
:1022A0001C46F2D327B9003818BF0120BDE8F883D7
:1022B0000A4A1E23106806EB09013A4603F0BEFBEA
:1022C000003818BF0120BDE8F8832846EAE700BFC0
:1022D000340A0020240A0020380A0020200A0020A6
:1022E000154A1648D2E90031013310B541F1000416
:1022F0002021C2E9003402F023F901280DD0104A50
:102300001048138801339BB20021962B1380018063
:1023100002D90D4B1180197010BD0A4A084C138860
:1023200001339BB20021962B21801380F4D9064BF8
:102330001180187010BD00BF180A00200010024064
:10234000300A0020380C00200D0A00200000000098
:1023500010B41149114CD1E9000223680133236004
:1023600050EA020406D01B1A62EB42020A2B72F1F9
:10237000000202D25DF8044B70479FED057B084BCD
:1023800001221A7081ED007B5DF8044B704700BF9D
:102390000000000000000000280A0020100A0020B1
:1023A000240A0020024B03491A8805F0DBBD00BF58
:1023B000340A0020380A002038B51A4B1B78012B4C
:1023C00017D00024012210211748184D02F0BEF842
:1023D00020462C7000F0DEFA204600F0CFFA2046AE
:1023E000134C00F0D1FA23786BB92B78012B14D160
:1023F00038BD0F4C0C480D4D0022102102F0A6F8FC
:102400002378002BF1D00B4B0B491868012203F005
:10241000C3FB2B782070012BEAD0BDE83840FFF7D2
:10242000DDBC00BF0D0A0020001002400E0A002093
:102430000C0A0020200A0020360A002010B50C46A5
:1024400082B0014658224E4805F08CFDE378227890
:102450004C4822F00F0203F007034FF0200C134307
:10246000082100228DF807C08DF8063002F06EF8C2
:102470000A2301220DF10701414802F06BFC0A23F7
:1024800001220DF106013E4802F064FC3D480122A4
:10249000082102F05BF8A37862783A4802F038022B
:1024A000242123F03F0313438DF807100022082155
:1024B0008DF8063002F04AF80A2301220DF10701D7
:1024C0002F4802F047FC0A2301220DF106012C4897
:1024D00002F040FC2B480122082102F037F8237952
:1024E000FBB96378202B15D8DFE803F03E141414F1
:1024F000141414144214141414141414461414143C
:102500001414141411141414141414143A001E4B3B
:102510001E4A1A601B480122082102F017F802B077
:1025200010BD88238DF80630164823230022082189
:102530008DF8073002F00AF80DF107010A23012295
:102540000F4802F007FC0DF1060101220A230C4896
:1025500002F000FC0B480122082101F0F7FFC0E760
:10256000094B0B4A1A60D5E7074B0A4A1A60D1E7B4
:10257000054B094A1A60CDE7034B084A1A60C9E7C0
:10258000480C002000100240100000208FC2753E51
:1025900048E13A3F8FC2753D8FC2F53DEC51383E60
:1025A0002DE9F043494E4A4F89B0A8233046002216
:1025B00008218DF8143001F0C9FF05A90A23012272
:1025C000384602F0C7FB0A2305A90222384602F06A
:1025D00069FE30460122082101F0B8FF3046AA23E7
:1025E000002208219DF814409DF815908DF81430B4
:1025F00001F0ACFF05A90A230122384602F0AAFB2C
:102600000A2305A90222384602F04CFE3046012278
:10261000082101F09BFF3046AC23002208219DF8E1
:1026200014509DF815808DF8143001F08FFF05A926
:102630000A230122384602F08DFB05A90A233846F9
:10264000022202F02FFE30460122082101F07EFF17
:102650009DF815109DF814301E4A05EB082592EDE3
:10266000006A1D4A03EB01231C49D2ED005AD1ED4B
:10267000004A1B4A1B4992ED000A91ED005A1A4A82
:102680001A4992ED001AD1ED000A2DB207EE105A48
:1026900004EB092424B21BB2F8EEC76A07EE904A95
:1026A00007EE103A66EE255A26EE055AF8EEE77A5E
:1026B000B8EEC77A26EE246AD6EE850A97EE061A99
:1026C00097EEA50A09B0BDE8F08300BF00100240F4
:1026D000480C002010000020040000200C00002006
:1026E0003C0C002008000020440C0020400C00207E
:1026F0000F49104A08B501230A600B71FFF79EFECF
:102700000D4B0E4A1A600E490E4B0F480F4ADFF868
:1027100050E01A60C1F800E0DFF848C00C490D4BEA
:102720000D4AC0F800C00D4808601A6008BD00BF1F
:10273000A40C00206020C0073C0C0020000020C139
:10274000400C002008000020040000202F8B783F60
:10275000440C00200C000020BC9C823F0000704212
:1027600000002041FD4A813F01EB41012DE9F84382
:1027700000EB8106D6ED007A3B4FF0EEE77A17EEDC
:10278000900AA6F10C041546FDF7DEFED4ED007AA2
:10279000F0EEE77A804617EE900A8946FDF7D4FE00
:1027A00002460B4640464946FDF76EFD21F00043C8
:1027B0000246C7E90023194600222C4BFEF7ACF96C
:1027C00010B12B8801332B80D6ED017A284FF0EE23
:1027D000E77A17EE900AFDF7B7FED4ED017AF0EE36
:1027E000E77A804617EE900A8946FDF7ADFE02466D
:1027F0000B4640464946FDF747FD21F0004302469F
:10280000C7E9002319460022184BFEF785F910B1DD
:102810006B8801336B80D6ED027AF0EEE77A17EE23
:10282000900AFDF791FED4ED027AF0EEE77A0646C3
:1028300017EE900A0F46FDF787FE02460B4630461C
:102840003946FDF721FD0B4B21F000470646C3E951
:1028500000670022084B3946FEF75EF910B1AB88DD
:102860000133AB80BDE8F883180F0020000044401E
:10287000200F0020280F00200000494070B582B0D2
:10288000A72333488DF804300022082101F05EFEB2
:102890000A23012201A92F4802F05CFA0A2301222F
:1028A00001A92C4802F0FEFC01222948082101F070
:1028B0004DFE9DF80430284A13701B0701D402B066
:1028C00070BD264D264E2C78FFF76AFE297804EB62
:1028D000440406EB8404012984ED000AC4ED010AD6
:1028E00084ED021A11D80131C9B231290AD91D4A21
:1028F00013780133DBB20021022B29700FD813703B
:1029000002B070BD297002B070BD174A3046FFF7A3
:102910002BFF29780131C9B23129E8D8F2E7124BEF
:1029200011701A880A2A02D99A7901329A715A8842
:102930000A2A02D9DA790132DA719A880A2A02D986
:102940001A7A01321A7200221A609A80B7E700BF21
:1029500000100240480C0020120F0020040F00203D
:10296000AC0C0020A00C0020080F0020024A1368C5
:1029700001331360704700BF140F0020014B187023
:10298000704700BF320F0020014B1870704700BF26
:10299000310F0020014B1870704700BF300F00202E
:1029A0002DE9F84F584EDFF870913568DFF86CA1CB
:1029B0000024032C00F099804846FFF7F3FB78B120
:1029C00033685A1BB2F5C87FF6D31D460134042C78
:1029D000EFD101274D4800F07BFE3846BDE8F88F67
:1029E0003768FFF791F940B93568EB1BB3F5C87F3D
:1029F000ECD2FFF789F90028F6D05046FFF7F6FB36
:102A0000002860D03568EB1BB3F5C87FDED2DFF855
:102A100010814046FFF7C6FB48B13568EB1BB3F5A4
:102A2000C87FD3D24046FFF7BDFB0028F5D1D6F8CA
:102A30000080FFF769F948B93568A5EB0803B3F5DD
:102A4000C87FC3D2FFF760F90028F5D05046FFF7E2
:102A5000CDFB002843D03568A5EB0803B3F5C87F4C
:102A6000B4D2DFF8C0B05846FFF79CFB074658B118
:102A70003568A5EB0802B2F5C87FA7D25846FFF724
:102A800091FB07460028F3D1D6F80080FFF73CF908
:102A900048B93568A5EB0803B3F5C87F96D2FFF7B0
:102AA00033F90028F5D05046FFF7A0FB88B1356810
:102AB000A5EB0808B8F5C87F88D2154800F008FED5
:102AC0003846BDE8F88F1348FFF790FB002899D1EE
:102AD0008AE71048FFF78AFB0028E8D1D9E70D48BC
:102AE000FFF784FB0028B6D1A6E74846FFF75AFB5C
:102AF00000283FF46EAF33685D1BB5F5C87FFFF467
:102B000068AF1D4662E700BF480F00208CBE00087A
:102B100064BE000814BE0008F4BD000880AC0008C4
:102B20001CBE000840BE00082DE9F04F9D4D9E4F91
:102B30002B68DFF88482DFF884A283B00024384653
:102B40000193FFF72FFB019B80B9032C2E6815D052
:102B5000DFF86C92FFF7D8F8C0B92A68931BB3F579
:102B6000C87FF7D30134E4B21346E8E72A68D11AE4
:102B7000B1F5C87FC0F01281032CF3D18B4800F06F
:102B8000A7FD0126304603B0BDE8F08F4046FFF7B1
:102B90002DFB00285BD02A68931BB3F5C87FE1D2D8
:102BA000DFF8209240F2A4414846FFF757FB002887
:102BB00058D12E68DFF8109204E02A68931BB3F511
:102BC000C87FCFD2FFF7A0F80028F6D04846FFF71D
:102BD0000DFB0028F1D02A68931BB3F5C87FC1D242
:102BE000DFF8E8914846FFF7DDFA002840D12E686B
:102BF000DFF8CC91FFF788F840B92A68931BB3F54A
:102C0000C87FAFD2FFF780F80028F6D04046FFF724
:102C1000EDFA002858D02A68931BB3F5C87FA1D2DB
:102C2000DFF8AC9140F2C3414846FFF717FB28BBE1
:102C3000D5F800905E4EFFF767F828BB2B68A3EB32
:102C40000902B2F5C87FF6D30134E4B277E7504603
:102C5000FFF7CCFA0028BED14846FFF7C7FA002894
:102C6000B9D17AE72A68931BB3F5C87F9AD379E77D
:102C70002A68931BB3F5C87FB4D373E72B689A1BFC
:102C8000B2F5C87FE0D2CDE73046FFF7AFFA0028B3
:102C9000D4D02B68A3EB0902B2F5C87FD4D2DFF8F9
:102CA00034B15846FFF77EFA064628BBD5F80090A7
:102CB000DFF80CB1FFF728F828BB2B68A3EB09025B
:102CC000B2F5C87FC0D2F5E75046FFF78FFA38B1AA
:102CD0002A68931BB3F5C87FBFF444AF33462EE791
:102CE0004846FFF783FA2B689A1B002851D0B2F5AB
:102CF000C87FA9D2334622E72B68A3EB0902B2F5BD
:102D0000C87FA1D2CDE74046FFF770FAB0B32B6879
:102D1000A3EB0902B2F5C87F96D2DFF8BCB040F24F
:102D20008F615846FFF79AFA68B9D5F80090DFF836
:102D3000ACB0FEF7E9FF70B92B68A3EB0902B2F55E
:102D4000C87F81D2F5E72B68A3EB0902B2F5C87FF3
:102D5000BFF47AAFE3E75846FFF748FA0028EBD014
:102D60002B68A3EB0909B9F5C87FBFF46DAF114813
:102D700000F0AEFC304603B0BDE8F08F5046FFF7E0
:102D800035FA0028ECD15846FFF730FA0028E7D191
:102D900093E7B2F5C87FBFF457AF2BE7032C7FF45E
:102DA000CEAEEBE6480F0020B4BE0008E0BE00083F
:102DB00074BF0008D0BF000808BF000810BF00089B
:102DC00020BF0008FCAD00082CBF000844BF00086D
:102DD000A0B200088CBF000864B70008B8BF0008A4
:102DE0002DE9F041824CDFF894822368814E002265
:102DF00088F800200BB9336823607F4D2B78112BA6
:102E000000F2EA80DFE813F030004300D000BC009D
:102E1000C6009700A000A900B20053005B00640048
:102E20006C0075007D0086008E001200734800F073
:102E30004FFCFEF769FF002830D1714F32682368DC
:102E4000D31AB3F5FA7F1DD33B78022B40F2BD8035
:102E50000023022223603B702B7088F80020694811
:102E6000BDE8F04100F034BC674800F031FC674831
:102E7000FFF798F90028E0D12B783268604F226084
:102E800001332B703B78022BE2D8BDE8F08160481B
:102E900000F01EFCFEF738FF0028CED05D48FFF79B
:102EA000A5F90028C9D02B7801332B70C5E75A4803
:102EB00000F00EFCFEF728FF0028BED0EEE75748D2
:102EC00000F006FC5648FFF76DF90028D4D0B4E7AF
:102ED000544800F0FDFBFEF717FF0028ADD0DDE7FA
:102EE000514800F0F5FB5148FFF75CF90028C3D0CA
:102EF000A3E74F4800F0ECFBFEF706FF00289CD04C
:102F0000CCE74C4800F0E4FB4B48FFF74BF90028B6
:102F1000B2D092E7494800F0DBFBFEF7F5FE00284F
:102F20008BD0BBE7464800F0D3FB4648FFF73AF9A1
:102F30000028A1D081E7444800F0CAFBFEF7E4FE78
:102F400000283FF47AAFA9E7404800F0C1FB4048B1
:102F5000FFF728F900288FD06FE73E4800F0B8FB54
:102F6000FEF7D2FE00283FF468AF97E73A4800F03A
:102F7000AFFB3A48FFF716F900283FF47DAF5CE756
:102F8000374800F0A5FBFFF7CFFD00283FF474AFF2
:102F9000344812E0344800F09BFB3448FFF702F954
:102FA00000283FF469AF48E7314800F091FBFFF794
:102FB000F7FC00283FF460AF2E4800F089FB122395
:102FC0002B70022388F8003037E701333B70002371
:102FD00022602B70BDE8F081094F27480023236051
:102FE0002B703B70012388F8003000F071FB25E75F
:102FF0003C0F0020480F0020DC0F0020E8C2000832
:10300000D80F002020C30008F8BF000804C0000843
:103010001CC0000880AC000898C10008B0C10008BE
:10302000C4C10008E0C10008FCC1000814C20008C7
:1030300034C2000850C2000868C2000890C20008EC
:10304000ACC20008C8C20008DCC00008F4C0000818
:1030500008C100083CC1000854C1000868C100084C
:1030600068C0000880C000089CC00008B0C000080C
:1030700030C0000848C0000808C30008300F002016
:103080002DE9F043DFF80881374FD8F80030374E8C
:10309000002291B081463A7013B93368C8F8003005
:1030A0000024334D00943C22214601A804F04BFE3D
:1030B0002B78012B31D0022B29D0ABB12C70C8F862
:1030C0000040336844F6E7621B1B934208D9002393
:1030D00002222848C8F800302B703A7000F0F8FA45
:1030E000002011B0BDE8F0834946234800F0F0FA13
:1030F00022494A46684604F0C3FD6846FFF752F885
:1031000040B92B78D8F8004001332B70D9E7FEF78F
:10311000FBFDA8B9D8F80040D3E74946184800F0AD
:10312000D7FAFEF7F1FD0028F4D01648FFF75EF855
:1031300060B12B783268C8F8002001332B70CFE7DC
:103140001148FFF753F838B93870E3E72870C8F82A
:10315000000038700446B4E703232B700B480123AA
:103160003B7000F0B5FAD5E7310F0020480F002082
:10317000DB0F0020B4C3000838C3000854C30008A4
:1031800068C3000880AC000880C3000890C3000832
:10319000380F00202DE9F0473A4B3B4EDFF81881FD
:1031A00000221A70336890B081468A4613B9D8F865
:1031B000003033600024354F00943C22214601A8A2
:1031C00004F0C1FD3D78012D34D0022D2DD0A5B1E4
:1031D0003C703460D8F800302D4A1B1B934208D94C
:1031E0002C4A2D480023022133603B70117000F0FF
:1031F0006FFA002010B0BDE8F087524649462748D4
:1032000000F066FA264953464A46684604F038FDFF
:103210002448694600F05CFA6846FEF7C3FF38B9F7
:103220003B78346801333B70D4E7FEF76DFD98B905
:103230003468CFE71C4800F04BFAFEF765FD002824
:10324000F6D01A48FEF7D2FF68B13B78D8F80020D4
:10325000326001333B70CCE71548FEF7C7FF0D4BDA
:1032600038B91870E4E70B4B3870306018700446BA
:10327000B0E703223A700F4801221A7000F028FAD2
:10328000D6E700BF310F0020400F0020DA0F0020EA
:10329000BF250100320F002070C40008D8C3000809
:1032A000F8C3000810C400082CC4000880AC000853
:1032B00040C4000850C40008480F00202DE9F04722
:1032C000DFF8D091644CDFF8D0A1002389F80030FA
:1032D0002368A0B007460E46154613B9DAF8003049
:1032E0002360DFF8B88100217C2201A8009104F05E
:1032F0002AFD98F80030042B00F2A880DFE803F0E4
:103300001D32465E0300FEF7FFFC002874D12068E2
:10331000DAF8003044F6E7621B1A934209D9002319
:1033200002224E48236088F8003089F8002000F01F
:10333000CFF9002020B0BDE8F0873946484800F0BA
:10334000C7F948493A46684604F09AFC6846FEF7D1
:1033500029FF0028DBD198F800302068013388F875
:103360000030D5E7404800F0B3F9FEF7CDFC002867
:10337000CDD03E48FEF73AFF0028ECD1DAF8003015
:1033800088F80000236089F80000D2E71A2331464C
:103390007353374800F09CF9691C89B23046FEF738
:1033A0005DFFE0B1DAF8002022600023002088F8F9
:1033B000003089F8003020B0BDE8F0872D4800F0DB
:1033C00087F9FEF7A1FC0028A1D02B48FEF70EFFDD
:1033D00050BB88F80000206089F8000098E798F852
:1033E00000302648013388F80030DAF800302360D6
:1033F00000F06EF920688BE72148FEF7F7FE68B110
:10340000052388F80030012389F800301D4B1E4841
:1034100000221A7000F05CF9206879E789F8000052
:103420001A4800F055F972E798F80030184801334F
:1034300088F80030DAF80030236000F049F91048CD
:10344000FEF7D4FE00283FF462AFD9E7002088F8E9
:10345000000020605CE700BF440F0020C8C50008E2
:1034600090C40008ACC40008C8C40008E0C4000848
:10347000E4C4000834C5000880AC000800C500089A
:1034800078C50008340F002088C50008A8C50008CA
:1034900050C50008330F0020480F0020D90F00202E
:1034A000024A136801331360704700BF480F0020C1
:1034B000044AD2E90031013341F10001C2E900318F
:1034C000704700BF500F002030B5514B1B78012BC7
:1034D00087B008D0FEF70CFC01283FD107B0BDE84B
:1034E0003040FFF77DBCFEF70FFC00283CD1494B74
:1034F0001B78012B47D1484B1B78012B4BD1474BF5
:10350000474A19681368CB1AB3F57A7F20D3454C24
:1035100045482388116045490288454D0133238081
:103520000B88444C0132013B02800B8034A3D3E969
:103530000023D5E90001FCF7A9FE33A3D3E900235A
:10354000C5E90001D4E90001FCF7A0FEC4E90001CF
:10355000394B1B78012B24D007B030BD002007B0B9
:10356000BDE83040FEF7CABB3448FEF73FFE0028F6
:10357000BDD0334C2046FEF715FF237B302BB6D051
:10358000244B00221A702F4842F2B32107B0BDE845
:103590003040FFF7FFBD2C4807B0BDE83040FFF7D3
:1035A0006FBD234D234C29462046FDF7A1FF274B35
:1035B00027491A88274804F063FB95ED007BD4E97E
:1035C00000018DED047B194A174C164B1288248894
:1035D0001B880192CDE902011F4A2049009420482E
:1035E00004F04EFB1E48FCF743FE1D49821C19489F
:1035F00092B207B0BDE83040FFF760BEAFF3008085
:103600004BB0389CF9D52C3F2D431CEBE2362A3FBA
:10361000300F0020320F0020310F0020480F002013
:10362000E011002018000020E41100201400002008
:103630002800002020000020340F0020E8C50008EA
:10364000580F0020F4C5000828C600081600002006
:1036500030C60008E81100203000002044C60008F1
:10366000E00F002008B5FDF7A9FE60B10A4B1A78FB
:103670001AB90A4A1278012A09D000221A70BDE844
:103680000840FDF769BD054B1B78012B00D008BD34
:10369000014A137008BD00BF291200202812002023
:1036A000024A136801331360704700BF2C120020D8
:1036B00008B5044B04491860012202F06DFA034B6F
:1036C000187008BD741200207912002078120020B2
:1036D0000FB4002004B0704738B50F4B02681B6868
:1036E0001968914200D038BD0C4D0D4C012229467D
:1036F000184602F051FA22780A492B7808700A48D5
:10370000511CC9B20A2B83542170ECD1FDF730FE55
:103710000023237038BD00BF7412002079120020EE
:1037200070120020781200203012002072B6BFF311
:103730004F8F0549054BCA6802F4E0621343CB6022
:10374000BFF34F8F00BFFDE700ED00E00400FA0576
:1037500010B5002394B0CDE90933CDE90233CDE9AA
:103760000433234900930693086C224A40F08050AA
:103770000864096C01F0805100910099019311686F
:1037800041F48041116012680F93012002F48042DD
:103790001023CDE90B03019202240A220823CDE96C
:1037A0000D04089210934022072308A8CDE91124A4
:1037B0000199139300F0FCFE80B99FED097B8DED1C
:1037C000027B9FED097B0346214602A88DED047B19
:1037D000069301F005F908B914B010BDFFF7A6FF74
:1037E0000F000000020000000000000000100000B8
:1037F00000380240007000402DE9804800248DB060
:1038000000F06AFCFFF7A4FFCDE90644CDE90844C7
:10381000B64B00940A941A6BB54842F010021A6332
:103820001A6B02F010020092009A01941A6B42F097
:1038300004021A631A6B02F004020192019A0294C4
:103840001A6B42F080021A631A6B02F08002029235
:10385000029A03941A6B42F001021A631A6B02F087
:1038600001020392039A04941A6B42F002021A6353
:103870001A6B02F002020492049A05941A6B42F049
:1038800008021A631B6B03F00803182105932246F4
:10389000059B00F05BFE97482246022100F056FE91
:1038A000954822464FF21001182500F04FFE4FF6C2
:1038B000C57203238E48089406A9CDE906234FF06C
:1038C000010800F01BFD8A480DEB05014FF0200AAE
:1038D0004FF0000BCDE90658CDE9084400F00EFD8D
:1038E000834808940DEB0501CDE906AB00F006FD19
:1038F00042F23D3203237F4808940DEB0501CDE9E8
:10390000062300F0FBFC02237A4806930DEB050129
:10391000CDE90784099400F0F1FC012200237748E7
:1039200008940DEB0501CDE9062300F0E7FC49F60C
:1039300012720323714808940DEB0501CDE90623AB
:1039400000F0DCFC4FF2F37203236D4808940DEB9A
:103950000501CDE9062300F0D1FC042200236848CC
:1039600008940DEB0501CDE9062300F0C7FC40F6F5
:10397000CB620323604808940DEB0501CDE90623D3
:1039800000F0BCFC4FF210035B4806930DEB050101
:10399000CDE90784099400F0B1FC574808940DEB79
:1039A0000501CDE906AB00F0A9FC4FF4881350489F
:1039B000089402220DEB0501CDE9062300F09EFCE0
:1039C0005048514B03604FF4E1370C264FF4004947
:1039D000C0E90174C0E90344C0E90564C0F81C9063
:1039E00001F092FF00287ED1484B494AC3F81C9051
:1039F000C3E90170C3E90300C3E9056018461A6012
:103A000001F082FF00286ED1424C434B23604FF4FB
:103A10004863CDE90600C4E90180E36020468023C5
:103A2000A36101F0B1FD00285DD10022002306A9A9
:103A30002046CDE9062301F023FF002853D1374B60
:103A4000374AD861C3E90170C3E90300C3E90560DF
:103A500018461A6001F058FF002844D1314B324912
:103A60004FF41652C3E90200C3E90406C3E9060095
:103A70001846C3E9001201F047FF024698BB2B48E5
:103A8000C0E90172C0E90322C0E90562C261284AA7
:103A9000026001F039FF024628BB264B26484FF44E
:103AA0008271C3E900014FF40070C3E906050A21E1
:103AB0001846C3E90222C3E90422C3E90822C3E984
:103AC0000A2101F0E5F870B91C481D49052240F6AD
:103AD000C31380E80E0000F03DFD20B9FDF788FA21
:103AE000FDF7BAFAFEE7FFF721FE00BF00380240FB
:103AF0000010024000080240000C0240000002409A
:103B00000004024028130020004400406C130020F1
:103B100000480040E012002000100040381400204F
:103B200000140140B0130020004C0040F4130020AA
:103B30000050004088120020003001407C1200201C
:103B40000030004082B00D4B002100915A6C42F4CD
:103B500080425A645A6C02F480420092009A0191A9
:103B60001A6C42F080521A641B6C03F0805301936C
:103B7000019B072002B000F0EDBA00BF0038024000
:103B800010B51B4B026888B000249A42CDE902446C
:103B9000CDE90444069401D008B010BD03F5843388
:103BA00000945A6C134842F480525A645A6C02F4DE
:103BB00080520092009A01941A6B42F001021A633B
:103BC0001B6B03F001030193E0220223CDE90223E2
:103BD00002A905230693019A00F090FB2246214694
:103BE000232000F0C9FA232000F004FB08B010BD28
:103BF00000300140000002400E4B02689A4200D0A3
:103C0000704700B583B0002203F50A330192196CA6
:103C100041F0100119641B6C03F01003019336206E
:103C20001146019B00F0A8FA362003B05DF804EBC2
:103C300000F0E0BA001000402DE9F0410368924A1C
:103C400092B000249342CDE90C44CDE90E44109487
:103C500052D08E4A93427CD08D4A934200F0BB8072
:103C60008C4A934206D08C4A934200F0E28012B014
:103C7000BDE8F081894B07941A6C894842F4802290
:103C80001A641A6C02F480220792079A08941A6B3D
:103C900002252A431A631A6B2A400892089A09944B
:103CA0001A6B42F008021A631B6B0D9503F00803B0
:103CB00009934FF00108032707260CA94FF400636E
:103CC0000C93CDE90E87099B109600F017FB4FF47B
:103CD00080730CA973480C93CDE90F760D95CDF840
:103CE000388000F00BFB22462146272000F044FAE2
:103CF000272000F07FFABAE7684B00941A6C6A48F4
:103D000042F400221A641A6C02F400220092009A13
:103D100001941A6B42F004021A631B6B03F0040354
:103D200001934FF440620223CDE90C230CA9082330
:103D30000322CDE90F23019D00F0E0FA224621463F
:103D4000342000F019FA342000F054FA12B0BDE823
:103D5000F081524B02941A6C534842F480121A6458
:103D60001A6C02F480120292029A03941A6B42F0C7
:103D700004021A631A6B02F004020392039A049479
:103D80001A6B42F008021A631B6B03F008030493DA
:103D90004FF48052032608250CA90223CDE90C23F9
:103DA000CDE90F65049B00F0A9FA04230CA90C933C
:103DB0003C48109502230D93CDE90E4600F09EFA83
:103DC00022462146352000F0D7F9352000F012FABE
:103DD00012B0BDE8F081314B05941A6C334842F4BF
:103DE00000321A641A6C02F400320592059A0694A5
:103DF0001A6B42F001021A631B6B03F00103069376
:103E00000C220223CDE90C2301220323CDE90E234A
:103E10000CA907231093069D00F070FA2246214654
:103E2000262000F0A9F9262000F0E4F912B0BDE840
:103E3000F0811A4B0A945A6C1B4842F020025A64D3
:103E40005A6C02F020020A920A9A0B941A6B42F002
:103E500004021A631B6B03F004030B93C0220223BA
:103E6000CDE90C230CA908230322CDE90F230B9DD8
:103E700000F044FA22462146472000F07DF9472011
:103E800000F0B8F9F3E600BF004C004000500040DD
:103E90000044004000480040001401400038024047
:103EA00000040240000C02400008024000000240F2
:103EB000BFF34F8F0549064BCA6802F4E062134313
:103EC000CB60BFF34F8F00BFFDE700BF00ED00E008
:103ED0000400FA0508B5FFF7EBFF00BF08B5FFF7D0
:103EE000E7FF00BFFEE700BF08B5FFF7E1FF00BF37
:103EF00008B5FFF7DDFF00BF704700BF704700BF88
:103F0000704700BF08B500F001F9BDE80840FDF7B3
:103F1000B7B800BF014801F0ADBA00BF8812002059
:103F2000014801F0D9BE00BF28130020014801F06C
:103F3000D3BE00BF6C130020014801F0CDBE00BF0E
:103F4000B0130020014801F0C7BE00BFF4130020E9
:103F5000014801F0EBBB00BFE0120020014801F076
:103F6000BBBE00BF38140020FDF79AB8FDF7A8B813
:103F70000120704708B503F0C9FF162303604FF016
:103F8000FF3008BD08B503F0C1FF16230360FEE74C
:103F900070B5161E07DD0C468D19AFF3008004F8CE
:103FA000010BA542F9D1304670BD00BF70B5161E99
:103FB00007DD0C468D1914F8010BAFF30080AC42FD
:103FC000F9D1304670BD00BF4FF0FF30704700BFE1
:103FD0004FF400534B600020704700BF0120704732
:103FE000002070470C490D4A0B6810B50C4C121B91
:103FF0002BB11844904207D80860184610BD094BF1
:104000000B6018449042F7D903F080FF0C23036043
:104010004FF0FF33184610BD7C1400200000022032
:1040200000120000D0150020034AD2F8883043F473
:104030007003C2F88830704700ED00E0DFF834D03C
:104040000D480E490E4A002302E0D458C4500433F0
:10405000C4188C42F9D30B4A0B4C002301E01360C7
:104060000432A242FBD3FFF7DFFF03F055FFFFF757
:10407000C3FB704700000220000000200C0200205B
:1040800060CB000810020020D0150020FEE70000E1
:1040900038B50E4A0E4B12781B6805464FF47A70FD
:1040A000B0FBF2F0B3FBF0F000F0B2F808B90F2D5E
:1040B00001D9012038BD0446024629464FF0FF30A1
:1040C00000F05AF8034B20461D6038BD3C0000202C
:1040D000380000204000002008B50B4B1A6842F45D
:1040E00000721A601A6842F480621A601A6842F418
:1040F00080721A60032000F02DF80020FFF7C8FF3F
:10410000FFF720FD002008BD003C0240034A044B9D
:1041100011681B780B441360704700BF80140020A7
:104120003C000020014B1868704700BF801400203D
:1041300038B50446FFF7F6FF631C054602D0044B72
:104140001B781C44FFF7EEFF431BA342FAD338BD94
:104150003C0000200749CA6803024FF6FF0003F441
:10416000E0630240134343F0BF6343F40033CB608A
:10417000704700BF00ED00E01C4BDB68C3F3022377
:1041800000B5C3F1070EBEF1040F03F1040C28BF04
:104190004FF0040EBCF1060F1BD9033B4FF0FF3C60
:1041A0000CFA03FC22EA0C024FF0FF3C0CFA0EFC66
:1041B00021EA0C019940002841EA02010CDB00F1E0
:1041C0006040090100F56140C9B280F800135DF854
:1041D00004FB00221346E7E7054B00F00F0009013E
:1041E0000344C9B219765DF804FB00BF00ED00E09E
:1041F000FCEC00E0002807DB4109044A00F01F0046
:104200000123834042F82130704700BF00E100E005
:104210000138B0F1807F10D210B44FF0E023084C89
:1042200058614FF0F00C84F823C00022072110469B
:104230009A615DF8044B196170470120704700BF17
:1042400000ED00E070B50446866DFFF76BFF94F853
:104250003530022B06D080236365002384F8343088
:10426000012070BD23681A6822F016021A605A698C
:1042700022F080025A61226C054642B31A6822F08D
:1042800008021A601A6822F001021A6005E0FFF7BE
:1042900049FF431B052B10D823681B6813F001034B
:1042A000F5D1E16D3F228A40184601210023B2601A
:1042B00084F8351084F8343070BD03232022626501
:1042C000184684F83530002384F8343070BDA26C71
:1042D000002AD3D1D6E700BF90F83530022B03D0A7
:1042E00080234365012070470268052380F835303C
:1042F000136823F001030020136070472DE9F04F8D
:1043000000220C68DFF830A2844E85B0134689463F
:1043100005E00133102B02F1020200F08A80012136
:10432000994001EA040BA143F3D1D9F804C00CF081
:1043300003014D1E012D7FD9032940F0C08091401B
:10434000CD4307683D4029431CF4403F0160E0D065
:1043500000210391DAF8441041F48041CAF8441076
:10436000DAF8441001F480410391039923F003012A
:1043700001F1804101F59C3103F003078D68BF0016
:104380004FF00F0E0EFA07FE25EA0E08644DA84204
:1043900024D005F58065A84200F09580614DA842C3
:1043A00000F09880604DA84200F09B805F4DA842CD
:1043B00000F09E805E4DA84200F0A1805D4DA842B5
:1043C00000F0A480DFF874E170450CBF4FF0070ED9
:1043D0004FF0080E0EFA07F748EA0708C1F8088000
:1043E000B1686FEA0B051CF4801F0CBF29404BEA33
:1043F0000101B160F1681CF4001F0CBF29404BEAB9
:104400000101F16071681CF4003F0CBF29404BEAC8
:104410000101716031681CF4803F03F101030CBF9E
:1044200029404BEA0101102B316002F102027FF4B6
:1044300076AF05B0BDE8F08FD9F80C50D0F808E0A1
:1044400005FA02F7032505FA02F82EEA080E47EAF4
:104450000E078760476827EA0B0ECCF300179F40D2
:1044600047EA0E076FEA08054760C76807EA050EC6
:10447000D9F80870974047EA0E070229C76001FA89
:1044800002F17FF45EAF4FEAD30E00EB8E0E03F025
:104490000708DEF820700097D9F810704FEA8808F6
:1044A00007FA08F701970F2707FA08F8009F27EA8D
:1044B0000808019F47EA0807CEF8207041E7032566
:1044C0009540ED43D1E74FF0010E0EFA07F748EAA9
:1044D000070883E74FF0020E0EFA07F748EA0708CD
:1044E0007CE74FF0030E0EFA07F748EA070875E776
:1044F0004FF0040E0EFA07F748EA07086EE74FF090
:10450000050E0EFA07F748EA070867E74FF0060EB0
:104510000EFA07F748EA070860E700BF003C0140D1
:104520000000024000080240000C0240001002405F
:10453000001402400018024000380240001C0240F3
:104540000369194214BF01200020704702B9090411
:104550008161704718B338B5D0E9003182680446EC
:104560004CF6CC40186045F25550186059609A607E
:10457000FFF7D8FD23680546DA6891070AD0FFF7F0
:10458000D1FD431B312B2368F6D9DA689207F3D0AB
:10459000032038BD4AF6AA221A60002038BD012047
:1045A000704700BF03684AF6AA2200201A607047CD
:1045B000002800F0A2812DE9F0410368DD0782B0F8
:1045C00004462FD59E498A6802F00C02042A00F0A6
:1045D000ED808A6802F00C02082A00F0E38063682C
:1045E000B3F5803F00F0EC80B3F5A02F00F07581AB
:1045F000934D2A6822F480322A602A6822F48022AD
:104600002A60002B40F0E180FFF78CFD064605E0B4
:10461000FFF788FD801B642800F201812B689B0353
:10462000F6D423689F0728D5854A916811F00C0FAE
:1046300000F09080916801F00C01082900F086805C
:10464000E368002B00F00E817E4B7D4E01221A6044
:10465000FFF768FD054605E0FFF764FD401B0228F3
:1046600000F2DD8033689807F6D53368226923F0BD
:10467000F80343EAC203336023681A0751D458078A
:104680002FD56F4A136C13F080537FD000256E4EE8
:104690003368D90540F1B380A368012B00F0C380D3
:1046A000052B00F02C81664E326F22F0010232673A
:1046B000326F22F004023267002B40F0B980FFF71E
:1046C00031FD41F28838074605E0FFF72BFDC01B9E
:1046D000404500F2A480336F9807F6D4002D40F0D7
:1046E0000681A069C8B1564DAB6803F00C03082BD6
:1046F00000F0C980534B002202281A6600F009819D
:10470000FFF710FD044605E0FFF70CFD001B022833
:1047100000F285802B689B01F6D4002002B0BDE832
:10472000F08163690BB3474B454E0122C3F8802EDD
:10473000FFF7F8FC054604E0FFF7F4FC401B0228F5
:104740006DD8736F9B07F7D5236898E752685602B8
:104750003FF576AF3A4A1268950744D5E268012AD8
:1047600041D0012002B0BDE8F081364A344EC2F893
:10477000803EFFF7D7FC054604E0FFF7D3FC401B63
:1047800002284CD8736F9F07F7D4DDE70193136CB1
:1047900043F080531364136C03F080530193019B27
:1047A000012574E74A6850027FF519AF244A126860
:1047B00091037FF537AF6268002A7FF433AFD0E70B
:1047C0001F4A136843F480331360FFF7ABFC1C4EA1
:1047D000054604E0FFF7A6FC401B64281FD8336899
:1047E0009A03F7D51DE7164920690A6822F0F802F6
:1047F00042EAC0020A601A077FF541AF91E73368C9
:1048000043F480733360FFF78DFC07463368DA05A5
:104810003FF542AFFFF786FCC01B0228F6D9032004
:1048200002B0BDE8F081064A136F43F0010313673D
:10483000FFF778FC024F064641F288380BE000BFD4
:10484000003802400000474200700040FFF76AFC59
:10485000801B4045E3D83B6F9B07F7D5002D3FF405
:1048600040AF44E0424A434E1360FFF75BFC05460D
:1048700004E0FFF757FC401B0228D0D833689907A3
:10488000F7D42368F9E601283FF448AF6B68E26982
:1048900003F4800191427FF464AF226A03F03F0188
:1048A00091427FF45EAF616A47F6C0721A40B2EB84
:1048B000811F7FF456AFA26A520803F44031013AD7
:1048C000B1EB024F7FF44DAFE26A03F07063B3EBDC
:1048D000026F14BF0120002020E7264B1A6842F423
:1048E00080221A601A6842F480321A606DE7214A09
:1048F000136C23F080531364F3E6012070471D4BC3
:104900001A6F42F004021A671A6F42F001021A6726
:104910008EE7FFF707FC064605E0FFF703FC801B68
:1049200002283FF67CAF2B689901F6D4D4E9073111
:10493000626A0B4343EA8213D4E90A21520843EA2C
:104940000163013A0A4943EA024301226B600A66A5
:10495000FFF7E8FB074D044605E0FFF7E3FB001B0C
:1049600002283FF65CAF2B689A01F6D5D5E600BF6A
:104970000000474200380240164908B58B6803F032
:104980000C03042B1BD0082B17D14A684B684968CD
:1049900013F4800302F03F0213D10F48C1F38811D2
:1049A000A1FB0001FCF770F90A4B5B68C3F30143FC
:1049B00001335B00B0FBF3F008BD074808BD0748B2
:1049C00008BD0648C1F388110023A1FB0001FCF7D4
:1049D0005BF9E9E7003802400024F40000127A0095
:1049E000002800F08780484A136803F007038B42D1
:1049F0002DE9F0410D46044609D2CBB2137013687D
:104A000003F007038B4202D00120BDE8F081236848
:104A1000980714D5590704D53C498A6842F4E052F6
:104A20008A601A0704D539498A6842F460428A606C
:104A30003649A0688A6822F0F00202438A60DF07E4
:104A400021D56268012A57D0931E012B2F4B1B687A
:104A50004DD99907D8D52D4EB36823F003031343DE
:104A6000B360FFF75FFB41F28838074604E0FFF7C9
:104A700059FBC01B404544D8B368626803F00C037F
:104A8000B3EB820FF3D1204A136803F00703AB4264
:104A900006D9EBB21370136803F00703AB42B3D12E
:104AA00023685A0706D51949E0688A6822F4E0525B
:104AB00002438A601B0707D5144A2169936823F4CF
:104AC000604343EAC1039360FFF756FF0F4A104C5F
:104AD00092681049C2F303120346A25C0E48D34009
:104AE00000680B60FFF7D4FA0020BDE8F081980160
:104AF000B1D489E701207047044B1B689E03AAD4F8
:104B000082E7032081E700BF003C024000380240FA
:104B1000A0C600083800002040000020044B0549D2
:104B20009B68054A0868C3F38223D35CD84070476A
:104B30000038024038000020B0C60008044B054988
:104B40009B68054A0868C3F34233D35CD84070477A
:104B50000038024038000020B0C600082DE9F041BE
:104B600082B01D4616460C460746FFF7DBFA354471
:104B70002D1AFFF7D7FA274B1B68C3F3CB3305FB7E
:104B800003F380460193731C396807D18B6834EABC
:104B90000303FBD0002002B0BDE8F0818B6834EA4B
:104BA0000303F7D1FFF7BEFAA0EB0800A84208D232
:104BB000019B002B019B03F1FF3308BF00250193EC
:104BC000E1E7D7E900315A68B1F5827F22F0E002CF
:104BD0005A6013D0BA6AB2F5005F07D11A6822F49E
:104BE00000521A601A6842F400521A60012200232F
:104BF00087F8512087F850300320CCE7BA68B2F527
:104C0000004F02D0B2F5806FE4D11A6822F0400262
:104C10001A60DFE73800002038B513464268B2F565
:104C2000827F044606D00A460121FFF797FF78B934
:104C3000002038BD8268B2F5004F1CD0B2F5806FFD
:104C40000CD00A4620468021FFF788FF0028EFD0CD
:104C5000636D43F020030320636538BD05680A4691
:104C6000296821F0400129600121FFF777FF002822
:104C7000EED10020DDE70068026822F04002026009
:104C80000A4620468021FFF769FF0028D0D0DFE7E1
:104C900000285CD070B50446406A002847D0002345
:104CA000C4E9043394F851300022A26203F0FF01FA
:104CB000002B42D094462168A568A269266A022387
:104CC00084F851300B6823F040030B60636805F4EF
:104CD000044503F482732B43E56805F400652B4318
:104CE000256905F002052B43656905F001052B4395
:104CF000E56906F0800E02F4007605F038053343CE
:104D00002B43120C00F0100043EA0E0302F00402E1
:104D100043EA0C0302430B604A60CB69002023F492
:104D200000630122CB61606584F8512070BD636827
:104D3000B3F5827FB6D0E061B4E7204684F8501026
:104D4000FEF71EFFD4E9090303F4005CB3E701207A
:104D5000704700BF2DE9F041044690F8500001284B
:104D600082B000F085801D46012384F850308846CB
:104D70001746FFF7D7F994F85130012B0646D8B201
:104D800009D002200122002384F8512084F85030F9
:104D900002B0BDE8F081B8F1000FF3D0002FF1D0E0
:104DA000A2682068C4F8308000230321B2F5004FC8
:104DB00084F85110C4E910336365A786E786A363BE
:104DC000A387E38700F0858003685B06024603D46F
:104DD000036843F040030360E368B3F5006F4BD012
:104DE0006368002B00F09780012F00F09480E38E21
:104DF0009BB2ABB1681C40F0838023689A6891072E
:104E000040F19480226B12781A73E18E236B013982
:104E100089B2E186E18E013389B223630029ECD1A6
:104E200061685B4B5B4A1B68A2FB03235B0D4FF47D
:104E30007A7202FB03F3B1F5827F019307D198E008
:104E4000019B2268013B019393681B0602D5019BDD
:104E5000002BF5D1A36833B922680093D36800937F
:104E600093680093009B606D003818BF012089E7AC
:104E7000022002B0BDE8F0816168002976D1434686
:104E800033F8027BC7602363E38E013B9BB2E3866A
:104E9000E38E9BB2002BC4D06B1C5ED183689F074E
:104EA0000FD5226B32F8023BC360E38E2263013BD5
:104EB0009BB2E386E38E9BB2002BB1D083689F0741
:104EC000EFD4FFF72FF9E38E9BB2002BA8D0206818
:104ED000E4E7036823F040030360036843F480437E
:104EE000036071E7226B12781A73E38E226B013B29
:104EF00001329BB22263E386E38E9BB2002B8FD0FC
:104F000023689A689207EDD4FFF70CF9801BA8423A
:104F1000F2D3032036E798F800300373E38E226B58
:104F2000013B01329BB22263E38660E7FFF7FAF8A8
:104F3000E38E9BB2002B7FF460AF71E7216B31F8F9
:104F4000023BD360E38E2163013B9BB2E386E38E99
:104F50009BB2002B3FF464AF226893689907EDD4AD
:104F6000FFF7E0F8801BA842F1D3D2E7012F8FD1E1
:104F700085E733462A4680212046FFF7EFFD0028CB
:104F80003FF468AF636D202213436365626561E798
:104F900038000020819F5E162DE9F041044690F80C
:104FA0005000012882B000F0AC801E46012384F836
:104FB000503090460F46FFF7B5F8054694F851007B
:104FC00063680128C2B211D0B3F5827F09D00220F4
:104FD0000122002384F8512084F8503002B0BDE84B
:104FE000F081A1680029F2D1042AF0D1002F00F04D
:104FF0008C80B8F1000F00F08880002E00F08580D2
:1050000094F85120C4F83880042A1CBF052284F883
:10501000512000226265C4E910222268E687E686F4
:105020001168A68749062763A68603D4116841F054
:1050300040011160E168B1F5006F00F09E80002B27
:1050400000F09180012E00F08E80089B01334FF01C
:10505000010628D05BE021688B6898070FD5E38EA6
:105060009BB263B15EB1236B1B780B73E38E226B33
:105070002168013B01329BB20026E38622638A68E5
:1050800012F001020DD0E38F9BB253B1A36BC9683C
:105090001970E38FA16B013B01319BB2A163E387E0
:1050A0001646FFF73FF8E28E92B2002AD3D1E38F83
:1050B0009BB2002BCFD1794B794A1B68A2FB03230B
:1050C00062684FF47A715B0D01FB03F3B2F5827FE6
:1050D000019307D1D2E0019B2268013B01939368C1
:1050E0001B0602D5019B002BF5D1A068002840F0DB
:1050F000828023680090DA6800929B680093009B8E
:1051000066E7022002B0BDE8F081012060E7E38E8F
:105110009BB21BB9E38F9BB2002BCCD02268936863
:1051200099070FD5E38E9BB263B15EB1236B1B78F9
:105130001373E38E226B013B01329BB22263226820
:10514000E3860026936813F0010304D0E18F89B24F
:10515000002940F08780FEF7E5FF089B401B98423E
:10516000D5D3032034E73B781373E38E226B013BE6
:1051700001329BB22263E38667E7002B3DD137F80B
:10518000023BD360E38E2763013B9BB2E386089B1F
:1051900001334FF0010625D032E023689A68920768
:1051A0000DD5E28E92B252B14EB1216B31F8022B85
:1051B000DA60E28E2163013A92B20026E2869A68B2
:1051C00012F001020CD0E18F89B249B1A16BDB680A
:1051D00021F8023BE38FA163013B9BB21646E387B4
:1051E000FEF7A0FFE38E9BB2002BD6D1E38F9BB2DC
:1051F000002BD2D15FE70020EAE6012EC7D1BEE73F
:10520000E38E9BB223B9E38F9BB2002B3FF453AFE5
:10521000226893689F070DD5E38E9BB253B14EB1C0
:10522000216B31F8023BD360E38E2163013B9BB2DB
:10523000E3860026936813F001030CD0E18F89B256
:1052400049B1D168A26B22F8021B1E46E38FA2630C
:10525000013B9BB2E387FEF765FF089B401B98422A
:10526000CED37EE7A16BD2680A70E28FA16B013AC0
:10527000013192B2A163E2871E466CE7089A2B4681
:1052800080212046FFF76AFC00283FF42EAF636DB3
:105290002022134363650120626599E638000020EF
:1052A000819F5E162DE9F0414668B6F5827F82B097
:1052B000044690461D460F466ED094F85030012BA0
:1052C00076D0012384F85030FEF72CFF94F851C0BB
:1052D000BCF1010F06465FFA8CF009D002200122D2
:1052E000002384F8512084F8503002B0BDE8F081EA
:1052F000002FF4D0B8F1000FF1D0A268A763B2F587
:10530000004F2268A4F83C804FF000034FF00401E6
:1053100084F85110C4E9103363652363A386A4F8AD
:105320003E80E386134607D1116821F040011160E9
:10533000116821F4804111601168480603D4116896
:1053400041F040011160E168002954D0E18F89B239
:10535000A9B1691C3ED19368DB0744D5A36BD16822
:1053600023F8021BB4F83EC0A3630CF1FF3C1FFA04
:105370008CFCA4F83EC0E38F9BB2002BEBD13246ED
:1053800029462046FFF748FC08B120236365606D7D
:10539000003818BF0120A2E78368002B8DD100954B
:1053A0000425134680F851500A46FFF7F5FD9CE7A7
:1053B000022002B0BDE8F081A26BDB6822F8023B5C
:1053C000E38FA263013B9BB2E387E38F9BB2002B89
:1053D000D5D023689A68D207EED4FEF7A3FE801BCF
:1053E000A84243D2F1E7FEF79DFEE38F9BB2002B6C
:1053F000C5D02268AFE7E28F92B2002ABFD06F1CFF
:1054000013D02BE0A26B1B7B1370B4F83EC0A26BD1
:105410000CF1FF3C1FFA8CFCA4F83EC0E38F013274
:105420009BB2A263002BAAD023689A68D007E9D464
:10543000FEF778FEE38F9BB2002BF5D19FE7A26BBE
:105440001B7B1370E38FA26B013B01329BB2A26303
:10545000E387E38F9BB2002B91D023689A68D10732
:10546000EDD4FEF75FFE801BA842F2D3032036E79F
:10547000704700BF026810B55168936803F0410C93
:10548000BCF1010F84B004465AD0980701D5080634
:105490005ED413F4B07F51D088064FD558060ED590
:1054A00094F8510003285DD0606D40F00400606501
:1054B00000200090D06800909068009000989806B6
:1054C0000CD5606D40F0010060650020029090688E
:1054D0000290106820F0400010600298D80508D5AE
:1054E000636D002043F008036365039093680393A2
:1054F000039B636D13B3536823F0E00353600120F3
:105500008B0784F8510029D05368E06C23F0030323
:10551000536040B1174B0365FEF7DEFE18B1636DB3
:1055200043F040036365A06C40B1124B0365FEF786
:10553000D3FE18B1636D43F04003636504B010BD42
:1055400011F0400FA1D0036C04B0BDE81040184723
:10555000636C204604B0BDE8104018472046FFF7B2
:1055600087FFEBE700230193D368019393680193CE
:10557000019BE3E77955000808B5806B0023C387DA
:10558000C386FFF775FF08BD002800F0878010B5BF
:1055900090F83D30044603F0FF02002B79D02268DA
:1055A0003F49022384F83D308A4213685DD0B2F14E
:1055B000804F31D0A1F57C418A422DD001F5806128
:1055C0008A4229D001F580618A4225D001F57841CF
:1055D0008A424AD001F570518A4221D001F580619A
:1055E0008A421DD001F580618A4219D0A1F5983117
:1055F0008A4215D001F580618A4211D001F580619F
:105600008A420DD0A069E16823F080030343136050
:105610006368D162936210E0A16823F070030B43CA
:105620002069A16923F44073034323F08003E068F9
:105630000B4361681360D06291620123536184F867
:10564000463084F83E3084F83F3084F8403084F8A7
:10565000413084F8423084F8433084F8443084F890
:10566000453084F83D30002010BDA068216923F04A
:105670007003034323F440730B43A16923F08003B9
:105680000B431360E368D3626368936263691363D7
:10569000D3E780F83C20FEF7AFFA80E7012070479F
:1056A0000000014090F83D30012B2FD103681949CB
:1056B000022280F83D20DA688B4242F00102DA6073
:1056C00019D0B3F1804F16D0134A934213D002F58C
:1056D000806293420FD002F5806293420BD002F5B4
:1056E0007842934207D002F57052934203D0A2F55C
:1056F0009432934204D19A6802F00702062A07D036
:105700001A6842F0010200201A60704701207047B9
:10571000002070470000014000040040704700BFB7
:10572000704700BF704700BF704700BF03681A6929
:10573000910710B5044602D5DA6892075FD41A695A
:10574000500702D5DA68510746D41A69120702D504
:10575000DA6810072ED41A69D20602D5DA68D006A4
:1057600018D41A69D10702D5DA68D2075DD41A694C
:10577000100602D5DA6811065FD41A69520602D5FE
:10578000DA68500661D41A69910602D5DA68920681
:1057900043D410BD6FF01001082219612277DB6934
:1057A00013F4407F204664D0FFF7BAFF002223683D
:1057B0002277D6E76FF00801042219612277DB69AE
:1057C0009907204652D1FFF7A9FF2046FFF7AAFF0D
:1057D000002223682277BEE76FF0040102221961DC
:1057E00022779B6913F4407F20463CD1FFF796FF58
:1057F0002046FFF797FF002223682277A5E76FF086
:1058000002010122196102779B699B0725D0FFF7EE
:1058100087FF00222368227791E76FF0200220465D
:105820001A61BDE8104000F06BB86FF001021A6118
:105830002046FEF79BFB236899E76FF080021A6110
:10584000204600F05FF8236897E76FF040021A6186
:105850002046FFF769FF236895E7FFF75FFF2046C3
:10586000FFF760FFD5E7FFF75BFFC4E7FFF758FFDF
:10587000AEE7FFF753FF2046FFF754FF96E700BF60
:1058800090F83C30012B37D00368022230B480F806
:105890003D205A680D689C6822F070022A435A60C5
:1058A000164A93421AD0B3F1804F17D0A2F57C422A
:1058B000934213D002F5806293420FD002F58062CA
:1058C00093420BD002F57842934207D002F5705212
:1058D000934203D0A2F59432934204D14A6824F053
:1058E000800414439C600023012280F83D2080F84E
:1058F0003C3030BC18467047022070470000014021
:10590000704700BF704700BF002800F08F8038B597
:1059100090F83D30044603F0FF02002B00F0818038
:105920002368E068242284F83D20DA6822F40052DB
:10593000DA601969A26821F44051014320691961B4
:1059400002436069D9680243E06921F4164121F0FD
:105950000C0102430A43DA605A69A069344922F40F
:10596000407202438B425A6135D0324A934232D060
:10597000FFF7D4F8E369B3F5004F32D0636819211B
:105980009A00A0FB01019B0FFBF77EF92A49A1FBBE
:1059900000325209642505FB1200000132302368F1
:1059A000A1FB0010120102EB50129A601A6922F456
:1059B00090421A615A6922F02A025A61DA68002577
:1059C000202142F40052DA60256484F83D1084F806
:1059D0003E10284638BDFFF7B1F8E369B3F5004F34
:1059E000CCD16268192192184FF000035B41A0FBF3
:1059F0000101FBF749F9104BA3FB00256D09642257
:105A000002FB1502D2003232A3FB0232C2F3421172
:105A10001209236801EB051102F4F8720A449A6036
:105A2000C4E780F83C20FEF707F979E701207047CA
:105A300000100140001401401F85EB512DE9F8438F
:105A4000054690F83D00202877D18946002940D0AE
:105A50001446002A3DD01E4695F83C30012B6CD0F0
:105A6000012385F83C304FF000082123C5F8408021
:105A700085F83D30FEF756FBAB68AC84B3F5805F2C
:105A8000EC8407465CD0EB8C00229BB285F83C206E
:105A9000002B7ED02C68721C1ED122681306FCD508
:105AA000B9F1000F44D019F8013B6360EB8C013B66
:105AB0009BB2EB84EB8C9BB2002BECD1711C45D1DB
:105AC00023685A06FCD5202385F83D300020BDE828
:105AD000F8830120BDE8F88323681806E0D42EB1CE
