S01100006D39355F74657374312E73726563E8
S31508000000000002207D4A0008154900081D4900081D
S315080000102549000829490008314900080000000060
S315080000200000000000000000000000003949000838
S315080000303D490008000000004149000845490008FC
S31508000040CD4A0008CD4A0008CD4A0008CD4A000826
S31508000050CD4A0008CD4A0008CD4A0008CD4A000816
S31508000060CD4A0008CD4A0008CD4A0008CD4A000806
S31508000070CD4A0008CD4A0008CD4A0008CD4A0008F6
S31508000080CD4A0008CD4A0008CD4A0008CD4A0008E6
S31508000090CD4A0008CD4A0008CD4A0008CD4A0008D6
S315080000A0CD4A0008CD4A0008CD4A0008CD4A0008C6
S315080000B0CD4A0008CD4A0008CD4A0008CD4A0008B6
S315080000C0CD4A0008CD4A0008CD4A0008554900081F
S315080000D0CD4A0008CD4A0008614900086D49000864
S315080000E0CD4A0008CD4A0008CD4A0008CD4A000886
S315080000F0CD4A0008CD4A0008CD4A0008CD4A000876
S31508000100CD4A0008CD4A0008CD4A0008CD4A000865
S31508000110794900088549000891490008CD4A000830
S31508000120CD4A0008CD4A0008CD4A0008CD4A000845
S31508000130CD4A0008CD4A0008CD4A0008CD4A000835
S31508000140CD4A0008CD4A0008CD4A0008CD4A000825
S31508000150CD4A0008CD4A0008CD4A00089D49000846
S31508000160CD4A0008CD4A0008CD4A0008CD4A000805
S31508000170CD4A0008CD4A0008CD4A00080000000014
S30D08000180CD4A0008CD4A00082B
S3150800019010B5054C237833B9044B13B10448AFF3B3
S315080001A000800123237010BD5802002000000000C3
S315080001B0D4B6000808B5034B1BB103490348AFF38F
S315080001C0008008BD000000005C020020D4B60008CC
S315080001D001F0FF01102A2BDB10F0070F08D010F8EA
S315080001E0013B013A8B422DD010F0070F42B3F6D1EE
S315080001F0F0B441EA012141EA014122F007047FF007
S3150800020000070023F0E80256083C85EA010586EA5D
S31508000210010685FA47F5A3FA87F586FA47F6A5FA99
S3150800022087F68EB9EED1F0BC01F0FF0102F00702A5
S3150800023032B110F8013B013A83EA010313B1F8D150
S315080002400020704701387047002D06BF3546033831
S31508000250073815F0010F07D1013015F4807F02BF6A
S31508000260013015F4C03F0130F0BC0138704700BFBB
S31508000270034613F8012B002AFBD1181A01387047D8
S3150800028081F0004102E000BF83F0004330B54FEA39
S3150800029041044FEA430594EA050F08BF90EA020FA6
S315080002A01FBF54EA000C55EA020C7FEA645C7FEA39
S315080002B0655C00F0E2804FEA5454D4EB5555B8BF5C
S315080002C06D420CDD2C4480EA020281EA030382EACD
S315080002D0000083EA010180EA020281EA0303362D5F
S315080002E088BF30BD11F0004F4FEA01314FF4801C32
S315080002F04CEA113102D0404261EB410113F0004F44
S315080003004FEA03334CEA133302D0524263EB4303FA
S3150800031094EA050F00F0A780A4F10104D5F1200E98
S315080003200DDB02FA0EFC22FA05F2801841F10001F3
S3150800033003FA0EF2801843FA05F359410EE0A5F1C7
S3150800034020050EF1200E012A03FA0EFC28BF4CF0F8
S31508000350020C43FA05F3C01851EBE37101F00045AE
S3150800036007D54FF0000EDCF1000C7EEB00006EEBBB
S315080003700101B1F5801F1BD3B1F5001F0CD3490845
S315080003805FEA30004FEA3C0C04F101044FEA44529C
S3150800039012F5800F80F09A80BCF1004F08BF5FEA23
S315080003A0500C50F1000041EB045141EA050130BD03
S315080003B05FEA4C0C404141EB0101013C28BFB1F515
S315080003C0801FE9D291F0000F04BF01460020B1FA60
S315080003D081F308BF2033A3F10B03B3F120020CDA33
S315080003E00C3208DD02F1140CC2F10C0201FA0CF011
S315080003F021FA02F10CE002F11402D8BFC2F1200C76
S3150800040001FA02F120FA0CFCDCBF41EA0C0190402B
S31508000410E41AA2BF01EB0451294330BD6FEA040474
S315080004201F3C1CDA0C340EDC04F11404C4F120025F
S3150800043020FA04F001FA02F340EA030021FA04F371
S3150800044045EA030130BDC4F10C04C4F1200220FAC8
S3150800045002F001FA04F340EA0300294630BD21FA06
S3150800046004F0294630BD94F0000F83F4801306BFCC
S3150800047081F480110134013D4EE77FEA645C18BFC0
S315080004807FEA655C29D094EA050F08BF90EA020F57
S3150800049005D054EA000C04BF1946104630BD91EA4F
S315080004A0030F1EBF0021002030BD5FEA545C05D152
S315080004B04000494128BF41F0004130BD14F5800491
S315080004C03CBF01F5801130BD01F0004545F0FE4105
S315080004D041F470014FF0000030BD7FEA645C1ABF3A
S315080004E0194610467FEA655C1CBF0B46024650EA71
S315080004F0013406BF52EA033591EA030F41F400219D
S3150800050030BD00BF90F0000F04BF0021704730B522
S315080005104FF4806404F132044FF000054FF00001F7
S3150800052050E700BF90F0000F04BF0021704730B5B8
S315080005304FF4806404F1320410F0004548BF40428D
S315080005404FF000013EE700BF42004FEAE2014FEAE2
S3150800055031014FEA02701FBF12F07F4393F07F4FBD
S3150800056081F06051704732F07F4208BF704793F0C0
S315080005707F4F04BF41F40021704730B54FF46074D3
S3150800058001F0004521F000411CE700BF50EA0102D6
S3150800059008BF704730B54FF000050AE050EA01027F
S315080005A008BF704730B511F0004502D5404261EBEF
S315080005B041014FF4806404F132045FEA915C3FF430
S315080005C0D8AE4FF003025FEADC0C18BF03325FEACD
S315080005D0DC0C18BF033202EBDC02C2F1200300FA7E
S315080005E003FC20FA02F001FA03FE40EA0E0021FAA3
S315080005F002F11444BDE600BF70B54FF0FF0C4CF491
S31508000600E06C1CEA11541DBF1CEA135594EA0C0F42
S3150800061095EA0C0F00F0DEF82C4481EA030621EA7D
S315080006204C5123EA4C5350EA013518BF52EA0335B8
S3150800063041F4801143F4801338D0A0FB02CE4FF06A
S315080006400005E1FB02E506F00042E0FB03E54FF09A
S315080006500006E1FB03569CF0000F18BF4EF0010E92
S31508000660A4F1FF04B6F5007F64F5407404D25FEA8E
S315080006704E0E6D4146EB060642EAC62141EA555141
S315080006804FEAC52040EA5E504FEACE2EB4F1FD0C83
S3150800069088BFBCF5E06F1ED8BEF1004F08BF5FEA01
S315080006A0500E50F1000041EB045170BD06F00046B3
S315080006B046EA010140EA020081EA0301B4EB5C0460
S315080006C0C2BFD4EB0C0541EA045170BD41F4801158
S315080006D04FF0000E013C00F3AB8014F1360FDEBF7D
S315080006E0002001F0004170BDC4F10004203C35DA59
S315080006F00C341BDC04F11404C4F1200500FA05F3DC
S3150800070020FA04F001FA05F240EA020001F000427C
S3150800071021F0004110EBD37021FA04F642EB0601F2
S315080007205EEA430E08BF20EAD37070BDC4F10C041C
S31508000730C4F1200500FA04F320FA05F001FA04F2E0
S3150800074040EA020001F0004110EBD37041F10001CC
S315080007505EEA430E08BF20EAD37070BDC4F12005D7
S3150800076000FA05F24EEA020E20FA04F301FA05F23F
S3150800077043EA020321FA04F001F0004121FA04F2E7
S3150800078020EA020000EBD3705EEA430E08BF20EAB7
S31508000790D37070BD94F0000F0FD101F000464000F1
S315080007A041EB010111F4801F08BF013CF7D041EA73
S315080007B0060195F0000F18BF704703F00046520077
S315080007C043EB030313F4801F08BF013DF7D043EA48
S315080007D00603704794EA0C0F0CEA135518BF95EAFE
S315080007E00C0F0CD050EA410618BF52EA4306D1D185
S315080007F081EA030101F000414FF0000070BD50EAA4
S31508000800410606BF1046194652EA430619D094EA2D
S315080008100C0F02D150EA013613D195EA0C0F05D117
S3150800082052EA03361CBF104619460AD181EA03016B
S3150800083001F0004141F0FE4141F470014FF0000023
S3150800084070BD41F0FE4141F4780170BD70B54FF0BE
S31508000850FF0C4CF4E06C1CEA11541DBF1CEA13553E
S3150800086094EA0C0F95EA0C0F00F0A7F8A4EB050420
S3150800087081EA030E52EA03354FEA013100F0888017
S315080008804FEA03334FF0805545EA131343EA1263E0
S315080008904FEA022245EA111545EA10654FEA002695
S315080008A00EF000419D4208BF964244F1FD0404F54E
S315080008B0407402D25B084FEA3202B61A65EB0305AA
S315080008C05B084FEA32024FF480104FF4002CB6EB67
S315080008D0020E75EB030E22BFB61A754640EA0C00E7
S315080008E05B084FEA3202B6EB020E75EB030E22BF27
S315080008F0B61A754640EA5C005B084FEA3202B6EB68
S31508000900020E75EB030E22BFB61A754640EA9C0026
S315080009105B084FEA3202B6EB020E75EB030E22BFF6
S31508000920B61A754640EADC0055EA060E18D04FEAB4
S31508000930051545EA16754FEA06164FEAC30343EA54
S3150800094052734FEAC2025FEA1C1CC0D111F4801F21
S315080009500BD141EA00014FF000004FF0004CB6E71A
S3150800096011F4801F04BF01430020B4F1FD0C88BFB9
S31508000970BCF5E06F3FF6AFAEB5EB030C04BFB6EBC4
S31508000980020C5FEA500C50F1000041EB045170BDB7
S315080009900EF0004E4EEA113114EB5C04C2BFD4EBE4
S315080009A00C0541EA045170BD41F480114FF0000E68
S315080009B0013C90E645EA060E8DE60CEA135594EAE4
S315080009C00C0F08BF95EA0C0F3FF43BAF94EA0C0FE7
S315080009D00AD150EA01347FF434AF95EA0C0F7FF45C
S315080009E025AF104619462CE795EA0C0F06D152EAB0
S315080009F003353FF4FDAE1046194622E750EA410694
S31508000A0018BF52EA43067FF4C5AE50EA41047FF4A4
S31508000A100DAF52EA43057FF4EBAE12E74FF0FF3C09
S31508000A2006E000BF4FF0010C02E000BF4FF0010CDA
S31508000A304DF804CD4FEA410C7FEA6C5C4FEA430C53
S31508000A4018BF7FEA6C5C1BD001B050EA410C0CBFA2
S31508000A5052EA430C91EA030F02BF90EA020F002004
S31508000A60704710F1000F91EA030F58BF994208BF6B
S31508000A7090422CBFD8176FEAE37040F00100704728
S31508000A804FEA410C7FEA6C5C02D150EA013C07D17F
S31508000A904FEA430C7FEA6C5CD6D152EA033CD3D0CA
S31508000AA05DF8040B704700BF8446104662468C46C4
S31508000AB01946634600E000BF01B5FFF7B7FF0028F7
S31508000AC048BF10F1000F01BD4DF808EDFFF7F4FF20
S31508000AD00CBF012000205DF808FB00BF4DF808EDAB
S31508000AE0FFF7EAFF34BF012000205DF808FB00BFCE
S31508000AF04DF808EDFFF7E0FF94BF012000205DF8F0
S31508000B0008FB00BF4DF808EDFFF7CEFF94BF0120A4
S31508000B1000205DF808FB00BF4DF808EDFFF7C4FF9D
S31508000B2034BF012000205DF808FB00BF4FEA410CE6
S31508000B307FEA6C5C02D150EA013C0AD14FEA430CC9
S31508000B407FEA6C5C02D152EA033C02D14FF0000006
S31508000B5070474FF0010070474FEA410212F5001244
S31508000B6015D211D56FF47873B3EB625212D94FEAE6
S31508000B70C12343F0004343EA505311F0004F23FAD0
S31508000B8002F018BF404270474FF00000704750EA25
S31508000B90013005D111F0004008BF6FF000407047E2
S31508000BA04FF00000704700BF4A0011D212F500123C
S31508000BB011D20DD56FF47873B3EB62520ED44FEAA7
S31508000BC0C12343F0004343EA505323FA02F0704727
S31508000BD04FF00000704750EA013002D14FF0FF3065
S31508000BE070474FF0000070474FEA4102B2F1E04308
S31508000BF024BFB3F5001CDCF1FE5C0DD901F0004CF6
S31508000C004FEAC0024CEA5070B2F1004F40EB830045
S31508000C1008BF20F00100704711F0804F21D113F171
S31508000C203872BCBF01F00040704741F480114FEAAA
S31508000C305252C2F11802C2F1200C10FA0CF320FA33
S31508000C4002F018BF40F001004FEAC1234FEAD32350
S31508000C5003FA0CFC40EA0C0023FA02F34FEA4303BA
S31508000C60CCE77FEA625307D150EA01331EBF4FF043
S31508000C70FE4040F44000704701F0004040F0FE405E
S31508000C8040F40000704700BF53B94AB9002908BFAD
S31508000C9000281CBF4FF0FF314FF0FF3000F0A6B917
S31508000CA0ADF1080C6DE904CE00F03CF8DDF804E07F
S31508000CB0DDE9022304B0704738B500220023044654
S31508000CC00D46FFF70BFF28B920462946BDE83840F0
S31508000CD000F00AB8204605F1004100F005F8404248
S31508000CE061EB410138BD00BFD0B50C4B002206466A
S31508000CF00F46FFF781FCFFF757FF0446FFF702FC94
S31508000D00074B0022FFF778FC02460B463046394669
S31508000D10FFF7BAFAFFF748FF2146D0BD0000F03DBD
S31508000D200000F0412DE9F047089E0D4604460F469F
S31508000D30002B4AD18A42944665D9B2FA82F343B166
S31508000D4002FA03FCC3F120029F4020FA02F217437D
S31508000D509C404FEA1C4E1FFA8CF5B7FBFEF1220C9D
S31508000D600EFB117742EA074201FB05F090420AD9C9
S31508000D701CEB020201F1FF3780F01C81904240F221
S31508000D80198102396244121AA4B2B2FBFEF00EFBB4
S31508000D90102244EA024400FB05F5A5420AD91CEBD9
S31508000DA0040400F1FF3280F00781A54240F2048175
S31508000DB06444023840EA0140641B00211EB1DC404D
S31508000DC00023C6E90043BDE8F0878B4208D9002E08
S31508000DD000F0ED800021C6E900050846BDE8F08769
S31508000DE0B3FA83F1002949D1AB4202D3824200F219
S31508000DF0F880841A65EB030201201746002EE2D01C
S31508000E00C6E90047DFE702B9FFDEB2FA82F3002B34
S31508000E1040F090808A1A4FEA1C471FFA8CFE01217F
S31508000E20B2FBF7F507FB1520220C42EA00420EFB3F
S31508000E3005F0904208D91CEB020205F1FF3802D2F0
S31508000E40904200F2CB804546121AA4B2B2FBF7F0E4
S31508000E5007FB102244EA02440EFB00FEA64508D909
S31508000E601CEB040400F1FF3202D2A64500F2BB8057
S31508000E701046A4EB0E0440EA05409FE7C1F120079F
S31508000E808B4022FA07FC4CEA030C05FA01F420FA17
S31508000E9007F3FD404FEA1C492343B5FBF9F81FFA4F
S31508000EA08CFE09FB18551C0C44EA054408FB0EF594
S31508000EB0A54202FA01F200FA01F00BD91CEB040470
S31508000EC008F1FF3A80F08880A54240F28580A8F1B3
S31508000ED002086444641B9DB2B4FBF9F309FB13448E
S31508000EE045EA044403FB0EFEA64508D91CEB040498
S31508000EF003F1FF356CD2A6456AD9023B644443EA3E
S31508000F000843A3FB0295A4EB0E04AC42C846AE46C2
S31508000F1056D353D056B1B0EB080264EB0E0404FA6C
S31508000F2007F7CA40CC401743C6E9007418460021A3
S31508000F30BDE8F087C3F1200102FA03FC20FA01F2AA
S31508000F4025FA01F19D402A434FEA1C471FFA8CFEF9
S31508000F50B1FBF7F007FB1015110C41EA054100FB40
S31508000F600EF58D4204FA03F408D91CEB010100F1D1
S31508000F70FF382FD28D422DD902386144491B92B2CF
S31508000F80B1FBF7F507FB151142EA014205FB0EF125
S31508000F90914208D91CEB020205F1FF3816D291429C
S31508000FA014D9023D6244521A45EA004138E73146EF
S31508000FB0304608E73946E6E61046FBE64845A9D234
S31508000FC0B9EB020865EB0C0E013BA3E74546EAE7D9
S31508000FD02B4694E74046D1E7D0467BE7023D62447C
S31508000FE032E708460AE76444023842E7704700BF1A
S31508000FF010B582B00F48022403F094F80E4A009404
S3150800100001230C210D4803F09DF80D4805F03CF826
S315080010100C4801F0C5FC0C4800F0BEFA0B4800F07D
S31508001020D9FB0B4800F0CEFF0A4802B0BDE81040D5
S3150800103003F088B83C150020F8B600080CB700087D
S31508001040E41300208C130020F8140020B4140020A8
S315080010507014002034B7000808B501F005FB02F04B
S315080010608BFB00F083FF01F061FD00F0B3FA02F09C
S31508001070DDFFF2E708B501F0C3FA00F0BBFB00F0AC
S3150800108049FB02F065FB01F0C9FDBDE8084003F025
S315080010900FB800BF0C4B1A68036893420ED00B4A70
S315080010A0126893420CD00A4A126893420AD0094A37
S315080010B01268934200D0704703F048B801F0FAB9B5
S315080010C000F0A0BB00F0E8BA70140020B4140020A9
S315080010D0F81400203C15002010B5044601F058FA13
S315080010E0204602F03DFB1B48012103F049FF012879
S315080010F011D0194A1948138801339BB20021F92BDC
S315080011001380018006D9164B11801A78012A19D046
S3150800111000221A7010BD114A0F4C138801339BB276
S315080011200021952B21801380F4D90D4B11801A7854
S315080011302AB90C490C4C0A68207001320A6001224F
S315080011401A7010BD0948084C026821700132026005
S31508001150DEE700BF00000240800200208202002075
S315080011607402002078020020000000207C02002083
S31508001170014B1878704700BF1203002010B50446CB
S3150800118022460348012103F001FF024B1C7010BDE3
S31508001190000C02400E030020014B1878704700BF70
S315080011A00E03002010B5084B084C86464FF0000C7D
S315080011B00A4683F800C0206871460F2305F030F907
S315080011C0003818BF012010BD0803002018030020AE
S315080011D0014B1878704700BF0C0300202DE9F04139
S315080011E0504DDFF878812C6814B9D8F800402C6087
S315080011F04D4F4E4E00233B703378052B00F282800C
S31508001200DFE803F0233A47566303494B1B7833B1AB
S315080012104849494807F086FB08B106233370D8F8D1
S3150800122000301B1BB3F5967F444B1A7820D9022A47
S315080012305AD94349434800220A70022102702A609B
S315080012401A7032703970BDE8F0813F4A3F4B10681A
S315080012503F4900221A700F23042205F0E1F80028FE
S315080012604ED1D8F8003001222B60344B32701A78F0
S31508001270022ADED8BDE8F0812D4B1B78002BCED094
S315080012802C492D4807F04EFB0028C8D0022333709E
S31508001290C5E72D4A2D4B10682E4900221A700F23D8
S315080012A0042205F0BDF858BBD8F800300322DBE766
S315080012B01F4B1B78002BB2D01E491F4807F032FB84
S315080012C00028ACD004233370A9E71F4A1F4B1068C7
S315080012D0214900221A700F23042205F0A1F878B9D3
S315080012E0D8F800300522BFE701321649D2B21A7083
S315080012F0134A00230B7013702B603370BDE8F0811E
S315080013002C688CE7D8F800000C4B0E4900222A609E
S315080013101A703270B0F5967F4FF001023A700A7073
S31508001320E5D890E73C0300200B0300200A030020C1
S315080013300F0300205CB7000888020020360300204F
S315080013400C030020110300201803002008030020C6
S3150800135054B7000860B700086CB7000814030020EB
S315080013602DE9F04F764DDFF82C822C688BB014B936
S31508001370D8F800402C60734F734E00233B703378C7
S31508001380052B00F2CD80DFE803F02A425089970347
S315080013906E4B1B785BB16E496E4807F0C3FA00289E
S315080013A000F0878006226C4B327001221A70D8F83A
S315080013B000301B1BB3F5967F684B1A7822D9022A90
S315080013C040F285806449664800220A70022102704C
S315080013D02A601A70327039700BB0BDE8F08F614A16
S315080013E0614B1068614900221A700F23042205F028
S315080013F017F8002878D1D8F8003001222B60574B0F
S3150800140032701A78022ADDD80BB0BDE8F08F4F4B40
S315080014101B78002BCBD056494E4807F083FA8146F5
S31508001420002873D002233370C1E75249494807F0B0
S315080014301DFA514907F01AFA4F49002007F016FA23
S3150800144002AC034670B1DFF830B1A2460DF11409BB
S315080014504AF8043B5946002007F008FA034608B143
S31508001460CA45F5D1049B454900934548DDE9022361
S3150800147007F072F9424A4349204607F06DF9394B9D
S315080014801868394B00221A7021460F231E2204F0D1
S31508001490C7FF48BBD8F800300322AFE72B4B1B78B1
S315080014A0002B84D038492B4807F03CFA00283FF433
S315080014B07EAF042333707AE7344A13780133DBB2FC
S315080014C0052B137012D90023137033706FE701329E
S315080014D0D2B21A702249204A00230B7013702B606F
S315080014E033700BB0BDE8F08F2C6860E71D4A1E4BC1
S315080014F01068274900221A700F23042204F090FF6F
S315080015000028F1D1D8F80030052277E71E4911489E
S3150800151007F008FA00283FF44AAF86F8009046E735
S31508001520D8F800000D4B194C00210122B0F5967F22
S315080015303A703170296019702170CAD84CE700BF1B
S31508001540380300200D030020090300200F030020A4
S31508001550B4B70008880200200C03002035030020D9
S3150800156011030020180300200803002088B700088C
S3150800157094B7000878B7000810D100087CB70008AF
S315080015801C03002098B700085CB700083403002045
S31508001590A8B700081403002008B5094B09491860C4
S315080015A0012204F0EBFF084B84460022074883F823
S315080015B000C0012103F0EAFC054B00221A7008BDA1
S315080015C0180300208402002010030020000C0240AB
S315080015D00E03002010B5264C2378002B35D1254C58
S315080015E02378012B0CD1244B1B78012B35D1234BA7
S315080015F01B78012B15D0224B1B78012B19D110BD56
S31508001600012211461F4803F0C1FC1F4B01221A7024
S31508001610FFF7E4FD2378012BE5D0184B1B78012B47
S31508001620E9D11A4B1B78012BE9D0154B1B78012BF6
S31508001630E5D001221146134803F0A8FC124B0122FB
S315080016401A70BDE81040FFF7C9BD114B114918685B
S31508001650012204F093FF2070C1E7012211460948D0
S3150800166003F094FC084B01221A70FFF779FEBEE7D7
S31508001670100300200B0300200D0300200C0300209C
S3150800168011030020000C02400E0300201203002064
S31508001690180300208402002038B5154B02681B6821
S315080016A01968914200D038BD124C134D227829781A
S315080016B01846531C2370114B99540122294604F0ED
S315080016C05DFF0F4B0F4A18700F4B12681A6094F99A
S315080016D000200E4900239A42B8BF23700B700C4BAA
S315080016E01B78012BDFD12878BDE8384002F0F6BC1C
S315080016F01803002008030020840200208802002026
S3150800170010030020140300202C0300200F030020E0
S315080017100C0300201B4A1C4813680168013310B5E6
S31508001720136011B15B1A042B13D81848022103F071
S3150800173027FC012818D0164A1648138801339BB28D
S315080017400021182B1380018002D9134B11801970C0
S3150800175010BD124A012100231170036002210B48B3
S3150800176003F00EFC0128E6D10A4A094C1388013316
S315080017709BB20021182B21801380E9D9064B1180D2
S31508001780187010BD140300202C030020000C024022
S315080017903003002032030020120300200F0300202C
S315080017A00B4B93F82920022A02D993F8282032B93C
S315080017B000220023C0E90023C1E90023704793ED06
S315080017C0027B80ED007BD3E90623C1E9002370473D
S315080017D04003002008B5044B04491860012204F0B0
S315080017E0CDFE034B187008BD200400201904002004
S315080017F018040020024A136801331360704700BFBB
S315080018001C04002038B5204B1C68036822689A42DD
S3150800181000D038BD1D4D1E4829781E4B662202FB96
S31508001820010293F800C092F8643002F803C001334D
S31508001830DBB2BCF10A0F82F8643018D00E290AD838
S31508001840662303FB010090F86430632B07D9002355
S3150800185080F8643003E00F2904BF00232B700D497C
S315080018600122204604F08AFE0B4B187038BD13443B
S3150800187013F8023C0D2BE1D10131C9B201232970BD
S3150800188082F86530DAE700BF200400201E0A00202F
S315080018902404002019040020180400200000000079
S315080018A02DE9F04F2DED028B0C4683B02C2106F066
S315080018B0BEFF451C284605F097F82C2120602846CF
S315080018C006F0B5FF10F8013F23712C2106F0AFFF93
S315080018D00130019005F07EF80198B0EE408AF0EEEE
S315080018E0608A84ED020B2C2106F0A1FFB0EE480AAF
S315080018F0F0EE680A46782C2E9FED731B054600F01D
S31508001900C08009F0ABFD72A3D3E9002351EC180B94
S3150800191059EC108BFEF770FEFFF746F9C0B2FEF7DA
S31508001920F1FD6D4B82468B464FF0113240464946D3
S31508001930FEF762FE0B46024659465046FEF7A6FCDF
S3150800194006F0FB03532B02D101F100431946C4E903
S31508001950020126742C21681C06F069FF451C2846DE
S3150800196005F03BF810EE100AFEF7EEFD06460F46A8
S315080019702846C4E906672C2106F059FF90F801802D
S31508001980B8F12C0F9FED501B47EC106B054656D04F
S3150800199009F064FD4EA3D3E90023304639465BECD3
S315080019A010ABFEF729FEFFF7FFF8C0B2FEF7AAFD57
S315080019B0494B06460F464FF0113250465946FEF738
S315080019C01BFE0B46024639463046FEF75FFC08F01A
S315080019D0FB03532B02D101F100431946C4E9060162
S315080019E084F820802C21681C06F021FF0130019024
S315080019F004F0F3FF2C21019884ED090A06F017FF7D
S31508001A00013004F0EAFFD4E90C32217984ED0A0AA0
S31508001A10013342F100024129C4E90C320AD10FCC44
S31508001A202E4D0FC50FCC0FC50FCC0FC594E803007C
S31508001A3085E8030003B0BDEC028BBDE8F08F09F022
S31508001A400DFD23A3D3E90023304639465BEC10ABE2
S31508001A50FEF7D2FDFFF7A8F8C0B2FEF753FD1E4BFE
S31508001A6006460F46504659464FF01132FEF7C4FD5A
S31508001A7002460B46304639464FF03F08FEF706FC4D
S31508001A80ACE709F0EBFC12A3D3E9002351EC180BE1
S31508001A905BEC10ABFEF7B0FDFFF786F8C0B2FEF7B9
S31508001AA031FD0D4B80468946504659464FF0113256
S31508001AB0FEF7A2FD02460B46404649463F26FEF77C
S31508001AC0E5FB44E7AFF30080000000000000594042
S31508001AD07B14AE47E17A843F1111913FE003002061
S31508001AE02DE9F04F2DED028B0C4683B02C2106F024
S31508001AF09EFE451C284604F077FF2C2120602846C8
S31508001B0006F095FE0130019004F064FF0198B0EEEE
S31508001B10408AF0EE608A84ED020B2C2106F087FEDF
S31508001B20B0EE480AF0EE680A46782C2E9FED7E1B2A
S31508001B30054600F0B38009F091FC7DA3D3E90023A4
S31508001B4051EC180B59EC108BFEF756FDFFF72CF8E5
S31508001B50C0B2FEF7D7FC784B82468B464FF011325F
S31508001B6040464946FEF748FD0B460246594650464A
S31508001B70FEF78CFB06F0FB03532B02D101F1004361
S31508001B801946C4E9020126742C21681C06F04FFE8A
S31508001B90451C284604F021FF10EE100AFEF7D4FC77
S31508001BA006460F462846C4E906672C2106F03FFE7E
S31508001BB090F80180B8F12C0F9FED5B1B47EC106B7A
S31508001BC0054600F08C8009F049FC59A3D3E90023A7
S31508001BD0304639465BEC10ABFEF70EFDFEF7E4FF28
S31508001BE0C0B2FEF78FFC544B06460F464FF0113233
S31508001BF050465946FEF700FD0B4602463946304622
S31508001C00FEF744FB08F0FB03532B02D101F1004316
S31508001C101946C4E9060184F820802C21681C06F0C0
S31508001C2006FE451C284604F0DBFE2C2184F8280015
S31508001C30284606F0FCFD451C284604F0D1FE2C215A
S31508001C4084F82900284606F0F2FD0130019004F0D8
S31508001C50C4FE2C21019884ED0B0A06F0E8FD01303C
S31508001C6004F0BBFED4E90C3294F8281084ED090A76
S31508001C70013342F10002C4E90C3251B10FCC2F4DA9
S31508001C800FC50FCC0FC50FCC0FC594E8030085E828
S31508001C90030003B0BDEC028BBDE8F08F09F0DEFB54
S31508001CA023A3D3E9002351EC180B5BEC10ABFEF72A
S31508001CB0A3FCFEF779FFC0B2FEF724FC1E4B804654
S31508001CC08946504659464FF01132FEF795FC0246B2
S31508001CD00B46404649463F26FEF7D8FA51E709F033
S31508001CE0BDFB13A3D3E90023304639465BEC10ABA2
S31508001CF0FEF782FCFEF758FFC0B2FEF703FC0E4B58
S31508001D0006460F46504659464FF01132FEF774FC08
S31508001D1002460B46304639464FF03F08FEF7B6FAFC
S31508001D2077E700BFAFF300800000000000005940CD
S31508001D307B14AE47E17A843F1111913F900300204E
S31508001D4070B50E4682B02C2106F071FD10F8013FE1
S31508001D5033702C2106F06BFD441C204604F040FE2F
S31508001D600C25707000E0441C2C21204606F05FFD0F
S31508001D706B1E13F0FF05F6D12C21013006F057FD36
S31508001D800130019004F029FE019886ED010A2C2104
S31508001D9006F04DFD0130019004F01FFE2C2101983C
S31508001DA086ED020A06F043FD013004F016FED6E978
S31508001DB00432717886ED030A013342F100020129E3
S31508001DC0C6E9043206D90FCE034C0FC496E80300C1
S31508001DD084E8030002B070BDC80300202DE9F04F67
S31508001DE0564C574FDFF87C91DFF87C8183B004F2BC
S31508001DF0FA5602E06634B4427DD094F86530002B7A
S31508001E00F8D049464FF0000B204687F800B006F098
S31508001E102DFD0546C8F80000FEF72AFA494B8DF84D
S31508001E2006B05FFA80FAAAF103011B88ADF8043000
S31508001E3001297BDDAAF11003F22B63D85B46AAF1D0
S31508001E40040C4FEA9C0B6A1C9E4652F8040B01339D
S31508001E505B4580EA0E0EF8D3CEF30722CEF307438E
S31508001E608EEA02025A400CF0FC0382EA1E62581CF3
S31508001E701CF0030FD2B2C0B20ED0285C4240981CA8
S31508001E80C0B2884208DA0333285CDBB2994282EA98
S31508001E90000201DDEB5C5A4055442B4901A806F0C7
S31508001EA05BFC9DF8042015F8023C9A4226D19DF861
S31508001EB0052015F8013C9A4220D1D8F8005023494C
S31508001EC00123042228463B7006F0BEFC20B32049B5
S31508001ED00422284606F0B8FC18B31E4904222846F0
S31508001EE006F0B2FC20B30023A4F86430663402225C
S31508001EF0B4423A7081D103B0BDE8F08F0023A4F84C
S31508001F00643077E75A460123E85C0133DBB28B423B
S31508001F1082EA0002F8DBBFE70F492846FFF710FF01
S31508001F20E1E70E492846FFF7DBFDDCE75A46B3E74B
S31508001F300B492846FFF7B4FCD5E700BF2404002068
S31508001F4001000020F0B60008C8B70008D0B700089E
S31508001F50D8B70008E0B7000878030020400300203F
S31508001F60280A00208CCF0008200A002010B5094C4A
S31508001F7023781BB9BDE81040FFF730BF064B074969
S31508001F801868012204F0FAFA2070BDE81040FFF73D
S31508001F9025BF00BF180400202004002019040020D3
S31508001FA0014B1878704700BF660A0020014B18706D
S31508001FB0704700BF660A0020014B1878704700BFBB
S31508001FC07C0A002070B5254C25492060012204F0C2
S31508001FD0D5FA244B244D1870244B254800214FF47C
S31508001FE000721970298006F01AFC224920682823F5
S31508001FF00C2204F015FA30B91F4802F0A3F84FF482
S31508002000FA7002F0B5FD1D4C1D481D4D0122102128
S3150800201002F0BCFF266806E002F0AAFD23689B1BB7
S31508002020B3F5487F15D22021284602F0A9FF0346BA
S3150800203001208342F0D1134802F084F810480022A8
S31508002040102102F0A3FFBDE870404FF47A7002F049
S315080020508FBD0D4802F076F8EDE700BF780A00203C
S315080020608E0A0020640A00208C0A00207C0A0020C0
S31508002070900A0020E8B70008F8B70008680A0020A8
S315080020800010024030B8000814B800082DE9F041E5
S315080020909E4D9F4F2C6882B00CB93C682C60DFF8C7
S315080020A0BC829C4E002388F800303378112B00F24E
S315080020B0AE81DFE813F02E004D005B006A017A015D
S315080020C0F70007011C01550170007F009300A0006E
S315080020D0B400C100D600E20012008F4B1B78002B1B
S315080020E040F080818D4B39680C1BB4F5FA7F29D3F3
S315080020F01A78022A40F26E818948002202212A6053
S315080021001A70327088F8001002B0BDE8F04102F08B
S3150800211019B8844B8448002119807F4B4FF400720C
S31508002120197006F07CFB814B814918680622282322
S3150800213004F076F900282CD133783A682A600133FE
S315080021403370764B1A78022AD6D802B0BDE8F081E9
S31508002150714B1B78002BC5D07649734806F0E2FB15
S315080021600028BFD0022333706C4BBCE76D4B6E481A
S3150800217000211980684B4FF40072197006F04FFB66
S315080021806A4B6D4918680B22282304F049F9002880
S31508002190D2D02C68A6E7604B1B78002BA2D06749E3
S315080021A0614806F0BFFB002800F02E810A23337031
S315080021B05A4B98E75B4B5C4800211980564B4FF405
S315080021C00072197006F02BFB584B5D4918680D22F2
S315080021D0282304F025F90028AED0DAE74E4B1B7801
S315080021E0002B3FF47FAF53494F4806F09BFB0C2367
S315080021F033704A4B77E74B4B4B4800211980464BC7
S315080022004FF40072197006F00AFB484B4D491868DE
S315080022100A22282304F004F900288DD0B9E73E4B9A
S315080022201B78002B3FF45EAF42493F4806F07AFB25
S3150800223012233370394B56E73A4B3B480021198035
S31508002240354B4FF40072197006F0E9FA374B3E49E0
S3150800225018680B22282304F0E3F800283FF46CAF33
S3150800226097E72D4B1B78002B3FF43CAF31492E489E
S3150800227006F058FB002845D134E72A4B2A480021A6
S315080022801980254B4FF40072197006F0C8FA274BCF
S315080022902E4918680C22282304F0C2F800283FF4B7
S315080022A04BAF76E71C4B1B78002B3FF41BAF284936
S315080022B01D4806F037FB00283FF414AF0623337099
S315080022C0164B10E7174B184800211980124B4FF48C
S315080022D00072197006F0A3FA144B1E4918680A22F0
S315080022E0282304F09DF800283FF426AF51E70A4B4F
S315080022F01B78002B3FF4F6AE17490B4806F012FB85
S31508002300002877D008233370044BECE6600A0020D7
S31508002310680A0020920C00207C0A00208A0A002005
S3150800232000B900088C0A0020900A0020780A0020CC
S3150800233048B800085CB7000850B80008ACB80008F0
S31508002340C8B80008D8B8000894B80008B8B8000893
S3150800235068B8000870B800087CB80008660A00204B
S31508002360324B334800211980324B4FF400721970F2
S3150800237006F055FA304B314918680B22282304F029
S315080023804FF800283FF4D8AE03E72A4B1B78002BFA
S315080023903FF4A8AE2A49264806F0C4FA00283FF4B6
S315080023A0A1AE04233370274B9DE6204B204800211D
S315080023B01980204B4FF40072197006F030FA1E4B44
S315080023C0214918680A22282304F02AF800283FF42D
S315080023D0B3AEDEE601321A7000232960337002B00C
S315080023E0BDE8F0811649124806F09CFA00287FF4E9
S315080023F0DDAE77E615490E4806F094FA002881D135
S315080024000E2333700F4B6EE610233370C1E60D4B67
S315080024100F48019300221A702A603270012288F848
S31508002420002001F08FFE2C68019B5CE68C0A0020D8
S31508002430900A00207C0A0020780A0020A0B800082C
S315080024405CB700088A0A00205CB8000888B800084B
S31508002450E4B8000838B50D4B0D4D002104464FF47D
S3150800246000720C482980197006F0D9F92046FDF744
S31508002470FFFE094902462823086892B2214603F05E
S31508002480CFFF003818BF012038BD00BF7C0A0020E6
S315080024908C0A0020900A0020780A0020014608B518
S315080024A0034806F03FFA003818BF012008BD00BFF0
S315080024B0900A00200E4B02681B681968914200D0EA
S315080024C0704710B50B4C0C4922881846531C2380BC
S315080024D00A4B0C789C54012204F050F8084A094C1F
S315080024E01168094B20700022C3E9001210BD00BF15
S315080024F0780A00208C0A00208E0A0020900A002004
S31508002500680A0020640A0020800A00202DE9F843A2
S315080025101B4B8D090024A1EB85111C80194B06461F
S31508002520CFB219481C704FF4007221464FEA85193C
S3150800253006F075F90DB3DFF85480D8F8000006EBFD
S3150800254084111E230134402203F06AFFE3B2AB4232
S315080025501C46F2D327B9003818BF0120BDE8F88316
S315080025600A4A1E23106806EB09013A4603F058FF8B
S31508002570003818BF0120BDE8F8832846EAE700BFFF
S315080025808C0A00207C0A0020900A0020780A002085
S31508002590154A1648D2E90031013310B541F1000455
S315080025A02021C2E9003402F0EBFC01280DD0104AC4
S315080025B01048138801339BB20021962B13800180A3
S315080025C002D90D4B1180197010BD0A4A084C1388A0
S315080025D001339BB20021962B21801380F4D9064B38
S315080025E01180187010BD00BF700A0020001002404C
S315080025F0880A0020900C0020650A002000000000D0
S3150800260010B41149114CD1E9000223680133236043
S3150800261050EA020406D01B1A62EB42020A2B72F138
S31508002620000202D25DF8044B70479FED057B084B0C
S3150800263001221A7081ED007B5DF8044B704700BFDC
S315080026400000000000000000800A0020680A002040
S315080026507C0A0020024B03491A8806F0EFB900BF2E
S315080026608C0A0020900A002038B51A4B1B78012BDB
S3150800267017D00024012210211748184D02F086FCB5
S3150800268020462C7000F0DEFA204600F0CFFA2046ED
S31508002690134C00F0D1FA23786BB92B78012B14D19F
S315080026A038BD0F4C0C480D4D0022102102F06EFC6F
S315080026B02378002BF1D00B4B0B491868012203F045
S315080026C05DFF2B782070012BEAD0BDE83840FFF774
S315080026D0DDBC00BF650A002000100240660A002023
S315080026E0640A0020780A00208E0A002010B50C46DD
S315080026F082B0014658224E4806F0A0F9E3782278BF
S315080027004C4822F00F0203F007034FF0200C134346
S31508002710082100228DF807C08DF8063002F036FC35
S315080027200A2301220DF10701414803F005F80A239F
S3150800273001220DF106013E4802F0FEFF3D48012246
S31508002740082102F023FCA37862783A4802F038029E
S31508002750242123F03F0313438DF807100022082194
S315080027608DF8063002F012FC0A2301220DF107014A
S315080027702F4802F0E1FF0A2301220DF106012C4839
S3150800278002F0DAFF2B480122082102F0FFFB237929
S31508002790FBB96378202B15D8DFE803F03E14141430
S315080027A0141414144214141414141414461414147B
S315080027B01414141411141414141414143A001E4B7B
S315080027C01E4A1A601B480122082102F0DFFB02B0EC
S315080027D010BD88238DF806301648232300220821C9
S315080027E08DF8073002F0D2FB0DF107010A2301220A
S315080027F00F4802F0A1FF0DF1060101220A230C4839
S3150800280002F09AFF0B480122082102F0BFFBC0E73D
S31508002810094B0B4A1A60D5E7074B0A4A1A60D1E7F3
S31508002820054B094A1A60CDE7034B084A1A60C9E7FF
S31508002830A00C002000100240100000208FC2753E38
S3150800284048E13A3F8FC2753D8FC2F53DEC51383E9F
S315080028502DE9F043494E4A4F89B0A8233046002255
S3150800286008218DF8143002F091FB05A90A230122EC
S31508002870384602F061FF0A2305A90222384603F00A
S3150800288003FA30460122082102F080FB3046AA23CB
S31508002890002208219DF814409DF815908DF81430F3
S315080028A002F074FB05A90A230122384602F044FF08
S315080028B00A2305A90222384603F0E6F93046012222
S315080028C0082102F063FB3046AC23002208219DF85C
S315080028D014509DF815808DF8143002F057FB05A9A1
S315080028E00A230122384602F027FF05A90A2338469B
S315080028F0022203F0C9F930460122082102F046FBFC
S315080029009DF815109DF814301E4A05EB082592ED22
S31508002910006A1D4A03EB01231C49D2ED005AD1ED8A
S31508002920004A1B4A1B4992ED000A91ED005A1A4AC1
S315080029301A4992ED001AD1ED000A2DB207EE105A87
S3150800294004EB092424B21BB2F8EEC76A07EE904AD4
S3150800295007EE103A66EE255A26EE055AF8EEE77A9D
S31508002960B8EEC77A26EE246AD6EE850A97EE061AD8
S3150800297097EEA50A09B0BDE8F08300BF0010024033
S31508002980A00C002010000020040000200C000020ED
S31508002990940C0020080000209C0C0020980C0020B5
S315080029A00F49104A08B501230A600B71FFF79EFE0E
S315080029B00D4B0E4A1A600E490E4B0F480F4ADFF8A8
S315080029C050E01A60C1F800E0DFF848C00C490D4B2A
S315080029D00D4AC0F800C00D4808601A6008BD00BF5F
S315080029E0FC0C00206020C007940C0020000020C1C9
S315080029F0980C002008000020040000202F8B783F48
S31508002A009C0C00200C000020BC9C823F00007042F9
S31508002A1000002041FD4A813F01EB41012DE9F843C1
S31508002A2000EB8106D6ED007A3B4FF0EEE77A17EE1B
S31508002A30900AA6F10C041546FDF786FDD4ED007A3A
S31508002A40F0EEE77A804617EE900A8946FDF77CFD98
S31508002A5002460B4640464946FDF716FC21F0004360
S31508002A600246C7E90023194600222C4BFEF754F804
S31508002A7010B12B8801332B80D6ED017A284FF0EE62
S31508002A80E77A17EE900AFDF75FFDD4ED017AF0EECE
S31508002A90E77A804617EE900A8946FDF755FD024605
S31508002AA00B4640464946FDF7EFFB21F00043024638
S31508002AB0C7E9002319460022184BFEF72DF810B176
S31508002AC06B8801336B80D6ED027AF0EEE77A17EE63
S31508002AD0900AFDF739FDD4ED027AF0EEE77A06465C
S31508002AE017EE900A0F46FDF72FFD02460B463046B5
S31508002AF03946FDF7C9FB0B4B21F000470646C3E9EB
S31508002B0000670022084B3946FEF706F810B1AB8875
S31508002B100133AB80BDE8F883700F00200000444005
S31508002B20780F0020800F00200000494070B582B061
S31508002B30A72333488DF804300022082102F026FA2C
S31508002B400A23012201A92F4802F0F6FD0A230122D1
S31508002B5001A92C4803F098F801222948082102F017
S31508002B6015FA9DF80430284A13701B0701D402B0E1
S31508002B7070BD264D264E2C78FFF76AFE297804EBA1
S31508002B80440406EB8404012984ED000AC4ED010A15
S31508002B9084ED021A11D80131C9B231290AD91D4A60
S31508002BA013780133DBB20021022B29700FD813707A
S31508002BB002B070BD297002B070BD174A3046FFF7E3
S31508002BC02BFF29780131C9B23129E8D8F2E7124B2F
S31508002BD011701A880A2A02D99A7901329A715A8882
S31508002BE00A2A02D9DA790132DA719A880A2A02D9C6
S31508002BF01A7A01321A7200221A609A80B7E700BF61
S31508002C0000100240A00C00206A0F00205C0F002074
S31508002C10040D0020F80C0020600F0020024A1368FB
S31508002C2001331360704700BF6C0F0020014B18700A
S31508002C30704700BF8A0F0020014B1870704700BF0D
S31508002C40890F0020014B1870704700BF880F0020BD
S31508002C502DE9F84F584EDFF870913568DFF86CA10A
S31508002C600024032C00F099804846FFF7F3FB78B15F
S31508002C7033685A1BB2F5C87FF6D31D460134042CB7
S31508002C80EFD101274D4801F05DFA3846BDE8F88FC7
S31508002C903768FFF791F940B93568EB1BB3F5C87F7C
S31508002CA0ECD2FFF789F90028F6D05046FFF7F6FB75
S31508002CB0002860D03568EB1BB3F5C87FDED2DFF895
S31508002CC010814046FFF7C6FB48B13568EB1BB3F5E4
S31508002CD0C87FD3D24046FFF7BDFB0028F5D1D6F80A
S31508002CE00080FFF769F948B93568A5EB0803B3F51D
S31508002CF0C87FC3D2FFF760F90028F5D05046FFF722
S31508002D00CDFB002843D03568A5EB0803B3F5C87F8B
S31508002D10B4D2DFF8C0B05846FFF79CFB074658B157
S31508002D203568A5EB0802B2F5C87FA7D25846FFF763
S31508002D3091FB07460028F3D1D6F80080FFF73CF947
S31508002D4048B93568A5EB0803B3F5C87F96D2FFF7EF
S31508002D5033F90028F5D05046FFF7A0FB88B135684F
S31508002D60A5EB0808B8F5C87F88D2154801F0EAF936
S31508002D703846BDE8F88F1348FFF790FB002899D12D
S31508002D808AE71048FFF78AFB0028E8D1D9E70D48FB
S31508002D90FFF784FB0028B6D1A6E74846FFF75AFB9B
S31508002DA000283FF46EAF33685D1BB5F5C87FFFF4A6
S31508002DB068AF1D4662E700BFA00F0020ACC9000837
S31508002DC084C9000834C9000814C900085CB700089B
S31508002DD03CC9000860C900082DE9F04F9D4D9E4F7B
S31508002DE02B68DFF88482DFF884A283B00024384693
S31508002DF00193FFF72FFB019B80B9032C2E6815D092
S31508002E00DFF86C92FFF7D8F8C0B92A68931BB3F5B8
S31508002E10C87FF7D30134E4B21346E8E72A68D11A23
S31508002E20B1F5C87FC0F01281032CF3D18B4801F0AD
S31508002E3089F90126304603B0BDE8F08F4046FFF712
S31508002E402DFB00285BD02A68931BB3F5C87FE1D217
S31508002E50DFF8209240F2A4414846FFF757FB0028C6
S31508002E6058D12E68DFF8109204E02A68931BB3F550
S31508002E70C87FCFD2FFF7A0F80028F6D04846FFF75C
S31508002E800DFB0028F1D02A68931BB3F5C87FC1D281
S31508002E90DFF8E8914846FFF7DDFA002840D12E68AA
S31508002EA0DFF8CC91FFF788F840B92A68931BB3F589
S31508002EB0C87FAFD2FFF780F80028F6D04046FFF764
S31508002EC0EDFA002858D02A68931BB3F5C87FA1D21B
S31508002ED0DFF8AC9140F2C3414846FFF717FB28BB21
S31508002EE0D5F800905E4EFFF767F828BB2B68A3EB72
S31508002EF00902B2F5C87FF6D30134E4B277E7504643
S31508002F00FFF7CCFA0028BED14846FFF7C7FA0028D3
S31508002F10B9D17AE72A68931BB3F5C87F9AD379E7BC
S31508002F202A68931BB3F5C87FB4D373E72B689A1B3B
S31508002F30B2F5C87FE0D2CDE73046FFF7AFFA0028F2
S31508002F40D4D02B68A3EB0902B2F5C87FD4D2DFF838
S31508002F5034B15846FFF77EFA064628BBD5F80090E6
S31508002F60DFF80CB1FFF728F828BB2B68A3EB09029A
S31508002F70B2F5C87FC0D2F5E75046FFF78FFA38B1E9
S31508002F802A68931BB3F5C87FBFF444AF33462EE7D0
S31508002F904846FFF783FA2B689A1B002851D0B2F5EA
S31508002FA0C87FA9D2334622E72B68A3EB0902B2F5FC
S31508002FB0C87FA1D2CDE74046FFF770FAB0B32B68B9
S31508002FC0A3EB0902B2F5C87F96D2DFF8BCB040F28F
S31508002FD08F615846FFF79AFA68B9D5F80090DFF876
S31508002FE0ACB0FEF7E9FF70B92B68A3EB0902B2F59E
S31508002FF0C87F81D2F5E72B68A3EB0902B2F5C87F33
S31508003000BFF47AAFE3E75846FFF748FA0028EBD053
S315080030102B68A3EB0909B9F5C87FBFF46DAF114852
S3150800302001F090F8304603B0BDE8F08F5046FFF740
S3150800303035FA0028ECD15846FFF730FA0028E7D1D0
S3150800304093E7B2F5C87FBFF457AF2BE7032C7FF49D
S31508003050CEAEEBE6A00F0020D4C9000800CA0008CF
S3150800306094CA0008F0CA000828CA000830CA00082E
S3150800307040CA00081CB900084CCA000864CA0008FF
S31508003080C0BD0008ACCA000884C20008D8CA000837
S315080030902DE9F041824CDFF894822368814E0022A4
S315080030A088F800200BB9336823607F4D2B78112BE5
S315080030B000F2EA80DFE813F030004300D000BC00DD
S315080030C0C6009700A000A900B20053005B00640088
S315080030D06C0075007D0086008E001200734801F0B2
S315080030E031F8FEF769FF002830D1714F326823683E
S315080030F0D31AB3F5FA7F1DD33B78022B40F2BD8075
S315080031000023022223603B702B7088F80020694850
S31508003110BDE8F04101F016B8674801F013F86748B2
S31508003120FFF798F90028E0D12B783268604F2260C3
S3150800313001332B703B78022BE2D8BDE8F08160485A
S3150800314001F000F8FEF738FF0028CED05D48FFF7FB
S31508003150A5F90028C9D02B7801332B70C5E75A4842
S3150800316000F0F0FFFEF728FF0028BED0EEE757482C
S3150800317000F0E8FF5648FFF76DF90028D4D0B4E709
S31508003180544800F0DFFFFEF717FF0028ADD0DDE753
S31508003190514800F0D7FF5148FFF75CF90028C3D023
S315080031A0A3E74F4800F0CEFFFEF706FF00289CD0A5
S315080031B0CCE74C4800F0C6FF4B48FFF74BF9002810
S315080031C0B2D092E7494800F0BDFFFEF7F5FE0028A9
S315080031D08BD0BBE7464800F0B5FF4648FFF73AF9FB
S315080031E00028A1D081E7444800F0ACFFFEF7E4FED2
S315080031F000283FF47AAFA9E7404800F0A3FF40480B
S31508003200FFF728F900288FD06FE73E4800F09AFFAD
S31508003210FEF7D2FE00283FF468AF97E73A4800F079
S3150800322091FF3A48FFF716F900283FF47DAF5CE7AF
S31508003230374800F087FFFFF7CFFD00283FF474AF4B
S31508003240344812E0344800F07DFF3448FFF702F9AD
S3150800325000283FF469AF48E7314800F073FFFFF7ED
S31508003260F7FC00283FF460AF2E4800F06BFF1223EE
S315080032702B70022388F8003037E701333B700023B0
S3150800328022602B70BDE8F081094F27480023236090
S315080032902B703B70012388F8003000F053FF25E7B8
S315080032A0940F0020A00F00203410002008CE00083C
S315080032B03010002040CE000818CB000824CB0008A8
S315080032C03CCB00085CB70008B8CC0008D0CC000896
S315080032D0E4CC000800CD00081CCD000834CD000859
S315080032E054CD000870CD000888CD0008B0CD000880
S315080032F0CCCD0008E8CD0008FCCB000814CC0008AB
S3150800330028CC00085CCC000874CC000888CC0008DF
S3150800331088CB0008A0CB0008BCCB0008D0CB00089F
S3150800332050CB000868CB000828CE0008880F00207C
S315080033302DE9F043DFF80881374FD8F80030374ECB
S31508003340002291B081463A7013B93368C8F8003044
S315080033500024334D00943C22214601A805F05FFA6B
S315080033602B78012B31D0022B29D0ABB12C70C8F8A1
S315080033700040336844F6E7621B1B934208D90023D2
S3150800338002222848C8F800302B703A7000F0DAFE9E
S31508003390002011B0BDE8F0834946234800F0D2FE6C
S315080033A022494A46684605F0D7F96846FFF752F8B3
S315080033B040B92B78D8F8004001332B70D9E7FEF7CF
S315080033C0FBFDA8B9D8F80040D3E74946184800F0ED
S315080033D0B9FEFEF7F1FD0028F4D01648FFF75EF8AF
S315080033E060B12B783268C8F8002001332B70CFE71C
S315080033F01148FFF753F838B93870E3E72870C8F86A
S31508003400000038700446B4E703232B700B480123E9
S315080034103B7000F097FED5E7890F0020A00F00202B
S3150800342033100020D4CE000858CE000874CE000809
S3150800343088CE00085CB70008A0CE0008B0CE000809
S31508003440900F00202DE9F0473A4B3B4EDFF81881E4
S3150800345000221A70336890B081468A4613B9D8F8A4
S31508003460003033600024354F00943C22214601A8E1
S3150800347005F0D5F93D78012D34D0022D2DD0A5B112
S315080034803C703460D8F800302D4A1B1B934208D98B
S315080034902C4A2D480023022133603B70117000F03E
S315080034A051FE002010B0BDE8F0875246494627482D
S315080034B000F048FE264953464A46684605F04CF948
S315080034C02448694600F03EFE6846FEF7C3FF38B951
S315080034D03B78346801333B70D4E7FEF76DFD98B945
S315080034E03468CFE71C4800F02DFEFEF765FD00287E
S315080034F0F6D01A48FEF7D2FF68B13B78D8F8002014
S31508003500326001333B70CCE71548FEF7C7FF0D4B19
S3150800351038B91870E4E70B4B3870306018700446F9
S31508003520B0E703223A700F4801221A7000F00AFE2B
S31508003530D6E700BF890F0020980F00203210002020
S31508003540BF2501008A0F002090CF0008F8CE00089A
S3150800355018CF000830CF00084CCF00085CB7000829
S3150800356060CF000870CF0008A00F00202DE9F047B3
S31508003570DFF8D091644CDFF8D0A1002389F8003039
S315080035802368A0B007460E46154613B9DAF8003088
S315080035902360DFF8B88100217C2201A8009105F09C
S315080035A03EF998F80030042B00F2A880DFE803F013
S315080035B01D32465E0300FEF7FFFC002874D1206822
S315080035C0DAF8003044F6E7621B1A934209D9002359
S315080035D002224E48236088F8003089F8002000F05F
S315080035E0B1FD002020B0BDE8F0873946484800F014
S315080035F0A9FD48493A46684605F0AEF86846FEF71A
S3150800360029FF0028DBD198F800302068013388F8B4
S315080036100030D5E7404800F095FDFEF7CDFC0028C0
S31508003620CDD03E48FEF73AFF0028ECD1DAF8003054
S3150800363088F80000236089F80000D2E71A2331468B
S315080036407353374800F07EFD691C89B23046FEF791
S315080036505DFFE0B1DAF8002022600023002088F838
S31508003660003089F8003020B0BDE8F0872D4800F01A
S3150800367069FDFEF7A1FC0028A1D02B48FEF70EFF36
S3150800368050BB88F80000206089F8000098E798F891
S3150800369000302648013388F80030DAF80030236015
S315080036A000F050FD20688BE72148FEF7F7FE68B169
S315080036B0052388F80030012389F800301D4B1E4881
S315080036C000221A7000F03EFD206879E789F80000AC
S315080036D01A4800F037FD72E798F8003018480133A9
S315080036E088F80030DAF80030236000F02BFD104827
S315080036F0FEF7D4FE00283FF462AFD9E7002088F829
S31508003700000020605CE700BF9C0F0020E8D000089E
S31508003710B0CF0008CCCF0008E8CF000800D00008DA
S3150800372004D0000854D000085CB7000820D0000870
S3150800373098D000088C0F0020A8D00008C8D0000830
S3150800374070D000088B0F0020A00F00203110002039
S31508003750024A136801331360704700BFA00F0020A8
S31508003760044AD2E90031013341F10001C2E90031CE
S31508003770704700BFA80F002030B5514B1B78012BAE
S315080037808DB008D0FEF70CFC01283FD10DB0BDE87E
S315080037903040FFF77DBCFEF70FFC00283CD1494BB3
S315080037A01B78012B47D1484B1B78012B4BD1474B34
S315080037B0474A19681368CB1AB3F57A7F20D3454C64
S315080037C045482388116045490288454D01332380C1
S315080037D00B88444C0132013B02800B8034A3D3E9A9
S315080037E00023D5E90001FCF751FD33A3D3E90023F3
S315080037F0C5E90001D4E90001FCF748FDC4E9000168
S31508003800394B1B78012B24D00DB030BD00200DB0EC
S31508003810BDE83040FEF7CABB3448FEF73FFE002835
S31508003820BDD0334C2046FEF715FF237B302BB6D090
S31508003830244B00221A702F4842F2B3210DB0BDE87E
S315080038403040FFF7FFBD2C480DB0BDE83040FFF70C
S315080038506FBD234D234C29462046FDF7A1FF06A838
S3150800386000F02CFA254B26491A88264804F074FFDE
S31508003870D4E9002395ED007B9DF820009DF82840AB
S3150800388021490190CDE902238DED047B1F4A0B9B4C
S3150800389000941F4804F060FF1D48FCF7E9FC1C492A
S315080038A0821C184892B20DB0BDE83040FFF75EBEE4
S315080038B04BB0389CF9D52C3F2D431CEBE2362A3FFA
S315080038C0880F00208A0F0020890F0020A00F0020F3
S315080038D038120020180000203C1200201400002096
S315080038E028000020200000208C0F002008D10008A6
S315080038F0B00F002014D1000848D100081600002097
S3150800390050D100084012002064D100083000002081
S31508003910381000202DE9F0438C4D87B00024CDE9FE
S315080039200144CDE9034405942C70FDF751FC0128A8
S3150800393009D087488749884A002303600B701370AB
S3150800394007B0BDE8F083FDF713FC01280646F0D161
S31508003950FDF722FC002840F0DB807D4FDFF8289237
S315080039603C6814B9D9F800403C60DFF8EC8198F857
S315080039700030092B00F2DB80DFE803F0B7A9958653
S3150800398072634C3E2305754B1B783BB174497548E9
S3150800399004F0C8FF10B10A2388F80030D9F80030BF
S315080039A01B1BB3F5967F6B4B22D91E78022E40F26D
S315080039B0B380002202213A601A7088F80020297024
S315080039C0BEE7694B67480024214680221C7004F034
S315080039D026FF624B65481C700421FDF7E3FB0028AF
S315080039E02DD1D9F8003007263B605A4B88F800607D
S315080039F01A78022AA4D9DCE7584B1B78002BCDD0BD
S31508003A005B49584804F08EFF0028C7D0082388F879
S31508003A100030C3E7524A574901A804F09DFE002426
S31508003A20514B50481C702146802204F0F8FE4B4B3F
S31508003A3001A804211C70FDF7B5FB0028D1D03C680D
S31508003A40ACE7464B1B78002BA8D04949454804F0FB
S31508003A5069FF0028A2D006233C6888F800309DE755
S31508003A60414B40480024214680221C7004F0D7FEB2
S31508003A703A4B41481C700421FDF794FB0028DED11F
S31508003A80D9F800300526AFE7344B1B78002B85D0D4
S31508003A903749344804F046FF00283FF47FAF042333
S31508003AA088F800307AE7304B2E48002421468022D9
S31508003AB01C7004F0B4FE294B30481C700421FDF735
S31508003AC071FB0028BBD1D9F8003003268CE7234BBD
S31508003AD01B78002B3FF462AF2949224804F022FFE5
S31508003AE010B3022388F8003058E71F4B1D480024FE
S31508003AF0214680221C7004F092FE184B21481C7047
S31508003B000421FDF74FFB002899D1D9F800306BE75F
S31508003B102046FDF733FB20E70136F6B200223A606D
S31508003B2088F800201E700BE788F8000036E7D9F8F9
S31508003B300010084B00223A601A7088F80020B1F588
S31508003B40967F4FF001022A70E8D8F9E68512002020
S31508003B503C1300202E130020311300200D130020E3
S31508003B60800000208C1200200C130020E8D10008E9
S31508003B705CB70008E0D10008D8D10008D0D1000809
S31508003B80C8D10008C0D100088812002070B5404D81
S31508003B9088B02C680023CDE90033CDE90233CDE99E
S31508003BA004330693ADF81C3014B93A4B1C682C60E4
S31508003BB0394E3378032B69D8DFE803F03249170208
S31508003BC0364B1B78002B58D1324B1B681B1BB3F5A1
S31508003BD0967F1ED9324B1A78022A46D900222A60C5
S31508003BE01A703270022008B070BD2E4B2E48002481
S31508003BF0214680221C7004F012FE284B2B481C70AC
S31508003C000421FDF7CFFA00BB224A012312682A6075
S31508003C103370234B1A78022AE0D8012008B070BD09
S31508003C2002462349684604F097FD00241D4B1E48AA
S31508003C301C702146802204F0F2FD184B68460421C8
S31508003C401C70FDF7AFFA0028DED02C68BCE7134BD2
S31508003C501B78002BB8D01749134804F063FE0028D8
S31508003C60B2D002232C683370AEE70021013201205E
S31508003C70296031701A7008B070BD0F490A4804F0FF
S31508003C8051FE0028A0D0042333709DE70020AAE740
S31508003C903813002088120020301300200D1300204E
S31508003CA02D1300200C1300208C120020E8D10008E8
S31508003CB0E0D100085CB700088000002010B5064C6B
S31508003CC0864684460FCCACE80F0094E803008CE8DF
S31508003CD00300704610BD00BF14130020000000004A
S31508003CE030B5794B79491B88794883B00024ADF8FB
S31508003CF00030ADF804308DF802408DF8064004F027
S31508003D00B5FD10220388ADF804300546214601A802
S31508003D1003F0F2FDC3B2A3F14102082A05D9613BBB
S31508003D20022B07D9002003B030BD432B02D1012056
S31508003D3003B030BD6B88ADF800301022002168460C
S31508003D4003F0DAFD102204460021281D03F0D4FDF5
S31508003D50E3B22F2B024661D814F0FC04E2D0043BF0
S31508003D602B2BDFD801A151F823F000BF5B3E0008DA
S31508003D70713E0008253D0008253D0008253D000840
S31508003D80253D00087B3E0008253D0008873E0008C3
S31508003D909B3E0008253D0008253D0008253D0008F6
S31508003DA0253D0008253D0008253D0008253D00085D
S31508003DB0253D0008253D0008253D0008253D00084D
S31508003DC0253D0008253D0008253D0008253D00083D
S31508003DD0253D0008253D0008253D0008253D00082D
S31508003DE0253D0008253D0008253D0008253D00081D
S31508003DF0253D0008253D0008253D0008253D00080D
S31508003E00253D0008253D0008253D0008253D0008FC
S31508003E10253D0008253D0008453E00085E2B40D09C
S31508003E20A62B07D12B4B2C49A3FB0030C0084861B1
S31508003E30012078E75C2B7FF475AF274B283858723A
S31508003E40012070E72549244A642300FB03F3A1FBFC
S31508003E500313DB091372012065E720491E4A642310
S31508003E6000FB03F3A1FB0313DB09137001205AE7D8
S31508003E70194B28385870012055E7174B00EB4000BE
S31508003E80588001204FE7800807EE900A124BF8EE9B
S31508003E90E77A0120C3ED017A45E70F4B01201A7432
S31508003EA041E7FCF72FFB06A3D3E90023FCF7A4FBA5
S31508003EB0FCF79AFE084B0246DA60012033E700BF9A
S31508003EC09A9999999999A93FF4B60008D4D1000806
S31508003ED08C120020CDCCCCCC14130020818080809D
S31508003EE02DE9F041444E454A3568DFF83C81002308
S31508003EF082B0CDE90033137015B9D8F80050356093
S31508003F003F4F3C78BCB1012C40D0022010703D4A8E
S31508003F10D8F800103C48002313703C4A3B70C72968
S31508003F2033600370137003D90123002113703160C5
S31508003F3002B0BDE8F0813349354A0B7852F82320A0
S31508003F4001330B706846334904F006FC6846FCF7F3
S31508003F508FF9314B0546214630481C70802204F003
S31508003F605EFC2F4BE9B268461C70FDF71BF948BB8F
S31508003F70D8F80020326001233B70244B1B78022BB3
S31508003F8084BF02233B7002B0BDE8F081244B1B7846
S31508003F9073B12449214804F0C5FCF8B1194B1A78C5
S31508003FA0082A11D8184A00233B7013780133137076
S31508003FB0D8F800305B1BC72BDFD9144A13780133B6
S31508003FC0DBB2B2E73568F3E70F4A1278082AEFD969
S31508003FD002223A70002235681A70E9E70A4B18700F
S31508003FE0084B1A78082A88BF1870FFF779FE00234D
S31508003FF035683B70DCE700BF3413002084120020CC
S315080040002F130020101300200F1300202C1300205C
S315080040105C000020E4D100080C1300208C1200205C
S315080040200D130020F0D100088812002010B5FDF706
S31508004030CFF820B3194B1A4C1A7812B92278012AEC
S3150800404007D000221A70FFF765FC2378012B00D0F1
S3150800405010BD144C2378022B1CD1134A134813782D
S31508004060082B8DBF0023591CC9B2012150F8230023
S315080040701170FFF78BFD0028EAD1207010BD074AA2
S315080040801378002BE4D1064908780128E0D110708E
S315080040900B7010BDBDE81040FFF722BF8612002046
S315080040A085120020841200200E13002038000020FC
S315080040B0074908480B68026801339A1AB2F5967FD1
S315080040C00B6004D3044A0121002311700360704772
S315080040D088120020801200200D13002010B40C4A0C
S315080040E00C4C117860540C4C4B1C0C4924680C6021
S315080040F0DBB23E28137004D109480124047000205D
S3150800410008601B0644BF002313705DF8044B704714
S315080041100C1300208C120020881200208012002028
S315080041200D13002008B5044B04491860012202F05B
S3150800413025FA034B187008BD841300208913002044
S31508004140881300200FB4002004B0704738B50F4B11
S3150800415002681B681968914200D038BD0C4D0D4C99
S3150800416001222946184602F009FA22780A492B78CC
S3150800417008700A48511CC9B20A2B83542170ECD125
S31508004180FDF710F80023237038BD00BF8413002004
S315080041908913002080130020881300204013002074
S315080041A072B6BFF34F8F0549054BCA6802F4E06241
S315080041B01343CB60BFF34F8F00BFFDE700ED00E070
S315080041C00400FA0510B5002394B0CDE90B33CDE908
S315080041D00933CDE90333CDE905331F4901930D931F
S315080041E00793086C1D4A40F080500864096C01F07A
S315080041F08051019101990293116841F4804111603F
S3150800420012680F9302F48042102301210292CDE92D
S315080042100B1308224023CDE91023022402980894A0
S315080042200222072308A8CDE912230E9400F0B2FE55
S3150800423078B90F210346CDE903144FF4805203A839
S315080042402146CDE90532079301F0BCF808B914B048
S3150800425010BDFFF7A5FF00BF003802400070004000
S3150800426080B500248CB000F057FCFFF7ABFFCDE912
S315080042700644CDE90844B04B00940A941A6BAF483B
S3150800428042F010021A631A6B02F010020092009AAA
S3150800429001941A6B42F004021A631A6B02F00402C4
S315080042A00192019A02941A6B42F080021A631A6B01
S315080042B002F080020292029A03941A6B42F00102FB
S315080042C01A631A6B02F001020392039A04941A6B9A
S315080042D042F002021A631A6B02F002020492049A6E
S315080042E005941A6B42F008021A631B6B03F0080365
S315080042F0224618210593059B00F048FE2246904861
S31508004300022100F043FE22468E484FF2110118257D
S3150800431000F03CFE4FF6C57203238848089406A9A8
S31508004320CDE906234FF0010800F008FD83480DEBA0
S315080043300501CDE90844CDE9065800F0FFFC202226
S3150800434000237E4808940DEB0501CDE9062300F00D
S31508004350F5FC42F23D320323794808940DEB05013A
S31508004360CDE9062300F0EAFC0223754806930DEB17
S315080043700501CDE90784099400F0E0FC0122002339
S31508004380714808940DEB0501CDE9062300F0D6FC2B
S3150800439049F6127203236C4808940DEB0501CDE922
S315080043A0062300F0CBFC4FF2F37203236748089408
S315080043B00DEB0501CDE9062300F0C0FC042200231D
S315080043C0624808940DEB0501CDE9062300F0B6FC1A
S315080043D040F6C86203235B4808940DEB0501CDE956
S315080043E0062300F0ABFC4FF21103564806930DEB7B
S315080043F00501CDE90784099400F0A0FC22220023D8
S31508004400504808940DEB0501CDE9062300F096FC0B
S315080044104FF488134948089402220DEB0501CDE9AB
S31508004420062300F08BFC4A484A4B0461C0E9024463
S3150800443084614FF400474FF4E1360C24C0E9003696
S31508004440C761446101F052FF002873D1424B434AC9
S31508004450DF61C3E90160C3E90300C3E90540184603
S315080044601A6001F043FF002864D13D4F3D4B3B6085
S315080044704FF44863CDE90600C7E90180FB6038467A
S315080044808023BB6101F072FD002853D1002200236E
S3150800449006A93846CDE9062301F0E4FE002849D1ED
S315080044A0314B324AD861C3E90160C3E90300C3E965
S315080044B0054018461A6001F019FF00283AD12C4B1E
S315080044C02C494FF41652C3E90200C3E90404C3E9B0
S315080044D006001846C3E9001201F008FF024648BB69
S315080044E02548C0E90162C0E90322C0E90542C26164
S315080044F0224A026001F0FAFE0246D8B9204B21484A
S315080045004FF48271C3E900014FF40070C3E9060550
S315080045100A211846C3E90222C3E90422C3E908228C
S31508004520C3E90A2101F0A6F820B9FCF761FDFCF7FA
S3150800453093FDFEE7FFF734FE003802400010024004
S3150800454000080240000C024000000240000402403D
S315080045502C1400200044004070140020004800403D
S31508004560E4130020001000403C1500200014014010
S31508004570B4140020004C0040F814002000500040FD
S315080045808C1300200030014082B00C4B00210091B2
S315080045905A6C42F480425A645A6C02F48042009281
S315080045A0009A01911A6C42F080521A641B6C03F04F
S315080045B080530193019B02B0704700BF0038024048
S315080045C010B51B4B026888B000249A42CDE9024414
S315080045D0CDE90444069401D008B010BD03F5843330
S315080045E000945A6C134842F480525A645A6C02F486
S315080045F080520092009A01941A6B42F001021A63E3
S315080046001B6B03F001030193E0220223CDE9022389
S3150800461002A905230693019A00F090FB224621463B
S31508004620232000F0C9FA232000F004FB08B010BDCF
S3150800463000300140000002400E4B02689A4200D04A
S31508004640704700B583B0002203F50A330192196C4E
S3150800465041F0100119641B6C03F010030193362016
S315080046601146019B00F0A8FA362003B05DF804EB6A
S3150800467000F0E0BA001000402DE9F0410368924AC4
S3150800468092B000249342CDE90C44CDE90E4410942F
S3150800469052D08E4A93427CD08D4A934200F0BB801A
S315080046A08C4A934206D08C4A934200F0E28012B0BC
S315080046B0BDE8F081894B07941A6C894842F4802238
S315080046C01A641A6C02F480220792079A08941A6BE5
S315080046D002252A431A631A6B2A400892089A0994F3
S315080046E01A6B42F008021A631B6B0D9503F0080358
S315080046F009934FF00108032707260CA94FF4006316
S315080047000C93CDE90E87099B109600F017FB4FF422
S3150800471080730CA973480C93CDE90F760D95CDF8E7
S31508004720388000F00BFB22462146272000F044FA89
S31508004730272000F07FFABAE7684B00941A6C6A489B
S3150800474042F400221A641A6C02F400220092009ABB
S3150800475001941A6B42F004021A631B6B03F00403FC
S3150800476001934FF440620223CDE90C230CA90823D8
S315080047700322CDE90F23019D00F0E0FA22462146E7
S31508004780342000F019FA342000F054FA12B0BDE8CB
S31508004790F081524B02941A6C534842F480121A6400
S315080047A01A6C02F480120292029A03941A6B42F06F
S315080047B004021A631A6B02F004020392039A049421
S315080047C01A6B42F008021A631B6B03F00803049382
S315080047D04FF48052032608250CA90223CDE90C23A1
S315080047E0CDE90F65049B00F0A9FA04230CA90C93E4
S315080047F03C48109502230D93CDE90E4600F09EFA2B
S3150800480022462146352000F0D7F9352000F012FA65
S3150800481012B0BDE8F081314B05941A6C334842F466
S3150800482000321A641A6C02F400320592059A06944C
S315080048301A6B42F001021A631B6B03F0010306931D
S315080048400C220223CDE90C2301220323CDE90E23F2
S315080048500CA907231093069D00F070FA22462146FC
S31508004860262000F0A9F9262000F0E4F912B0BDE8E8
S31508004870F0811A4B0A945A6C1B4842F020025A647B
S315080048805A6C02F020020A920A9A0B941A6B42F0AA
S3150800489004021A631B6B03F004030B93C022022362
S315080048A0CDE90C230CA908230322CDE90F230B9D80
S315080048B000F044FA22462146472000F07DF94720B9
S315080048C000F0B8F9F3E600BF004C00400050004085
S315080048D000440040004800400014014000380240EF
S315080048E000040240000C024000080240000002409A
S315080048F0BFF34F8F0549064BCA6802F4E0621343BB
S31508004900CB60BFF34F8F00BFFDE700BF00ED00E0AF
S315080049100400FA0508B5FFF7EBFF00BF08B5FFF777
S31508004920E7FF00BFFEE700BF08B5FFF7E1FF00BFDE
S3150800493008B5FFF7DDFF00BF704700BF704700BF2F
S31508004940704700BF08B500F001F9BDE80840FCF75C
S3150800495091BB00BF014801F07FBA00BF8C1300204D
S31508004960014801F0ABBE00BF2C140020014801F03D
S31508004970A5BE00BF70140020014801F09FBE00BF0D
S31508004980B4140020014801F099BE00BFF8140020B5
S31508004990014801F0BDBB00BFE4130020014801F047
S315080049A08DBE00BF3C150020FCF774BBFCF794BB1A
S315080049B00120704708B504F015F8162303604FF078
S315080049C0FF3008BD08B504F00DF816230360FEE7AE
S315080049D070B5161E07DD0C468D19AFF3008004F876
S315080049E0010BA542F9D1304670BD00BF70B5161E41
S315080049F007DD0C468D1914F8010BAFF30080AC42A5
S31508004A00F9D1304670BD00BF4FF0FF30704700BF88
S31508004A104FF400534B600020704700BF01207047D9
S31508004A20002070470C490D4A0B6810B50C4C121B38
S31508004A302BB11844904207D80860184610BD094B98
S31508004A400B6018449042F7D903F0CCFF0C2303609F
S31508004A504FF0FF33184610BD8015002000000220D5
S31508004A6000120000D8160020034AD2F8883043F412
S31508004A707003C2F88830704700ED00E0DFF834D0E4
S31508004A800D480E490E4A002302E0D458C450043398
S31508004A90C4188C42F9D30B4A0B4C002301E013606F
S31508004AA00432A242FBD3FFF7DFFF03F0A1FFFFF7B3
S31508004AB0D7FB7047000002200000002058020020A3
S31508004AC020D7000858020020D4160020FEE7000070
S31508004AD038B50E4A0E4B12781B6805464FF47A70A5
S31508004AE0B0FBF2F0B3FBF0F000F0B2F808B90F2D06
S31508004AF001D9012038BD0446024629464FF0FF3049
S31508004B0000F05AF8034B20461D6038BD8800002087
S31508004B10840000208C00002008B50B4B1A6842F46C
S31508004B2000721A601A6842F480621A601A6842F4BF
S31508004B3080721A60032000F02DF80020FFF7C8FFE6
S31508004B40FFF722FD002008BD003C0240034A044B43
S31508004B5011681B780B441360704700BF841500204A
S31508004B6088000020014B1868704700BF8415002094
S31508004B7038B50446FFF7F6FF631C054602D0044B1A
S31508004B801B781C44FFF7EEFF431BA342FAD338BD3C
S31508004B90880000200749CA6803024FF6FF0003F49D
S31508004BA0E0630240134343F0BF6343F40033CB6032
S31508004BB0704700BF00ED00E01C4BDB68C3F302231F
S31508004BC000B5C3F1070EBEF1040F03F1040C28BFAC
S31508004BD04FF0040EBCF1060F1BD9033B4FF0FF3C08
S31508004BE00CFA03FC22EA0C024FF0FF3C0CFA0EFC0E
S31508004BF021EA0C019940002841EA02010CDB00F188
S31508004C006040090100F56140C9B280F800135DF8FB
S31508004C1004FB00221346E7E7054B00F00F000901E5
S31508004C200344C9B219765DF804FB00BF00ED00E045
S31508004C30FCEC00E0002807DB4109044A00F01F00ED
S31508004C400123834042F82130704700BF00E100E0AD
S31508004C500138B0F1807F10D210B44FF0E023084C31
S31508004C6058614FF0F00C84F823C000220721104643
S31508004C709A615DF8044B196170470120704700BFBF
S31508004C8000ED00E070B50446866DFFF76BFF94F8FB
S31508004C903530022B06D080236365002384F8343030
S31508004CA0012070BD23681A6822F016021A605A6934
S31508004CB022F080025A61226C054642B31A6822F035
S31508004CC008021A601A6822F001021A6005E0FFF766
S31508004CD049FF431B052B10D823681B6813F00103F3
S31508004CE0F5D1E16D3F228A40184601210023B260C2
S31508004CF084F8351084F8343070BD032320226265A9
S31508004D00184684F83530002384F8343070BDA26C18
S31508004D10002AD3D1D6E700BF90F83530022B03D04E
S31508004D2080234365012070470268052380F83530E3
S31508004D30136823F001030020136070472DE9F04F34
S31508004D4000220C68DFF830A2844E85B013468946E7
S31508004D5005E00133102B02F1020200F08A800121DE
S31508004D60994001EA040BA143F3D1D9F804C00CF029
S31508004D7003014D1E012D7FD9032940F0C0809140C3
S31508004D80CD4307683D4029431CF4403F0160E0D00D
S31508004D9000210391DAF8441041F48041CAF844101E
S31508004DA0DAF8441001F480410391039923F00301D2
S31508004DB001F1804101F59C3103F003078D68BF00BE
S31508004DC04FF00F0E0EFA07FE25EA0E08644DA842AC
S31508004DD024D005F58065A84200F09580614DA8426B
S31508004DE000F09880604DA84200F09B805F4DA84275
S31508004DF000F09E805E4DA84200F0A1805D4DA8425D
S31508004E0000F0A480DFF874E170450CBF4FF0070E80
S31508004E104FF0080E0EFA07F748EA0708C1F80880A7
S31508004E20B1686FEA0B051CF4801F0CBF29404BEADA
S31508004E300101B160F1681CF4001F0CBF29404BEA60
S31508004E400101F16071681CF4003F0CBF29404BEA70
S31508004E500101716031681CF4803F03F101030CBF46
S31508004E6029404BEA0101102B316002F102027FF45E
S31508004E7076AF05B0BDE8F08FD9F80C50D0F808E049
S31508004E8005FA02F7032505FA02F82EEA080E47EA9C
S31508004E900E078760476827EA0B0ECCF300179F407A
S31508004EA047EA0E076FEA08054760C76807EA050E6E
S31508004EB0D9F80870974047EA0E070229C76001FA31
S31508004EC002F17FF45EAF4FEAD30E00EB8E0E03F0CD
S31508004ED00708DEF820700097D9F810704FEA88089E
S31508004EE007FA08F701970F2707FA08F8009F27EA35
S31508004EF00808019F47EA0807CEF8207041E703250E
S31508004F009540ED43D1E74FF0010E0EFA07F748EA50
S31508004F10070883E74FF0020E0EFA07F748EA070874
S31508004F207CE74FF0030E0EFA07F748EA070875E71D
S31508004F304FF0040E0EFA07F748EA07086EE74FF037
S31508004F40050E0EFA07F748EA070867E74FF0060E58
S31508004F500EFA07F748EA070860E700BF003C014079
S31508004F600000024000080240000C02400010024007
S31508004F70001402400018024000380240001C02409B
S31508004F800369194214BF01200020704702B90904B9
S31508004F9081617047002800F0A2812DE9F04103687D
S31508004FA0DD0782B004462FD59E498A6802F00C02B6
S31508004FB0042A00F0ED808A6802F00C02082A00F044
S31508004FC0E3806368B3F5803F00F0EC80B3F5A02F6B
S31508004FD000F07581934D2A6822F480322A602A6887
S31508004FE022F480222A60002B40F0E180FFF7BAFD08
S31508004FF0064605E0FFF7B6FD801B642800F201812E
S315080050002B689B03F6D423689F0728D5854A9168A1
S3150800501011F00C0F00F09080916801F00C0108293E
S3150800502000F08680E368002B00F00E817E4B7D4EF3
S3150800503001221A60FFF796FD054605E0FFF792FD87
S31508005040401B022800F2DD8033689807F6D53368DE
S31508005050226923F0F80343EAC203336023681A0778
S3150800506051D458072FD56F4A136C13F080537FD04D
S3150800507000256E4E3368D90540F1B380A368012B2D
S3150800508000F0C380052B00F02C81664E326F22F0AB
S3150800509001023267326F22F004023267002B40F0B9
S315080050A0B980FFF75FFD41F28838074605E0FFF74C
S315080050B059FDC01B404500F2A480336F9807F6D40B
S315080050C0002D40F00681A069C8B1564DAB6803F0C3
S315080050D00C03082B00F0C980534B002202281A66DD
S315080050E000F00981FFF73EFD044605E0FFF73AFDAB
S315080050F0001B022800F285802B689B01F6D400204D
S3150800510002B0BDE8F08163690BB3474B454E0122F7
S31508005110C3F8802EFFF726FD054604E0FFF722FDBB
S31508005120401B02286DD8736F9B07F7D5236898E74D
S31508005130526856023FF576AF3A4A1268950744D543
S31508005140E268012A41D0012002B0BDE8F081364A62
S31508005150344EC2F8803EFFF705FD054604E0FFF72A
S3150800516001FD401B02284CD8736F9F07F7D4DDE773
S315080051700193136C43F080531364136C03F080534C
S315080051800193019B012574E74A6850027FF519AF20
S31508005190244A126891037FF537AF6268002A7FF4C4
S315080051A033AFD0E71F4A136843F480331360FFF721
S315080051B0D9FC1C4E054604E0FFF7D4FC401B6428C6
S315080051C01FD833689A03F7D51DE7164920690A6878
S315080051D022F0F80242EAC0020A601A077FF541AFD8
S315080051E091E7336843F480733360FFF7BBFC0746E7
S315080051F03368DA053FF542AFFFF7B4FCC01B022857
S31508005200F6D9032002B0BDE8F081064A136F43F0D1
S3150800521001031367FFF7A6FC024F064641F28838DA
S315080052200BE000BF00380240000047420070004013
S31508005230FFF798FC801B4045E3D83B6F9B07F7D5E3
S31508005240002D3FF440AF44E0424A434E1360FFF757
S3150800525089FC054604E0FFF785FC401B0228D0D8E8
S3150800526033689907F7D42368F9E601283FF448AF6D
S315080052706B68E26903F4800191427FF464AF226AA5
S3150800528003F03F0191427FF45EAF616A47F6C07250
S315080052901A40B2EB811F7FF456AFA26A520803F494
S315080052A04031013AB1EB024F7FF44DAFE26A03F0A9
S315080052B07063B3EB026F14BF0120002020E7264B72
S315080052C01A6842F480221A601A6842F480321A6018
S315080052D06DE7214A136C23F080531364F3E601202B
S315080052E070471D4B1A6F42F004021A671A6F42F094
S315080052F001021A678EE7FFF735FC064605E0FFF759
S3150800530031FC801B02283FF67CAF2B689901F6D446
S31508005310D4E90731626A0B4343EA8213D4E90A21C6
S31508005320520843EA0163013A0A4943EA0243012261
S315080053306B600A66FFF716FC074D044605E0FFF7A3
S3150800534011FC001B02283FF65CAF2B689A01F6D5C4
S31508005350D5E600BF0000474200380240164908B5A6
S315080053608B6803F00C03042B1BD0082B17D14A6853
S315080053704B68496813F4800302F03F0213D10F48C3
S31508005380C1F38811A1FB0001FBF77EFC0A4B5B68A1
S31508005390C3F3014301335B00B0FBF3F008BD0748D4
S315080053A008BD074808BD0648C1F388110023A1FBBC
S315080053B00001FBF769FCE9E7003802400024F40025
S315080053C000127A00002800F08780484A136803F024
S315080053D007038B422DE9F0410D46044609D2CBB2AC
S315080053E01370136803F007038B4202D00120BDE84F
S315080053F0F0812368980714D5590704D53C498A686B
S3150800540042F4E0528A601A0704D539498A6842F498
S3150800541060428A603649A0688A6822F0F002024330
S315080054208A60DF0721D56268012A57D0931E012BAF
S315080054302F4B1B684DD99907D8D52D4EB36823F045
S3150800544003031343B360FFF78DFB41F28838074621
S3150800545004E0FFF787FBC01B404544D8B368626881
S3150800546003F00C03B3EB820FF3D1204A136803F061
S315080054700703AB4206D9EBB21370136803F00703B0
S31508005480AB42B3D123685A0706D51949E0688A683A
S3150800549022F4E05202438A601B0707D5144A2169A1
S315080054A0936823F4604343EAC1039360FFF756FF0A
S315080054B00F4A104C92681049C2F303120346A25CC5
S315080054C00E48D34000680B60FFF702FB0020BDE8DA
S315080054D0F0819801B1D489E701207047044B1B6815
S315080054E09E03AAD482E7032081E700BF003C02405E
S315080054F00038024064D20008840000208C00002096
S31508005500044B05499B68054A0868C3F38223D35CA4
