:020000040800F2
:10000000000002203D340008C9320008CF32000849
:10001000D5320008D7320008DD32000800000000A9
:10002000000000000000000000000000E3320008B3
:10003000E532000800000000E7320008E93200085D
:100040008D3400088D3400088D3400088D3400088C
:100050008D3400088D3400088D3400088D3400087C
:100060008D3400088D3400088D3400088D3400086C
:100070008D3400088D3400088D3400088D3400085C
:100080008D3400088D3400088D3400088D3400084C
:100090008D3400088D3400088D3400088D3400083C
:1000A0008D3400088D3400088D3400088D3400082C
:1000B0008D3400088D3400088D3400088D3400081C
:1000C0008D3400088D3400088D3400088D3400080C
:1000D0008D3400088D340008FD3200080D3300080F
:1000E0008D3400088D3400088D3400088D340008EC
:1000F0008D3400088D3400088D3400088D340008DC
:100100008D3400088D3400088D3400088D340008CB
:100110001D3300082D3300083D3300088D340008DE
:100120008D3400088D3400088D3400088D340008AB
:100130008D3400088D3400088D3400088D3400089B
:100140008D3400088D3400088D3400088D3400088B
:100150008D3400088D3400088D3400088D3400087B
:100160008D3400088D3400088D3400088D3400086B
:100170008D3400088D3400088D3400080000000024
:080180008D3400088D340008E5
:1001900010B5054C237833B9044B13B10448AFF3C1
:1001A00000800123237010BDF0010020000000003A
:1001B000F896000808B5034B1BB103490348AFF399
:1001C000008008BD00000000F4010020F89600083F
:1001D00001F0FF01102A2BDB10F0070F08D010F8F8
:1001E000013B013A8B422DD010F0070F42B3F6D1FC
:1001F000F0B441EA012141EA014122F007047FF015
:1002000000070023F0E80256083C85EA010586EA6B
:10021000010685FA47F5A3FA87F586FA47F6A5FAA7
:1002200087F68EB9EED1F0BC01F0FF0102F00702B3
:1002300032B110F8013B013A83EA010313B1F8D15E
:100240000020704701387047002D06BF354603383F
:10025000073815F0010F07D1013015F4807F02BF78
:10026000013015F4C03F0130F0BC0138704700BFC9
:10027000034613F8012B002AFBD1181A01387047E6
:1002800081F0004102E000BF83F0004330B54FEA47
:1002900041044FEA430594EA050F08BF90EA020FB4
:1002A0001FBF54EA000C55EA020C7FEA645C7FEA47
:1002B000655C00F0E2804FEA5454D4EB5555B8BF6A
:1002C0006D420CDD2C4480EA020281EA030382EADB
:1002D000000083EA010180EA020281EA0303362D6D
:1002E00088BF30BD11F0004F4FEA01314FF4801C40
:1002F0004CEA113102D0404261EB410113F0004F52
:100300004FEA03334CEA133302D0524263EB430308
:1003100094EA050F00F0A780A4F10104D5F1200EA6
:100320000DDB02FA0EFC22FA05F2801841F1000101
:1003300003FA0EF2801843FA05F359410EE0A5F1D5
:1003400020050EF1200E012A03FA0EFC28BF4CF006
:10035000020C43FA05F3C01851EBE37101F00045BC
:1003600007D54FF0000EDCF1000C7EEB00006EEBC9
:100370000101B1F5801F1BD3B1F5001F0CD3490853
:100380005FEA30004FEA3C0C04F101044FEA4452AA
:1003900012F5800F80F09A80BCF1004F08BF5FEA31
:1003A000500C50F1000041EB045141EA050130BD11
:1003B0005FEA4C0C404141EB0101013C28BFB1F523
:1003C000801FE9D291F0000F04BF01460020B1FA6E
:1003D00081F308BF2033A3F10B03B3F120020CDA41
:1003E0000C3208DD02F1140CC2F10C0201FA0CF01F
:1003F00021FA02F10CE002F11402D8BFC2F1200C84
:1004000001FA02F120FA0CFCDCBF41EA0C01904039
:10041000E41AA2BF01EB0451294330BD6FEA040482
:100420001F3C1CDA0C340EDC04F11404C4F120026D
:1004300020FA04F001FA02F340EA030021FA04F37F
:1004400045EA030130BDC4F10C04C4F1200220FAD6
:1004500002F001FA04F340EA0300294630BD21FA14
:1004600004F0294630BD94F0000F83F4801306BFDA
:1004700081F480110134013D4EE77FEA645C18BFCE
:100480007FEA655C29D094EA050F08BF90EA020F65
:1004900005D054EA000C04BF1946104630BD91EA5D
:1004A000030F1EBF0021002030BD5FEA545C05D160
:1004B0004000494128BF41F0004130BD14F580049F
:1004C0003CBF01F5801130BD01F0004545F0FE4113
:1004D00041F470014FF0000030BD7FEA645C1ABF48
:1004E000194610467FEA655C1CBF0B46024650EA7F
:1004F000013406BF52EA033591EA030F41F40021AB
:1005000030BD00BF90F0000F04BF0021704730B530
:100510004FF4806404F132044FF000054FF0000105
:1005200050E700BF90F0000F04BF0021704730B5C6
:100530004FF4806404F1320410F0004548BF40429B
:100540004FF000013EE700BF42004FEAE2014FEAF0
:1005500031014FEA02701FBF12F07F4393F07F4FCB
:1005600081F06051704732F07F4208BF704793F0CE
:100570007F4F04BF41F40021704730B54FF46074E1
:1005800001F0004521F000411CE700BF50EA0102E4
:1005900008BF704730B54FF000050AE050EA01028D
:1005A00008BF704730B511F0004502D5404261EBFD
:1005B00041014FF4806404F132045FEA915C3FF43E
:1005C000D8AE4FF003025FEADC0C18BF03325FEADB
:1005D000DC0C18BF033202EBDC02C2F1200300FA8C
:1005E00003FC20FA02F001FA03FE40EA0E0021FAB1
:1005F00002F11444BDE600BF70B54FF0FF0C4CF49F
:10060000E06C1CEA11541DBF1CEA135594EA0C0F50
:1006100095EA0C0F00F0DEF82C4481EA030621EA8B
:100620004C5123EA4C5350EA013518BF52EA0335C6
:1006300041F4801143F4801338D0A0FB02CE4FF078
:100640000005E1FB02E506F00042E0FB03E54FF0A8
:100650000006E1FB03569CF0000F18BF4EF0010EA0
:10066000A4F1FF04B6F5007F64F5407404D25FEA9C
:100670004E0E6D4146EB060642EAC62141EA55514F
:100680004FEAC52040EA5E504FEACE2EB4F1FD0C91
:1006900088BFBCF5E06F1ED8BEF1004F08BF5FEA0F
:1006A000500E50F1000041EB045170BD06F00046C1
:1006B00046EA010140EA020081EA0301B4EB5C046E
:1006C000C2BFD4EB0C0541EA045170BD41F4801166
:1006D0004FF0000E013C00F3AB8014F1360FDEBF8B
:1006E000002001F0004170BDC4F10004203C35DA67
:1006F0000C341BDC04F11404C4F1200500FA05F3EA
:1007000020FA04F001FA05F240EA020001F000428A
:1007100021F0004110EBD37021FA04F642EB060100
:100720005EEA430E08BF20EAD37070BDC4F10C042A
:10073000C4F1200500FA04F320FA05F001FA04F2EE
:1007400040EA020001F0004110EBD37041F10001DA
:100750005EEA430E08BF20EAD37070BDC4F12005E5
:1007600000FA05F24EEA020E20FA04F301FA05F24D
:1007700043EA020321FA04F001F0004121FA04F2F5
:1007800020EA020000EBD3705EEA430E08BF20EAC5
:10079000D37070BD94F0000F0FD101F000464000FF
:1007A00041EB010111F4801F08BF013CF7D041EA81
:1007B000060195F0000F18BF704703F00046520085
:1007C00043EB030313F4801F08BF013DF7D043EA56
:1007D0000603704794EA0C0F0CEA135518BF95EA0C
:1007E0000C0F0CD050EA410618BF52EA4306D1D193
:1007F00081EA030101F000414FF0000070BD50EAB2
:10080000410606BF1046194652EA430619D094EA3B
:100810000C0F02D150EA013613D195EA0C0F05D125
:1008200052EA03361CBF104619460AD181EA030179
:1008300001F0004141F0FE4141F470014FF0000031
:1008400070BD41F0FE4141F4780170BD70B54FF0CC
:10085000FF0C4CF4E06C1CEA11541DBF1CEA13554C
:1008600094EA0C0F95EA0C0F00F0A7F8A4EB05042E
:1008700081EA030E52EA03354FEA013100F0888025
:100880004FEA03334FF0805545EA131343EA1263EE
:100890004FEA022245EA111545EA10654FEA0026A3
:1008A0000EF000419D4208BF964244F1FD0404F55C
:1008B000407402D25B084FEA3202B61A65EB0305B8
:1008C0005B084FEA32024FF480104FF4002CB6EB75
:1008D000020E75EB030E22BFB61A754640EA0C00F5
:1008E0005B084FEA3202B6EB020E75EB030E22BF35
:1008F000B61A754640EA5C005B084FEA3202B6EB76
:10090000020E75EB030E22BFB61A754640EA9C0034
:100910005B084FEA3202B6EB020E75EB030E22BF04
:10092000B61A754640EADC0055EA060E18D04FEAC2
:10093000051545EA16754FEA06164FEAC30343EA62
:1009400052734FEAC2025FEA1C1CC0D111F4801F2F
:100950000BD141EA00014FF000004FF0004CB6E728
:1009600011F4801F04BF01430020B4F1FD0C88BFC7
:10097000BCF5E06F3FF6AFAEB5EB030C04BFB6EBD2
:10098000020C5FEA500C50F1000041EB045170BDC5
:100990000EF0004E4EEA113114EB5C04C2BFD4EBF2
:1009A0000C0541EA045170BD41F480114FF0000E76
:1009B000013C90E645EA060E8DE60CEA135594EAF2
:1009C0000C0F08BF95EA0C0F3FF43BAF94EA0C0FF5
:1009D0000AD150EA01347FF434AF95EA0C0F7FF46A
:1009E00025AF104619462CE795EA0C0F06D152EABE
:1009F00003353FF4FDAE1046194622E750EA4106A2
:100A000018BF52EA43067FF4C5AE50EA41047FF4B2
:100A10000DAF52EA43057FF4EBAE12E74FF0FF3C17
:100A200006E000BF4FF0010C02E000BF4FF0010CE8
:100A30004DF804CD4FEA410C7FEA6C5C4FEA430C61
:100A400018BF7FEA6C5C1BD001B050EA410C0CBFB0
:100A500052EA430C91EA030F02BF90EA020F002012
:100A6000704710F1000F91EA030F58BF994208BF79
:100A700090422CBFD8176FEAE37040F00100704736
:100A80004FEA410C7FEA6C5C02D150EA013C07D18D
:100A90004FEA430C7FEA6C5CD6D152EA033CD3D0D8
:100AA0005DF8040B704700BF8446104662468C46D2
:100AB0001946634600E000BF01B5FFF7B7FF002805
:100AC00048BF10F1000F01BD4DF808EDFFF7F4FF2E
:100AD0000CBF012000205DF808FB00BF4DF808EDB9
:100AE000FFF7EAFF34BF012000205DF808FB00BFDC
:100AF0004DF808EDFFF7E0FF94BF012000205DF8FE
:100B000008FB00BF4DF808EDFFF7CEFF94BF0120B2
:100B100000205DF808FB00BF4DF808EDFFF7C4FFAB
:100B200034BF012000205DF808FB00BF4FEA410CF4
:100B30007FEA6C5C02D150EA013C0AD14FEA430CD7
:100B40007FEA6C5C02D152EA033C02D14FF0000014
:100B500070474FF0010070474FEA410212F5001252
:100B600015D211D56FF47873B3EB625212D94FEAF4
:100B7000C12343F0004343EA505311F0004F23FADE
:100B800002F018BF404270474FF00000704750EA33
:100B9000013005D111F0004008BF6FF000407047F0
:100BA0004FF00000704700BF4A0011D212F500124A
:100BB00011D20DD56FF47873B3EB62520ED44FEAB5
:100BC000C12343F0004343EA505323FA02F0704735
:100BD0004FF00000704750EA013002D14FF0FF3073
:100BE00070474FF0000070474FEA4102B2F1E04316
:100BF00024BFB3F5001CDCF1FE5C0DD901F0004C04
:100C00004FEAC0024CEA5070B2F1004F40EB830053
:100C100008BF20F00100704711F0804F21D113F17F
:100C20003872BCBF01F00040704741F480114FEAB8
:100C30005252C2F11802C2F1200C10FA0CF320FA41
:100C400002F018BF40F001004FEAC1234FEAD3235E
:100C500003FA0CFC40EA0C0023FA02F34FEA4303C8
:100C6000CCE77FEA625307D150EA01331EBF4FF051
:100C7000FE4040F44000704701F0004040F0FE406C
:100C800040F40000704700BF53B94AB9002908BFBB
:100C900000281CBF4FF0FF314FF0FF3000F0A6B925
:100CA000ADF1080C6DE904CE00F03CF8DDF804E08D
:100CB000DDE9022304B0704738B500220023044662
:100CC0000D46FFF70BFF28B920462946BDE83840FE
:100CD00000F00AB8204605F1004100F005F8404256
:100CE00061EB410138BD00BFD0B50C4B0022064678
:100CF0000F46FFF781FCFFF757FF0446FFF702FCA2
:100D0000074B0022FFF778FC02460B463046394677
:100D1000FFF7BAFAFFF748FF2146D0BD0000F03DCB
:100D20000000F0412DE9F047089E0D4604460F46AD
:100D3000002B4AD18A42944665D9B2FA82F343B174
:100D400002FA03FCC3F120029F4020FA02F217438B
:100D50009C404FEA1C4E1FFA8CF5B7FBFEF1220CAB
:100D60000EFB117742EA074201FB05F090420AD9D7
:100D70001CEB020201F1FF3780F01C81904240F22F
:100D8000198102396244121AA4B2B2FBFEF00EFBC2
:100D9000102244EA024400FB05F5A5420AD91CEBE7
:100DA000040400F1FF3280F00781A54240F2048183
:100DB0006444023840EA0140641B00211EB1DC405B
:100DC0000023C6E90043BDE8F0878B4208D9002E16
:100DD00000F0ED800021C6E900050846BDE8F08777
:100DE000B3FA83F1002949D1AB4202D3824200F227
:100DF000F880841A65EB030201201746002EE2D02A
:100E0000C6E90047DFE702B9FFDEB2FA82F3002B42
:100E100040F090808A1A4FEA1C471FFA8CFE01218D
:100E2000B2FBF7F507FB1520220C42EA00420EFB4D
:100E300005F0904208D91CEB020205F1FF3802D2FE
:100E4000904200F2CB804546121AA4B2B2FBF7F0F2
:100E500007FB102244EA02440EFB00FEA64508D917
:100E60001CEB040400F1FF3202D2A64500F2BB8065
:100E70001046A4EB0E0440EA05409FE7C1F12007AD
:100E80008B4022FA07FC4CEA030C05FA01F420FA25
:100E900007F3FD404FEA1C492343B5FBF9F81FFA5D
:100EA0008CFE09FB18551C0C44EA054408FB0EF5A2
:100EB000A54202FA01F200FA01F00BD91CEB04047E
:100EC00008F1FF3A80F08880A54240F28580A8F1C1
:100ED00002086444641B9DB2B4FBF9F309FB13449C
:100EE00045EA044403FB0EFEA64508D91CEB0404A6
:100EF00003F1FF356CD2A6456AD9023B644443EA4C
:100F00000843A3FB0295A4EB0E04AC42C846AE46D0
:100F100056D353D056B1B0EB080264EB0E0404FA7A
:100F200007F7CA40CC401743C6E9007418460021B1
:100F3000BDE8F087C3F1200102FA03FC20FA01F2B8
:100F400025FA01F19D402A434FEA1C471FFA8CFE07
:100F5000B1FBF7F007FB1015110C41EA054100FB4E
:100F60000EF58D4204FA03F408D91CEB010100F1DF
:100F7000FF382FD28D422DD902386144491B92B2DD
:100F8000B1FBF7F507FB151142EA014205FB0EF133
:100F9000914208D91CEB020205F1FF3816D29142AA
:100FA00014D9023D6244521A45EA004138E73146FD
:100FB000304608E73946E6E61046FBE64845A9D242
:100FC000B9EB020865EB0C0E013BA3E74546EAE7E7
:100FD0002B4694E74046D1E7D0467BE7023D62448A
:100FE00032E708460AE76444023842E7704700BF28
:100FF000014B1870704700BF00000020014B1878AB
:10100000704700BF0000002008B5FFF7F7FF022877
:1010100000D008BD044B1A78044B1A7004490548E7
:1010200005F01AFDF5E700BF4703002093040020F8
:101030004802002094030020014B1868704700BF4D
:101040004C03002008B5FFF7F7FF014B186008BDFF
:1010500058030020014B1868704700BF5803002058
:10106000014B1870704700BF44020020014B1878F4
:10107000704700BF4402002010B5FFF7DDFF0446B3
:10108000FFF7E8FF241A042C02D9024B01221A7040
:1010900010BD00BF5403002008B5164B1B78012B70
:1010A00011D0022B1CD01BB1124B00221A7008BDAC
:1010B0002428FCD10020104B18700E4B01221A700E
:1010C000FFF7CEFFF3E70D2806D00B4A1378591C23
:1010D00011700A4AD054EAE7064B02221A70E6E77A
:1010E0000A2803D0034B00221A70E0E70120FFF723
:1010F000B7FFDCE74502002047030020480200203C
:1011000008B5034A136801331360FFF7B5FF08BD44
:101110004C03002008B501220349044B186803F072
:10112000E8FC034B187008BD490300205003002061
:101130004803002008B5024B1860FFF7EBFF08BD1D
:101140005003002008B5084B1B681A6803689A42D0
:1011500000D008BDFFF7DEFF044B1878FFF79CFFB7
:10116000FFF770FFF5E700BF5003002049030020A0
:1011700030B583B005460C46144B1B88ADF80430DF
:1011800000228DF80620012305E015F803C08CEA43
:1011900002020133DBB2A4F1030C6345F5DB0C4919
:1011A00001A805F009FB9DF80420A31EEB5C9A4200
:1011B00007D19DF80520013C2B5D9A4204D1002007
:1011C00000E0012003B030BD0120FBE710970008CC
:1011D000149700082DE9D04F59EC108B04464FF0BE
:1011E000000ADFF860B04BEC11AB08F049F951ECA4
:1011F000100B0022124BFFF729FB06460F46524602
:101200005B4640464946FFF721FBFFF7CDFCC0B2E5
:10121000FFF778F902460B4630463946FFF736F8B5
:1012200041EC100B572C01D0532C07D110EE102A93
:1012300010EE901A01F1004343EC102BBDE8D08F63
:1012400000004E400000594038B52DED028B0C4691
:101250002C2105F055FB451C284603F070FC20604E
:101260002C21284605F04CFB10F8013F23712C215E
:1012700005F046FB451C284603F057FCB0EE408ABB
:10128000F0EE608A84ED020B2C21284605F038FB35
:10129000054640782C2840D02074B0EE480AF0EE85
:1012A000680AFFF797FF84ED020B2C21681C05F0FC
:1012B00027FB451C284603F03BFC10EE100AFFF705
:1012C00043F941EC180BC4E906012C21284605F02E
:1012D00017FB054640782C2821D084F82000B0EE7A
:1012E000480AF0EE680AFFF775FF84ED060B2C2123
:1012F000681C05F005FB451C284603F019FC84ED2D
:10130000090A2C21284605F0FBFA013003F010FCF5
:1013100084ED0A0ABDEC028B38BD3F20BCE73F20BC
:10132000DBE738B52DED028B0C462C2105F0E8FAF1
:10133000451C284603F003FC20602C21284605F0BC
:10134000DFFA451C284603F0F0FBB0EE408AF0EED1
:10135000608A84ED020B2C21284605F0D1FA05465F
:1013600040782C2854D02074B0EE480AF0EE680A79
:10137000FFF730FF84ED020B2C21681C05F0C0FA4A
:10138000451C284603F0D4FB10EE100AFFF7DCF8EA
:1013900041EC180BC4E906012C21284605F0B0FAEF
:1013A000054640782C2835D084F82000B0EE480A55
:1013B000F0EE680AFFF70EFF84ED060B2C21681C87
:1013C00005F09EFA451C284603F0B5FB84F828007A
:1013D0002C21284605F094FA451C284603F0ABFB67
:1013E00084F829002C21284605F08AFA451C284655
:1013F00003F09EFB84ED0B0A2C21284605F080FAB1
:10140000013003F095FB84ED090ABDEC028B38BD79
:101410003F20A8E73F20C7E708B50020FFF7E8FD19
:10142000144B19781448FFF7A3FE98B90120FFF771
:10143000DFFD1148114B1860114B1860114905F080
:101440007EFA58B110490C48FFF76BFF0220FFF7F6
:10145000CFFD08BD0220FFF7CBFDFAE70B49064898
:1014600005F06DFA0028F1D009490348FFF7ECFEBA
:10147000ECE700BF9304002094030020400200200A
:101480009003002018970008100200202097000801
:101490006003002008B5084B1B7823B9FFF7E6FD71
:1014A000012803D008BDFFF735FEF7E7FFF7ACFDD5
:1014B000FFF7B2FFF6E700BF48030020014B1878A2
:1014C000704700BF99040020014B1870704700BF9F
:1014D00099040020014B1878704700BFAC0400202D
:1014E000014B1868704700BF9C040020014BD3E9F2
:1014F00000017047B004002008B5FFF7F1FF024B70
:10150000186000225A6008BDB0040020024B002081
:101510000021C3E900017047B004002010B5FFF7B7
:10152000DFFF0446FFF7E2FF241A61EB41010A2CBA
:1015300071F1000101D2002010BD0124024B1C708A
:10154000FFF7E4FF2046F7E7AC040020034A1368E6
:101550005268134314BF012000207047B0040020DC
:1015600010B501221021124802F0BFF9FFF7B8FFB1
:10157000044620210E4802F0B1F901280BD00120C9
:1015800001F0D8FFFFF7ACFF001BB0F5487FF0D3A8
:10159000084801F0F5F9084801F0F2F9002210219D
:1015A000034802F0A2F94FF47A7001F0C3FF10BDB6
:1015B00000100240289700084497000808B5202131
:1015C0000E4802F08BF9012811D0012210210B489E
:1015D00002F08BF90020FFF777FF002000F0B4FA4B
:1015E000002000F093FA002000F09CFA08BD0022D1
:1015F0001021024802F079F9F8E700BF001002401C
:1016000008B50021044B1980044B19704FF4007287
:10161000034805F06DF908BDBA040020AC040020B1
:10162000C004002010B50446FFF7EAFF2046FEF78D
:101630001FFE282382B221460348006803F006F803
:1016400000B910BD0120FCE7A804002008B5064839
:10165000FFF7E8FF00B108BD044801F091F94FF42D
:10166000FA7001F067FFF6E75C9700086C970008D6
:1016700008B50146034805F062F9003818BF01209B
:1016800008BD00BFC004002010B5A24B1B681BB9E9
:10169000FFF726FF9F4B18609F4B00221A709F4B4D
:1016A0001C78112C00F25E81DFE814F01200370084
:1016B000440052005F006D007A008800BA00C90043
:1016C000F8000701180127019C00AB00DA00E900CF
:1016D0009348FFF7A7FF38B9904A13780133137086
:1016E000FFF7FEFE8B4B1860FFF7FAFE894B1B6875
:1016F000C01AB0F5FA7FC0F043818A4B1B78022BE9
:1017000000F23E81854A002111700133854A137031
:10171000FFF7E6FE7F4B186043E1FFF7DBFE002892
:10172000E2D08148FFF7A4FF0028DDD001347B4BD5
:101730001C70D9E77D48FFF775FF0028D4D1774AA0
:10174000137801331370FFF7CBFE724B1860CBE7B1
:10175000FFF7C0FE0028C7D07348FFF789FF0028B5
:10176000C2D001346D4B1C70BEE77148FFF75AFFC1
:101770000028B9D1694A137801331370FFF7B0FE1E
:10178000644B1860B0E7FFF7A5FE0028ACD06948AD
:10179000FFF76EFF0028A7D00134604B1C70A3E751
:1017A0006548FFF73FFF00289ED15C4A137801335C
:1017B0001370FFF795FE574B186095E7FFF78AFE09
:1017C000002891D05D48FFF753FF18B95C48FFF738
:1017D0004FFF18B10134514B1C7085E74F4B0E225F
:1017E0001A7081E75748FFF71DFF00287FF47CAF90
:1017F0004A4A137801331370FFF772FE454B1860A5
:1018000072E7FFF767FE00283FF46EAF4648FFF728
:101810002FFF00283FF468AF404B08221A7063E79F
:101820004948FFF7FFFE00287FF45EAF3B4A13787C
:1018300001331370FFF754FE364B186054E7FFF77F
:1018400049FE00283FF450AF4048FFF711FF18B1A0
:101850000134324B1C7047E7304B10221A7043E7BB
:101860003B48FFF7DFFE00287FF43EAF2B4A13789A
:1018700001331370FFF734FE264B186034E7FFF78F
:1018800029FE00283FF430AF2748FFF7F1FE00287B
:101890003FF42AAF214B0A221A7025E72D48FFF7A3
:1018A000C1FE00287FF420AF1C4A13780133137067
:1018B000FFF716FE174B186016E7FFF70BFE002820
:1018C0003FF412AF1848FFF7D3FE18B10134134BA1
:1018D0001C7009E70134114B1C7005E71E48FFF727
:1018E000A1FE00287FF400AF0C4A13780133137077
:1018F000FFF7F6FD074B1860F6E6FFF7EBFD002853
:101900003FF4F2AE0848FFF7B3FE38B3034B1222A0
:101910001A70E9E69404002099040020C006002013
:1019200088970008B8040020909700089497000852
:10193000A0970008AC970008B4970008C09700086B
:10194000CC970008D8970008E4970008F0970008A3
:10195000FC9700080C9800081C980008134B1222F2
:101960001A70C1E60023124A1360124A13700F4A1C
:101970001370114B01221A70104801F001F8B3E600
:101980000C4B1B78022B0DD90023094A1360094A1E
:101990001370064A1370084B02221A70084800F0B0
:1019A000EFFF10BD052001F0C5FDFAE7C0060020DD
:1019B00094040020B804002099040020289800080E
:1019C0004498000808B501220349044B186803F045
:1019D00090F8034B187008BDBC040020A804002038
:1019E0009804002008B5044B1860FFF7EBFFFFF7E1
:1019F0002DFEFFF7B5FD08BDA804002008B50A4B71
:101A00001B681A6803689A4200D008BD074A138809
:101A1000591C1180064A1178064AD154FFF7D2FFAB
:101A2000FFF76AFDF1E700BFA8040020BA04002018
:101A3000BC040020C0040020F8B505468E09CFB2D2
:101A4000B301DBB2FF1AFFB2FFF7DAFD0024204634
:101A500009E01E23402205EB84110B48006802F0C8
:101A6000F5FD0134E4B2A3B2B342F2D31FB900389A
:101A700018BF0120F8BD1E233A4605EB8611024827
:101A8000006802F0E3FDF2E7A8040020044A1368AE
:101A90005168013341F1000113605160704700BF8C
:101AA000A004002008B5054A136801331360FFF74E
:101AB0004DFD00B908BDFFF731FDFBE79C04002098
:101AC00008B5034B1A88034904F0C6FF08BD00BFE0
:101AD000BA040020C004002008B5FFF76FFD074BD3
:101AE0001B7823B9FFF7EAFC012803D108BDFFF7F3
:101AF00069FFF7E7FFF7C8FDF8E700BF980400208B
:101B0000014B1870704700BFC5060020014B1870CC
:101B1000704700BFC3060020014B1878704700BF14
:101B2000C3060020014B1870704700BFC20600209A
:101B3000014B1878704700BFC2060020014B18788F
:101B4000704700BFC1060020014B1870704700BFEE
:101B5000C1060020014B1868704700BFD80600205E
:101B60002DE9F843FFF7F6FF074600263446012526
:101B7000A9467FE04C48FFF755FD00286DD10134A0
:101B8000E4B2FFF7E7FF0746A84603E0FFF7A2FC31
:101B900070B9A846FFF7DEFFC31BB3F5C87F62D359
:101BA000022E60D80136F6B207464546002461E0B1
:101BB0003E48FFF75DFD18B10134E4B2A846E9E7FD
:101BC0003B48FFF755FD0028F6D1A846E2E7394823
:101BD000FFF728FD002842D10134E4B2FFF7BAFF35
:101BE0000746A846D6E7FFF775FC08B9A846D1E72F
:101BF0002E48FFF73DFD18B10134E4B2A846C9E70D
:101C00002B48FFF735FD0028F6D1A846C2E72A4841
:101C1000FFF708FD28BB0134E4B2FFF79BFF07463E
:101C2000A846B7E7FFF756FC08B9A846B2E71F4831
:101C3000FFF71EFD18B10134E4B2A846AAE71C481C
:101C4000FFF716FD0028F6D1A846A3E71B4800F0D1
:101C500097FE4FF00008C1469CE7A8469AE7A846C1
:101C600098E7A84696E7022E16D9154800F088FE98
:101C7000A9460025ADB1052CE8D801A353F824F0FE
:101C8000751B00088D1B0008CF1B0008E71B000810
:101C90000F1C0008251C0008052001F04BFC4546E0
:101CA000E8E74846BDE8F88358A800089097000880
:101CB00078A8000880A80008A4A80008C8A8000800
:101CC000F0A800082DE9F047FFF744FF074600267B
:101CD00035460124A14605E19548FFF7A3FC0028FD
:101CE00040F0DD800135EDB2FFF734FF0746A04636
:101CF00003E0FFF7EFFB80B9A046FFF72BFFC31B04
:101D0000B3F5C87FC0F0E680022E00F2E380013612
:101D1000F6B2074644460025E4E08648FFF7A8FCF3
:101D200018B10135EDB2A046E7E78348FFF7A0FC04
:101D300010B1A0460425E0E78048FFF799FC002891
:101D400040F0AF80A046D8E740F2A4417C48FFF7BE
:101D500073FE002840F0A8800135EDB2FFF7FAFECF
:101D60000746A046C9E7FFF7B5FB08B9A046C4E798
:101D70007448FFF77DFC002800F098800135EDB233
:101D8000A046BAE77048FFF74DFC002840F090806D
:101D90000135EDB2FFF7DEFE0746A046ADE7FFF7DF
:101DA00099FB08B9A046A8E76248FFF761FC8046A6
:101DB00018B10135EDB2A0469FE75F48FFF758FC28
:101DC000824610B14546A04697E75C48FFF750FCB5
:101DD00000286FD1A04690E740F2C3415B48FFF76F
:101DE0002BFE002869D10135EDB2FFF7B3FE07469F
:101DF000A04682E7FFF76EFB08B9A0467DE754488E
:101E0000FFF736FC00285AD00135EDB2A04674E742
:101E10005048FFF707FC002853D10135EDB2FFF71A
:101E200099FE0746A04668E7FFF754FB08B9A046AD
:101E300063E74048FFF71CFC18B10135EDB2A0463E
:101E40005BE73D48FFF714FC10B1A0460C2554E7B2
:101E50003A48FFF70DFCB0BBA0464EE740F28F6159
:101E60003D48FFF7E9FD88BB0135EDB2FFF772FE93
:101E70000746A04641E7FFF72DFB08B9A0463CE71F
:101E80003648FFF7F5FB18B30135EDB2A04634E74D
:101E9000334800F075FD4FF00008C1462DE7A0461D
:101EA0002BE7A046042528E7A04626E7A04624E71E
:101EB000A04622E75546A0461FE7A0461DE7A046DC
:101EC0001BE7A04619E7A0460C2516E7A04614E735
:101ED000A04612E7022E23D9224800F051FDA14668
:101EE000002426460CB30B2DD2D801A353F825F0BD
:101EF000D91C0008F31C0008491D0008671D0008D4
:101F0000851D00089F1D0008D91D0008F51D00084B
:101F1000111E0008291E00085D1E0008771E00081B
:101F2000052001F007FB4446DCE74846BDE8F087A2
:101F300018A9000844A900084CA900085CA90008D9
:101F40006098000868A9000880A90008049D00089E
:101F5000B0A90008C8A90008C8A10008F4A9000891
:101F60000CAA000834AA000808B5FFF7A7FA012850
:101F700022D1A34B00221A70A24B1B681BB9FFF79A
:101F8000E9FDA04B1860A04B1B78112B00F2B88123
:101F9000DFE813F0160026004F0068008100920071
:101FA000A300B400C700D900EC00FE00110123011A
:101FB0006C017E019101A3010020FFF785FA08BDA5
:101FC000924800F0DDFC9248FFF72CFB70B98E4A76
:101FD000137801331370FFF7BDFD8A4B186005E0DD
:101FE0008C4800F0CDFCFFF775FAC0B9FFF7B2FDE1
:101FF000844B1B68C01AB0F5FA7FC0F08F81864B06
:102000001B78022B00F28A817F4A00211170013374
:10201000814A1370FFF79EFD7A4B1860CFE77F4827
:10202000FFF726FB0028E1D0774A137801331370BD
:10203000DCE77B4800F0A4FCFFF792FD40B9724A50
:10204000137801331370FFF785FD6E4B1860CDE7F1
:10205000744800F095FC6C4B12221A70684B0222F7
:102060001A70C3E7704800F08BFCFFF72BFE40B9F5
:10207000654A137801331370FFF76CFD614B1860EC
:10208000B4E76A4800F07CFC5F4B12221A705C4B8C
:1020900002221A70AAE7664800F072FC6548FFF752
:1020A000C1FA0028A2D1584A137801331370FFF700
:1020B00051FD544B186099E75F4800F061FCFFF751
:1020C00009FA002892D05548FFF7D2FA00288DD09F
:1020D0004D4A13780133137088E7584800F050FCDC
:1020E0005748FFF79FFA002880D1474A13780133F9
:1020F0001370FFF72FFD434B186077E7514800F04E
:102100003FFCFFF7E7F900283FF470AF4348FFF7C3
:10211000AFFA00283FF46AAF3B4A137801331370DB
:1021200064E7494800F02CFC4848FFF77BFA002898
:102130007FF45CAF344A137801331370FFF70AFD64
:10214000304B186052E7424800F01AFCFFF7C2F922
:1021500000283FF44BAF3148FFF78AFA00283FF4DC
:1021600045AF294A1378013313703FE7394800F02F
:1021700007FC3948FFF756FA00287FF437AF224AA8
:10218000137801331370FFF7E5FC1E4B18602DE741
:10219000324800F0F5FBFFF79DF900283FF426AF29
:1021A0001E48FFF765FA00283FF420AF164A13785F
:1021B000013313701AE72A4800F0E2FB2948FFF7C1
:1021C00031FA00287FF412AF0F4A137801331370ED
:1021D000FFF7C0FC0B4B186008E7234800F0D0FB6A
:1021E000FFF778F900283FF401AF0C48FFF740FAF9
:1021F00000283FF4FBAE044A137801331370F5E670
:10220000C1060020CC0600206C0700205CAA000854
:1022100068AA000880AA00086807002090970008B4
:1022200094AA0008ACAA0008CCAA0008E4AA0008F6
:1022300000AB000814AB000840AB000858AB000826
:102240006CAB0008A0AB0008B8AB0008CCAB000832
:10225000FCAB000814AC000828AC000844AC000833
:1022600060AC000878AC000898AC0008364800F074
:1022700087FB3648FFF7D6F900287FF4B7AE344A1B
:10228000137801331370FFF765FC324B1860ADE62D
:10229000314800F075FBFFF71DF900283FF4A6AEAA
:1022A0002E48FFF7E5F900283FF4A0AE284A13783E
:1022B000013313709AE62A4800F062FB2948FFF7C1
:1022C000B1F900287FF492AE214A137801331370DC
:1022D000FFF740FC1F4B186088E6234800F050FBD6
:1022E000FFF7F8F800283FF481AE1C48FFF7C0F96B
:1022F00000283FF47BAE164A13780133137075E65D
:102300000023144A1360194A1370114A1370184BB2
:1023100001221A70174800F033FB67E6134B1B7855
:10232000022B0DD900230B4A1360104A1370084A80
:1023300013700F4B02221A700F4800F021FB3EE68B
:10234000022001F0F7F83AE6B4AC0008CCAC000883
:102350006C070020CC060020F4AC00089097000821
:1023600010AD00082CAD00084CAD00086807002037
:10237000C10600206CAD000884AD000810B590B017
:1023800004463E4B4FF0000C83F800C03C4B1B68EA
:102390001BB9FFF7DFFB3A4B1860002100913C228C
:1023A00001A804F0A5FA374B1B78012B26D0022B8D
:1023B00041D083B10023334A1370314A1360FFF7D1
:1023C000C9FB2F4B1B68C01A44F6E763984248D8F4
:1023D000002010B010BD21462B4800F0D1FA224653
:1023E0002A49684604F0E8F96846FFF71BF9002817
:1023F000E5D1244A137801331370E0E721462448DD
:1024000000F0BEFAFFF766F80028D8D02148FFF7A1
:102410002FF940B11B4A137801331370FFF79AFB71
:10242000174B1860CBE70023164A1370144A136049
:10243000124A1370C3E7FFF74DF80028BFD01648C3
:10244000FFF716F918B90D4B00221A70B7E70D4BBC
:1024500003221A70094B01221A70104800F090FAFA
:10246000ADE70023064A1360064A1370034B0222AD
:102470001A700B4800F084FAAAE700BFC2060020D9
:10248000C80600206B0700209CAD0008B8AD00080E
:10249000CCAD000890970008E4AD0008F4AD00084A
:1024A00018AE000870B590B005460E463E4B0022AF
:1024B0001A703E4B1B681BB9FFF74CFB3B4B186077
:1024C000002100913C2201A804F012FA384B1C783C
:1024D000012C2BD0022C45D07CB10023344A137040
:1024E000324A1360FFF736FB304B1B68C01A314B82
:1024F00098424DD8002010B070BD324629462E4873
:1025000000F03EFA33462A462C49684604F054F956
:1025100069462B4800F034FA6846FFF783F8002834
:10252000E0D1234A137801331370DBE7254800F02C
:1025300027FAFEF7CFFF0028D4D02348FFF798F8FA
:1025400040B11B4A137801331370FFF703FB174B9D
:102550001860C7E70023164A1370144A13601B4A19
:102560001370BFE7FEF7B6FF0028BBD01848FFF78F
:102570007FF818B9154B00221A70B3E70C4B0322F1
:102580001A70124B01221A70124800F0F9F9A9E7EB
:102590000023064A1360064A13700C4B02221A707D
:1025A0000D4800F0EDF9A5E7C2060020D006002096
:1025B0006A070020BF2501003CAE00085CAE0008A1
:1025C00074AE000890AE000890970008C306002083
:1025D000A4AE0008B4AE0008D4AE000870B5A0B038
:1025E00006460D4614466A4B00221A70694B1B685A
:1025F0001BB9FFF7AFFA674B1860002100917C22EE
:1026000001A804F075F9644B1B78042B00F2AD802F
:10261000DFE803F003153B5F8F0031465F4800F0B1
:10262000AFF932465E49684604F0C6F86846FEF7E0
:10263000F9FF50B9584A13780133137005E059482F
:1026400000F09EF9FEF746FF60B9FFF783FA514BA1
:102650001B68C01A44F6E763984200F28C800020A1
:1026600020B070BD5048FFF703F820B14A4A1378F4
:1026700001331370E9E70024474B1C70FFF76AFA37
:10268000444B1860424B1C70DFE71A232B55013472
:1026900000232B552946454800F072F9A1B228467F
:1026A000FFF7CAF948B100243B4B1C70FFF752FA00
:1026B000384B1860364B1C70C7E7374A1378013324
:1026C0001370FFF747FA334B1860394800F058F998
:1026D000BBE7384800F054F9FEF7FCFE0028B4D000
:1026E0003548FEF7C5FF38B900232B4A1370294A35
:1026F0001360274A1370A8E7274A13780133137031
:10270000FFF728FA234B18602C4800F039F92C48C1
:10271000FEF7AEFF002898D01F4B05221A701C4B05
:1027200001221A700020FFF7EBF9264800F028F983
:102730008BE7FEF7CFFE002887D02148FEF798FFF1
:1027400060B1154B05221A70114B01221A7000203E
:10275000FFF7D6F91B4800F013F976E70C4B00227F
:102760001A70194800F00CF96FE700230A4A137039
:10277000084A136069E70023064A1360064A13708B
:10278000034B02221A70114800F0FAF867E700BF05
:10279000C4060020D406002069070020F4AE00081B
:1027A00010AF00082CAF000844AF000848AF000885
:1027B00064AF000898AF000890970008B4AF000815
:1027C000DCAF0008ECAF00080CB000082CB000082B
:1027D000024A136801331360704700BFD806002017
:1027E000044A13685168013341F1000113605160DC
:1027F000704700BFE006002070B586B0FFF79EF975
:10280000012803D0FFF7B0FB06B070BDFEF762FEF3
:10281000002869D1FFF780F9012875D1FFF788F901
:10282000012877D1FFF796F9414B1B68C31AB3F51E
:102830007A7F25D33E4B18603E4A138801331380BC
:102840003D4A1388013313803C4A1388013B1380AF
:102850003B4C2068FDF778FE31A3D3E90023FDF758
:1028600015FDFEF7C1F92060364C2068FDF76CFEBF
:102870002DA3D3E90023FDF709FDFEF7B5F920608C
:10288000FFF756F90128BFD12F4B1B78012BBBD185
:102890002E4D2F4B1A882F49284603F08DFF254BCC
:1028A0001E882D4C264B1868FDF74EFECDE904011D
:1028B000244B1868FDF748FECDE902011F4B1B8829
:1028C00001931D4B1B8800933346244A244920461C
:1028D00003F072FF2046FDF7CBFC821C92B221462A
:1028E0002846FFF77BFE8FE71E48FEF7C1FE002853
:1028F00090D01D4C2046FFF7E3F8237B302B89D086
:102900000020FFF703F985E742F2B3211748FFF7EC
:10291000C9FD79E71648FFF731FD75E7AFF3008091
:102920004BB0389CF9D52C3F2D431CEBE2362A3FA7
:102930007009002006000020740900200200002019
:102940000C00002008000020C506002078090020A7
:102950000400002094B00008700700201000002040
:10296000A8B000084CB00008E806002058B00008E5
:102970008CB00008014B1860704700BFB8090020F8
:102980000FB470B5ADF5027D86AC54F8046B00252C
:1029900002954FF4FE72294603A803F0A9FF0195A2
:1029A0000194234632464FF4007102A803F092FFCF
:1029B0000446642382B202A90548006801F046FE7D
:1029C00020460DF5027DBDE8704004B0704700BFA1
:1029D000B80900202DE9F04F8DB000240794089429
:1029E00009940A940B940194964B1A6B42F01002CE
:1029F0001A631A6B02F010020192019A02941A6B88
:102A000042F004021A631A6B02F004020292029A64
:102A100003941A6B42F080021A631A6B02F0800270
:102A20000392039A04941A6B42F001021A631A6B20
:102A300002F001020492049A05941A6B42F0020219
:102A40001A631A6B02F002020592059A06941A6B39
:102A500042F008021A631B6B03F008030693069BFF
:102A6000794F22461821384600F03FFFDFF8E48115
:102A700001221146404600F038FF22464FF2100175
:102A8000724800F032FF4FF6C57307934FF0030A08
:102A9000CDF820A0099407A9384600F029FE182394
:102AA00007934FF00109CDF8209009940A9407A9E3
:102AB000384600F01DFE202307930894099407A9C7
:102AC000384600F015FE42F236330793CDF820A0C9
:102AD000099407A9404600F00BFECDF81C90CDF8F4
:102AE000209009940A9407A9404600F001FE0823AB
:102AF00007930225089509940A9405230B9307A9C7
:102B0000404600F0F5FDCDF81C9008940994504E15
:102B100007A9304600F0ECFD48F202130793CDF808
:102B200020A0099407A9304600F0E2FD1023079386
:102B3000089509940A9406230B9307A9304600F0E0
:102B4000D7FDE0230793089509940A9405230B9376
:102B500007A9304600F0CCFD4FF2B3130793CDF830
:102B600020A00994DFF8F0B007A9584600F0C0FD96
:102B7000042307930894099407A9584600F0B8FD68
:102B80004FF480630793089509940A9405230B93E7
:102B900007A9584600F0ACFD40F6CB630793CDF88B
:102BA00020A0099407A9294800F0A2FD4FF21003C4
:102BB0000793CDF8209009940A9407A9234800F0C0
:102BC00097FD80230793089509940A9406230B9395
:102BD00007A9404600F08CFD4FF40073079308945A
:102BE000099407A9304600F083FD4FF4E0530793A2
:102BF000089509940A940A230B9307A9304600F01C
:102C000077FD202307930894099407A90F4800F043
:102C10006FFD4FF4107307931223089309940A94DD
:102C200004230B9307A9584600F062FD07954FF463
:102C300090130893099407A9384600F059FD0DB088
:102C4000BDE8F08F0038024000100240000C024046
:102C500000000240000802400004024038B505466A
:102C60000C4601211D4800F039FE012801D0C8B1F1
:102C700038BD052000F05EFC0121184800F02EFE52
:102C80000128F4D1072000F055FC0121134800F081
:102C900025FE0128EBD12B780BB9012323700123EA
:102CA0002B70E5E7052000F045FC01210B4800F002
:102CB00015FE0028DCD1072000F03CFC012107486C
:102CC00000F00CFE0028D3D12B78012B02D000237A
:102CD0002B70CDE700232370F9E700BF000002400E
:102CE00072B6BFF34F8F0549CA6802F4E062044B25
:102CF0001343CB60BFF34F8F00BFFDE700ED00E053
:102D00000400FA0508B50B480B4B03604FF4E133A0
:102D1000436000238360C36003610C2242618361CE
:102D20004FF40043C36101F02DFC00B908BDFFF76B
:102D3000D7FF00BF040A00200044004008B50B483C
:102D40000B4B03604FF4E133436000238360C360A7
:102D500003610C22426183614FF40043C36101F0BF
:102D600011FC00B908BDFFF7BBFF00BF480A0020F7
:102D70000048004000B583B00023009301930E4843
:102D80000E4A02600122426083604FF4C853C36060
:102D90008023836101F05AFA50B900230093019314
:102DA0006946054801F07EFA20B903B05DF804FBDE
:102DB000FFF796FFFFF794FFBC09002000100040CA
:102DC00008B50A480A4B03604FF4E133436000231F
:102DD0008360C3600361082242618361C36101F0C3
:102DE00000FC00B908BDFFF77BFF00BF140B0020FB
:102DF0000014014008B50A480A4B03604FF4E13360
:102E0000436000238360C36003610C2242618361DD
:102E1000C36101F0B7FB00B908BDFFF761FF00BF58
:102E20008C0A0020004C004008B50A480A4B036099
:102E30004FF4E133436000238360C36003610C22DD
:102E400042618361C36101F09DFB00B908BDFFF7DA
:102E500047FF00BFD00A00200050004000B595B0E9
:102E60003022002108A803F043FD002303930493BC
:102E700005930693079301931E4A116C41F080510C
:102E80001164126C02F080520192019A02931A4A64
:102E9000116841F480411160126802F4804202928C
:102EA000029A0222089201210B9110210C910E929C
:102EB0000F93082310934023119312920723139327
:102EC00008A800F019FD80B90F2303930221049193
:102ED000002305934FF480520692079303A800F055
:102EE00075FF20B915B05DF804FBFFF7F9FEFFF799
:102EF000F7FE00BF003802400070004000B585B00A
:102F000001248DF80E4000F0E9FAFFF7A7FFFFF764
:102F100061FDFFF7F7FEFFF711FFFFF72BFFFFF74C
:102F20004FFFFFF767FFFFF77FFF1C48FFF722FD0A
:102F30000223009323461A4A0C211A48FFF720FD6A
:102F4000194801F019F81948FEF7F4F81848FEF787
:102F500049FD1848FFF714FD02E0022000F0EAFAEC
:102F6000FEF7BAFDFFF748FCFEF794FA0DF10E01EB
:102F70000DF10F00FFF772FE9DF80F30002BECD023
:102F80009DF80E30002BE8D00B48FFF7F9FC01202C
:102F9000FEF7B6FD00238DF80E30DEE7140B00209F
:102FA00004B1000818B10008BC0900208C0A0020F8
:102FB000480A002040B1000860B1000800B583B0A5
:102FC000002100910C4B5A6C42F480425A645A6CB6
:102FD00002F480420092009A01911A6C42F08052F1
:102FE0001A641B6C03F080530193019B072000F0CF
:102FF000B5FA03B05DF804FB0038024002680E4BDE
:103000009A4200D0704700B583B00021019103F5CA
:103010000A331A6C42F010021A641B6C03F010039E
:103020000193019B0A46362000F0AAFA362000F0F0
:10303000DFFA03B05DF804FB001000402DE9F04119
:1030400092B000230D930E930F9310931193036886
:103050008A4A934210D08A4A934239D0894A93428D
:1030600076D0894A934200F0A080884A934200F0CB
:10307000E28012B0BDE8F08100240194844B1A6C08
:1030800042F400221A641A6C02F400220192019A9E
:1030900002941A6B42F004021A631B6B03F00403E0
:1030A0000293029B4FF440630D9302230E9303237C
:1030B0001093082311930DA9764800F019FB2246BE
:1030C0002146342000F05CFA342000F091FAD0E779
:1030D000002403946E4B1A6C42F480121A641A6C2A
:1030E00002F480120392039A04941A6B42F00402D1
:1030F0001A631A6B02F004020492049A05941A6B84
:1031000042F008021A631B6B03F008030593059B4A
:103110004FF480530D9302270E970326109608252F
:1031200011950DA95B4800F0E3FA04230D930E9767
:103130000F94109611950DA9574800F0D9FA224620
:103140002146352000F01CFA352000F051FA90E7B6
:10315000002406944E4B1A6C42F400321A641A6C26
:1031600002F400320692069A07941A6B42F00102AA
:103170001A631B6B03F001030793079B0C230D934A
:1031800002230E9301230F9303231093072311931C
:103190000DA9424800F0ACFA22462146262000F054
:1031A000EFF9262000F024FA63E700240894384B56
:1031B0001A6C42F480221A641A6C02F4802208927B
:1031C000089A09941A6B42F002021A631A6B02F011
:1031D00002020992099A0A941A6B42F008021A63D1
:1031E0001B6B03F008030A930A9B4FF400630D93D3
:1031F0004FF00208CDF8388001270F97032610966C
:10320000072511950DA9264800F072FA4FF4807336
:103210000D93CDF838800F97109611950DA91E4883
:1032200000F066FA22462146272000F0A9F927205F
:1032300000F0DEF91DE700210B91154B5A6C42F0AE
:1032400020025A645A6C02F020020B920B9A0C91E5
:103250001A6B42F004021A631B6B03F004030C9315
:103260000C9B40230D9312230E93032310930823EA
:1032700011930DA9074800F03BFAFAE6004C004014
:10328000005000400044004000480040001401404D
:103290000038024000080240000C024000000240DA
:1032A00000040240BFF34F8F0549CA6802F4E06290
:1032B000044B1343CB60BFF34F8F00BFFDE700BF4C
:1032C00000ED00E00400FA0508B5FFF7EBFF08B5D4
:1032D000FFF7E8FFFEE708B5FFF7E4FF08B5FFF7E3
:1032E000E1FF70477047704708B500F011F9FEF72D
:1032F000D9FBFDF705FFFFF76BFA08BD08B50248DB
:1033000001F09AFA08BD00BF040A002008B502487F
:1033100001F092FA08BD00BF480A002008B5024833
:1033200001F08AFA08BD00BF8C0A002008B50248E7
:1033300001F082FA08BD00BFD00A002008B502489B
:1033400000F062FE08BD00BFBC09002010B50446B5
:10335000FEF754FB2046FDF7F5FE10BD10B5044600
:10336000FEF794FB2046FFF73BFA10BD01207047A3
:1033700008B503F045FB162303604FF0FF3008BD8E
:1033800008B54FF0FF31FFF7F3FFFEE770B50C46CD
:103390001646002506E0AFF30080214601F8010B38
:1033A00001350C46B542F6DB304670BD70B50C46B3
:1033B0001646002504E014F8010BAFF30080013538
:1033C000B542F8DB304670BD4FF0FF3070474FF428
:1033D00000534B6000207047012070470020704769
:1033E00010B503460C4A0D490D48006840B10C4821
:1033F00000680344521A934206D8094A136010BD6C
:103400000748084C0460F2E703F0FAFA0C23036063
:103410004FF0FF30F3E700BF000002200012000071
:10342000580B0020B00C0020034AD2F8883043F437
:103430007003C2F88830704700ED00E0DFF834D048
:103440000D480E490E4A002302E0D458C4500433FC
:10345000C4188C42F9D30B4A0B4C002301E01360D3
:103460000432A242FBD3FFF7DFFF03F0CFFAFFF7EE
:1034700045FD70470000022000000020EC01002004
:1034800000B60008F0010020AC0C0020FEE70000B0
:1034900010B504460E4B1A784FF47A73B3FBF2F36F
:1034A0000C4A1068B0FBF3F000F0B0F868B90F2CCC
:1034B00001D901200AE0002221464FF0FF3000F040
:1034C0005FF8054B1C60002000E0012010BD00BF2C
:1034D0001C000020180000202000002008B50B4B25
:1034E0001A6842F400721A601A6842F480621A6024
:1034F0001A6842F480721A60032000F02FF800204E
:10350000FFF7C6FFFFF75AFD002008BD003C024050
:10351000034A1168034B1B780B441360704700BFCC
:103520005C0B00201C000020014B1868704700BF96
:103530005C0B002038B50446FFF7F6FF0546B4F1F2
:10354000FF3F02D0044B1B781C44FFF7EDFF401BEC
:10355000A042FAD338BD00BF1C000020074AD36840
:1035600023F4E0631B041B0C000200F4E06003433F
:1035700043F0BF6343F40033D360704700ED00E0D5
:1035800000B5194BDB68C3F30223C3F1070CBCF190
:10359000040F28BF4FF0040C03F1040EBEF1060F18
:1035A00018D9033B4FF0FF3E0EFA0CFC21EA0C0148
:1035B00099400EFA03FE22EA0E020A4300280BDBB2
:1035C0001201D2B200F1604000F5614080F80023A2
:1035D0005DF804FB0023E5E700F00F001201D2B212
:1035E000024B1A54F4E700BF00ED00E014ED00E0D8
:1035F000002807DB00F01F02400901239340024A24
:1036000042F82030704700BF00E100E00138B0F11F
:10361000807F0BD24FF0E0235861054AF02182F8F9
:1036200023100020986107221A617047012070471B
:1036300000ED00E070B50446866DFFF775FF94F865
:103640003530DBB2022B06D080236365002384F87B
:103650003430012070BD05462268136823F016033C
:1036600013602268536923F080035361236CE3B134
:103670002268136823F0080313602268136823F09C
:103680000103136023681B6813F0010F11D0FFF7CB
:103690004BFF431B052BF5D920236365032084F8DA
:1036A0003500002384F83430D4E7A36C002BDFD13D
:1036B000E3E7E26D3F239340B360012384F83530A4
:1036C000002084F83400C5E790F83530DBB2022BD7
:1036D00003D08023436501207047052380F83530EF
:1036E0000268136823F00103136000207047000094
:1036F00000230F2B00F2E98070B582B065E0856889
:103700004FEA430E032404FA0EF425EA0405CC68BC
:1037100004FA0EF42C438460446824EA02044A68E4
:10372000C2F300129A40224342605CE0DC08083495
:1037300050F8242003F00705AD004FF00F0E0EFAED
:1037400005FE22EA0E0E0A69AA4042EA0E0240F87D
:1037500024205CE0072200E0002202FA0EF22A4355
:1037600002345A4D45F82420594A94686FEA0C02F5
:1037700024EA0C054E6816F4801F01D04CEA0405BB
:10378000534CA560E46802EA04054E6816F4001F75
:1037900001D04CEA04054E4CE560646802EA040579
:1037A0004E6816F4003F01D04CEA0405484C6560B1
:1037B000246822404D6815F4803F01D04CEA040291
:1037C000434C226001330F2B7DD801229A400C68B4
:1037D00004EA020C32EA0404F4D14C6804F0030455
:1037E000013C012C8BD94A6802F00302032A09D05C
:1037F000C4685D000322AA4024EA02048A68AA4041
:103800002243C2604A6802F00302022A8ED0046892
:103810004FEA430E032202FA0EF224EA02044A6837
:1038200002F0030202FA0EF2224302604A6812F426
:10383000403FC7D000220192264A546C44F4804491
:103840005464526C02F480420192019A9C08A51CB7
:103850001E4A52F8255003F0030E4FEA8E0E0F2237
:1038600002FA0EF225EA02051B4A90423FF474AFB9
:1038700002F5806290421AD002F58062904218D020
:1038800002F58062904216D002F58062904214D018
:1038900002F58062904212D002F58062904210D010
:1038A00002F5806290423FF455AF082255E70122AD
:1038B00053E7022251E703224FE704224DE7052296
:1038C0004BE7062249E702B070BD7047003801405F
:1038D000003C0140003802400000024003691942E8
:1038E00001D001207047002070470AB18161704704
:1038F0000904816170470000002800F0E08170B584
:1039000082B00446036813F0010F3BD09F4B9B68C5
:1039100003F00C03042B2CD09C4B9B6803F00C038E
:10392000082B21D06368B3F5803F4FD0B3F5A02FAB
:1039300052D0964B1A6822F480321A601A6822F428
:1039400080221A606368002B50D0FFF7EDFD05461A
:103950008E4B1B6813F4003F14D1FFF7E5FD401BAD
:103960006428F5D90320B1E1884B5B6813F4800F1C
:10397000D8D0864B1B6813F4003F03D06368002B3C
:1039800000F09F81236813F0020F54D07F4B9B6897
:1039900013F00C0F3ED07D4B9B6803F00C03082BFB
:1039A00033D0E368002B68D0794B01221A60FFF70F
:1039B000BBFD0546754B1B6813F0020F54D1FFF792
:1039C000B3FD401B0228F5D903207FE16F4A13683D
:1039D00043F480331360B5E76C4B1A6842F48022DD
:1039E0001A601A6842F480321A60ABE7FFF79CFD58
:1039F0000546664B1B6813F4003FC3D0FFF794FDE8
:103A0000401B6428F5D9032060E1604B5B6813F428
:103A1000800FC6D15D4B1B6813F0020F03D0E36823
:103A2000012B40F05081594A136823F0F8032169B3
:103A300043EAC1031360236813F0080F42D063699F
:103A40006BB3534B0122C3F8802EFFF76DFD054683
:103A50004E4B5B6F13F0020F34D1FFF765FD401B37
:103A60000228F5D9032031E1484A136823F0F8030E
:103A7000216943EAC1031360DDE7454B00221A6068
:103A8000FFF752FD0546414B1B6813F0020FD2D0E1
:103A9000FFF74AFD401B0228F5D9032016E13C4BF5
:103AA0000022C3F8802EFFF73FFD0546374B5B6FC2
:103AB00013F0020F06D0FFF737FD401B0228F5D99F
:103AC000032003E1236813F0040F77D02F4B1B6C06
:103AD00013F0805F33D1002301932C4B1A6C42F01A
:103AE00080521A641B6C03F080530193019B0125E3
:103AF000284B1B6813F4807F23D0A368012B34D09C
:103B0000052B38D0214B1A6F22F001021A671A6F69
:103B100022F004021A67A368002B3DD0FFF704FDD2
:103B200006461A4B1B6F13F0020F46D1FFF7FCFC41
:103B3000801B41F288339842F3D90320C6E0002568
:103B4000D6E7144A136843F480731360FFF7ECFC64
:103B50000646104B1B6813F4807FCED1FFF7E4FCC0
:103B6000801B0228F5D90320B0E0084A136F43F008
:103B700001031367CFE7054B1A6F42F004021A677F
:103B80001A6F42F001021A67C5E700BF0038024011
:103B90000000474200700040FFF7C6FC0646524B4B
:103BA0001B6F13F0020F08D0FFF7BEFC801B41F221
:103BB00088339842F3D9032088E0EDB9A369002B3C
:103BC00000F08380484A926802F00C02082A51D023
:103BD000022B17D0454B00221A66FFF7A5FC0446BE
:103BE000414B1B6813F0007F42D0FFF79DFC001B88
:103BF0000228F5D9032069E03B4A136C23F0805377
:103C00001364DBE7394B00221A66FFF78DFC05468B
:103C1000354B1B6813F0007F06D0FFF785FC401B77
:103C20000228F5D9032051E0E369226A1343626A4E
:103C300043EA8213A26A5208013A43EA0243E26A63
:103C400043EA0263284A5360284B01221A66FFF7B1
:103C50006BFC0446244B1B6813F0007F06D1FFF772
:103C600063FC001B0228F5D903202FE000202DE083
:103C700000202BE0012B2BD01B4B5B6803F4800151
:103C8000E269914226D103F03F02216A8A4223D1A0
:103C9000616A47F6C0721A40B2EB811F1ED103F46D
:103CA0004031A26A5208013AB1EB024F18D103F039
:103CB0007063E26AB3EB026F14D1002006E00120CA
:103CC0007047012002E0012000E0002002B070BD3A
:103CD0000120FBE70120F9E70120F7E70120F5E7E4
:103CE0000120F3E70120F1E70038024000004742DD
:103CF00008B5334B9B6803F00C03042B5BD0082BF7
:103D00005BD12F4B5A6802F03F025B6813F4800FBF
:103D10002CD02B4B5868C0F388104FEA401CBCEBEA
:103D2000000C6EEB0E0E4FEA8E1343EA9C634FEAD3
:103D30008C11B1EB0C0163EB0E03DB0043EA517312
:103D4000C90011EB000C43F10003590200234FEAB4
:103D50004C2041EADC51FCF797FF194B5B68C3F339
:103D6000014301335B00B0FBF3F027E0144B5868CC
:103D7000C0F388104FEA401CBCEB000C6EEB0E0E3B
:103D80004FEA8E1343EA9C634FEA8C11B1EB0C01AE
:103D900063EB0E03DB0043EA5173C90011EB000C27
:103DA00043F10003990200234FEA8C2041EA9C5121
:103DB000FCF76AFFD1E7034800E0034808BD00BFF5
:103DC0000038024000127A000024F400002800F0BD
:103DD0009B8070B50D4604464F4B1B6803F00703EC
:103DE0008B4208D2CBB24C4A1370136803F007031E
:103DF0008B4240F08B80236813F0020F17D013F032
:103E0000040F04D0454A936843F4E0539360236859
:103E100013F0080F04D0414A936843F46043936061
:103E20003E4A936823F0F003A1680B439360236834
:103E300013F0010F32D06368012B21D09A1E012AA2
:103E400025D9364A126812F0020F61D033498A68C8
:103E500022F0030213438B60FFF766FB06462F4BED
:103E60009B6803F00C036268B3EB820F16D0FFF778
:103E70005BFB801B41F288339842F0D9032042E07B
:103E8000264A126812F4003FE0D101203BE0234AA9
:103E9000126812F0007FD9D1012034E01E4B1B685C
:103EA00003F00703AB4207D9EAB21B4B1A701B6839
:103EB00003F00703AB422DD1236813F0040F06D0A3
:103EC000164A936823F4E053E1680B439360236838
:103ED00013F0080F07D0114A936823F46043216957
:103EE00043EAC1039360FFF703FF0C4B9B68C3F3E6
:103EF00003130B4AD35CD8400A4B18600A4B18686E
:103F0000FFF7C6FA002070BD012070470120FAE7D4
:103F10000120F8E70120F6E7003C024000380240AB
:103F20009CB100081800002020000020014B1868F8
:103F3000704700BF1800002008B5FFF7F7FF044BDB
:103F40009B68C3F38223034AD35CD84008BD00BFFB
:103F500000380240ACB1000808B5FFF7E7FF044B9A
:103F60009B68C3F34233034AD35CD84008BD00BF0B
:103F700000380240ACB1000890F83D30DBB2012BB4
:103F800037D1022380F83D300268D36843F0010343
:103F9000D3600368194A934220D0B3F1804F1DD0FB
:103FA000A2F57C42934219D002F58062934215D06B
:103FB00002F58062934211D002F5784293420DD00F
:103FC00002F57052934209D0A2F59432934205D083
:103FD0001A6842F001021A60002070479A6802F0E5
:103FE0000702062A07D01A6842F001021A60002070
:103FF0007047012070470020704700BF000001405B
:10400000704770477047704710B5044603681A69D7
:1040100012F0020F11D0DA6812F0020F0DD06FF01B
:1040200002021A610123037703689B6913F0030FEF
:1040300070D0FFF7E6FF0023237723681A6912F098
:10404000040F12D0DA6812F0040F0ED06FF00402E1
:104050001A610223237723689B6913F4407F5FD0A2
:104060002046FFF7CEFF0023237723681A6912F05A
:10407000080F12D0DA6812F0080F0ED06FF00802A5
:104080001A61042323772368DB6913F0030F4ED0F2
:104090002046FFF7B6FF0023237723681A6912F042
:1040A000100F12D0DA6812F0100F0ED06FF010025D
:1040B0001A61082323772368DB6913F4407F3DD01E
:1040C0002046FFF79EFF0023237723681A6912F02A
:1040D000010F03D0DA6812F0010F36D123681A6994
:1040E00012F0800F03D0DA6812F0800F34D1236809
:1040F0001A6912F0400F03D0DA6812F0400F32D183
:1041000023681A6912F0200F03D0DA6812F0200F2A
:1041100030D110BDFFF774FF2046FFF773FF8AE729
:104120002046FFF76DFF2046FFF76CFF9BE7204618
:10413000FFF766FF2046FFF765FFACE72046FFF775
:104140005FFF2046FFF75EFFBDE76FF001021A61D7
:104150002046FFF703F9C1E76FF080021A6120469D
:1041600000F0E7F8C3E76FF040021A612046FFF75E
:104170004AFFC5E76FF020021A61204600F0D8F828
:10418000C7E700000368304A904212D0B0F1804F78
:104190000FD0A2F57C4290420BD002F58062904293
:1041A00007D002F58062904203D002F57842904237
:1041B00003D123F070034A681343234A90422AD064
:1041C000B0F1804F27D0A2F57C42904223D002F577
:1041D000806290421FD002F5806290421BD002F5AF
:1041E0007842904217D002F57052904213D002F5F7
:1041F000806290420FD002F5806290420BD0A2F50F
:104200009832904207D002F58062904203D002F5C6
:104210008062904203D123F44073CA68134323F0B1
:1042200080034A69134303608B68C3620B6883622F
:10423000054B984203D003F58063984201D10B6986
:1042400003630123436170470000014040B310B590
:10425000044690F83D30F3B1022384F83D30214606
:1042600051F8040BFFF78EFF012384F8463084F8E1
:104270003E3084F83F3084F8403084F8413084F890
:10428000423084F8433084F8443084F8453084F870
:104290003D30002010BD80F83C30FEF7AFFEDBE77C
:1042A0000120704790F83C20012A3DD010B403460D
:1042B000012280F83C20022280F83D2002685068EC
:1042C000946820F0700C086840EA0C0050601A688E
:1042D000164882421AD0B2F1804F17D0A0F57C4028
:1042E000824213D000F5806082420FD000F58060DA
:1042F00082420BD000F57840824207D000F5705022
:10430000824203D0A0F59430824204D124F080048C
:10431000496821439160012283F83D20002083F801
:104320003C005DF8044B70470220704700000140DC
:1043300070477047026802F10C0353E8003F23F412
:1043400090730C3242E800310029F3D1026802F187
:10435000140353E8003F23F00103143242E8003114
:104360000029F3D1036B012B05D0202380F83E30C8
:10437000002303637047026802F10C0353E8003F17
:1043800023F010030C3242E800310029F3D1ECE7AE
:1043900090F83D30DBB2212B01D0022070478368BA
:1043A000B3F5805F17D0036A5A1C02621A7803685B
:1043B0005A60C38C9BB2013B9BB2C3844BB9026869
:1043C000D36823F08003D3600268D36843F04003CE
:1043D000D360002070470369002BE4D1036A1B8877
:1043E0000268C3F308035360036A02330362E0E721
:1043F00010B504460268136923F44053C1680B43A7
:104400001361836802691A4343691A43C3691A43F3
:104410000168CB6823F4164323F00C031343CB60ED
:104420000268536923F4407381690B435361036845
:10443000314A934206D002F58062934202D0FFF7E0
:104440007BFD01E0FFF788FDE369B3F5004F29D05C
:104450000021031849411B1841F10001C90041EA3C
:104460005371DB00181863684FEA83024FEA9373B5
:1044700041F10001FCF708FC204AA2FB0031490988
:10448000642303FB11031B013233A2FB03235B09EB
:1044900003F0F00202EB011203F00F032168134452
:1044A0008B6010BD0023021843EB0301121841F189
:1044B0000001C90041EA5271D200101841F1000117
:1044C000626892185B41FCF7DFFB0C4AA2FB0031EB
:1044D0004909642303FB1103DB003233A2FB0323EE
:1044E0005B095A0002F4F87202EB011203F00703B1
:1044F000216813448B60D4E7001001401F85EB5105
:104500002DE9F84305460F4616469946DDF820800A
:104510002B681C6837EA04040CBF01240024B44251
:104520002DD1B8F1FF3FF3D0B8F1000F05D0FEF761
:10453000FBFFA0EB09004045EAD92A6802F10C0311
:1045400053E8003F23F4D0730C3242E800310029D5
:10455000F3D12A6802F1140353E8003F23F001036A
:10456000143242E800310029F3D1202385F83D3090
:1045700085F83E30002385F83C30032000E0002021
:10458000BDE8F88358B310B5044690F83D300BB33E
:10459000242384F83D302268D36823F40053D36089
:1045A0002046FFF725FF2268136923F49043136127
:1045B0002268536923F02A0353612268D36843F4C5
:1045C0000053D36000202064202384F83D3084F819
:1045D0003E3010BD80F83C30FEF730FDD8E70120BA
:1045E0007047002830D010B5044690F83D3033B302
:1045F000242384F83D302268D36823F40053D36029
:104600002046FFF7F5FE2268136923F490431361F7
:104610002268536923F0220353612268536943F0EF
:10462000080353612268D36843F40053D360002029
:104630002064202384F83D3084F83E3010BD80F89B
:104640003C30FEF7FBFCD3E7012070472DE9F04139
:1046500082B01E4690F83D30DBB2202B54D1044688
:104660000D469046002953D0002A53D090F83C3094
:10467000012B51D0012380F83C3000230364212317
:1046800080F83D30FEF750FF0746A4F82480A4F8D8
:104690002680A368B3F5805F05D04FF000080023A3
:1046A00084F83C3012E0236913B14FF00008F6E7BC
:1046B000A8460025F3E738F8023B2268C3F3080355
:1046C0005360E28C92B2013A92B2E284E38C9BB2E4
:1046D00073B100963B46002280212046FFF710FF71
:1046E000E0B9002DE7D015F8012B23685A60E8E700
:1046F00000963B46002240212046FFF701FF78B993
:10470000202384F83D3000E0022002B0BDE8F081B3
:104710000120FAE70120F8E70220F6E70320F4E79A
:104720000320F2E7704708B50168CA6822F040022A
:10473000CA60202280F83D20FFF7F4FF002008BD6A
:10474000704708B5806B0023C385C384FFF7F8FF6B
:1047500008BD704790F83E30DBB2222B67D18368EA
:10476000B3F5805F4DD0826AB3F5805F04D0002B33
:1047700054D10369002B51D103685B681370836ABD
:1047800001338362C38D9BB2013B9BB2C385002B77
:104790004FD100B583B00268D36823F02003D36003
:1047A0000268D36823F48073D3600268536923F0EE
:1047B00001035361202380F83E30036B012B33D17A
:1047C00000230363026802F10C0353E8003F23F067
:1047D00010030C3242E800310029F3D103681A6853
:1047E00012F0100F06D0002201921A6801925B6845
:1047F0000193019B818DFFF7ACFF002003B05DF8B2
:1048000004FB0269002AAED1826A03685B68C3F3C5
:1048100008031380836A02338362B3E703685B682B
:1048200003F07F031370AAE7FEF790FDE5E702208F
:10483000704700207047000030B583B0044602681E
:104840001368D068516913F00F0505D113F0200FDC
:1048500002D010F0200F19D12DB111F0010119D1A2
:1048600010F4907F16D1216B01297DD013F0800FB9
:1048700003D010F0800F40F0158113F0400F03D0EB
:1048800010F0400F40F0128103B030BD2046FFF71A
:1048900061FFF9E713F0010F06D010F4807F03D019
:1048A000226C42F00102226413F0040F04D019B10B
:1048B000226C42F00202226413F0020F04D019B1FC
:1048C000226C42F00402226413F0080F07D010F0AB
:1048D000200F00D119B1226C42F008022264226C30
:1048E000002AD1D013F0200F02D010F0200F29D1D0
:1048F00023685B6903F04003226C12F0080F00D1BB
:1049000063B32046FFF716FD23685B6913F0400F81
:1049100020D0226802F1140353E8003F23F0400343
:10492000143242E800310029F3D1A36B73B1614A1C
:104930001A65A06BFEF7C8FE0028A5D0A06B036D1A
:104940009847A1E72046FFF705FFD1E72046FFF78C
:10495000F7FE99E72046FFF7F3FE95E72046FFF7BD
:10496000EFFE002323648FE713F0100F3FF47EAFB8
:1049700010F0100F3FF47AAF0023019313680193F6
:1049800053680193019B536913F0400F50D0A26B01
:1049900013685B689BB2002B3FF476AFA18D994200
:1049A0007FF672AFE385D369B3F5807F37D0226895
:1049B00002F10C0353E8003F23F480730C3242E809
:1049C00000310029F3D1226802F1140353E8003FBB
:1049D00023F00103143242E800310029F3D12268A8
:1049E00002F1140353E8003F23F04003143242E87D
:1049F00000310029F3D1202384F83E3000232363C3
:104A0000226802F10C0353E8003F23F010030C323C
:104A100042E800310029F3D1A06BFEF70BFEA18D17
:104A2000E38D9BB2C91A89B22046FFF792FE2BE7AD
:104A3000A18DE38D9BB2C91A89B2E38D9BB2002B85
:104A40003FF422AF00293FF41FAF226802F10C03AC
:104A500053E8003F23F490730C3242E80030002802
:104A6000F3D1226802F1140353E8003F23F001035D
:104A7000143242E800300028F3D1202384F83E307D
:104A800000232363226802F10C0353E8003F23F064
:104A900010030C3242E800300028F3D12046FFF723
:104AA00058FEF1E62046FFF773FCEDE62046FFF7DF
:104AB0003AFEE9E64347000881628285C285002309
:104AC0000364222280F83E2080F83C30036923B141
:104AD0000268D36843F48073D3600268536943F07B
:104AE000010353610268D36843F02003D3600020C0
:104AF000704708B590F83E30DBB2202B0DD171B174
:104B00007AB190F83C30012B0DD0012380F83C3075
:104B100000230363FFF7D0FF00E0022008BD01205F
:104B2000FCE70120FAE70220F8E7002100F01EBEB2
:104B3000002100F027BE0A22002100F00DBF0A224A
:104B4000002100F009BF70B504460D4645EC104B3E
:104B5000164603F0F1FD51EC100B7EB1C5F30A537C
:104B6000C3F16B03002B09DD1B0503F17F55002406
:104B700005F5401522462B46FBF73EFD70BD0000B3
:104B80002DE9F04F2DED028B9BB0044613920022CD
:104B900016920D464FF000084FF000090A46159294
:104BA00011782B294CD03AD80D2934D8082934D87B
:104BB00000293DD000220A92159E3278302A40F01A
:104BC000B480727802F0DF02582A70D102930A9BF7
:104BD000019316AB00938E4A17AB15A9204602F03D
:104BE00089FE10F00F07054605D0062F2AD10136A1
:104BF000002315960A93139B002B40F07F850A9B98
:104C0000DBB1424609F1004343EC102B1BB0BDEC75
:104C1000028BBDE8F08F2029CCD10132BFE72D29CE
:104C2000C8D101210A91511C15915278002AC3D193
:104C3000139B1595002B40F05F8542464B46E3E7FA
:104C40000021EFE7169A3AB1352118A803F071FE5A
:104C50001699204603F044FA013F179A042F06D80C
:104C6000DFE807F014031D201400DDE91889E905C9
:104C700048BF49F0004929F000431B0D1B05002BDC
:104C8000B9D101F0BDFE22230360B4E7DDE918834A
:104C900002F2334223F4801343EA0259E7E7DFF8D4
:104CA0007891E4E76FF000494FF0FF38DFE7159B9C
:104CB0005A1C15925B78302BF9D0002B9BD0012326
:104CC0004FF0000A0493159B0B93CDF824A0D34614
:104CD0000A2215980678A6F13003D9B2092926D9F7
:104CE0004C49012201F019FE002830D00020324644
:104CF00005905E460346652A01D0452A13D11EB9A8
:104D0000049A024394D00026159D6A1C15926A7875
:104D10002B2A74D02D2A78D04FF0000CA2F130014C
:104D200009297FD9159500279EE00023C8E7BBF12C
:104D3000080FD8BF099900F10100DABF02FB013367
:104D4000099302FB0A3A0BF1010B1590C1E7159B81
:104D50005A1C15925A78BBF1000F37D005905E4669
:104D6000A2F13003092B12D90123C4E7159B5A1C69
:104D700015925A780130302AF8D0A2F13103082B6D
:104D800000F2C184159B059000200B930646303A33
:104D900000F1010314D0059919440591334600EB45
:104DA000060C0A21634513D13318082B06F10106BE
:104DB00006441ADC09990A2303FB01230993002303
:104DC000159A511C159152781846C9E75846D2E7F2
:104DD000082B03F1010303DC099F4F430997E1E727
:104DE000102BD8BF01FB0AFADCE7102EDCBF0A2328
:104DF00003FB0A2AE3E700230593012380E74FF032
:104E0000000CAA1C1592AA7888E74FF0010CF8E76D
:104E1000B8B10008B4B100080000F07F159A511C29
:104E200015915278302AF9D0A2F1310108293FF6C4
:104E30007AAF303A0892159A0C92159A571C15972A
:104E40005278A2F1300EBEF1090F38D90C997F1AB1
:104E5000082F44F61F6703DC08998F42A8BF0F464E
:104E6000BCF1000F00D07F42002E4FD104990143C6
:104E70007FF4C1AE002B7FF4DBAE692A29D026DC9B
:104E8000492A26D04E2A7FF4D3AE9B4915A802F0BA
:104E900071FF00283FF4CCAE159B1B78282B2FD137
:104EA000964918AA15A802F079FF052828D1199B60
:104EB000DDF8608043F0FF4949F4E0099BE6089F74
:104EC0000A2101FB0721A1F130020892B5E76E2A01
:104ED000D9E78B4915A802F04DFF00283FF4A8AE92
:104EE000159B8849013B15A8159302F043FF10B9A3
:104EF000159B01331593DFF81C924FF000087AE6FA
:104F0000814801F0B9FD59EC108B74E6059B0998B6
:104F1000FB1ABBF1000F08BFB346102E08933546AD
:104F2000A8BF1025FBF7EEFA092E8046894613DD4F
:104F3000764B03EBC50353E91223FBF75DFB804679
:104F400050468946FBF7DEFA02460B464046494684
:104F5000FBF79CF9804689460F2E38DC089B002B16
:104F60003FF449AE24DD162B0BDC684901EBC3018D
:104F7000D1E9000142464B46FBF73EFB804689469D
:104F800039E6089AC6F12503934220DB5F4CC6F14F
:104F90000F0604EBC60142464B46D1E90001FBF780
:104FA0002BFB089B9E1B04EBC604D4E90023E3E71C
:104FB000089B16330BDB059BDF1B544B03EBC7072A
:104FC000D7E9002340464946FBF740FCD6E7089B5B
:104FD000751B1D44002D70DD15F00F030AD04B49E1
:104FE00001EBC30142464B46D1E90001FBF704FB4C
:104FF0008046894635F00F054DD0B5F59A7F22DD04
:105000000025AB46099505952223DFF8089123601A
:105010004FF00008099B002B3FF4EDAD1699204698
:1050200003F05EF80599204603F05AF859462046E9
:1050300003F056F80999204603F052F82946204615
:1050400003F04EF8D7E5324B049300232D11404670
:1050500049469A46012D21DC0BB1804689462C49F0
:10506000A9F1547901EBCA0142464B46D1E900014E
:10507000FBF7C2FA274B0A460B4027498B42804672
:10508000BED8A1F580118B4286BFDFF890904FF01B
:10509000FF3802F15479002304937BE0EA0705D539
:1050A000049BD3E90023FBF7A7FA0123049A0832F3
:1050B0000AF1010A6D100492CCE7ECD06D4215F0B4
:1050C0000F020AD0114B03EBC20340464946D3E915
:1050D0000023FBF7BBFB804689462D11DBD01F2D3B
:1050E0001EDD0025AB460995059522234FF00008EB
:1050F0004FF0000923608DE716B30008CCB100081B
:105100000EB300084DB30008D8B50008B8B40008C5
:1051100090B400080000F07F0000A07CFFFFEF7F4C
:1051200015F0100318BF6A23DFF8A0A304934046CC
:1051300049460023EA0704D5DAE90023FBF75CFAC5
:1051400001236D100AF1080AF4D10BB1804689469B
:10515000049BBBB1C9F30A52C2F16B03002B494651
:1051600010DD1F2B40F31E81342BDEBF4FF0FF33C9
:10517000C2F14B0293404FF00008CCBF4FF05C7976
:1051800003EA01090022002340464946FBF79CFC44
:105190000028A6D1099B00930B9933465A46204616
:1051A00003F006F8099000283FF42AAF089A059BFF
:1051B000002AA3EB0703A8BF00230C93002522EAD3
:1051C000E2731293AB46099B2046596802F048FFF0
:1051D000059000283FF418AF099B1A69023203F1C9
:1051E0000C0192000C3001F037FC49EC108B18AA2E
:1051F00017A9204603F010FB49EC188B16900028E5
:105200003FF402AF0121204603F06AF883460028EC
:105210003FF4FAAE179E189A002EABBF0C9B129B60
:10522000129FDDF830A0ACBF06EB030A9F1B049B66
:10523000F61A1644A04B013E9E42C2F1360280F29D
:10524000C4809B1B1F2BA2EB03024FF0010100F354
:10525000B08001FA03F30E9300230D930AEB0206CC
:10526000049BB24517441F445346A8BF3346BB4274
:10527000A8BF3B46002BC2BFF61AFF1AAAEB030ACF
:105280000C9B002B17DD59461A46204603F0E8F820
:10529000834600283FF4B8AE0146169A204603F034
:1052A00035F80B9000283FF4AFAE1699204602F077
:1052B00017FF0B9B1693002E00F38C80089B002B8E
:1052C00008DD129A0599204603F0CAF805900028D7
:1052D0003FF49AAE002F08DD05993A46204603F0C8
:1052E00019F9059000283FF48FAEBAF1000F08DDE0
:1052F00059465246204603F00DF9834600283FF4F4
:1053000083AE059A1699204603F08CF905460028CD
:105310003FF47AAEC3680B930023C360594603F091
:1053200065F9002860DA0B9B53EA080340F084809B
:10533000C9F31303002B7FD129F000431B0D1B057C
:10534000B3F1D66F78D96B6913B92B69012B73DD73
:1053500029460122204603F0DDF85946054603F0B0
:1053600045F9002868DD0499544A4B46002900F0AD
:10537000848002EA0901B1F1D66F7EDCB1F15C7F75
:105380007FF7B3AE4E4B404649460022FBF734F957
:105390004A4B0B4080468946002B7FF43FAE2223C8
:1053A00023603BE64FF0FF3202FA03F303EA0808FA
:1053B000E8E6C6F17F4606F57F0606F57B46E2364F
:1053C00001FA06F3CDE90D3148E700210123CDE9CB
:1053D0000D1343E716993246204603F09BF81690CA
:1053E00000287FF46BAF0FE6CA4671D10B9AC9F360
:1053F000130352B3334A93422AD1049B4146FBB173
:105400002E4B09EA0303B3F1D46F4FF0FF321AD8E1
:105410001B0DC3F16B0302FA03F3994218D12A4B17
:105420009A4502D101313FF4EFAD244B0AEA030360
:1054300003F580194FF00008049B002BA2D1EDE585
:105440004FF0FF33E9E71346E7E753EA08038AD052
:105450000D9BE3B113EA0A0FEED00B9B049A404672
:105460004946C3B1FFF76FFB02460B4651EC180BE0
:10547000FAF70CFF80468946DEE71340A3F5801358
:105480006FEA13596FEA09594FF0FF38D4E70E9BC2
:1054900013EA080FE0E7FFF756FB02460B4651EC14
:1054A000180BFAF7F1FE0022002380468946FBF72D
:1054B0000BFB0028C0D018E602FCFFFF0000F07FC5
:1054C00000005039FFFF0F00FFFFEF7FE0B1000841
:1054D0005946284603F0FAF957EC106B10EE100A03
:1054E00000224FF080433946FBF702FB002871D0C1
:1054F0000B9B002B7CD1B8F1000F5AD1C9F31303D9
:10550000002B5DD1904B002230463946FBF7E6FA7E
:1055100000285CD1304639468C4B0022FBF76CF8F2
:1055200006460F4607F1004306960793DDE906237A
:10553000CDE90E23864B0AEA03030D930D9A854BA2
:105540009A4240F09080AAF1547949EC108B03F014
:10555000F3F8DDE9062351EC100BFBF74DF842465A
:105560004B46FAF793FE0B4679497B4A1940914224
:10557000804644D918EE902A784B9A4204D118EE0E
:10558000103A01333FF440ADDFF8D0914FF0FF38CF
:105590001699204602F0A4FD0599204602F0A0FDD0
:1055A0005946204602F09CFD2946204602F098FD0F
:1055B00009E6B8F1010F03D1B9F1000F3FF495AD41
:1055C0009FED557B604F8DED067B0026AEE75F4F6C
:1055D0000026A7E75D4B304639460022FBF70CF862
:1055E0000B9B06460F46002B9CD0CDE906679DE736
:1055F0009FED4B7B8DED067B57EC176B96E703F128
:105600005479049BCA46002BC2D129F000430D9A5D
:105610001B0D1B059A42BBD130463946FBF74CFBAC
:10562000FAF7BCFF02460B4630463946FAF72CFE25
:105630000B9AC9F3130343EA0803134306460F46C4
:1056400054D039A3D3E90023FBF748FA00287FF4AC
:10565000E5AC37A3D3E9002330463946FBF75CFAC3
:10566000002895D0DAE4049B33B30D9BB3F1D46FDB
:1056700022D831A3D3E9002330463946FBF738FA64
:10568000A0B139463046FBF78FFA012838BF012018
:10569000FAF738FF0B9B06460F4623BB01F1004388
:1056A00010901193DDE91023CDE90E230F9B0D9A85
:1056B00003F1D6639B1A0F93DDE90E01B0EE480AA1
:1056C000F0EE680ACDE90E0103F036F8DDE90E01CF
:1056D00053EC102BFAF790FF53EC182BFAF7D6FD8A
:1056E000804689468DE7CDE91067DBE714A3D3E94F
:1056F0000023FBF7F3F9B3E700230A93139A159BF2
:105700001360FFF77CBA652A3FF475AB452A3FF476
:1057100072AB0123FFF7AABB000000000000F0BF3E
:10572000000000000000F03F9535A094FFFFDF3F30
:1057300035E5AF350000E03F0000C0FFFFFFDF416F
:105740009535A094FFFFCF3F0000F03F0000E03F01
:105750000000F07F0000E07FFFFF9F7CFFFFEF7FF6
:10576000014BFFF70DBA00BF300000200A4601468A
:105770000248034B0068FFF703BA00BFE8010020AE
:10578000300000202DE9F041DFF8C0802A4B0A46A6
:105790002DED028B0146D8F80000FFF7F1F955EC2A
:1057A000104B10EE102A10EE100A2B462946FBF77C
:1057B000BDF990B1002D214809DA01F065F9B1EE8B
:1057C000408AB0EE480ABDEC028BBDE8F081BDEC2A
:1057D000028BBDE8F04101F057B920462946FBF79E
:1057E00003FA08EE100ADFED167AB0EEC87AB4EECE
:1057F000677AF1EE10FA11DD25F00047114B4FF0FA
:10580000FF3220463946FBF791F980B90D4B4FF036
:10581000FF3220463946FBF76BF940B918EE103AD3
:1058200013F0FF4FCDD1084B2B40002BC9D0D8F837
:10583000003022221A60C4E730000020D8B50008EA
:10584000FFFF7F7FFFFFEF7F0000F07FE801002078
:10585000012B2DE9F04701D0242B06D901F0D0F817
:10586000162303600020BDE8F087DFF8E4C00D4692
:105870002E4615F8014B1CF8047017F00807F7D1F5
:105880002D2C32D12C780127B51C002B5BD0102B8E
:1058900009D1302C07D12C7804F0DF04582C4DD1DD
:1058A0006C781023023507F1004808F1FF384FF0FB
:1058B000000EB8FBF3F9764603FB198AA4F1300C0D
:1058C000BCF1090F16D86446A34224DDBEF1FF3FA8
:1058D00008D0B1451CD301D1A24519DB06FB034614
:1058E0004FF0010E15F8014BE8E72B2C04BF2C7884
:1058F000B51CCAE7A4F1410CBCF1190F01D8373C23
:10590000E2E7A4F1610CBCF1190F04D8573CDBE7C6
:105910004FF0FF3EE6E7BEF1FF3F05D122230360D3
:10592000464642B930469EE707B17642002AF9D092
:10593000BEF1000F00D0691E1160F3E73024002B88
:10594000B1D10823AFE7302CA5D00A23ABE700BFC5
:1059500009B20008FFF77CBF13460A460146024819
:105960000068FFF775BF00BFE80100202DE9FF4781
:1059700055EC104B002D0E4619462B46BBBF05F1CA
:1059800000431D4600232D230B700D9BDDF830A036
:10599000914623F02008BCBF22461446B8F1460FBA
:1059A00005D0B8F1450F00D10136022100E00321F6
:1059B00003AB019302AB009345EC104B53463246C8
:1059C00001F0F2F8B8F1470F074602D119F0010FC4
:1059D00022D0B8F1460F07EB060910D13B78302BE7
:1059E0000AD10022002320462946FBF76DF818B99A
:1059F000C6F10106CAF80060DAF8003099440022C6
:105A0000002320462946FBF75FF808B1CDF80C903B
:105A10003022039B4B4507D3039B0E9ADB1B384672
:105A2000136004B0BDE8F087591C03911A70F0E7C9
:105A3000F7B503460029B8BF494203F8022BB4BFAB
:105A40002D222B22092942702ADD0DF1070217466B
:105A50000A26944691FBF6F506FB151430340CF833
:105A6000014C0C46632C02F1FF322946F1DC303147
:105A7000ACF1020402F8011C411C2246BA420AD3CE
:105A80000DF10902A2EB0C02BC4288BF00221344B4
:105A9000181A03B0F0BD12F8015B01F8015FEDE7E1
:105AA000302330318370C170031DF1E72DE9F04FD1
:105AB0002DED028B8DB00C46DDF8608016461F463A
:105AC000054600F053FFD0F800A05046FAF7D0FB8F
:105AD00000230A9323680593D8F8003094F818B08F
