S01100006D39355F74657374312E73726563E8
S3150800000000000220854E00081D4D0008254D0008F9
S315080000102D4D0008314D0008394D0008000000003C
S31508000020000000000000000000000000414D00082C
S31508000030454D000800000000494D00084D4D0008D8
S31508000040D54E0008D54E0008D54E0008D54E0008F6
S31508000050D54E0008D54E0008D54E0008D54E0008E6
S31508000060D54E0008D54E0008D54E0008D54E0008D6
S31508000070D54E0008D54E0008D54E0008D54E0008C6
S31508000080D54E0008D54E0008D54E0008D54E0008B6
S31508000090D54E0008D54E0008D54E0008D54E0008A6
S315080000A0D54E0008D54E0008D54E0008D54E000896
S315080000B0D54E0008D54E0008D54E0008D54E000886
S315080000C0D54E0008D54E0008D54E00085D4D0008EF
S315080000D0D54E0008D54E0008694D0008754D000834
S315080000E0D54E0008D54E0008D54E0008D54E000856
S315080000F0D54E0008D54E0008D54E0008D54E000846
S31508000100D54E0008D54E0008D54E0008D54E000835
S31508000110814D00088D4D0008994D0008D54E000800
S31508000120D54E0008D54E0008D54E0008D54E000815
S31508000130D54E0008D54E0008D54E0008D54E000805
S31508000140D54E0008D54E0008D54E0008D54E0008F5
S31508000150D54E0008D54E0008D54E0008A54D000816
S31508000160D54E0008D54E0008D54E0008D54E0008D5
S31508000170D54E0008D54E0008D54E000800000000F0
S30D08000180D54E0008D54E000813
S3150800019010B5054C237833B9044B13B10448AFF3B3
S315080001A000800123237010BD2003002000000000FA
S315080001B0DCBA000808B5034B1BB103490348AFF383
S315080001C0008008BD0000000024030020DCBA0008F7
S315080001D001F0FF01102A2BDB10F0070F08D010F8EA
S315080001E0013B013A8B422DD010F0070F42B3F6D1EE
S315080001F0F0B441EA012141EA014122F007047FF007
S3150800020000070023F0E80256083C85EA010586EA5D
S31508000210010685FA47F5A3FA87F586FA47F6A5FA99
S3150800022087F68EB9EED1F0BC01F0FF0102F00702A5
S3150800023032B110F8013B013A83EA010313B1F8D150
S315080002400020704701387047002D06BF3546033831
S31508000250073815F0010F07D1013015F4807F02BF6A
S31508000260013015F4C03F0130F0BC0138704700BFBB
S31508000270034613F8012B002AFBD1181A01387047D8
S3150800028081F0004102E000BF83F0004330B54FEA39
S3150800029041044FEA430594EA050F08BF90EA020FA6
S315080002A01FBF54EA000C55EA020C7FEA645C7FEA39
S315080002B0655C00F0E2804FEA5454D4EB5555B8BF5C
S315080002C06D420CDD2C4480EA020281EA030382EACD
S315080002D0000083EA010180EA020281EA0303362D5F
S315080002E088BF30BD11F0004F4FEA01314FF4801C32
S315080002F04CEA113102D0404261EB410113F0004F44
S315080003004FEA03334CEA133302D0524263EB4303FA
S3150800031094EA050F00F0A780A4F10104D5F1200E98
S315080003200DDB02FA0EFC22FA05F2801841F10001F3
S3150800033003FA0EF2801843FA05F359410EE0A5F1C7
S3150800034020050EF1200E012A03FA0EFC28BF4CF0F8
S31508000350020C43FA05F3C01851EBE37101F00045AE
S3150800036007D54FF0000EDCF1000C7EEB00006EEBBB
S315080003700101B1F5801F1BD3B1F5001F0CD3490845
S315080003805FEA30004FEA3C0C04F101044FEA44529C
S3150800039012F5800F80F09A80BCF1004F08BF5FEA23
S315080003A0500C50F1000041EB045141EA050130BD03
S315080003B05FEA4C0C404141EB0101013C28BFB1F515
S315080003C0801FE9D291F0000F04BF01460020B1FA60
S315080003D081F308BF2033A3F10B03B3F120020CDA33
S315080003E00C3208DD02F1140CC2F10C0201FA0CF011
S315080003F021FA02F10CE002F11402D8BFC2F1200C76
S3150800040001FA02F120FA0CFCDCBF41EA0C0190402B
S31508000410E41AA2BF01EB0451294330BD6FEA040474
S315080004201F3C1CDA0C340EDC04F11404C4F120025F
S3150800043020FA04F001FA02F340EA030021FA04F371
S3150800044045EA030130BDC4F10C04C4F1200220FAC8
S3150800045002F001FA04F340EA0300294630BD21FA06
S3150800046004F0294630BD94F0000F83F4801306BFCC
S3150800047081F480110134013D4EE77FEA645C18BFC0
S315080004807FEA655C29D094EA050F08BF90EA020F57
S3150800049005D054EA000C04BF1946104630BD91EA4F
S315080004A0030F1EBF0021002030BD5FEA545C05D152
S315080004B04000494128BF41F0004130BD14F5800491
S315080004C03CBF01F5801130BD01F0004545F0FE4105
S315080004D041F470014FF0000030BD7FEA645C1ABF3A
S315080004E0194610467FEA655C1CBF0B46024650EA71
S315080004F0013406BF52EA033591EA030F41F400219D
S3150800050030BD00BF90F0000F04BF0021704730B522
S315080005104FF4806404F132044FF000054FF00001F7
S3150800052050E700BF90F0000F04BF0021704730B5B8
S315080005304FF4806404F1320410F0004548BF40428D
S315080005404FF000013EE700BF42004FEAE2014FEAE2
S3150800055031014FEA02701FBF12F07F4393F07F4FBD
S3150800056081F06051704732F07F4208BF704793F0C0
S315080005707F4F04BF41F40021704730B54FF46074D3
S3150800058001F0004521F000411CE700BF50EA0102D6
S3150800059008BF704730B54FF000050AE050EA01027F
S315080005A008BF704730B511F0004502D5404261EBEF
S315080005B041014FF4806404F132045FEA915C3FF430
S315080005C0D8AE4FF003025FEADC0C18BF03325FEACD
S315080005D0DC0C18BF033202EBDC02C2F1200300FA7E
S315080005E003FC20FA02F001FA03FE40EA0E0021FAA3
S315080005F002F11444BDE600BF70B54FF0FF0C4CF491
S31508000600E06C1CEA11541DBF1CEA135594EA0C0F42
S3150800061095EA0C0F00F0DEF82C4481EA030621EA7D
S315080006204C5123EA4C5350EA013518BF52EA0335B8
S3150800063041F4801143F4801338D0A0FB02CE4FF06A
S315080006400005E1FB02E506F00042E0FB03E54FF09A
S315080006500006E1FB03569CF0000F18BF4EF0010E92
S31508000660A4F1FF04B6F5007F64F5407404D25FEA8E
S315080006704E0E6D4146EB060642EAC62141EA555141
S315080006804FEAC52040EA5E504FEACE2EB4F1FD0C83
S3150800069088BFBCF5E06F1ED8BEF1004F08BF5FEA01
S315080006A0500E50F1000041EB045170BD06F00046B3
S315080006B046EA010140EA020081EA0301B4EB5C0460
S315080006C0C2BFD4EB0C0541EA045170BD41F4801158
S315080006D04FF0000E013C00F3AB8014F1360FDEBF7D
S315080006E0002001F0004170BDC4F10004203C35DA59
S315080006F00C341BDC04F11404C4F1200500FA05F3DC
S3150800070020FA04F001FA05F240EA020001F000427C
S3150800071021F0004110EBD37021FA04F642EB0601F2
S315080007205EEA430E08BF20EAD37070BDC4F10C041C
S31508000730C4F1200500FA04F320FA05F001FA04F2E0
S3150800074040EA020001F0004110EBD37041F10001CC
S315080007505EEA430E08BF20EAD37070BDC4F12005D7
S3150800076000FA05F24EEA020E20FA04F301FA05F23F
S3150800077043EA020321FA04F001F0004121FA04F2E7
S3150800078020EA020000EBD3705EEA430E08BF20EAB7
S31508000790D37070BD94F0000F0FD101F000464000F1
S315080007A041EB010111F4801F08BF013CF7D041EA73
S315080007B0060195F0000F18BF704703F00046520077
S315080007C043EB030313F4801F08BF013DF7D043EA48
S315080007D00603704794EA0C0F0CEA135518BF95EAFE
S315080007E00C0F0CD050EA410618BF52EA4306D1D185
S315080007F081EA030101F000414FF0000070BD50EAA4
S31508000800410606BF1046194652EA430619D094EA2D
S315080008100C0F02D150EA013613D195EA0C0F05D117
S3150800082052EA03361CBF104619460AD181EA03016B
S3150800083001F0004141F0FE4141F470014FF0000023
S3150800084070BD41F0FE4141F4780170BD70B54FF0BE
S31508000850FF0C4CF4E06C1CEA11541DBF1CEA13553E
S3150800086094EA0C0F95EA0C0F00F0A7F8A4EB050420
S3150800087081EA030E52EA03354FEA013100F0888017
S315080008804FEA03334FF0805545EA131343EA1263E0
S315080008904FEA022245EA111545EA10654FEA002695
S315080008A00EF000419D4208BF964244F1FD0404F54E
S315080008B0407402D25B084FEA3202B61A65EB0305AA
S315080008C05B084FEA32024FF480104FF4002CB6EB67
S315080008D0020E75EB030E22BFB61A754640EA0C00E7
S315080008E05B084FEA3202B6EB020E75EB030E22BF27
S315080008F0B61A754640EA5C005B084FEA3202B6EB68
S31508000900020E75EB030E22BFB61A754640EA9C0026
S315080009105B084FEA3202B6EB020E75EB030E22BFF6
S31508000920B61A754640EADC0055EA060E18D04FEAB4
S31508000930051545EA16754FEA06164FEAC30343EA54
S3150800094052734FEAC2025FEA1C1CC0D111F4801F21
S315080009500BD141EA00014FF000004FF0004CB6E71A
S3150800096011F4801F04BF01430020B4F1FD0C88BFB9
S31508000970BCF5E06F3FF6AFAEB5EB030C04BFB6EBC4
S31508000980020C5FEA500C50F1000041EB045170BDB7
S315080009900EF0004E4EEA113114EB5C04C2BFD4EBE4
S315080009A00C0541EA045170BD41F480114FF0000E68
S315080009B0013C90E645EA060E8DE60CEA135594EAE4
S315080009C00C0F08BF95EA0C0F3FF43BAF94EA0C0FE7
S315080009D00AD150EA01347FF434AF95EA0C0F7FF45C
S315080009E025AF104619462CE795EA0C0F06D152EAB0
S315080009F003353FF4FDAE1046194622E750EA410694
S31508000A0018BF52EA43067FF4C5AE50EA41047FF4A4
S31508000A100DAF52EA43057FF4EBAE12E74FF0FF3C09
S31508000A2006E000BF4FF0010C02E000BF4FF0010CDA
S31508000A304DF804CD4FEA410C7FEA6C5C4FEA430C53
S31508000A4018BF7FEA6C5C1BD001B050EA410C0CBFA2
S31508000A5052EA430C91EA030F02BF90EA020F002004
S31508000A60704710F1000F91EA030F58BF994208BF6B
S31508000A7090422CBFD8176FEAE37040F00100704728
S31508000A804FEA410C7FEA6C5C02D150EA013C07D17F
S31508000A904FEA430C7FEA6C5CD6D152EA033CD3D0CA
S31508000AA05DF8040B704700BF8446104662468C46C4
S31508000AB01946634600E000BF01B5FFF7B7FF0028F7
S31508000AC048BF10F1000F01BD4DF808EDFFF7F4FF20
S31508000AD00CBF012000205DF808FB00BF4DF808EDAB
S31508000AE0FFF7EAFF34BF012000205DF808FB00BFCE
S31508000AF04DF808EDFFF7E0FF94BF012000205DF8F0
S31508000B0008FB00BF4DF808EDFFF7CEFF94BF0120A4
S31508000B1000205DF808FB00BF4DF808EDFFF7C4FF9D
S31508000B2034BF012000205DF808FB00BF4FEA410CE6
S31508000B307FEA6C5C02D150EA013C0AD14FEA430CC9
S31508000B407FEA6C5C02D152EA033C02D14FF0000006
S31508000B5070474FF0010070474FEA410212F5001244
S31508000B6015D211D56FF47873B3EB625212D94FEAE6
S31508000B70C12343F0004343EA505311F0004F23FAD0
S31508000B8002F018BF404270474FF00000704750EA25
S31508000B90013005D111F0004008BF6FF000407047E2
S31508000BA04FF00000704700BF4A0011D212F500123C
S31508000BB011D20DD56FF47873B3EB62520ED44FEAA7
S31508000BC0C12343F0004343EA505323FA02F0704727
S31508000BD04FF00000704750EA013002D14FF0FF3065
S31508000BE070474FF0000070474FEA4102B2F1E04308
S31508000BF024BFB3F5001CDCF1FE5C0DD901F0004CF6
S31508000C004FEAC0024CEA5070B2F1004F40EB830045
S31508000C1008BF20F00100704711F0804F21D113F171
S31508000C203872BCBF01F00040704741F480114FEAAA
S31508000C305252C2F11802C2F1200C10FA0CF320FA33
S31508000C4002F018BF40F001004FEAC1234FEAD32350
S31508000C5003FA0CFC40EA0C0023FA02F34FEA4303BA
S31508000C60CCE77FEA625307D150EA01331EBF4FF043
S31508000C70FE4040F44000704701F0004040F0FE405E
S31508000C8040F40000704700BF53B94AB9002908BFAD
S31508000C9000281CBF4FF0FF314FF0FF3000F0A6B917
S31508000CA0ADF1080C6DE904CE00F03CF8DDF804E07F
S31508000CB0DDE9022304B0704738B500220023044654
S31508000CC00D46FFF70BFF28B920462946BDE83840F0
S31508000CD000F00AB8204605F1004100F005F8404248
S31508000CE061EB410138BD00BFD0B50C4B002206466A
S31508000CF00F46FFF781FCFFF757FF0446FFF702FC94
S31508000D00074B0022FFF778FC02460B463046394669
S31508000D10FFF7BAFAFFF748FF2146D0BD0000F03DBD
S31508000D200000F0412DE9F047089E0D4604460F469F
S31508000D30002B4AD18A42944665D9B2FA82F343B166
S31508000D4002FA03FCC3F120029F4020FA02F217437D
S31508000D509C404FEA1C4E1FFA8CF5B7FBFEF1220C9D
S31508000D600EFB117742EA074201FB05F090420AD9C9
S31508000D701CEB020201F1FF3780F01C81904240F221
S31508000D80198102396244121AA4B2B2FBFEF00EFBB4
S31508000D90102244EA024400FB05F5A5420AD91CEBD9
S31508000DA0040400F1FF3280F00781A54240F2048175
S31508000DB06444023840EA0140641B00211EB1DC404D
S31508000DC00023C6E90043BDE8F0878B4208D9002E08
S31508000DD000F0ED800021C6E900050846BDE8F08769
S31508000DE0B3FA83F1002949D1AB4202D3824200F219
S31508000DF0F880841A65EB030201201746002EE2D01C
S31508000E00C6E90047DFE702B9FFDEB2FA82F3002B34
S31508000E1040F090808A1A4FEA1C471FFA8CFE01217F
S31508000E20B2FBF7F507FB1520220C42EA00420EFB3F
S31508000E3005F0904208D91CEB020205F1FF3802D2F0
S31508000E40904200F2CB804546121AA4B2B2FBF7F0E4
S31508000E5007FB102244EA02440EFB00FEA64508D909
S31508000E601CEB040400F1FF3202D2A64500F2BB8057
S31508000E701046A4EB0E0440EA05409FE7C1F120079F
S31508000E808B4022FA07FC4CEA030C05FA01F420FA17
S31508000E9007F3FD404FEA1C492343B5FBF9F81FFA4F
S31508000EA08CFE09FB18551C0C44EA054408FB0EF594
S31508000EB0A54202FA01F200FA01F00BD91CEB040470
S31508000EC008F1FF3A80F08880A54240F28580A8F1B3
S31508000ED002086444641B9DB2B4FBF9F309FB13448E
S31508000EE045EA044403FB0EFEA64508D91CEB040498
S31508000EF003F1FF356CD2A6456AD9023B644443EA3E
S31508000F000843A3FB0295A4EB0E04AC42C846AE46C2
S31508000F1056D353D056B1B0EB080264EB0E0404FA6C
S31508000F2007F7CA40CC401743C6E9007418460021A3
S31508000F30BDE8F087C3F1200102FA03FC20FA01F2AA
S31508000F4025FA01F19D402A434FEA1C471FFA8CFEF9
S31508000F50B1FBF7F007FB1015110C41EA054100FB40
S31508000F600EF58D4204FA03F408D91CEB010100F1D1
S31508000F70FF382FD28D422DD902386144491B92B2CF
S31508000F80B1FBF7F507FB151142EA014205FB0EF125
S31508000F90914208D91CEB020205F1FF3816D291429C
S31508000FA014D9023D6244521A45EA004138E73146EF
S31508000FB0304608E73946E6E61046FBE64845A9D234
S31508000FC0B9EB020865EB0C0E013BA3E74546EAE7D9
S31508000FD02B4694E74046D1E7D0467BE7023D62447C
S31508000FE032E708460AE76444023842E7704700BF1A
S31508000FF010B582B00F48022403F078FA0E4A00941E
S3150800100001230C210D4803F081FA0D4805F040FA3A
S315080010100C4801F08DFD0C4800F042FB0B4800F02F
S3150800102061FC0B4801F096F80A4802B0BDE810408A
S3150800103003F06CBAD417002000BB000814BB0008E4
S315080010407C16002024160020901700204C1700203C
S31508001050081700203CBB000808B501F0CDFB02F0DC
S3150800106075FC01F04BF801F029FE00F037FB03F0A0
S31508001070D3F9F2E708B501F08BFB00F087FC00F026
S31508001080BFFB02F03DFC01F091FEBDE8084003F00D
S315080010900BBA00BF0C4B1A68036893420ED00B4A72
S315080010A0126893420CD00A4A126893420AD0094A37
S315080010B01268934200D0704703F02CBA01F0C2BA06
S315080010C000F06CBC00F062BB081700204C1700202B
S315080010D090170020D417002010B5044601F020FB15
S315080010E0204602F027FC1B48012104F04DF901288F
S315080010F011D0194A1948138801339BB20021F92BDC
S315080011001380018006D9164B11801A78012A19D046
S3150800111000221A7010BD114A0F4C138801339BB276
S315080011200021952B21801380F4D90D4B11801A7854
S315080011302AB90C490C4C0A68207001320A6001224F
S315080011401A7010BD0948084C026821700132026005
S31508001150DEE700BF00000240480300204A030020E3
S315080011603C03002040030020000000204403002028
S31508001170014B1878704700BF5B05002010B5044680
S3150800118022460348012104F005F9024B1C7010BDE4
S31508001190000C024057050020014B1878704700BF25
S315080011A057050020014B1870704700BF5A050020EC
S315080011B070B5FF2204460D4609480A4E002107F07D
S315080011C032FD2146084A094C106800233370237003
S315080011D02A46322305F028FB003818BF012070BDC7
S315080011E05003002058050020600500204F04002009
S315080011F0014B1878704700BF550500202DE9F041CE
S315080012004B4DDFF860812C6814B9D8F800402C6083
S31508001210484F494E00233B703378032B78D8DFE8D4
S3150800122003F03A561C02454B1B78002B5DD1D8F8C3
S315080012300030434A1B1BB3F5967F137827D9022B38
S315080012405ED94049404800230B70022103702B6089
S31508001250137033703970BDE8F081FF2200213B48D6
S3150800126007F0E1FC3A4B35493A4A186800230B70F7
S315080012701370394932230B2205F0D6FA00283DD1DE
S31508001280D8F800202A602E4A032333701378022BDD
S31508001290D7D8BDE8F081FF2200212C4807F0C3FC0F
S315080012A02B4B26492B4A186800230B7013702B49C1
S315080012B03223042205F0B8FA00BBD8F800202A60C9
S315080012C01F4A012333701378022BE2D9B9E71B4B67
S315080012D01B78002BABD022491C4807F027FD0028B5
S315080012E0A5D002232C683370A1E71D49174807F0DB
S315080012F01DFD00289BD00423337098E72C6896E7D9
S315080013000133DBB20021137029603170BDE8F0812A
S31508001310D8F800100A4A0C4800232B601370337063
S31508001320B1F5967F4FF0010303703B70EAD892E758
S315080013308405002054050020530500205805002088
S315080013407E050020550500205A0500205003002080
S31508001350600500204F04002068BB00085CBB00083D
S3150800136064BB00085C050020F0B5FF228BB00021A5
S315080013700546374807F057FC364B37491A7834483C
S3150800138007F060FD3549324807F074FC002838D06C
S31508001390324E034600240AA9224601EB8404013290
S315080013A044F8143C31460020D4B207F063FC0346E7
S315080013B00028F0D12CB3059E2949304607F0B6FC23
S315080013C008BB012C1DD0069E2549304607F0AEFC09
S315080013D0C8B9022C15D0079E2149304607F0A6FC4D
S315080013E088B9032C0DD0089E1D49304607F09EFC8F
S315080013F048B9042C05D0099E1949304607F096FCD1
S3150800140008B90BB0F0BD1749304607F033FC16494A
S3150800141007F030FC1449002007F02CFC034660B1A5
S31508001420114E02AC05AF44F8043B3146002007F0E4
S3150800143021FC034608B1BC42F5D1DDE90330029A26
S3150800144000900A49284607F08BFB0BB0F0BD00BF99
S31508001450540400204F0400205003002074BB0008E9
S3150800146078BB000888BB000810D500087CBB0008BC
S315080014702DE9F043764DDFF824822C6889B014B93B
S31508001480D8F800402C60734F734E00233B703378B6
S31508001490052B00F2CC80DFE803F0294C5A808D0337
S315080014A06E4B1B7853B16E496E4807F03FFC002817
S315080014B07DD006226C4B327001221A706B4AD8F81E
S315080014C0003012681B1B9342694B1A782CD9022AE2
S315080014D07BD96549674800220A70022102702A6092
S315080014E01A703270397009B0BDE8F083FF22002106
S315080014F05C4807F098FB604B5849604A1868002317
S315080015000B7013705E493223082205F08DF9002806
S3150800151068D1D8F8002046F2A81101232A60337052
S31508001520524A534B11601A78022AD2D809B0BDE83C
S31508001530F0834A4B1B78002BC0D05249494807F024
S31508001540F5FB8146002868D002233370B6E74E487B
S31508001550FFF70AFF4C4A4D49684607F001FB684603
S31508001560FEF786FEFF22044600213E4807F05BFB95
S31508001570414BDFF8E8C01868A2B2404C00238CF84B
S31508001580003023706946322305F04EF950BBD8F86F
S31508001590002042F210710323C0E7304B1B78002B62
S315080015A08CD03B492F4807F0C1FB002886D004237E
S315080015B0337083E7374A13780133DBB2052B137090
S315080015C012D900231370337078E70132D2B21A7039
S315080015D02849254A00230B7013702B60337009B015
S315080015E0BDE8F0832C6869E7FF2200211D4807F053
S315080015F01AFB214B1949214A186800230B701370EE
S31508001600254932230B2205F00FF90028EAD1D8F82C
S31508001610002042F21071052380E71D49114807F0A2
S3150800162085FB00283FF44AAF86F8009046E70F4B43
S31508001630D8F800001C680E4B01223A70154F00219D
S3150800164084423170296019703970C0D34BE700BFE6
S31508001650800500205605002050040020580500206B
S31508001660B4BB0008500300205505002004000020E4
S315080016707D0500205A050020600500204F04002043
S315080016808CBB000878BB00086405002098BB0008DE
S3150800169064BB00087C050020A8BB00085C05002088
S315080016A008B5094B09491860012205F06BF9084B82
S315080016B084460022074883F800C0012103F06AFE29
S315080016C0054B00221A7008BD600500204C03002057
S315080016D059050020000C02405705002010B5214C82
S315080016E00020FFF741FE2378E3B91F4B1B78012B37
S315080016F023D01E4B1C78012C08D11D4B1B78012BBF
S3150800170024D11C4B1B78012B00D110BD0122114698
S31508001710194803F03FFE194B01221A70BDE8104024
S31508001720FFF76CBD164B17491868012205F02AF910
S315080017300D4B20701B78012BDBD1134B1B78012B2B
S31508001740E3D00C4B1B78012BDFD0DFE7224621467E
S31508001750094803F01FFE094B1C70BDE81040FFF74F
S3150800176087BE00BF590500205505002054050020F6
S31508001770560500205A050020000C02405705002097
S31508001780600500204C0300205B050020134B02680F
S315080017901B681968914200D0704710B51049114C62
S315080017A00A781846531C0B700F4B2178995401225E
S315080017B0214605F0E7F80D4A0D4B0E4910700E4A02
S315080017C009681B7811600D4A0021012B117000D0A1
S315080017D010BD2078BDE8104002F06EBE60050020FE
S315080017E04F0400204C030020500300205905002018
S315080017F0550500205C0500207405002058050020CA
S31508001800224A234813680168013310B5136011B1E1
S315080018105B1A042B19D81F48022103F0B5FD0128CD
S315080018201ED01D4A1D48138801339BB20021182B70
S315080018301380018008D91A4B1A4C18781180012890
S3150800184021701DD000221A7010BD174A01210023ED
S315080018501170036002210F4803F096FD0128E0D1BC
S315080018600E4A0D4C138801339BB20021182B218098
S315080018701380E9D90B4C0A4B20701870118010BDE3
S315080018800A480B4A01701170DCE700BF5C050020AE
S3150800189074050020000C0240780500207A05002017
S315080018A0550500205B05002058050020540500203A
S315080018B05A050020094B93F82920022A0BD993F8D8
S315080018C0282042B193ED027B80ED007BD3E9062305
S315080018D0C1E900237047024BF4E700BF88050020E2
S315080018E0D805002010B5204C20492060012205F0BB
S315080018F049F81F4A1F491070C8231022206804F0AF
S3150800190093FF642003F038FB1B492068C8230C2288
S3150800191004F08AFF642003F02FFB18492068C823C7
S315080019202C2204F081FF642003F026FB144920686A
S31508001930C8231C2204F078FF642003F01DFB11491C
S3150800194020684FF49673442204F06EFF642003F077
S3150800195013FB20680C49C823102204F065FFBDE874
S315080019601040642003F008BB6806002061060020CA
S3150800197060060020880000200C0000209800002047
S31508001980180000203400002078000020024A13685E
S3150800199001331360704700BF6406002038B5204B3A
S315080019A01C68036822689A4200D038BD1D4D1E483F
S315080019B029781E4B662202FB010293F800C092F8B2
S315080019C0643002F803C00133DBB2BCF10A0F82F8B7
S315080019D0643018D00E290AD8662303FB010090F854
S315080019E06430632B07D9002380F8643003E00F299D
S315080019F004BF00232B700D490122204604F0C2FFC4
S31508001A000B4B187038BD134413F8023C0D2BE1D16B
S31508001A100131C9B20123297082F86530DAE700BFBF
S31508001A2068060020660C00206C060020610600206F
S31508001A3060060020000000002DE9F04F2DED028B16
S31508001A400C4683B02C2107F0F6F8451C284605F00D
S31508001A50CFF92C212060284607F0EDF810F8013F51
S31508001A6023712C2107F0E7F80130019005F0B6F94B
S31508001A700198B0EE408AF0EE608A84ED020B2C21C4
S31508001A8007F0D9F8B0EE480AF0EE680A46782C2E28
S31508001A909FED731B054600F0C08009F0E3FE72A3B4
S31508001AA0D3E9002351EC180B59EC108BFEF7A4FD73
S31508001AB0FFF77AF8C0B2FEF725FD6D4B82468B46D6
S31508001AC04FF0113240464946FEF796FD0B46024650
S31508001AD059465046FEF7DAFB06F0FB03532B02D1B4
S31508001AE001F100431946C4E9020126742C21681C39
S31508001AF007F0A1F8451C284605F073F910EE100A00
S31508001B00FEF722FD06460F462846C4E906672C213D
S31508001B1007F091F890F80180B8F12C0F9FED501B53
S31508001B2047EC106B054656D009F09CFE4EA3D3E948
S31508001B300023304639465BEC10ABFEF75DFDFFF738
S31508001B4033F8C0B2FEF7DEFC494B06460F464FF0A7
S31508001B50113250465946FEF74FFD0B4602463946A6
S31508001B603046FEF793FB08F0FB03532B02D101F135
S31508001B7000431946C4E9060184F820802C21681C14
S31508001B8007F059F80130019005F02BF92C2101983E
S31508001B9084ED090A07F04FF8013005F022F9D4E977
S31508001BA00C32217984ED0A0A013342F100024129F7
S31508001BB0C4E90C320AD10FCC2E4D0FC50FCC0FC578
S31508001BC00FCC0FC594E8030085E8030003B0BDEC0D
S31508001BD0028BBDE8F08F09F045FE23A3D3E9002365
S31508001BE0304639465BEC10ABFEF706FDFEF7DCFF28
S31508001BF0C0B2FEF787FC1E4B06460F4650465946AE
S31508001C004FF01132FEF7F8FC02460B4630463946CD
S31508001C104FF03F08FEF73AFBACE709F023FE12A3A4
S31508001C20D3E9002351EC180B5BEC10ABFEF7E4FC90
S31508001C30FEF7BAFFC0B2FEF765FC0D4B8046894633
S31508001C40504659464FF01132FEF7D6FC02460B466F
S31508001C50404649463F26FEF719FB44E7AFF30080A6
S31508001C6000000000000059407B14AE47E17A843F2B
S31508001C701111913F280600202DE9F04F2DED028B1A
S31508001C800C4683B02C2106F0D6FF451C284605F0E5
S31508001C90AFF82C212060284606F0CDFF01300190D0
S31508001CA005F09CF80198B0EE408AF0EE608A84ED63
S31508001CB0020B2C2106F0BFFFB0EE480AF0EE680AC8
S31508001CC046782C2E9FED7E1B054600F0B38009F062
S31508001CD0C9FD7DA3D3E9002351EC180B59EC108BF1
S31508001CE0FEF78AFCFEF760FFC0B2FEF70BFC784BE6
S31508001CF082468B464FF0113240464946FEF77CFC39
S31508001D000B46024659465046FEF7C0FA06F0FB0354
S31508001D10532B02D101F100431946C4E90201267486
S31508001D202C21681C06F087FF451C284605F059F843
S31508001D3010EE100AFEF708FC06460F462846C4E9C8
S31508001D4006672C2106F077FF90F80180B8F12C0F72
S31508001D509FED5B1B47EC106B054600F08C8009F085
S31508001D6081FD59A3D3E90023304639465BEC10AB15
S31508001D70FEF742FCFEF718FFC0B2FEF7C3FB544B52
S31508001D8006460F464FF0113250465946FEF734FCC8
S31508001D900B46024639463046FEF778FA08F0FB034A
S31508001DA0532B02D101F100431946C4E9060184F810
S31508001DB020802C21681C06F03EFF451C284605F0AD
S31508001DC013F82C2184F82800284606F034FF451C11
S31508001DD0284605F009F82C2184F82900284606F03B
S31508001DE02AFF0130019004F0FCFF2C21019884EDB4
S31508001DF00B0A06F020FF013004F0F3FFD4E90C3299
S31508001E0094F8281084ED090A013342F10002C4E966
S31508001E100C3251B10FCC2F4D0FC50FCC0FC50FCCBF
S31508001E200FC594E8030085E8030003B0BDEC028BF8
S31508001E30BDE8F08F09F016FD23A3D3E9002351EC82
S31508001E40180B5BEC10ABFEF7D7FBFEF7ADFEC0B286
S31508001E50FEF758FB1E4B80468946504659464FF0BA
S31508001E601132FEF7C9FB02460B46404649463F2655
S31508001E70FEF70CFA51E709F0F5FC13A3D3E90023A2
S31508001E80304639465BEC10ABFEF7B6FBFEF78CFE28
S31508001E90C0B2FEF737FB0E4B06460F46504659466C
S31508001EA04FF01132FEF7A8FB02460B46304639467C
S31508001EB04FF03F08FEF7EAF977E700BFAFF3008077
S31508001EC000000000000059407B14AE47E17A843FC9
S31508001ED01111913FD805002070B50E4682B02C210D
S31508001EE006F0A9FE10F8013F33702C2106F0A3FE78
S31508001EF0441C204604F078FF0C25707000E0441C52
S31508001F002C21204606F097FE6B1E13F0FF05F6D12E
S31508001F102C21013006F08FFE0130019004F061FF9C
S31508001F20019886ED010A2C2106F085FE0130019004
S31508001F3004F057FF2C21019886ED020A06F07BFE75
S31508001F40013004F04EFFD6E90432717886ED030AB3
S31508001F50013342F100020129C6E9043206D90FCE3F
S31508001F60034C0FC496E8030084E8030002B070BD72
S31508001F70100600202DE9F04F544C554FDFF87491A8
S31508001F80DFF8748183B004F2FA5602E06634B4428C
S31508001F9074D094F86530002BF8D049464FF0000B02
S31508001FA0204687F800B006F065FE0546C8F800002A
S31508001FB0FEF75EF9474B8DF806B05FFA80FAAAF18C
S31508001FC003011B88ADF80430012972DDAAF110035C
S31508001FD0F22B64D85B46AAF1040C4FEA9C0B6A1CE8
S31508001FE09E4652F8040B01335B4580EA0E0EF8D381
S31508001FF0CEF30722CEF307438EEA02025A400CF0CC
S31508002000FC0382EA1E62581C1CF0030FD2B2C0B24F
S315080020100ED0285C4240981CC0B2884208DA0333C6
S31508002020285CDBB2994282EA000201DDEB5C5A4089
S315080020305544294901A806F093FD9DF8042015F892
S31508002040023C9A421DD19DF8052015F8013C9A429A
S3150800205017D1D8F800502149012328463B7006F0CD
S3150800206065FE90B11E492846FFF706FE0023A4F830
S31508002070643066340222B4423A708AD103B0BDE8AD
S31508002080F08F0023A4F8643080E71649284606F046
S315080020904DFE80B114492846FFF7CEFCE6E75A46BE
S315080020A00123E85C0133DBB28B4282EA0002F8DBEB
S315080020B0BEE75A46BCE70D49284606F037FE002813
S315080020C0D4D00B492846FFF707FFCFE76C06002058
S315080020D008000020F8BA0008C8BB0008D0BB0008F2
S315080020E088050020D8BB0008700C0020E0BB00085B
S315080020F0C00500208CD30008680C002010B5094CD8
S3150800210023781BB9BDE81040FFF734BF064B0749D3
S315080021101868012204F036FC2070BDE81040FFF76D
S3150800212029BF00BF6006002068060020610600205F
S31508002130014B1878704700BFAE0C0020014B187091
S31508002140704700BFAE0C0020014B1878704700BFDF
S31508002150C40C002070B5254C25492060012204F0E6
S3150800216011FC244B244D1870244B254800214FF4AC
S3150800217000721970298006F056FD22492068282326
S315080021800C2204F051FB30B91F4802F0BFF94FF496
S31508002190FA7002F0F1FE1D4C1D481D4D012210215A
S315080021A003F0F8F8266806E002F0E6FE23689B1BB3
S315080021B0B3F5487F15D22021284603F0E5F80346F3
S315080021C001208342F0D1134802F0A0F910480022FA
S315080021D0102103F0DFF8BDE870404FF47A7002F082
S315080021E0CBBE0D4802F092F9EDE700BFC00C002007
S315080021F0D60C0020AC0C0020D40C0020C40C002007
S31508002200D80C0020E8BB0008F8BB0008B00C00207A
S315080022100010024030BC000814BC00082DE9F0414B
S315080022209E4D9F4F2C6882B00CB93C682C60DFF835
S31508002230BC829C4E002388F800303378112B00F2BC
S31508002240AE81DFE813F02E004D005B006A017A01CB
S31508002250F70007011C01550170007F009300A000DC
S31508002260B400C100D600E20012008F4B1B78002B89
S3150800227040F080818D4B39680C1BB4F5FA7F29D361
S315080022801A78022A40F26E818948002202212A60C1
S315080022901A70327088F8001002B0BDE8F04102F0FA
S315080022A035B9844B8448002119807F4B4FF400725E
S315080022B0197006F0B8FC814B814918680622282354
S315080022C004F0B2FA00282CD133783A682A60013330
S315080022D03370764B1A78022AD6D802B0BDE8F08158
S315080022E0714B1B78002BC5D07649734806F01EFD46
S315080022F00028BFD0022333706C4BBCE76D4B6E4889
S3150800230000211980684B4FF40072197006F08BFC97
S315080023106A4B6D4918680B22282304F085FA0028B1
S31508002320D2D02C68A6E7604B1B78002BA2D0674951
S31508002330614806F0FBFC002800F02E810A23337062
S315080023405A4B98E75B4B5C4800211980564B4FF473
S315080023500072197006F067FC584B5D4918680D2223
S31508002360282304F061FA0028AED0DAE74E4B1B7832
S31508002370002B3FF47FAF53494F4806F0D7FC0C2398
S3150800238033704A4B77E74B4B4B4800211980464B35
S315080023904FF40072197006F046FC484B4D49186810
S315080023A00A22282304F040FA00288DD0B9E73E4BCC
S315080023B01B78002B3FF45EAF42493F4806F0B6FC57
S315080023C012233370394B56E73A4B3B4800211980A4
S315080023D0354B4FF40072197006F025FC374B3E4911
S315080023E018680B22282304F01FFA00283FF46CAF64
S315080023F097E72D4B1B78002B3FF43CAF31492E480D
S3150800240006F094FC002845D134E72A4B2A480021D7
S315080024101980254B4FF40072197006F004FC274BFF
S315080024202E4918680C22282304F0FEF900283FF4E8
S315080024304BAF76E71C4B1B78002B3FF41BAF2849A4
S315080024401D4806F073FC00283FF414AF06233370CA
S31508002450164B10E7174B184800211980124B4FF4FA
S315080024600072197006F0DFFB144B1E4918680A2221
S31508002470282304F0D9F900283FF426AF51E70A4B80
S315080024801B78002B3FF4F6AE17490B4806F04EFCB6
S31508002490002877D008233370044BECE6A80C0020FC
S315080024A0B00C0020DA0E0020C40C0020D20C00204C
S315080024B000BD0008D40C0020D80C0020C00C002059
S315080024C048BC000864BB000850BC0008ACBC000847
S315080024D0C8BC0008D8BC000894BC0008B8BC0008F2
S315080024E068BC000870BC00087CBC0008AE0C002064
S315080024F0324B334800211980324B4FF40072197061
S3150800250006F091FB304B314918680B22282304F05A
S315080025108BF900283FF4D8AE03E72A4B1B78002B2B
S315080025203FF4A8AE2A49264806F000FC00283FF4E6
S31508002530A1AE04233370274B9DE6204B204800218B
S315080025401980204B4FF40072197006F06CFB1E4B75
S31508002550214918680A22282304F066F900283FF45E
S31508002560B3AEDEE601321A7000232960337002B07A
S31508002570BDE8F0811649124806F0D8FB00287FF41A
S31508002580DDAE77E615490E4806F0D0FB002881D166
S315080025900E2333700F4B6EE610233370C1E60D4BD6
S315080025A00F48019300221A702A603270012288F8B7
S315080025B0002001F0ABFF2C68019B5CE6D40C0020E0
S315080025C0D80C0020C40C0020C00C0020A0BC0008B9
S315080025D064BB0008D20C00205CBC000888BC00085C
S315080025E0E4BC000838B50D4B0D4D002104464FF4E8
S315080025F000720C482980197006F015FB2046FDF775
S3150800260037FE094902462823086892B2214604F093
S315080026100BF9003818BF012038BD00BFC40C0020D4
S31508002620D40C0020D80C0020C00C0020014608B5A8
S31508002630034806F07BFB003818BF012008BD00BF21
S31508002640D80C00200E4B02681B681968914200D00E
S31508002650704710B50B4C0C4922881846531C23802A
S315080026600A4B0C789C54012204F08CF9084A094C50
S315080026701168094B20700022C3E9001210BD00BF83
S31508002680C00C0020D40C0020D60C0020D80C00204A
S31508002690B00C0020AC0C0020C80C00202DE9F84333
S315080026A01B4B8D090024A1EB85111C80194B06468E
S315080026B0CFB219481C704FF4007221464FEA8519AB
S315080026C006F0B1FA0DB3DFF85480D8F8000006EB2F
S315080026D084111E230134402204F0A6F8E3B2AB426B
S315080026E01C46F2D327B9003818BF0120BDE8F88385
S315080026F00A4A1E23106806EB09013A4604F094F8C4
S31508002700003818BF0120BDE8F8832846EAE700BF6D
S31508002710D40C0020C40C0020D80C0020C00C0020CB
S31508002720154A1648D2E90031013310B541F10004C3
S315080027302021C2E9003402F027FE01280DD0104AF4
S315080027401048138801339BB20021962B1380018011
S3150800275002D90D4B1180197010BD0A4A084C13880E
S3150800276001339BB20021962B21801380F4D9064BA6
S315080027701180187010BD00BFB80C00200010024070
S31508002780D00C0020D80E0020AD0C00200000000060
S3150800279010B41149114CD1E90002236801332360B2
S315080027A050EA020406D01B1A62EB42020A2B72F1A7
S315080027B0000202D25DF8044B70479FED057B084B7B
S315080027C001221A7081ED007B5DF8044B704700BF4B
S315080027D00000000000000000C80C0020B00C00201B
S315080027E0C40C0020024B03491A8806F02BBB00BF15
S315080027F0D40C0020D80C002038B51A4B1B78012BB6
S3150800280017D00024012210211748184D02F0C2FDE6
S3150800281020462C7000F0DEFA204600F0CFFA20465B
S31508002820134C00F0D1FA23786BB92B78012B14D10D
S3150800283038BD0F4C0C480D4D0022102102F0AAFDA0
S315080028402378002BF1D00B4B0B491868012204F0B2
S3150800285099F82B782070012BEAD0BDE83840FFF7AD
S31508002860DDBC00BFAD0C002000100240AE0C0020FD
S31508002870AC0C0020C00C0020D60C002010B50C466D
S3150800288082B0014658224E4806F0DCFAE3782278F0
S315080028904C4822F00F0203F007034FF0200C1343B5
S315080028A0082100228DF807C08DF8063002F072FD67
S315080028B00A2301220DF10701414803F041F90A23D1
S315080028C001220DF106013E4803F03AF93D4801227E
S315080028D0082102F05FFDA37862783A4802F03802D0
S315080028E0242123F03F0313438DF807100022082103
S315080028F08DF8063002F04EFD0A2301220DF107017C
S315080029002F4803F01DF90A2301220DF106012C4870
S3150800291003F016F92B480122082102F03BFD237922
S31508002920FBB96378202B15D8DFE803F03E1414149E
S3150800293014141414421414141414141446141414E9
S315080029401414141411141414141414143A001E4BE9
S315080029501E4A1A601B480122082102F01BFD02B01C
S3150800296010BD88238DF80630164823230022082137
S315080029708DF8073002F00EFD0DF107010A2301223A
S315080029800F4803F0DDF80DF1060101220A230C4871
S3150800299003F0D6F80B480122082102F0FBFCC0E739
S315080029A0094B0B4A1A60D5E7074B0A4A1A60D1E762
S315080029B0054B094A1A60CDE7034B084A1A60C9E76E
S315080029C0E80E002000100240D00000208FC2753E9D
S315080029D048E13A3F8FC2753D8FC2F53DEC51383E0E
S315080029E02DE9F043494E4A4F89B0A82330460022C4
S315080029F008218DF8143002F0CDFC05A90A2301221E
S31508002A00384603F09DF80A2305A90222384603F042
S31508002A103FFB30460122082102F0BCFC3046AA23BF
S31508002A20002208219DF814409DF815908DF8143061
S31508002A3002F0B0FC05A90A230122384603F080F803
S31508002A400A2305A90222384603F022FB3046012252
S31508002A50082102F09FFC3046AC23002208219DF88D
S31508002A6014509DF815808DF8143002F093FC05A9D2
S31508002A700A230122384603F063F805A90A233846D3
S31508002A80022203F005FB30460122082102F082FCEF
S31508002A909DF815109DF814301E4A05EB082592ED91
S31508002AA0006A1D4A03EB01231C49D2ED005AD1EDF9
S31508002AB0004A1B4A1B4992ED000A91ED005A1A4A30
S31508002AC01A4992ED001AD1ED000A2DB207EE105AF6
S31508002AD004EB092424B21BB2F8EEC76A07EE904A43
S31508002AE007EE103A66EE255A26EE055AF8EEE77A0C
S31508002AF0B8EEC77A26EE246AD6EE850A97EE061A47
S31508002B0097EEA50A09B0BDE8F08300BF00100240A1
S31508002B10E80E0020D0000020C4000020CC000020D1
S31508002B20DC0E0020C8000020E40E0020E00E002085
S31508002B300F49104A08B501230A600B71FFF79EFE7C
S31508002B400D4B0E4A1A600E490E4B0F480F4ADFF816
S31508002B5050E01A60C1F800E0DFF848C00C490D4B98
S31508002B600D4AC0F800C00D4808601A6008BD00BFCD
S31508002B70440F00206020C007DC0E0020000020C1A2
S31508002B80E00E0020C8000020C40000202F8B783FEC
S31508002B90E40E0020CC000020BC9C823F000070425E
S31508002BA000002041FD4A813F01EB41012DE9F84330
S31508002BB000EB8106D6ED007A3B4FF0EEE77A17EE8A
S31508002BC0900AA6F10C041546FDF7BEFCD4ED007A72
S31508002BD0F0EEE77A804617EE900A8946FDF7B4FCD0
S31508002BE002460B4640464946FDF74EFB21F0004398
S31508002BF00246C7E90023194600222C4BFDF78CFF35
S31508002C0010B12B8801332B80D6ED017A284FF0EED0
S31508002C10E77A17EE900AFDF797FCD4ED017AF0EE05
S31508002C20E77A804617EE900A8946FDF78DFC02463C
S31508002C300B4640464946FDF727FB21F0004302466E
S31508002C40C7E9002319460022184BFDF765FF10B1A6
S31508002C506B8801336B80D6ED027AF0EEE77A17EED1
S31508002C60900AFDF771FCD4ED027AF0EEE77A064693
S31508002C7017EE900A0F46FDF767FC02460B463046EC
S31508002C803946FDF701FB0B4B21F000470646C3E921
S31508002C9000670022084B3946FDF73EFF10B1AB88A6
S31508002CA00133AB80BDE8F883B8110020000044402A
S31508002CB0C0110020C81100200000494070B582B03C
S31508002CC0A72333488DF804300022082102F062FB5E
S31508002CD00A23012201A92F4802F032FF0A23012202
S31508002CE001A92C4803F0D4F901222948082102F049
S31508002CF051FB9DF80430284A13701B0701D402B013
S31508002D0070BD264D264E2C78FFF76AFE297804EB0F
S31508002D10440406EB8404012984ED000AC4ED010A83
S31508002D2084ED021A11D80131C9B231290AD91D4ACE
S31508002D3013780133DBB20021022B29700FD81370E8
S31508002D4002B070BD297002B070BD174A3046FFF751
S31508002D502BFF29780131C9B23129E8D8F2E7124B9D
S31508002D6011701A880A2A02D99A7901329A715A88F0
S31508002D700A2A02D9DA790132DA719A880A2A02D934
S31508002D801A7A01321A7200221A609A80B7E700BFCF
S31508002D9000100240E80E0020B2110020A411002005
S31508002DA04C0F0020400F0020A8110020024A13688B
S31508002DB001331360704700BFB4110020014B18702F
S31508002DC0704700BFD2110020014B1870704700BF32
S31508002DD0D1110020014B1870704700BFD011002098
S31508002DE02DE9F84F584EDFF870913568DFF86CA179
S31508002DF00024032C00F099804846FFF7F3FB78B1CE
S31508002E0033685A1BB2F5C87FF6D31D460134042C25
S31508002E10EFD101274D4801F079FB3846BDE8F88F18
S31508002E203768FFF791F940B93568EB1BB3F5C87FEA
S31508002E30ECD2FFF789F90028F6D05046FFF7F6FBE3
S31508002E40002860D03568EB1BB3F5C87FDED2DFF803
S31508002E5010814046FFF7C6FB48B13568EB1BB3F552
S31508002E60C87FD3D24046FFF7BDFB0028F5D1D6F878
S31508002E700080FFF769F948B93568A5EB0803B3F58B
S31508002E80C87FC3D2FFF760F90028F5D05046FFF790
S31508002E90CDFB002843D03568A5EB0803B3F5C87FFA
S31508002EA0B4D2DFF8C0B05846FFF79CFB074658B1C6
S31508002EB03568A5EB0802B2F5C87FA7D25846FFF7D2
S31508002EC091FB07460028F3D1D6F80080FFF73CF9B6
S31508002ED048B93568A5EB0803B3F5C87F96D2FFF75E
S31508002EE033F90028F5D05046FFF7A0FB88B13568BE
S31508002EF0A5EB0808B8F5C87F88D2154801F006FB87
S31508002F003846BDE8F88F1348FFF790FB002899D19B
S31508002F108AE71048FFF78AFB0028E8D1D9E70D4869
S31508002F20FFF784FB0028B6D1A6E74846FFF75AFB09
S31508002F3000283FF46EAF33685D1BB5F5C87FFFF414
S31508002F4068AF1D4662E700BFF0110020ACCD00084F
S31508002F5084CD000834CD000814CD000864BB0008F1
S31508002F603CCD000860CD00082DE9F04F9D4D9E4FE1
S31508002F702B68DFF88482DFF884A283B00024384601
S31508002F800193FFF72FFB019B80B9032C2E6815D000
S31508002F90DFF86C92FFF7D8F8C0B92A68931BB3F527
S31508002FA0C87FF7D30134E4B21346E8E72A68D11A92
S31508002FB0B1F5C87FC0F01281032CF3D18B4801F01C
S31508002FC0A5FA0126304603B0BDE8F08F4046FFF764
S31508002FD02DFB00285BD02A68931BB3F5C87FE1D286
S31508002FE0DFF8209240F2A4414846FFF757FB002835
S31508002FF058D12E68DFF8109204E02A68931BB3F5BF
S31508003000C87FCFD2FFF7A0F80028F6D04846FFF7CA
S315080030100DFB0028F1D02A68931BB3F5C87FC1D2EF
S31508003020DFF8E8914846FFF7DDFA002840D12E6818
S31508003030DFF8CC91FFF788F840B92A68931BB3F5F7
S31508003040C87FAFD2FFF780F80028F6D04046FFF7D2
S31508003050EDFA002858D02A68931BB3F5C87FA1D289
S31508003060DFF8AC9140F2C3414846FFF717FB28BB8F
S31508003070D5F800905E4EFFF767F828BB2B68A3EBE0
S315080030800902B2F5C87FF6D30134E4B277E75046B1
S31508003090FFF7CCFA0028BED14846FFF7C7FA002842
S315080030A0B9D17AE72A68931BB3F5C87F9AD379E72B
S315080030B02A68931BB3F5C87FB4D373E72B689A1BAA
S315080030C0B2F5C87FE0D2CDE73046FFF7AFFA002861
S315080030D0D4D02B68A3EB0902B2F5C87FD4D2DFF8A7
S315080030E034B15846FFF77EFA064628BBD5F8009055
S315080030F0DFF80CB1FFF728F828BB2B68A3EB090209
S31508003100B2F5C87FC0D2F5E75046FFF78FFA38B157
S315080031102A68931BB3F5C87FBFF444AF33462EE73E
S315080031204846FFF783FA2B689A1B002851D0B2F558
S31508003130C87FA9D2334622E72B68A3EB0902B2F56A
S31508003140C87FA1D2CDE74046FFF770FAB0B32B6827
S31508003150A3EB0902B2F5C87F96D2DFF8BCB040F2FD
S315080031608F615846FFF79AFA68B9D5F80090DFF8E4
S31508003170ACB0FEF7E9FF70B92B68A3EB0902B2F50C
S31508003180C87F81D2F5E72B68A3EB0902B2F5C87FA1
S31508003190BFF47AAFE3E75846FFF748FA0028EBD0C2
S315080031A02B68A3EB0909B9F5C87FBFF46DAF1148C1
S315080031B001F0ACF9304603B0BDE8F08F5046FFF792
S315080031C035FA0028ECD15846FFF730FA0028E7D13F
S315080031D093E7B2F5C87FBFF457AF2BE7032C7FF40C
S315080031E0CEAEEBE6F0110020D4CD000800CE0008E4
S315080031F094CE0008F0CE000828CE000830CE00088D
S3150800320040CE00081CBD00084CCE000864CE00085D
S31508003210C0C10008ACCE000884C60008D8CE000895
S315080032202DE9F041824CDFF894822368814E002212
S3150800323088F800200BB9336823607F4D2B78112B53
S3150800324000F2EA80DFE813F030004300D000BC004B
S31508003250C6009700A000A900B20053005B006400F6
S315080032606C0075007D0086008E001200734801F020
S315080032704DF9FEF769FF002830D1714F326823688F
S31508003280D31AB3F5FA7F1DD33B78022B40F2BD80E3
S315080032900023022223603B702B7088F800206948BF
S315080032A0BDE8F04101F032B9674801F02FF96748E7
S315080032B0FFF798F90028E0D12B783268604F226032
S315080032C001332B703B78022BE2D8BDE8F0816048C9
S315080032D001F01CF9FEF738FF0028CED05D48FFF74D
S315080032E0A5F90028C9D02B7801332B70C5E75A48B1
S315080032F001F00CF9FEF728FF0028BED0EEE7574884
S3150800330001F004F95648FFF76DF90028D4D0B4E760
S31508003310544801F0FBF8FEF717FF0028ADD0DDE7AB
S31508003320514801F0F3F85148FFF75CF90028C3D07B
S31508003330A3E74F4801F0EAF8FEF706FF00289CD0FD
S31508003340CCE74C4801F0E2F84B48FFF74BF9002868
S31508003350B2D092E7494801F0D9F8FEF7F5FE002801
S315080033608BD0BBE7464801F0D1F84648FFF73AF953
S315080033700028A1D081E7444801F0C8F8FEF7E4FE2A
S3150800338000283FF47AAFA9E7404801F0BFF8404863
S31508003390FFF728F900288FD06FE73E4801F0B6F806
S315080033A0FEF7D2FE00283FF468AF97E73A4801F0E7
S315080033B0ADF83A48FFF716F900283FF47DAF5CE709
S315080033C0374801F0A3F8FFF7CFFD00283FF474AFA4
S315080033D0344812E0344801F099F83448FFF702F906
S315080033E000283FF469AF48E7314801F08FF8FFF746
S315080033F0F7FC00283FF460AF2E4801F087F8122347
S315080034002B70022388F8003037E701333B7000231E
S3150800341022602B70BDE8F081094F274800232360FE
S315080034202B703B70012388F8003001F06FF825E710
S31508003430E4110020F01100208412002008D20008B0
S315080034408012002040D2000818CF000824CF0008B8
S315080034503CCF000864BB0008B8D00008D0D00008EC
S31508003460E4D0000800D100081CD1000834D10008B7
S3150800347054D1000870D1000888D10008B0D10008DE
S31508003480CCD10008E8D10008FCCF000814D0000809
S3150800349028D000085CD0000874D0000888D000083E
S315080034A088CF0008A0CF0008BCCF0008D0CF0008FE
S315080034B050CF000868CF000828D20008D011002095
S315080034C02DE9F0433F4CDFF824812368DFF820918B
S315080034D0002291B0054688F8002013B9D9F80030C3
S315080034E023600026384F00963C22314601A805F095
S315080034F09AFB3B78012B36D0022B2CD0B3B1334A3A
S31508003500D9F800303E702660136044F6E7629342AD
S3150800351008D9002302222E4823603B7088F8002031
S3150800352000F0F4FF002011B0BDE8F08329462948D1
S3150800353000F0ECFF28492A46684605F011FB684664
S31508003540FFF750F850B93A78D9F8003001323A7096
S3150800355022689B1AD9E7FEF7F7FDB8B9D9F8003003
S3150800356022689B1AD1E729461C4800F0CFFFFEF7D0
S31508003570EBFD0028F2D01A48FFF758F888B13B78D7
S31508003580D9F80020226001333B70CBE71548FFF7D6
S315080035904DF868B9D9F80030226888F800009B1AF7
S315080035A0B3E7D9F800303870206088F80000ACE737
S315080035B003233B700C48012388F8003000F0A6FF6F
S315080035C0CCE700BFE011002083120020D8110020AC
S315080035D0D4D2000858D2000874D2000888D200084D
S315080035E064BB0008A0D20008B0D20008D1110020A0
S315080035F0F01100202DE9F0473A4B3B4EDFF81881D1
S3150800360000221A70336890B081468A4613B9D8F8F2
S31508003610003033600024354F00943C22214601A82F
S3150800362005F001FB3D78012D34D0022D2DD0A5B132
S315080036303C703460D8F800302D4A1B1B934208D9D9
S315080036402C4A2D480023022133603B70117000F08C
S315080036505DFF002010B0BDE8F0875246494627486E
S3150800366000F054FF264953464A46684605F078FA5C
S315080036702448694600F04AFF6846FEF7B3FF38B9A2
S315080036803B78346801333B70D4E7FEF75DFD98B9A3
S315080036903468CFE71C4800F039FFFEF755FD0028CF
S315080036A0F6D01A48FEF7C2FF68B13B78D8F8002072
S315080036B0326001333B70CCE71548FEF7B7FF0D4B78
S315080036C038B91870E4E70B4B387030601870044648
S315080036D0B0E703223A700F4801221A7000F016FF6D
S315080036E0D6E700BFD1110020E81100208212002081
S315080036F0BF250100D211002090D30008F8D2000897
S3150800370018D3000830D300084CD3000864BB00085F
S3150800371060D3000870D30008F01100202DE9F047A7
S31508003720DFF8D091644CDFF8D0A1002389F8003087
S315080037302368A0B007460E46154613B9DAF80030D6
S315080037402360DFF8B88100217C2201A8009105F0EA
S315080037506AFA98F80030042B00F2A880DFE803F034
S315080037601D32465E0300FEF7EFFC002874D1206880
S31508003770DAF8003044F6E7621B1A934209D90023A7
S3150800378002224E48236088F8003089F8002000F0AD
S31508003790BDFE002020B0BDE8F0873946484800F055
S315080037A0B5FE48493A46684605F0DAF96846FEF72E
S315080037B019FF0028DBD198F800302068013388F813
S315080037C00030D5E7404800F0A1FEFEF7BDFC002812
S315080037D0CDD03E48FEF72AFF0028ECD1DAF80030B3
S315080037E088F80000236089F80000D2E71A233146DA
S315080037F07353374800F08AFE691C89B23046FEF7D3
S315080038004DFFE0B1DAF8002022600023002088F896
S31508003810003089F8003020B0BDE8F0872D4800F068
S3150800382075FEFEF791FC0028A1D02B48FEF7FEFE98
S3150800383050BB88F80000206089F8000098E798F8DF
S3150800384000302648013388F80030DAF80030236063
S3150800385000F05CFE20688BE72148FEF7E7FE68B1BA
S31508003860052388F80030012389F800301D4B1E48CF
S3150800387000221A7000F04AFE206879E789F80000ED
S315080038801A4800F043FE72E798F8003018480133EA
S3150800389088F80030DAF80030236000F037FE104868
S315080038A0FEF7C4FE00283FF462AFD9E7002088F887
S315080038B0000020605CE700BFEC110020E8D4000897
S315080038C0B0D30008CCD30008E8D3000800D4000819
S315080038D004D4000854D4000864BB000820D40008A7
S315080038E098D40008DC110020A8D40008C8D4000821
S315080038F070D40008D3110020F01100208112002096
S31508003900084909480B68026801330B6042B1074948
S3150800391009689A1A8A4203D3054A0360012111707D
S31508003920704700BFF0110020D8110020D4000020F5
S31508003930D4110020044AD2E90031013341F10001D3
S31508003940C2E90031704700BFF81100202DE9F043A5
S31508003950564B1B78012B95B008D0FEF7E9FB0128DA
S3150800396073D115B0BDE8F043FFF75ABCFEF7ECFB80
S3150800397000287CD14E4B1B78012B40F089804D4B9B
S315080039801B78012B40F08C804B4D2B7C002B62D191
S3150800399042F21073494A136000F0BAF80128484BFE
S315080039A002D01A78002A5BD04649474ADFF8508188
S315080039B0464F096811604FF000094146384683F8BA
S315080039C00090FDF777FF06A800F09CFA0DF1180C99
S315080039D0BCE80F00384C3E4E0FC4BCE80F000FC4BD
S315080039E0BCE80F000FC44846DCF80030236000F03E
S315080039F089F8384B38491A88384805F0B1F8D8E9B3
S31508003A000023D7E90001CDE904232B7A2A7C019308
S31508003A10CDE902016B6900923149324A324805F014
S31508003A209FF8012333703048FCF722FC821C2E498C
S31508003A302A4892B2FFF772FE2C4B1B78012B04BF63
S31508003A400023337015B0BDE8F083002015B0BDE83B
S31508003A50F043FEF773BBC3F1FF0303EBC30399E718
S31508003A601B4E3378012BDED015B0BDE8F083204815
S31508003A70FEF7DCFD00283FF47DAF1E4C2046FEF71E
S31508003A80B1FE237B302B3FF475AF094B00221A7029
S31508003A90194842F2B32115B0BDE8F043FFF7AABDB5
S31508003AA0164815B0BDE8F043FFF70ABDD01100204F
S31508003AB0D2110020D1110020C8140020D400002003
S31508003AC0D4110020F0110020D8110020E0000020B9
S31508003AD0DC110020D800002050D5000888140020EA
S31508003AE064D50008F000002088120020D3110020B9
S31508003AF008D500080012002014D5000848D500088B
S31508003B00E8000020014B1870704700BFFE14002023
S31508003B10014B1878704700BFFE1400202DE9F043CA
S31508003B20974D89B00024CDE90344CDE905440794AF
S31508003B302C70FDF75DFB012809D092489249934AFB
S31508003B40002303600B70137009B0BDE8F083FDF71E
S31508003B500FFB0128F1D1FDF71FFB002840F0F38089
S31508003B60884EDFF85882346814B9D8F800403460B3
S31508003B70864F3B78092B00F2F680DFE813F0CE007B
S31508003B80C000A90099008200730051004300280074
S31508003B900A007F4B1B7833B17E497F4805F0C6F88B
S31508003BA008B10A233B70784AD8F800301B1BB3F5D6
S31508003BB0967F23D91378022B40F2C980002002236E
S31508003BC03060107038702B70FDF7ECFABCE7734B59
S31508003BD071480024214680221C7005F024F86C4B9D
S31508003BE06F481C700721FDF7E3FA002840F0B580FE
S31508003BF0D8F8002032600923634A3B701378022BF9
S31508003C00A2D9DBE7624B1B78002BCCD0654962480A
S31508003C1005F08CF80028C6D008235B4A3B70C3E73A
S31508003C205C4A614903A804F09BFF03A8FCF720FB44
S31508003C3000245A4B8146214657481C70802204F0BE
S31508003C40F2FF534B5FFA89F103A81C70FDF7B0FA2F
S31508003C50002840F08280D8F80020326007234A4ABC
S31508003C603B70CBE74A4B1B78002B9CD04D494A4802
S31508003C7005F05CF8002896D006233468424A3B7063
S31508003C8092E7464B44480024214680221C7004F0E3
S31508003C90CAFF3F4B45481C700621FDF789FA0028E4
S31508003CA05BD1D8F8002032600523374A3B70A5E778
S31508003CB0374B1B78002B3FF476AF3A49364805F068
S31508003CC035F800283FF46FAF04232F4A3B706BE7A3
S31508003CD0324B31480024214680221C7004F0A3FF91
S31508003CE02B4B33481C700621FDF762FA002834D1A5
S31508003CF0D8F8002032600323234A3B707EE7244B22
S31508003D001B78002B3FF44FAF2A49234805F00EF8DD
S31508003D1030B302231C4A3B7046E7204B1E4800245A
S31508003D20214680221C7004F07EFF194B22481C7025
S31508003D300421FDF73DFA80B9D8F800203260012346
S31508003D40114A3B705AE72046FDF718FA08E70021A2
S31508003D500133316039701370F6E634680A4A23E78E
S31508003D60094A387020E7084A019200230120137097
S31508003D7033603B702870FDF715FA3468019A13E72B
S31508003D80FF140020D4150020C6150020C9150020F0
S31508003D9089150020480100200815002088150020F4
S31508003DA0ECD5000864BB0008E0D50008D8D50008A3
S31508003DB0D0D50008C8D50008C0D5000804150020CD
S31508003DC0F0B5454D89B02C680023CDE90033CDE91F
S31508003DD00233CDE904330693ADF81C3014B93F4BD2
S31508003DE01C682C603E4E3378032B73D8DFE803F04B
S31508003DF0335117023B4B1B78002B62D1374B1B689C
S31508003E001B1BB3F5967F1FD9374B1A78022A50D950
S31508003E1000222A601A703270022009B0F0BD334BB6
S31508003E2033480024214680221C7004F0FCFE2D4BEA
S31508003E3030481C700421FDF7BBF9002837D1274A02
S31508003E40032312682A603370274B1A78022ADFD8B0
S31508003E50012009B0F0BD02462749684604F080FEF5
S31508003E606846FCF705FA0024204B074621462048F9
S31508003E701C70802204F0D7FE1A4BF9B268461C70F3
S31508003E80FDF796F998B9154A012312682A60337026
S31508003E90DAE7144B1B78002BB0D01849144804F005
S31508003EA045FF0028AAD002232C683370A6E72C68A1
S31508003EB0A4E7002101320120296031701A7009B087
S31508003EC0F0BD0F490A4804F031FF002896D00423B4
S31508003ED0337093E70020A0E7D015002004150020D2
S31508003EE0C815002089150020C51500208815002052
S31508003EF008150020F4D50008E0D5000864BB0008C2
S31508003F004801002010B5084C864684460FCCACE81C
S31508003F100F000FCCACE80F000FCCACE80F002368FD
S31508003F20CCF80030704610BD901500200000000047
S31508003F302DE9F04FAE4BAF491B88AF488BB0002533
S31508003F40ADF808308DF80A50ADF80C308DF80E50E3
S31508003F5004F090FE20B3A74F0446EEB20AAB03EB7B
S31508003F608603394643F8144C002004F083FE0135D5
S31508003F7004460028F1D1013EF6B2FD2E10D8059D63
S31508003F8001462B88ADF80C30102203A803F0B8FEC2
S31508003F90C6B2A6F14103082B06D9613E022E56D9B0
S31508003FA000200BB0BDE8F08F2846FCF761F9C0B2D7
S31508003FB00328F5D9432E50D1871E48BF471C05282C
S31508003FC08DF8074004944FEAA70740F2FB800024C7
S31508003FD08A4EDFF834A2DFF834922346A04605EB72
S31508003FE083024FEA830B002193788DF8073010225D
S31508003FF00DF1070003F084FE0BF10303C2B2E818C3
S3150800400096F82A108078EB5A8DF81200062000FBE5
S31508004010016002EB420201310134ADF8103086F836
S315080040202A1004ABE4B25244183049468DF813807E
S3150800403004F096FDBC422346D1DB96F82A3013B12C
S31508004040013B86F82A3001200BB0BDE8F08F2846E0
S31508004050FCF70EF9C3B2032BA2D96B88ADF808306A
S315080040601022002102A803F04BFE1022044600216C
S31508004070281D03F045FEE3B22F2B024660D814F044
S31508004080FC048DD0043B2B2B8AD801A151F823F0D0
S31508004090AF410008A5410008A13F0008A13F00085C
S315080040A0A13F0008A13F000899410008A13F000868
S315080040B0854100087D410008A13F0008A13F00088E
S315080040C0A13F0008A13F0008A13F0008A13F000842
S315080040D0A13F0008A13F0008A13F0008A13F000832
S315080040E0A13F0008A13F0008A13F0008A13F000822
S315080040F0A13F0008A13F0008A13F0008A13F000812
S31508004100A13F0008A13F0008A13F0008A13F000801
S31508004110A13F0008A13F0008A13F0008A13F0008F1
S31508004120A13F0008A13F0008A13F0008A13F0008E1
S31508004130A13F0008A13F0008A13F00086741000809
S315080041405E2B41D0A62B06D12D4B2C49A3FB003064
S31508004150C008486177E75C2B7FF422AF274B2838E5
S31508004160587201201DE72749244A642300FB03F3FC
S31508004170A1FB0313DB091372012012E71F4B012071
S315080041801A740EE7800807EE900A1C4BF8EEE77AD9
S315080041900120C3ED017A04E7184B00EB4000588074
S315080041A00120FEE6154B283858700120F9E6154916
S315080041B0124A642300FB03F3A1FB0313DB09137004
S315080041C00120EEE60D4E38E7FCF79CF906A3D3E985
S315080041D00023FCF711FAFCF707FD084B0246DA60E4
S315080041E00120DEE6AFF300809A9999999999A93F3B
S315080041F0FCBA000874BB00080815002090150020BA
S31508004200CDCCCCCC81808080B0D60008FCD5000807
S315080042102DE9F0476C4D6D4A2C68DFF8F8810023CC
S3150800422082B0CDE90033137014B9D8F800402C6079
S31508004230674E3778D7B1012F49D06649D8F80000BC
S3150800424000230B7064492B600B70644933700B7044
S315080042500223137046F2A713984204D901230022B9
S315080042600B702A60327002B0BDE8F0875A4A13789C
S315080042700A2B99BF591CC9B201213B461170584AED
S31508004280584952F82320684604F06AFC6846FBF74A
S31508004290EFFF0024544B0746214654481C708022E1
S315080042A004F0C1FC524BF9B268461C70FCF780FF5B
S315080042B038BBD8F800202A6001233370474B1B7897
S315080042C0022B84BF0223337002B0BDE8F087484B47
S315080042D01B7853B14749454804F028FD814690B1FB
S315080042E0454A0023337082F83030D8F8003046F259
S315080042F0A7121B1B9342E1D938490B780133DBB26D
S31508004300ADE72C68F1E73D49384804F00FFD8246D1
S3150800431030B1394F86F80090012387F83030E4E74A
S3150800432032483F2104F087FC814618B1324F86F89F
S3150800433000A0F1E732492D4804F0F8FC88B1264B75
S315080043401A780A2A234A07D813782C682A4F86F837
S31508004350009001331370DFE712780A2A1CD8264F1B
S31508004360DAE71C4B274C18702146204804F0DEFC7F
S31508004370D8B1214F2388A7F82B30FFF7D9FD164B64
S315080043802C68197800220A2984BF1A701E4B3270CD
S3150800439084BF01221A70BFE783F800901B4B2C6874
S315080043A01F700223144F3370B6E7194C0F48124F8B
S315080043B0214604F0BBFC0028DFD02388A7F82B3061
S315080043C0A37887F82D30D8E7CC150020FD140020F7
S315080043D0C71500208B1500208C150020C415002059
S315080043E01C01002004D600088815002008150020A6
S315080043F08915002008D60008901500201CD600084C
S3150800440028D6000830D60008FE140020FC14002028
S3150800441034D600080415002038B5FCF7E9FED0B1FB
S315080044201B4B1C4C1A7812B92278012A07D0002295
S315080044301A70FFF773FB2378012B00D038BD164C92
S315080044402378022B03D1154D2B78012B0ED0BDE80E
S315080044503840FFF7DDBE0E4A1378002BEED10D4922
S3150800446008780128EAD110700B7038BD0C490A7813
S31508004470082A9ABF531CDBB200220B70094B53F86B
S315080044802200FFF79DFC0028D8D12070287038BD7F
S3150800449000150020FF140020FD140020FC14002045
S315080044A08A150020F8000020024A136801331360B9
S315080044B0704700BF0415002010B4094A094C11784A
S315080044C04B1CDBB23E286054137002D1064901200A
S315080044D008701B0644BF002313705DF8044B704731
S315080044E088150020081500208915002008B5044BFA
S315080044F004491860012202F045FA034B187008BDFA
S315080045001C16002021160020201600200FB40020BB
S3150800451004B0704738B50F4B02681B68196891429A
S3150800452000D038BD0C4D0D4C01222946184602F024
S3150800453029FA22780A492B7808700A48511CC9B208
S315080045400A2B83542170ECD1FCF732FE002323702A
S3150800455038BD00BF1C1600202116002018160020A2
S3150800456020160020D815002072B6BFF34F8F0549D4
S31508004570054BCA6802F4E0621343CB60BFF34F8F62
S3150800458000BFFDE700ED00E00400FA0510B50023C2
S3150800459094B0CDE90B33CDE90933CDE90333CDE941
S315080045A005331F4901930D930793086C1D4A40F084
S315080045B080500864096C01F08051019101990293B9
S315080045C0116841F48041116012680F9302F4804229
S315080045D0102301210292CDE90B1308224023CDE9CD
S315080045E010230224029808940222072308A8CDE97A
S315080045F012230E9400F0D2FE78B90F210346CDE9B6
S3150800460003144FF4805203A82146CDE905320793D7
S3150800461001F0DCF808B914B010BDFFF7A5FF00BF1C
S31508004620003802400070004080B500248CB000F0CD
S3150800463077FCFFF7ABFFCDE90644CDE90844BE4B4E
S3150800464000940A941A6BBD4842F010021A631A6B5A
S3150800465002F010020092009A01941A6B42F00402CA
S315080046601A631A6B02F004020192019A02941A6BF9
S3150800467042F080021A631A6B02F080020292029AD2
S3150800468003941A6B42F001021A631A6B02F00102D4
S315080046900392039A04941A6B42F002021A631A6B85
S315080046A002F002020492049A05941A6B42F0080278
S315080046B01A631B6B03F00803182105932246059B12
S315080046C000F068FE9E482246022100F063FE9D48DF
S315080046D022464FF21101182500F05CFE9FED948BDF
S315080046E04FF6C57203239548089406A9CDE9062313
S315080046F04FF0010800F026FD90480DEB0501CDE9C5
S315080047000658CDE9084400F01DFD8C4808940DEBC9
S3150800471005018DED068B00F015FD42F23D320323AF
S31508004720874808940DEB0501CDE906234FF0020AE8
S3150800473000F008FD82480DEB0501CDE906A8CDE994
S31508004740084400F0FFFC012200237F4808940DEB83
S315080047500501CDE9062300F0F5FC49F6127203239C
S31508004760794808940DEB0501CDE9062300F0EAFC2B
S315080047704FF2F3720323754808940DEB0501CDE952
S31508004780062300F0DFFC04220023704808940DEB92
S315080047900501CDE9062300F0D5FC40F6C8620323DF
S315080047A0684808940DEB0501CDE9062300F0CAFC1C
S315080047B04FF21003634806930DEB0501CDE9078414
S315080047C0099400F0BFFC5F480DEB0501CDE90688AA
S315080047D0CDE908A400F0B6FC022200235948CDF81A
S315080047E020A00DEB0501CDE9062300F0ABFC5548EA
S315080047F008940DEB05018DED068B00F0A3FC4FF434
S3150800480088134E48089402220DEB0501CDE90623CC
S3150800481000F098FC4E484F4B03604FF4E1370C26E6
S315080048204FF40049C0E90174C0E90344C0E90564CE
S31508004830C0F81C9001F05EFF002874D1464B474A29
S31508004840C3F81C90C3E90170C3E90300C3E9056016
S3150800485018461A6001F04EFF002864D1404C414BBF
S3150800486023604FF44863CDE90600C4E90180E3609C
S3150800487020468023A36101F07DFD002853D1002244
S31508004880002306A92046CDE9062301F0EFFE0246DD
S31508004890002848D13448C0E90172C0E90322C0E9BA
S315080048A00562C261314A026001F024FF00283AD14C
S315080048B02F4B304AC3E90200C3E90406C3E90600E0
S315080048C04FF416541846C3E9002401F013FF0246B4
S315080048D048BB2948C0E90142C0E90322C0E905628C
S315080048E0C261264A026001F005FF0246D8B9244B88
S315080048F024484FF48271C3E900014FF40070C3E9FC
S3150800490006050A211846C3E90222C3E90422C3E9B7
S315080049100822C3E90A2101F0B1F820B9FCF768FBBF
S31508004920FCF79AFBFEE7FFF71FFE00BFAFF3008018
S31508004930200000000000000000380240001002407D
S3150800494000080240000C0240000002400004024039
S31508004950C416002000440040081700200048004004
S315080049607C16002000100040D417002000140140D7
S315080049704C170020004C00409017002000500040C3
S31508004980241600200030014082B00C4B0021009113
S315080049905A6C42F480425A645A6C02F4804200927D
S315080049A0009A01911A6C42F080521A641B6C03F04B
S315080049B080530193019B02B0704700BF0038024044
S315080049C010B51B4B026888B000249A42CDE9024410
S315080049D0CDE90444069401D008B010BD03F584332C
S315080049E000945A6C134842F480525A645A6C02F482
S315080049F080520092009A01941A6B42F001021A63DF
S31508004A001B6B03F001030193E0220223CDE9022385
S31508004A1002A905230693019A00F094FB2246214633
S31508004A20232000F0CDFA232000F008FB08B010BDC3
S31508004A3000300140000002400E4B02689A4200D046
S31508004A40704700B583B0002203F50A330192196C4A
S31508004A5041F0100119641B6C03F010030193362012
S31508004A601146019B00F0ACFA362003B05DF804EB62
S31508004A7000F0E4BA001000402DE9F0410368944ABA
S31508004A8092B000249342CDE90C44CDE90E4410942B
S31508004A9052D0904A93427ED08F4A934200F0C0800B
S31508004AA08E4A934206D08E4A934200F0E78012B0AF
S31508004AB0BDE8F0818B4B07941A6C8B4842F4802230
S31508004AC01A641A6C02F480220792079A08941A6BE1
S31508004AD002252A431A631A6B2A400892089A0994EF
S31508004AE01A6B42F008021A631B6B0D9503F0080354
S31508004AF009934FF00108032707260CA94FF4006312
S31508004B000C93CDE90E87099B109600F01BFB4FF41A
S31508004B1080730CA975480C93CDE90F760D95CDF8E1
S31508004B20388000F00FFB22462146272000F048FA7D
S31508004B30272000F083FABAE76A4B00941A6C6C488F
S31508004B4042F400221A641A6C02F400220092009AB7
S31508004B5001941A6B42F004021A631B6B03F00403F8
S31508004B6001934FF440620223CDE90C23012203236B
S31508004B70CDE90E230CA908231093019D00F0E2FA53
S31508004B8022462146342000F01BFA342000F056FA5B
S31508004B9012B0BDE8F081534B02941A6C544842F4A3
S31508004BA080121A641A6C02F480120292029A039412
S31508004BB01A6B42F004021A631A6B02F0040203929B
S31508004BC0039A04941A6B42F008021A631B6B03F0EB
S31508004BD00803049302254FF00108032708260CA9A9
S31508004BE04FF480530C93CDE90E87049B0D951096D0
S31508004BF000F0A8FA04230CA93C480C93CDE90F76DB
S31508004C000D95CDF8388000F09DFA224621463520CC
S31508004C1000F0D6F9352000F011FA12B0BDE8F0819F
S31508004C20304B05941A6C334842F400321A641A6CF5
S31508004C3002F400320592059A06941A6B42F00102B4
S31508004C401A631B6B03F0010306930C220223CDE9BA
S31508004C500C2301220323CDE90E230CA90723109365
S31508004C60069D00F06FFA22462146262000F0A8F994
S31508004C70262000F0E3F912B0BDE8F081194B0A943A
S31508004C805A6C1B4842F020025A645A6C02F0200201
S31508004C900A920A9A0B941A6B42F004021A631B6B67
S31508004CA003F004030B93C0220223CDE90C230CA9BD
S31508004CB008230322CDE90F230B9D00F043FA224671
S31508004CC02146472000F07CF9472000F0B7F9EEE6C8
S31508004CD0004C00400050004000440040004800409E
S31508004CE0001401400038024000040240000C024053
S31508004CF00008024000000240BFF34F8F0549064BEB
S31508004D00CA6802F4E0621343CB60BFF34F8F00BF5B
S31508004D10FDE700BF00ED00E00400FA0508B5FFF75F
S31508004D20EBFF00BF08B5FFF7E7FF00BFFEE700BFD0
S31508004D3008B5FFF7E1FF00BF08B5FFF7DDFF00BFC5
S31508004D40704700BF704700BF704700BF08B500F046
S31508004D5001F9BDE80840FCF78DB900BF014801F02C
S31508004D607FBA00BF24160020014801F0ABBE00BF81
S31508004D70C4160020014801F0A5BE00BF0817002090
S31508004D80014801F09FBE00BF4C170020014801F002
S31508004D9099BE00BF90170020014801F0BDBB00BFB7
S31508004DA07C160020014801F08DBE00BFD4170020F4
S31508004DB0FCF770B9FCF790B90120704708B504F004
S31508004DC015F8162303604FF0FF3008BD08B504F048
S31508004DD00DF816230360FEE770B5161E07DD0C46B0
S31508004DE08D19AFF3008004F8010BA542F9D13046BE
S31508004DF070BD00BF70B5161E07DD0C468D1914F878
S31508004E00010BAFF30080AC42F9D1304670BD00BF4C
S31508004E104FF0FF30704700BF4FF400534B6000203F
S31508004E20704700BF01207047002070470C490D4AA3
S31508004E300B6810B50C4C121B2BB11844904207D8BE
S31508004E400860184610BD094B0B6018449042F7D904
S31508004E5003F0CCFF0C2303604FF0FF33184610BD58
S31508004E601818002000000220001200007019002007
S31508004E70034AD2F8883043F47003C2F88830704782
S31508004E8000ED00E0DFF834D00D480E490E4A002345
S31508004E9002E0D458C4500433C4188C42F9D30B4AE0
S31508004EA00B4C002301E013600432A242FBD3FFF748
S31508004EB0DFFF03F0A1FFFFF7B7FB704700000220F2
S31508004EC00000002020030020A0DB000820030020AB
S31508004ED06C190020FEE7000038B50E4A0E4B127812
S31508004EE01B6805464FF47A70B0FBF2F0B3FBF0F09E
S31508004EF000F0B2F808B90F2D01D9012038BD0446D3
S31508004F00024629464FF0FF3000F05AF8034B204678
S31508004F101D6038BD500100204C01002054010020BE
S31508004F2008B50B4B1A6842F400721A601A6842F404
S31508004F3080621A601A6842F480721A60032000F0D0
S31508004F402DF80020FFF7C8FFFFF71EFD002008BD5B
S31508004F50003C0240034A044B11681B780B4413605B
S31508004F60704700BF1C18002050010020014B18682C
S31508004F70704700BF1C18002038B50446FFF7F6FF37
S31508004F80631C054602D0044B1B781C44FFF7EEFF52
S31508004F90431BA342FAD338BD500100200749CA680B
S31508004FA003024FF6FF0003F4E0630240134343F0A5
S31508004FB0BF6343F40033CB60704700BF00ED00E0E9
S31508004FC01C4BDB68C3F3022300B5C3F1070EBEF121
S31508004FD0040F03F1040C28BF4FF0040EBCF1060FB2
S31508004FE01BD9033B4FF0FF3C0CFA03FC22EA0C02E8
S31508004FF04FF0FF3C0CFA0EFC21EA0C019940002800
S3150800500041EA02010CDB00F16040090100F561404C
S31508005010C9B280F800135DF804FB00221346E7E7DF
S31508005020054B00F00F0009010344C9B219765DF873
S3150800503004FB00BF00ED00E0FCEC00E0002807DB05
S315080050404109044A00F01F000123834042F8213039
S31508005050704700BF00E100E00138B0F1807F10D250
S3150800506010B44FF0E023084C58614FF0F00C84F868
S3150800507023C00022072110469A615DF8044B196186
S3150800508070470120704700BF00ED00E070B5044688
S31508005090866DFFF76BFF94F83530022B06D0802318
S315080050A06365002384F83430012070BD23681A68CC
S315080050B022F016021A605A6922F080025A61226C9E
S315080050C0054642B31A6822F008021A601A6822F0E6
S315080050D001021A6005E0FFF749FF431B052B10D8AC
S315080050E023681B6813F00103F5D1E16D3F228A405E
S315080050F0184601210023B26084F8351084F834304C
S3150800510070BD032320226265184684F835300023D3
S3150800511084F8343070BDA26C002AD3D1D6E700BF1C
S3150800512090F83530022B03D0802343650120704761
S315080051300268052380F83530136823F00103002040
S31508005140136070472DE9F04F00220C68DFF830A293
S31508005150844E85B01346894605E00133102B02F1CB
S31508005160020200F08A800121994001EA040BA1435A
S31508005170F3D1D9F804C00CF003014D1E012D7FD9D7
S31508005180032940F0C0809140CD4307683D4029433C
S315080051901CF4403F0160E0D000210391DAF8441086
S315080051A041F48041CAF84410DAF8441001F4804109
S315080051B00391039923F0030101F1804101F59C3124
S315080051C003F003078D68BF004FF00F0E0EFA07FEB7
S315080051D025EA0E08644DA84224D005F58065A84244
S315080051E000F09580614DA84200F09880604DA84275
S315080051F000F09B805F4DA84200F09E805E4DA8425D
S3150800520000F0A1805D4DA84200F0A480DFF874E1AB
S3150800521070450CBF4FF0070E4FF0080E0EFA07F751
S3150800522048EA0708C1F80880B1686FEA0B051CF45C
S31508005230801F0CBF29404BEA0101B160F1681CF4DC
S31508005240001F0CBF29404BEA0101F16071681CF48C
S31508005250003F0CBF29404BEA0101716031681CF41C
S31508005260803F03F101030CBF29404BEA0101102BD3
S31508005270316002F102027FF476AF05B0BDE8F08F27
S31508005280D9F80C50D0F808E005FA02F7032505FA14
S3150800529002F82EEA080E47EA0E078760476827EAEB
S315080052A00B0ECCF300179F4047EA0E076FEA080576
S315080052B04760C76807EA050ED9F80870974047EAB5
S315080052C00E070229C76001FA02F17FF45EAF4FEAC2
S315080052D0D30E00EB8E0E03F00708DEF82070009759
S315080052E0D9F810704FEA880807FA08F701970F27C8
S315080052F007FA08F8009F27EA0808019F47EA0807FF
S31508005300CEF8207041E703259540ED43D1E74FF0ED
S31508005310010E0EFA07F748EA070883E74FF0020E70
S315080053200EFA07F748EA07087CE74FF0030E0EFA6D
S3150800533007F748EA070875E74FF0040E0EFA07F76D
S3150800534048EA07086EE74FF0050E0EFA07F748EA2F
S31508005350070867E74FF0060E0EFA07F748EA070848
S3150800536060E700BF003C0140000002400008024020
S31508005370000C0240001002400014024000180240CF
S3150800538000380240001C02400369194214BF01207C
S315080053900020704702B9090481617047002800F0AF
S315080053A0A2812DE9F0410368DD0782B004462FD5B6
S315080053B09E498A6802F00C02042A00F0ED808A6889
S315080053C002F00C02082A00F0E3806368B3F5803F18
S315080053D000F0EC80B3F5A02F00F07581934D2A6894
S315080053E022F480322A602A6822F480222A60002B5E
S315080053F040F0E180FFF7BAFD064605E0FFF7B6FD87
S31508005400801B642800F201812B689B03F6D423686D
S315080054109F0728D5854A916811F00C0F00F09080F7
S31508005420916801F00C01082900F08680E368002BDA
S3150800543000F00E817E4B7D4E01221A60FFF796FD25
S31508005440054605E0FFF792FD401B022800F2DD80C5
S3150800545033689807F6D53368226923F0F80343EAD8
S31508005460C203336023681A0751D458072FD56F4AE9
S31508005470136C13F080537FD000256E4E3368D90520
S3150800548040F1B380A368012B00F0C380052B00F020
S315080054902C81664E326F22F001023267326F22F09B
S315080054A004023267002B40F0B980FFF75FFD41F236
S315080054B08838074605E0FFF759FDC01B404500F24E
S315080054C0A480336F9807F6D4002D40F00681A069B2
S315080054D0C8B1564DAB6803F00C03082B00F0C98021
S315080054E0534B002202281A6600F00981FFF73EFD99
S315080054F0044605E0FFF73AFD001B022800F2858006
S315080055002B689B01F6D4002002B0BDE8F0816369E0
