:020000040800F2
:1000000000000220B54000084D3F0008553F0008A1
:100010005D3F0008613F0008693F000800000000E4
:10002000000000000000000000000000713F000818
:10003000753F000800000000793F00087D3F000880
:100040000541000805410008054100080541000878
:100050000541000805410008054100080541000868
:100060000541000805410008054100080541000858
:100070000541000805410008054100080541000848
:100080000541000805410008054100080541000838
:100090000541000805410008054100080541000828
:1000A0000541000805410008054100080541000818
:1000B0000541000805410008054100080541000808
:1000C0000541000805410008054100088D3F000872
:1000D0000541000805410008993F0008A53F0008B8
:1000E00005410008054100080541000805410008D8
:1000F00005410008054100080541000805410008C8
:1001000005410008054100080541000805410008B7
:10011000B13F0008BD3F0008C93F00080541000885
:100120000541000805410008054100080541000897
:100130000541000805410008054100080541000887
:100140000541000805410008054100080541000877
:10015000054100080541000805410008D53F000899
:100160000541000805410008054100080541000857
:100170000541000805410008054100080000000095
:080180000541000805410008DB
:1001900010B5054C237833B9044B13B10448AFF3C1
:1001A00000800123237010BD100200200000000019
:1001B00074AC000808B5034B1BB103490348AFF307
:1001C000008008BD000000001402002074AC00088C
:1001D00001F0FF01102A2BDB10F0070F08D010F8F8
:1001E000013B013A8B422DD010F0070F42B3F6D1FC
:1001F000F0B441EA012141EA014122F007047FF015
:1002000000070023F0E80256083C85EA010586EA6B
:10021000010685FA47F5A3FA87F586FA47F6A5FAA7
:1002200087F68EB9EED1F0BC01F0FF0102F00702B3
:1002300032B110F8013B013A83EA010313B1F8D15E
:100240000020704701387047002D06BF354603383F
:10025000073815F0010F07D1013015F4807F02BF78
:10026000013015F4C03F0130F0BC0138704700BFC9
:10027000034613F8012B002AFBD1181A01387047E6
:1002800081F0004102E000BF83F0004330B54FEA47
:1002900041044FEA430594EA050F08BF90EA020FB4
:1002A0001FBF54EA000C55EA020C7FEA645C7FEA47
:1002B000655C00F0E2804FEA5454D4EB5555B8BF6A
:1002C0006D420CDD2C4480EA020281EA030382EADB
:1002D000000083EA010180EA020281EA0303362D6D
:1002E00088BF30BD11F0004F4FEA01314FF4801C40
:1002F0004CEA113102D0404261EB410113F0004F52
:100300004FEA03334CEA133302D0524263EB430308
:1003100094EA050F00F0A780A4F10104D5F1200EA6
:100320000DDB02FA0EFC22FA05F2801841F1000101
:1003300003FA0EF2801843FA05F359410EE0A5F1D5
:1003400020050EF1200E012A03FA0EFC28BF4CF006
:10035000020C43FA05F3C01851EBE37101F00045BC
:1003600007D54FF0000EDCF1000C7EEB00006EEBC9
:100370000101B1F5801F1BD3B1F5001F0CD3490853
:100380005FEA30004FEA3C0C04F101044FEA4452AA
:1003900012F5800F80F09A80BCF1004F08BF5FEA31
:1003A000500C50F1000041EB045141EA050130BD11
:1003B0005FEA4C0C404141EB0101013C28BFB1F523
:1003C000801FE9D291F0000F04BF01460020B1FA6E
:1003D00081F308BF2033A3F10B03B3F120020CDA41
:1003E0000C3208DD02F1140CC2F10C0201FA0CF01F
:1003F00021FA02F10CE002F11402D8BFC2F1200C84
:1004000001FA02F120FA0CFCDCBF41EA0C01904039
:10041000E41AA2BF01EB0451294330BD6FEA040482
:100420001F3C1CDA0C340EDC04F11404C4F120026D
:1004300020FA04F001FA02F340EA030021FA04F37F
:1004400045EA030130BDC4F10C04C4F1200220FAD6
:1004500002F001FA04F340EA0300294630BD21FA14
:1004600004F0294630BD94F0000F83F4801306BFDA
:1004700081F480110134013D4EE77FEA645C18BFCE
:100480007FEA655C29D094EA050F08BF90EA020F65
:1004900005D054EA000C04BF1946104630BD91EA5D
:1004A000030F1EBF0021002030BD5FEA545C05D160
:1004B0004000494128BF41F0004130BD14F580049F
:1004C0003CBF01F5801130BD01F0004545F0FE4113
:1004D00041F470014FF0000030BD7FEA645C1ABF48
:1004E000194610467FEA655C1CBF0B46024650EA7F
:1004F000013406BF52EA033591EA030F41F40021AB
:1005000030BD00BF90F0000F04BF0021704730B530
:100510004FF4806404F132044FF000054FF0000105
:1005200050E700BF90F0000F04BF0021704730B5C6
:100530004FF4806404F1320410F0004548BF40429B
:100540004FF000013EE700BF42004FEAE2014FEAF0
:1005500031014FEA02701FBF12F07F4393F07F4FCB
:1005600081F06051704732F07F4208BF704793F0CE
:100570007F4F04BF41F40021704730B54FF46074E1
:1005800001F0004521F000411CE700BF50EA0102E4
:1005900008BF704730B54FF000050AE050EA01028D
:1005A00008BF704730B511F0004502D5404261EBFD
:1005B00041014FF4806404F132045FEA915C3FF43E
:1005C000D8AE4FF003025FEADC0C18BF03325FEADB
:1005D000DC0C18BF033202EBDC02C2F1200300FA8C
:1005E00003FC20FA02F001FA03FE40EA0E0021FAB1
:1005F00002F11444BDE600BF70B54FF0FF0C4CF49F
:10060000E06C1CEA11541DBF1CEA135594EA0C0F50
:1006100095EA0C0F00F0DEF82C4481EA030621EA8B
:100620004C5123EA4C5350EA013518BF52EA0335C6
:1006300041F4801143F4801338D0A0FB02CE4FF078
:100640000005E1FB02E506F00042E0FB03E54FF0A8
:100650000006E1FB03569CF0000F18BF4EF0010EA0
:10066000A4F1FF04B6F5007F64F5407404D25FEA9C
:100670004E0E6D4146EB060642EAC62141EA55514F
:100680004FEAC52040EA5E504FEACE2EB4F1FD0C91
:1006900088BFBCF5E06F1ED8BEF1004F08BF5FEA0F
:1006A000500E50F1000041EB045170BD06F00046C1
:1006B00046EA010140EA020081EA0301B4EB5C046E
:1006C000C2BFD4EB0C0541EA045170BD41F4801166
:1006D0004FF0000E013C00F3AB8014F1360FDEBF8B
:1006E000002001F0004170BDC4F10004203C35DA67
:1006F0000C341BDC04F11404C4F1200500FA05F3EA
:1007000020FA04F001FA05F240EA020001F000428A
:1007100021F0004110EBD37021FA04F642EB060100
:100720005EEA430E08BF20EAD37070BDC4F10C042A
:10073000C4F1200500FA04F320FA05F001FA04F2EE
:1007400040EA020001F0004110EBD37041F10001DA
:100750005EEA430E08BF20EAD37070BDC4F12005E5
:1007600000FA05F24EEA020E20FA04F301FA05F24D
:1007700043EA020321FA04F001F0004121FA04F2F5
:1007800020EA020000EBD3705EEA430E08BF20EAC5
:10079000D37070BD94F0000F0FD101F000464000FF
:1007A00041EB010111F4801F08BF013CF7D041EA81
:1007B000060195F0000F18BF704703F00046520085
:1007C00043EB030313F4801F08BF013DF7D043EA56
:1007D0000603704794EA0C0F0CEA135518BF95EA0C
:1007E0000C0F0CD050EA410618BF52EA4306D1D193
:1007F00081EA030101F000414FF0000070BD50EAB2
:10080000410606BF1046194652EA430619D094EA3B
:100810000C0F02D150EA013613D195EA0C0F05D125
:1008200052EA03361CBF104619460AD181EA030179
:1008300001F0004141F0FE4141F470014FF0000031
:1008400070BD41F0FE4141F4780170BD70B54FF0CC
:10085000FF0C4CF4E06C1CEA11541DBF1CEA13554C
:1008600094EA0C0F95EA0C0F00F0A7F8A4EB05042E
:1008700081EA030E52EA03354FEA013100F0888025
:100880004FEA03334FF0805545EA131343EA1263EE
:100890004FEA022245EA111545EA10654FEA0026A3
:1008A0000EF000419D4208BF964244F1FD0404F55C
:1008B000407402D25B084FEA3202B61A65EB0305B8
:1008C0005B084FEA32024FF480104FF4002CB6EB75
:1008D000020E75EB030E22BFB61A754640EA0C00F5
:1008E0005B084FEA3202B6EB020E75EB030E22BF35
:1008F000B61A754640EA5C005B084FEA3202B6EB76
:10090000020E75EB030E22BFB61A754640EA9C0034
:100910005B084FEA3202B6EB020E75EB030E22BF04
:10092000B61A754640EADC0055EA060E18D04FEAC2
:10093000051545EA16754FEA06164FEAC30343EA62
:1009400052734FEAC2025FEA1C1CC0D111F4801F2F
:100950000BD141EA00014FF000004FF0004CB6E728
:1009600011F4801F04BF01430020B4F1FD0C88BFC7
:10097000BCF5E06F3FF6AFAEB5EB030C04BFB6EBD2
:10098000020C5FEA500C50F1000041EB045170BDC5
:100990000EF0004E4EEA113114EB5C04C2BFD4EBF2
:1009A0000C0541EA045170BD41F480114FF0000E76
:1009B000013C90E645EA060E8DE60CEA135594EAF2
:1009C0000C0F08BF95EA0C0F3FF43BAF94EA0C0FF5
:1009D0000AD150EA01347FF434AF95EA0C0F7FF46A
:1009E00025AF104619462CE795EA0C0F06D152EABE
:1009F00003353FF4FDAE1046194622E750EA4106A2
:100A000018BF52EA43067FF4C5AE50EA41047FF4B2
:100A10000DAF52EA43057FF4EBAE12E74FF0FF3C17
:100A200006E000BF4FF0010C02E000BF4FF0010CE8
:100A30004DF804CD4FEA410C7FEA6C5C4FEA430C61
:100A400018BF7FEA6C5C1BD001B050EA410C0CBFB0
:100A500052EA430C91EA030F02BF90EA020F002012
:100A6000704710F1000F91EA030F58BF994208BF79
:100A700090422CBFD8176FEAE37040F00100704736
:100A80004FEA410C7FEA6C5C02D150EA013C07D18D
:100A90004FEA430C7FEA6C5CD6D152EA033CD3D0D8
:100AA0005DF8040B704700BF8446104662468C46D2
:100AB0001946634600E000BF01B5FFF7B7FF002805
:100AC00048BF10F1000F01BD4DF808EDFFF7F4FF2E
:100AD0000CBF012000205DF808FB00BF4DF808EDB9
:100AE000FFF7EAFF34BF012000205DF808FB00BFDC
:100AF0004DF808EDFFF7E0FF94BF012000205DF8FE
:100B000008FB00BF4DF808EDFFF7CEFF94BF0120B2
:100B100000205DF808FB00BF4DF808EDFFF7C4FFAB
:100B200034BF012000205DF808FB00BF4FEA410CF4
:100B30007FEA6C5C02D150EA013C0AD14FEA430CD7
:100B40007FEA6C5C02D152EA033C02D14FF0000014
:100B500070474FF0010070474FEA410212F5001252
:100B600015D211D56FF47873B3EB625212D94FEAF4
:100B7000C12343F0004343EA505311F0004F23FADE
:100B800002F018BF404270474FF00000704750EA33
:100B9000013005D111F0004008BF6FF000407047F0
:100BA0004FF00000704700BF4A0011D212F500124A
:100BB00011D20DD56FF47873B3EB62520ED44FEAB5
:100BC000C12343F0004343EA505323FA02F0704735
:100BD0004FF00000704750EA013002D14FF0FF3073
:100BE00070474FF0000070474FEA4102B2F1E04316
:100BF00024BFB3F5001CDCF1FE5C0DD901F0004C04
:100C00004FEAC0024CEA5070B2F1004F40EB830053
:100C100008BF20F00100704711F0804F21D113F17F
:100C20003872BCBF01F00040704741F480114FEAB8
:100C30005252C2F11802C2F1200C10FA0CF320FA41
:100C400002F018BF40F001004FEAC1234FEAD3235E
:100C500003FA0CFC40EA0C0023FA02F34FEA4303C8
:100C6000CCE77FEA625307D150EA01331EBF4FF051
:100C7000FE4040F44000704701F0004040F0FE406C
:100C800040F40000704700BF53B94AB9002908BFBB
:100C900000281CBF4FF0FF314FF0FF3000F0A6B925
:100CA000ADF1080C6DE904CE00F03CF8DDF804E08D
:100CB000DDE9022304B0704738B500220023044662
:100CC0000D46FFF70BFF28B920462946BDE83840FE
:100CD00000F00AB8204605F1004100F005F8404256
:100CE00061EB410138BD00BFD0B50C4B0022064678
:100CF0000F46FFF781FCFFF757FF0446FFF702FCA2
:100D0000074B0022FFF778FC02460B463046394677
:100D1000FFF7BAFAFFF748FF2146D0BD0000F03DCB
:100D20000000F0412DE9F047089E0D4604460F46AD
:100D3000002B4AD18A42944665D9B2FA82F343B174
:100D400002FA03FCC3F120029F4020FA02F217438B
:100D50009C404FEA1C4E1FFA8CF5B7FBFEF1220CAB
:100D60000EFB117742EA074201FB05F090420AD9D7
:100D70001CEB020201F1FF3780F01C81904240F22F
:100D8000198102396244121AA4B2B2FBFEF00EFBC2
:100D9000102244EA024400FB05F5A5420AD91CEBE7
:100DA000040400F1FF3280F00781A54240F2048183
:100DB0006444023840EA0140641B00211EB1DC405B
:100DC0000023C6E90043BDE8F0878B4208D9002E16
:100DD00000F0ED800021C6E900050846BDE8F08777
:100DE000B3FA83F1002949D1AB4202D3824200F227
:100DF000F880841A65EB030201201746002EE2D02A
:100E0000C6E90047DFE702B9FFDEB2FA82F3002B42
:100E100040F090808A1A4FEA1C471FFA8CFE01218D
:100E2000B2FBF7F507FB1520220C42EA00420EFB4D
:100E300005F0904208D91CEB020205F1FF3802D2FE
:100E4000904200F2CB804546121AA4B2B2FBF7F0F2
:100E500007FB102244EA02440EFB00FEA64508D917
:100E60001CEB040400F1FF3202D2A64500F2BB8065
:100E70001046A4EB0E0440EA05409FE7C1F12007AD
:100E80008B4022FA07FC4CEA030C05FA01F420FA25
:100E900007F3FD404FEA1C492343B5FBF9F81FFA5D
:100EA0008CFE09FB18551C0C44EA054408FB0EF5A2
:100EB000A54202FA01F200FA01F00BD91CEB04047E
:100EC00008F1FF3A80F08880A54240F28580A8F1C1
:100ED00002086444641B9DB2B4FBF9F309FB13449C
:100EE00045EA044403FB0EFEA64508D91CEB0404A6
:100EF00003F1FF356CD2A6456AD9023B644443EA4C
:100F00000843A3FB0295A4EB0E04AC42C846AE46D0
:100F100056D353D056B1B0EB080264EB0E0404FA7A
:100F200007F7CA40CC401743C6E9007418460021B1
:100F3000BDE8F087C3F1200102FA03FC20FA01F2B8
:100F400025FA01F19D402A434FEA1C471FFA8CFE07
:100F5000B1FBF7F007FB1015110C41EA054100FB4E
:100F60000EF58D4204FA03F408D91CEB010100F1DF
:100F7000FF382FD28D422DD902386144491B92B2DD
:100F8000B1FBF7F507FB151142EA014205FB0EF133
:100F9000914208D91CEB020205F1FF3816D29142AA
:100FA00014D9023D6244521A45EA004138E73146FD
:100FB000304608E73946E6E61046FBE64845A9D242
:100FC000B9EB020865EB0C0E013BA3E74546EAE7E7
:100FD0002B4694E74046D1E7D0467BE7023D62448A
:100FE00032E708460AE76444023842E7704700BF28
:100FF00010B582B01048022402F094FB0F4A00940E
:1010000001230C210E4802F09DFB0E4804F086FBE4
:101010000D4801F0A5FB0D4800F062FA0C4800F005
:10102000BBFA0C4800F0AEFE02F054FB0A4802B0D6
:10103000BDE8104002F086BB3014002094AC0008DC
:10104000A8AC0008D812002080120020EC13002069
:10105000A813002064130020D0AC000808B5084C89
:1010600001F0E2F902F068FA00F060FE01F03EFCE7
:1010700000F04CFA02F030FB204603F0CFFAEFE725
:101080007412002008B501F09BF900F095FA00F009
:101090006BF802F03DFA01F0A1FCBDE8084002F057
:1010A00039BB00BF10B5044601F0E4F8204600F05B
:1010B0008BFA204600F06EF82046BDE8104002F0A2
:1010C00045BB00BF10B5044601F042F9204602F0CE
:1010D00027FA1B48012103F06FFA012811D0194AA1
:1010E0001948138801339BB20021F92B138001802A
:1010F00006D9164B11801A78012A19D000221A70CD
:1011000010BD114A0F4C138801339BB20021952B5F
:1011100021801380F4D90D4B11801A782AB90C491B
:101120000C4C0A68207001320A6001221A7010BD4E
:101130000948084C0268217001320260DEE700BFF6
:1011400000000240380200203A0200202C02002059
:10115000300200200000002034020020014B1878EB
:10116000704700BFC4020020074A0848136801689E
:101170000133136039B15B1A042B04D9044A0121ED
:101180000023117003607047C8020020D0020020C5
:10119000C40200200E4B02681B681968914200D0FF
:1011A000704710B50B4C0C4922781846531C23701D
:1011B0000A4B0C789C54012204F02AFD0849094A84
:1011C000094C0A4B09681160002220701A7010BD8A
:1011D000CC020020C00200203C020020400200207F
:1011E000C8020020D0020020C5020020C402002056
:1011F0002DE9F041994DDFF8B8822C6814B9D8F880
:1012000000402C60964F974E00233B7033780D2B97
:1012100000F21381DFE813F02B003C006700490067
:101220005600780085009500A500B500C400D300E5
:10123000E2000E008C4B1B78002B40F0F480D8F8B5
:1012400000301B1BB3F5967F884B1A7840F2D8808C
:10125000022A40F2DC808649864800220A70022178
:1012600002702A601A7032703970BDE8F081824ACB
:10127000824B1068824900221A700F23042204F066
:1012800019FC002840F0C180D8F800300122B3E0FA
:10129000754B1B78002BD2D07A497B4806F012FEA2
:1012A0000028CCD002233370C9E76F4B1B78002B8A
:1012B000C5D07649744806F005FE0028BFD0042347
:1012C0003370BCE76C4A6D4B1068714900221A708C
:1012D0000F23042204F0EEFB002840F09680D8F89B
:1012E0000030052288E0644A644B10686949002296
:1012F0001A700F23042204F0DDFB002840F08580E3
:10130000D8F80030032277E0574B1B78002B96D09B
:101310005E495D4806F0D6FD002890D00623337064
:101320008DE7554A554B10685B4900221A700F2310
:10133000042204F0BFFB002867D1D8F80030072250
:101340005AE0494B1B78002B3FF479AF4F494E4888
:1013500006F0B8FD00283FF472AF08232C68337004
:101360006DE7454A454B10684C4900221A700F231F
:10137000042204F09FFB002847D1D8F8003009224E
:101380003AE0394B1B78002B3FF459AF3F493E48B8
:1013900006F098FD00283FF452AF0A2333704EE761
:1013A000354A364B10683E4900221A700F2304223A
:1013B00004F080FB48BBD8F800300B221CE02A4B1D
:1013C0001B78002B3FF43BAF36492F4806F07AFDDF
:1013D00000283FF434AF0C23337030E7264A274B04
:1013E0001068314900221A700F23042204F062FBB6
:1013F00058B9D8F800300D222B601C4B32701A7887
:10140000022A3FF628AFBDE8F0812C6817E70132C9
:101410001849D2B21A70164A00230B7013702B6051
:101420003370BDE8F0812149174806F04BFD0028D4
:101430003FF405AF0E23337001E7D8F800000B4BE3
:101440000C4900222A601A703270B0F5967F4FF076
:1014500001023A700A70DDD807E700BFD802002009
:10146000C2020020C1020020C4020020D4020020D9
:10147000C3020020C6020020CC020020C0020020CF
:10148000F0AC0008F8AC00084002002008AD0008ED
:1014900014AD0008FCAC000820AD00082CAD00081D
:1014A00038AD000844AD000850AD00085CAD000840
:1014B000C802002010B5084B084C86464FF0000CBF
:1014C0000A4683F800C0206871460F2304F0F2FA40
:1014D000003818BF012010BDC0020020CC0200203F
:1014E00008B5044B04491860012204F091FB034B3A
:1014F000187008BDCC0200203C020020C50200206C
:10150000014B1878704700BFC302002010B50F4C84
:10151000237893B90E4B1B78012B01D0FFF768FE9F
:101520000C4B1B78012B03D00B4B1B78012B00D1EC
:1015300010BDBDE81040FFF75BBE084B08491868B6
:10154000012204F065FB2070E4E700BFC502002023
:10155000C2020020C3020020C6020020CC020020EC
:101560003C0200200B4B93F82920022A02D993F861
:10157000282032B900220023C0E90023C1E900235A
:10158000704793ED027B80ED007BD3E90623C1E930
:1015900000237047E002002008B5044B044918609E
:1015A000012204F035FB034B187008BDC003002076
:1015B000B9030020B8030020024A13680133136006
:1015C000704700BFBC03002038B5204B1C6803687F
:1015D00022689A4200D038BD1D4D1E4829781E4B06
:1015E000662202FB010293F800C092F8643002F810
:1015F00003C00133DBB2BCF10A0F82F8643018D0AB
:101600000E290AD8662303FB010090F86430632B8F
:1016100007D9002380F8643003E00F2904BF0023BA
:101620002B700D490122204604F0F2FA0B4B187082
:1016300038BD134413F8023C0D2BE1D10131C9B27E
:101640000123297082F86530DAE700BFC00300206B
:10165000BE090020C4030020B9030020B803002005
:101660002DE9F04F2DED028B0C4683B02C2106F0B6
:10167000AEFB451C284604F001FD2C2120602846C5
:1016800006F0A5FB10F8013F23712C2106F09FFB0B
:101690000130019004F0E8FC0198B0EE408AF0EED1
:1016A000608A84ED020B2C2106F091FBB0EE480A13
:1016B000F0EE680A46782C2E9FED731B054600F06D
:1016C000C08009F09BF972A3D3E9002351EC180BF9
:1016D00059EC108BFEF790FFFFF766FAC0B2FEF7E9
:1016E00011FF6D4B82468B464FF011324046494602
:1016F000FEF782FF0B46024659465046FEF7C6FDEE
:1017000006F0FB03532B02D101F100431946C4E953
:10171000020126742C21681C06F059FB451C284642
:1017200004F0A5FC10EE100AFEF70EFF06460F4669
:101730002846C4E906672C2106F049FB90F8018091
:10174000B8F12C0F9FED501B47EC106B054656D09F
:1017500009F054F94EA3D3E90023304639465BEC37
:1017600010ABFEF749FFFFF71FFAC0B2FEF7CAFE43
:10177000494B06460F464FF0113250465946FEF788
:101780003BFF0B46024639463046FEF77FFD08F028
:10179000FB03532B02D101F100431946C4E90601B2
:1017A00084F820802C21681C06F011FB0130019088
:1017B00004F05DFC2C21019884ED090A06F007FB7A
:1017C000013004F054FCD4E90C32217984ED0A0A8A
:1017D000013342F100024129C4E90C320AD10FCC95
:1017E0002E4D0FC50FCC0FC50FCC0FC594E80300CD
:1017F00085E8030003B0BDEC028BBDE8F08F09F073
:10180000FDF823A3D3E90023304639465BEC10AB47
:10181000FEF7F2FEFFF7C8F9C0B2FEF773FE1E4BEB
:1018200006460F46504659464FF01132FEF7E4FE89
:1018300002460B46304639464FF03F08FEF726FD7C
:10184000ACE709F0DBF812A3D3E9002351EC180B45
:101850005BEC10ABFEF7D0FEFFF7A6F9C0B2FEF7C7
:1018600051FE0D4B80468946504659464FF0113285
:10187000FEF7C2FE02460B46404649463F26FEF7AB
:1018800005FD44E7AFF30080000000000000594070
:101890007B14AE47E17A843F1111913F8003002011
:1018A0002DE9F04F2DED028B0C4683B02C2106F074
:1018B0008EFA451C284604F0E1FB2C2120602846C6
:1018C00006F085FA0130019004F0CEFB0198B0EEED
:1018D000408AF0EE608A84ED020B2C2106F077FA44
:1018E000B0EE480AF0EE680A46782C2E9FED7E1B7B
:1018F000054600F0B38009F081F87DA3D3E9002309
:1019000051EC180B59EC108BFEF776FEFFF74CF9F3
:10191000C0B2FEF7F7FD784B82468B464FF011328E
:1019200040464946FEF768FE0B4602465946504679
:10193000FEF7ACFC06F0FB03532B02D101F1004390
:101940001946C4E9020126742C21681C06F03FFAEE
:10195000451C284604F08BFB10EE100AFEF7F4FD40
:1019600006460F462846C4E906672C2106F02FFAE2
:1019700090F80180B8F12C0F9FED5B1B47EC106BCA
:10198000054600F08C8009F039F859A3D3E900230B
:10199000304639465BEC10ABFEF72EFEFFF704F93C
:1019A000C0B2FEF7AFFD544B06460F464FF0113262
:1019B00050465946FEF720FE0B4602463946304651
:1019C000FEF764FC08F0FB03532B02D101F1004346
:1019D0001946C4E9060184F820802C21681C06F011
:1019E000F6F9451C284604F045FB2C2184F8280014
:1019F000284606F0ECF9451C284604F03BFB2C2158
:101A000084F82900284606F0E2F90130019004F03C
:101A10002EFB2C21019884ED0B0A06F0D8F9013039
:101A200004F025FBD4E90C3294F8281084ED090A5F
:101A3000013342F10002C4E90C3251B10FCC2F4DF9
:101A40000FC50FCC0FC50FCC0FC594E8030085E878
:101A5000030003B0BDEC028BBDE8F08F08F0CEFFB1
:101A600023A3D3E9002351EC180B5BEC10ABFEF77A
:101A7000C3FDFFF799F8C0B2FEF744FD1E4B804648
:101A80008946504659464FF01132FEF7B5FD0246E1
:101A90000B46404649463F26FEF7F8FB51E708F063
:101AA000ADFF13A3D3E90023304639465BEC10ABFE
:101AB000FEF7A2FDFFF778F8C0B2FEF723FD0E4B4C
:101AC00006460F46504659464FF01132FEF794FD38
:101AD00002460B46304639464FF03F08FEF7D6FB2C
:101AE00077E700BFAFF3008000000000000059401E
:101AF0007B14AE47E17A843F1111913F30030020FF
:101B000070B50E4682B02C2106F061F910F8013F45
:101B100033702C2106F05BF9441C204604F0AAFA2D
:101B20000C25707000E0441C2C21204606F04FF973
:101B30006B1E13F0FF05F6D12C21013006F047F99A
:101B40000130019004F093FA019886ED010A2C21EE
:101B500006F03DF90130019004F089FA2C2101983A
:101B600086ED020A06F033F9013004F080FAD6E976
:101B70000432717886ED030A013342F10002012933
:101B8000C6E9043206D90FCE034C0FC496E8030011
:101B900084E8030002B070BD680300202DE9F04F17
:101BA000564C574FDFF87C91DFF87C8183B004F20C
:101BB000FA5602E06634B4427DD094F86530002BCA
:101BC000F8D049464FF0000B204687F800B006F0E9
:101BD0001DF90546C8F80000FEF74AFB494B8DF891
:101BE00006B05FFA80FAAAF103011B88ADF8043051
:101BF00001297BDDAAF11003F22B63D85B46AAF121
:101C0000040C4FEA9C0B6A1C9E4652F8040B0133ED
:101C10005B4580EA0E0EF8D3CEF30722CEF30743DE
:101C20008EEA02025A400CF0FC0382EA1E62581C43
:101C30001CF0030FD2B2C0B20ED0285C4240981CF8
:101C4000C0B2884208DA0333285CDBB2994282EAE8
:101C5000000201DDEB5C5A4055442B4901A806F017
:101C60004BF89DF8042015F8023C9A4226D19DF8C5
:101C7000052015F8013C9A4220D1D8F8005023499C
:101C80000123042228463B7006F0AEF820B3204919
:101C90000422284606F0A8F818B31E490422284654
:101CA00006F0A2F820B30023A4F8643066340222C0
:101CB000B4423A7081D103B0BDE8F08F0023A4F89C
:101CC000643077E75A460123E85C0133DBB28B428C
:101CD00082EA0002F8DBBFE70F492846FFF710FF52
:101CE000E1E70E492846FFF7DBFDDCE75A46B3E79C
:101CF0000B492846FFF7B4FCD5E700BFC40300201A
:101D00000100002090AC000868AD000870AD00082C
:101D100078AD000880AD000818030020E002002024
:101D2000C80900202CC50008C009002010B5094CC6
:101D300023781BB9BDE81040FFF730BF064B0749B9
:101D40001868012203F064FF2070BDE81040FFF71F
:101D500025BF00BFB8030020C0030020B903002046
:101D6000014B1878704700BF060A0020014B18701D
:101D7000704700BF060A0020014B1878704700BF6B
:101D80001C0A002070B5254C25492060012203F073
:101D90003FFF244B244D1870244B254800214FF45D
:101DA00000721970298006F00AF822492068282359
:101DB0000C2203F07FFE30B91F4801F0C3FC4FF442
:101DC000FA7002F0F1F91D4C1D481D4D0122102141
:101DD00002F0F8FB266806E002F0E6F923689B1B98
:101DE000B3F5487F15D22021284602F0E5FB0346D3
:101DF00001208342F0D1134801F0A4FC10480022D6
:101E0000102102F0DFFBBDE870404FF47A7002F061
:101E1000CBB90D4801F096FCEDE700BF180A002091
:101E20002E0A0020040A00202C0A00201C0A002090
:101E3000300A002088AD000898AD0008080A00208C
:101E400000100240D0AD0008B4AD00082DE9F0410B
:101E50009E4D9F4F2C6882B00CB93C682C60DFF817
:101E6000BC829C4E002388F800303378112B00F29E
:101E7000AE81DFE813F02E004D005B006A017A01AD
:101E8000F70007011C01550170007F009300A000BE
:101E9000B400C100D600E20012008F4B1B78002B6B
:101EA00040F080818D4B39680C1BB4F5FA7F29D343
:101EB0001A78022A40F26E818948002202212A60A3
:101EC0001A70327088F8001002B0BDE8F04101F0DD
:101ED00039BC844B8448002119807F4B4FF4007239
:101EE000197005F06CFF814B814918680622282380
:101EF00003F0E0FD00282CD133783A682A600133E2
:101F00003370764B1A78022AD6D802B0BDE8F08139
:101F1000714B1B78002BC5D07649734805F0D2FF72
:101F20000028BFD0022333706C4BBCE76D4B6E486A
:101F300000211980684B4FF40072197005F03FFFC3
:101F40006A4B6D4918680B22282303F0B3FD002863
:101F5000D2D02C68A6E7604B1B78002BA2D0674933
:101F6000614805F0AFFF002800F02E810A2333708E
:101F70005A4B98E75B4B5C4800211980564B4FF455
:101F80000072197005F01BFF584B5D4918680D224F
:101F9000282303F08FFD0028AED0DAE74E4B1B78E4
:101FA000002B3FF47FAF53494F4805F08BFF0C23C4
:101FB00033704A4B77E74B4B4B4800211980464B17
:101FC0004FF40072197005F0FAFE484B4D4918683D
:101FD0000A22282303F06EFD00288DD0B9E73E4B7E
:101FE0001B78002B3FF45EAF42493F4805F06AFF83
:101FF00012233370394B56E73A4B3B480021198086
:10200000354B4FF40072197005F0D9FE374B3E493D
:1020100018680B22282303F04DFD00283FF46CAF15
:1020200097E72D4B1B78002B3FF43CAF31492E48EE
:1020300005F048FF002845D134E72A4B2A48002103
:102040001980254B4FF40072197005F0B8FE274B2C
:102050002E4918680C22282303F02CFD00283FF499
:102060004BAF76E71C4B1B78002B3FF41BAF284986
:102070001D4805F027FF00283FF414AF06233370F6
:10208000164B10E7174B184800211980124B4FF4DC
:102090000072197005F093FE144B1E4918680A224D
:1020A000282303F007FD00283FF426AF51E70A4B31
:1020B0001B78002B3FF4F6AE17490B4805F002FFE2
:1020C000002877D008233370044BECE6000A002088
:1020D000080A0020320C00201C0A00202A0A0020D6
:1020E000A0AE00082C0A0020300A0020180A0020A8
:1020F000E8AD0008F8AC0008F0AD00084CAE0008F0
:1021000068AE000878AE000834AE000858AE00088B
:1021100008AE000810AE00081CAE0008060A002039
:10212000324B334800211980324B4FF40072197042
:1021300005F045FE304B314918680B22282303F087
:10214000B9FC00283FF4D8AE03E72A4B1B78002BDC
:102150003FF4A8AE2A49264805F0B4FE00283FF413
:10216000A1AE04233370274B9DE6204B204800216D
:102170001980204B4FF40072197005F020FE1E4BA1
:10218000214918680A22282303F094FC00283FF410
:10219000B3AEDEE601321A7000232960337002B05C
:1021A000BDE8F0811649124805F08CFE00287FF446
:1021B000DDAE77E615490E4805F084FE002881D192
:1021C0000E2333700F4B6EE610233370C1E60D4BB8
:1021D0000F48019300221A702A603270012288F899
:1021E000002001F0AFFA2C68019B5CE62C0A00206D
:1021F000300A00201C0A0020180A002040AE000807
:10220000F8AC00082A0A0020FCAD000828AE00083F
:1022100084AE000838B50D4B0D4D002104464FF437
:1022200000720C482980197005F0C9FD2046FEF7A0
:102230001FF8094902462823086892B2214603F094
:1022400039FC003818BF012038BD00BF1C0A00202F
:102250002C0A0020300A0020180A0020014608B588
:10226000034805F02FFE003818BF012008BD00BF4D
:10227000300A00200E4B02681B681968914200D09A
:10228000704710B50B4C0C4922881846531C23800C
:102290000A4B0C789C54012203F0BAFC084A094C02
:1022A0001168094B20700022C3E9001210BD00BF65
:1022B000180A00202C0A00202E0A0020300A0020D4
:1022C000080A0020040A0020200A00202DE9F84313
:1022D0001B4B8D090024A1EB85111C80194B064670
:1022E000CFB219481C704FF4007221464FEA85198D
:1022F00005F065FD0DB3DFF85480D8F8000006EB5B
:1023000084111E230134402203F0D4FBE3B2AB421C
:102310001C46F2D327B9003818BF0120BDE8F88366
:102320000A4A1E23106806EB09013A4603F0C2FB75
:10233000003818BF0120BDE8F8832846EAE700BF4F
:102340002C0A00201C0A0020300A0020180A002055
:10235000154A1648D2E90031013310B541F10004A5
:102360002021C2E9003402F027F901280DD0104ADB
:102370001048138801339BB20021962B13800180F3
:1023800002D90D4B1180197010BD0A4A084C1388F0
:1023900001339BB20021962B21801380F4D9064B88
:1023A0001180187010BD00BF100A002000100240FC
:1023B000280A0020300C0020050A00200000000040
:1023C00010B41149114CD1E9000223680133236094
:1023D00050EA020406D01B1A62EB42020A2B72F189
:1023E000000202D25DF8044B70479FED057B084B5D
:1023F00001221A7081ED007B5DF8044B704700BF2D
:102400000000000000000000200A0020080A002050
:102410001C0A0020024B03491A8805F0DFBD00BFEB
:102420002C0A0020300A002038B51A4B1B78012BEB
:1024300017D00024012210211748184D02F0C2F8CD
:1024400020462C7000F0DEFA204600F0CFFA20463D
:10245000134C00F0D1FA23786BB92B78012B14D1EF
:1024600038BD0F4C0C480D4D0022102102F0AAF887
:102470002378002BF1D00B4B0B491868012203F095
:10248000C7FB2B782070012BEAD0BDE83840FFF75E
:10249000DDBC00BF050A002000100240060A002033
:1024A000040A0020180A00202E0A002010B50C464D
:1024B00082B0014658224E4805F090FDE37822781C
:1024C0004C4822F00F0203F007034FF0200C134397
:1024D000082100228DF807C08DF8063002F072F84E
:1024E0000A2301220DF10701414802F06FFC0A2383
:1024F00001220DF106013E4802F068FC3D48012230
:10250000082102F05FF8A37862783A4802F03802B6
:10251000242123F03F0313438DF8071000220821E4
:102520008DF8063002F04EF80A2301220DF1070162
:102530002F4802F04BFC0A2301220DF106012C4822
:1025400002F044FC2B480122082102F03BF82379D9
:10255000FBB96378202B15D8DFE803F03E14141480
:1025600014141414421414141414141446141414CB
:102570001414141411141414141414143A001E4BCB
:102580001E4A1A601B480122082102F01BF802B003
:1025900010BD88238DF80630164823230022082119
:1025A0008DF8073002F00EF80DF107010A23012221
:1025B0000F4802F00BFC0DF1060101220A230C4822
:1025C00002F004FC0B480122082101F0FBFFC0E7E8
:1025D000094B0B4A1A60D5E7074B0A4A1A60D1E744
:1025E000054B094A1A60CDE7034B084A1A60C9E750
:1025F000400C002000100240100000208FC2753EE9
:1026000048E13A3F8FC2753D8FC2F53DEC51383EEF
:102610002DE9F043494E4A4F89B0A82330460022A5
:1026200008218DF8143001F0CDFF05A90A230122FD
:10263000384602F0CBFB0A2305A90222384602F0F5
:102640006DFE30460122082101F0BCFF3046AA236E
:10265000002208219DF814409DF815908DF8143043
:1026600001F0B0FF05A90A230122384602F0AEFBB3
:102670000A2305A90222384602F050FE3046012204
:10268000082101F09FFF3046AC23002208219DF86D
:1026900014509DF815808DF8143001F093FF05A9B2
:1026A0000A230122384602F091FB05A90A23384685
:1026B000022202F033FE30460122082101F082FF9F
:1026C0009DF815109DF814301E4A05EB082592ED73
:1026D000006A1D4A03EB01231C49D2ED005AD1EDDB
:1026E000004A1B4A1B4992ED000A91ED005A1A4A12
:1026F0001A4992ED001AD1ED000A2DB207EE105AD8
:1027000004EB092424B21BB2F8EEC76A07EE904A24
:1027100007EE103A66EE255A26EE055AF8EEE77AED
:10272000B8EEC77A26EE246AD6EE850A97EE061A28
:1027300097EEA50A09B0BDE8F08300BF0010024083
:10274000400C002010000020040000200C0000209D
:10275000340C0020080000203C0C0020380C002025
:102760000F49104A08B501230A600B71FFF79EFE5E
:102770000D4B0E4A1A600E490E4B0F480F4ADFF8F8
:1027800050E01A60C1F800E0DFF848C00C490D4B7A
:102790000D4AC0F800C00D4808601A6008BD00BFAF
:1027A0009C0C00206020C007340C0020000020C1D9
:1027B000380C002008000020040000202F8B783FF8
:1027C0003C0C00200C000020BC9C823F00007042AA
:1027D00000002041FD4A813F01EB41012DE9F84312
:1027E00000EB8106D6ED007A3B4FF0EEE77A17EE6C
:1027F000900AA6F10C041546FDF7A6FED4ED007A6A
:10280000F0EEE77A804617EE900A8946FDF79CFEC7
:1028100002460B4640464946FDF736FD21F000438F
:102820000246C7E90023194600222C4BFEF774F933
:1028300010B12B8801332B80D6ED017A284FF0EEB2
:10284000E77A17EE900AFDF77FFED4ED017AF0EEFD
:10285000E77A804617EE900A8946FDF775FE024634
:102860000B4640464946FDF70FFD21F00043024666
:10287000C7E9002319460022184BFEF74DF910B1A5
:102880006B8801336B80D6ED027AF0EEE77A17EEB3
:10289000900AFDF759FED4ED027AF0EEE77A06468B
:1028A00017EE900A0F46FDF74FFE02460B463046E4
:1028B0003946FDF7E9FC0B4B21F000470646C3E91A
:1028C00000670022084B3946FEF726F910B1AB88A5
:1028D0000133AB80BDE8F883100F002000004440B6
:1028E000180F0020200F00200000494070B582B072
:1028F000A72333488DF804300022082101F062FE3E
:102900000A23012201A92F4802F060FA0A230122BA
:1029100001A92C4802F002FD01222948082101F0FA
:1029200051FE9DF80430284A13701B0701D402B0F1
:1029300070BD264D264E2C78FFF76AFE297804EBF1
:10294000440406EB8404012984ED000AC4ED010A65
:1029500084ED021A11D80131C9B231290AD91D4AB0
:1029600013780133DBB20021022B29700FD81370CA
:1029700002B070BD297002B070BD174A3046FFF733
:102980002BFF29780131C9B23129E8D8F2E7124B7F
:1029900011701A880A2A02D99A7901329A715A88D2
:1029A0000A2A02D9DA790132DA719A880A2A02D916
:1029B0001A7A01321A7200221A609A80B7E700BFB1
:1029C00000100240400C00200A0F0020FC0E0020E6
:1029D000A40C0020980C0020000F0020024A13686D
:1029E00001331360704700BF0C0F0020014B1870BB
:1029F000704700BF2A0F0020014B1870704700BFBE
:102A0000290F0020014B1870704700BF280F0020CD
:102A10002DE9F84F584EDFF870913568DFF86CA15A
:102A20000024032C00F099804846FFF7F3FB78B1AF
:102A300033685A1BB2F5C87FF6D31D460134042C07
:102A4000EFD101274D4800F07DFE3846BDE8F88FF4
:102A50003768FFF791F940B93568EB1BB3F5C87FCC
:102A6000ECD2FFF789F90028F6D05046FFF7F6FBC5
:102A7000002860D03568EB1BB3F5C87FDED2DFF8E5
:102A800010814046FFF7C6FB48B13568EB1BB3F534
:102A9000C87FD3D24046FFF7BDFB0028F5D1D6F85A
:102AA0000080FFF769F948B93568A5EB0803B3F56D
:102AB000C87FC3D2FFF760F90028F5D05046FFF772
:102AC000CDFB002843D03568A5EB0803B3F5C87FDC
:102AD000B4D2DFF8C0B05846FFF79CFB074658B1A8
:102AE0003568A5EB0802B2F5C87FA7D25846FFF7B4
:102AF00091FB07460028F3D1D6F80080FFF73CF998
:102B000048B93568A5EB0803B3F5C87F96D2FFF73F
:102B100033F90028F5D05046FFF7A0FB88B135689F
:102B2000A5EB0808B8F5C87F88D2154800F00AFE62
:102B30003846BDE8F88F1348FFF790FB002899D17D
:102B40008AE71048FFF78AFB0028E8D1D9E70D484B
:102B5000FFF784FB0028B6D1A6E74846FFF75AFBEB
:102B600000283FF46EAF33685D1BB5F5C87FFFF4F6
:102B700068AF1D4662E700BF400F00204CBF000851
:102B800024BF0008D4BE0008B4BE0008F8AC00089A
:102B9000DCBE000800BF00082DE9F04F9D4D9E4FA0
:102BA0002B68DFF88482DFF884A283B000243846E3
:102BB0000193FFF72FFB019B80B9032C2E6815D0E2
:102BC000DFF86C92FFF7D8F8C0B92A68931BB3F509
:102BD000C87FF7D30134E4B21346E8E72A68D11A74
:102BE000B1F5C87FC0F01281032CF3D18B4800F0FF
:102BF000A9FD0126304603B0BDE8F08F4046FFF73F
:102C00002DFB00285BD02A68931BB3F5C87FE1D267
:102C1000DFF8209240F2A4414846FFF757FB002816
:102C200058D12E68DFF8109204E02A68931BB3F5A0
:102C3000C87FCFD2FFF7A0F80028F6D04846FFF7AC
:102C40000DFB0028F1D02A68931BB3F5C87FC1D2D1
:102C5000DFF8E8914846FFF7DDFA002840D12E68FA
:102C6000DFF8CC91FFF788F840B92A68931BB3F5D9
:102C7000C87FAFD2FFF780F80028F6D04046FFF7B4
:102C8000EDFA002858D02A68931BB3F5C87FA1D26B
:102C9000DFF8AC9140F2C3414846FFF717FB28BB71
:102CA000D5F800905E4EFFF767F828BB2B68A3EBC2
:102CB0000902B2F5C87FF6D30134E4B277E7504693
:102CC000FFF7CCFA0028BED14846FFF7C7FA002824
:102CD000B9D17AE72A68931BB3F5C87F9AD379E70D
:102CE0002A68931BB3F5C87FB4D373E72B689A1B8C
:102CF000B2F5C87FE0D2CDE73046FFF7AFFA002843
:102D0000D4D02B68A3EB0902B2F5C87FD4D2DFF888
:102D100034B15846FFF77EFA064628BBD5F8009036
:102D2000DFF80CB1FFF728F828BB2B68A3EB0902EA
:102D3000B2F5C87FC0D2F5E75046FFF78FFA38B139
:102D40002A68931BB3F5C87FBFF444AF33462EE720
:102D50004846FFF783FA2B689A1B002851D0B2F53A
:102D6000C87FA9D2334622E72B68A3EB0902B2F54C
:102D7000C87FA1D2CDE74046FFF770FAB0B32B6809
:102D8000A3EB0902B2F5C87F96D2DFF8BCB040F2DF
:102D90008F615846FFF79AFA68B9D5F80090DFF8C6
:102DA000ACB0FEF7E9FF70B92B68A3EB0902B2F5EE
:102DB000C87F81D2F5E72B68A3EB0902B2F5C87F83
:102DC000BFF47AAFE3E75846FFF748FA0028EBD0A4
:102DD0002B68A3EB0909B9F5C87FBFF46DAF1148A3
:102DE00000F0B0FC304603B0BDE8F08F5046FFF76E
:102DF00035FA0028ECD15846FFF730FA0028E7D121
:102E000093E7B2F5C87FBFF457AF2BE7032C7FF4ED
:102E1000CEAEEBE6400F002074BF0008A0BF000854
:102E200034C0000890C00008C8BF0008D0BF000828
:102E3000E0BF0008BCAE0008ECBF000804C00008FA
:102E400060B300084CC0000824B8000878C000082F
:102E50002DE9F041824CDFF894822368814E0022F4
:102E600088F800200BB9336823607F4D2B78112B35
:102E700000F2EA80DFE813F030004300D000BC002D
:102E8000C6009700A000A900B20053005B006400D8
:102E90006C0075007D0086008E001200734800F003
:102EA00051FCFEF769FF002830D1714F326823686A
:102EB000D31AB3F5FA7F1DD33B78022B40F2BD80C5
:102EC0000023022223603B702B7088F800206948A1
:102ED000BDE8F04100F036BC674800F033FC6748BD
:102EE000FFF798F90028E0D12B783268604F226014
:102EF00001332B703B78022BE2D8BDE8F0816048AB
:102F000000F020FCFEF738FF0028CED05D48FFF728
:102F1000A5F90028C9D02B7801332B70C5E75A4892
:102F200000F010FCFEF728FF0028BED0EEE757485F
:102F300000F008FC5648FFF76DF90028D4D0B4E73C
:102F4000544800F0FFFBFEF717FF0028ADD0DDE787
:102F5000514800F0F7FB5148FFF75CF90028C3D057
:102F6000A3E74F4800F0EEFBFEF706FF00289CD0D9
:102F7000CCE74C4800F0E6FB4B48FFF74BF9002844
:102F8000B2D092E7494800F0DDFBFEF7F5FE0028DD
:102F90008BD0BBE7464800F0D5FB4648FFF73AF92F
:102FA0000028A1D081E7444800F0CCFBFEF7E4FE06
:102FB00000283FF47AAFA9E7404800F0C3FB40483F
:102FC000FFF728F900288FD06FE73E4800F0BAFBE2
:102FD000FEF7D2FE00283FF468AF97E73A4800F0CA
:102FE000B1FB3A48FFF716F900283FF47DAF5CE7E4
:102FF000374800F0A7FBFFF7CFFD00283FF474AF80
:10300000344812E0344800F09DFB3448FFF702F9E1
:1030100000283FF469AF48E7314800F093FBFFF721
:10302000F7FC00283FF460AF2E4800F08BFB122322
:103030002B70022388F8003037E701333B70002300
:1030400022602B70BDE8F081094F274800232360E0
:103050002B703B70012388F8003000F073FB25E7EC
:10306000340F0020400F0020D40F0020A8C3000818
:10307000D00F0020E0C30008B8C00008C4C000089A
:10308000DCC00008F8AC000858C2000870C2000894
:1030900084C20008A0C20008BCC20008D4C2000854
:1030A000F4C2000810C3000828C3000850C3000879
:1030B0006CC3000888C300089CC10008B4C10008A4
:1030C000C8C10008FCC1000814C2000828C20008DA
:1030D00028C1000840C100085CC1000870C1000898
:1030E000F0C0000808C10008C8C30008280F00206D
:1030F0002DE9F043DFF80881374FD8F80030374E1C
:10310000002291B081463A7013B93368C8F8003094
:103110000024334D00943C22214601A804F04FFEC8
:103120002B78012B31D0022B29D0ABB12C70C8F8F1
:103130000040336844F6E7621B1B934208D9002322
:1031400002222848C8F800302B703A7000F0FAFAD2
:10315000002011B0BDE8F0834946234800F0F2FAA0
:1031600022494A46684604F0C7FD6846FFF752F810
:1031700040B92B78D8F8004001332B70D9E7FEF71F
:10318000FBFDA8B9D8F80040D3E74946184800F03D
:10319000D9FAFEF7F1FD0028F4D01648FFF75EF8E3
:1031A00060B12B783268C8F8002001332B70CFE76C
:1031B0001148FFF753F838B93870E3E72870C8F8BA
:1031C000000038700446B4E703232B700B4801233A
:1031D0003B7000F0B7FAD5E7290F0020400F002020
:1031E000D30F002074C40008F8C3000814C40008FA
:1031F00028C40008F8AC000840C4000850C4000807
:10320000300F00202DE9F0473A4B3B4EDFF8188194
:1032100000221A70336890B081468A4613B9D8F8F4
:10322000003033600024354F00943C22214601A831
:1032300004F0C5FD3D78012D34D0022D2DD0A5B16F
:103240003C703460D8F800302D4A1B1B934208D9DB
:103250002C4A2D480023022133603B70117000F08E
:1032600071FA002010B0BDE8F08752464946274861
:1032700000F068FA264953464A46684604F03CFD89
:103280002448694600F05EFA6846FEF7C3FF38B985
:103290003B78346801333B70D4E7FEF76DFD98B995
:1032A0003468CFE71C4800F04DFAFEF765FD0028B2
:1032B000F6D01A48FEF7D2FF68B13B78D8F8002064
:1032C000326001333B70CCE71548FEF7C7FF0D4B6A
:1032D00038B91870E4E70B4B38703060187004464A
:1032E000B0E703223A700F4801221A7000F02AFA60
:1032F000D6E700BF290F0020380F0020D20F002092
:10330000BF2501002A0F002030C5000898C400081E
:10331000B8C40008D0C40008ECC40008F8AC000829
:1033200000C5000810C50008400F00202DE9F04737
:10333000DFF8D091644CDFF8D0A1002389F8003089
:103340002368A0B007460E46154613B9DAF80030D8
:103350002360DFF8B88100217C2201A8009104F0ED
:103360002EFD98F80030042B00F2A880DFE803F06F
:103370001D32465E0300FEF7FFFC002874D1206872
:10338000DAF8003044F6E7621B1A934209D90023A9
:1033900002224E48236088F8003089F8002000F0AF
:1033A000D1F9002020B0BDE8F0873946484800F048
:1033B000C9F948493A46684604F09EFC6846FEF75B
:1033C00029FF0028DBD198F800302068013388F805
:1033D0000030D5E7404800F0B5F9FEF7CDFC0028F5
:1033E000CDD03E48FEF73AFF0028ECD1DAF80030A5
:1033F00088F80000236089F80000D2E71A233146DC
:103400007353374800F09EF9691C89B23046FEF7C5
:103410005DFFE0B1DAF8002022600023002088F888
:10342000003089F8003020B0BDE8F0872D4800F06A
:1034300089F9FEF7A1FC0028A1D02B48FEF70EFF6A
:1034400050BB88F80000206089F8000098E798F8E1
:1034500000302648013388F80030DAF80030236065
:1034600000F070F920688BE72148FEF7F7FE68B19D
:10347000052388F80030012389F800301D4B1E48D1
:1034800000221A7000F05EF9206879E789F80000E0
:103490001A4800F057F972E798F8003018480133DD
:1034A00088F80030DAF80030236000F04BF910485B
:1034B000FEF7D4FE00283FF462AFD9E7002088F879
:1034C000000020605CE700BF3C0F002088C60008B9
:1034D00050C500086CC5000888C50008A0C50008D4
:1034E000A4C50008F4C50008F8AC0008C0C5000871
:1034F00038C600082C0F002048C6000868C600081F
:1035000010C600082B0F0020400F0020D10F002014
:10351000024A136801331360704700BF400F002058
:10352000044AD2E90031013341F10001C2E900311E
:10353000704700BF480F002030B5514B1B78012B5E
:1035400087B008D0FEF70CFC01283FD107B0BDE8DA
:103550003040FFF77DBCFEF70FFC00283CD1494B03
:103560001B78012B47D1484B1B78012B4BD1474B84
:10357000474A19681368CB1AB3F57A7F20D3454CB4
:1035800045482388116045490288454D0133238011
:103590000B88444C0132013B02800B8034A3D3E9F9
:1035A0000023D5E90001FCF771FE33A3D3E9002322
:1035B000C5E90001D4E90001FCF768FEC4E9000197
:1035C000394B1B78012B24D007B030BD002007B049
:1035D000BDE83040FEF7CABB3448FEF73FFE002886
:1035E000BDD0334C2046FEF715FF237B302BB6D0E1
:1035F000244B00221A702F4842F2B32107B0BDE8D5
:103600003040FFF7FFBD2C4807B0BDE83040FFF762
:103610006FBD234D234C29462046FDF7A3FF274BC2
:1036200027491A88274804F067FB95ED007BD4E909
:1036300000018DED047B194A174C164B1288248823
:103640001B880192CDE902011F4A204900942048BD
:1036500004F052FB1E48FCF70BFE1D49821C194862
:1036600092B207B0BDE83040FFF760BEAFF3008014
:103670004BB0389CF9D52C3F2D431CEBE2362A3F4A
:10368000280F00202A0F0020290F0020400F0020C3
:10369000D811002018000020DC11002014000020A8
:1036A00028000020200000202C0F0020A8C60008C1
:1036B000500F0020B4C60008E8C60008160000201D
:1036C000F0C60008E01100203000002004C7000808
:1036D000D80F0020FDF742BD08B5FDF711FF60B11E
:1036E0000A4B1A781AB90A4A1278012A09D000221C
:1036F0001A70BDE80840FDF731BD054B1B78012B62
:1037000000D008BD014A137008BD00BF211200207F
:1037100020120020024A136801331360704700BF73
:103720002412002008B5044B04491860012202F05D
:103730006FFA034B187008BD6C1200207112002044
:10374000701200200FB4002004B0704738B50F4B42
:1037500002681B681968914200D038BD0C4D0D4CB1
:1037600001222946184602F053FA22780A492B789A
:1037700008700A48511CC9B20A2B83542170ECD13D
:10378000FDF798FE0023237038BD00BF6C120020A7
:1037900071120020681200207012002028120020F0
:1037A00072B6BFF34F8F0549054BCA6802F4E06259
:1037B0001343CB60BFF34F8F00BFFDE700ED00E088
:1037C0000400FA050000000010B5002394B0CDE914
:1037D0000933CDE90233CDE904332349009306933D
:1037E000086C224A40F080500864096C01F0805156
:1037F000009100990193116841F4804111601268B1
:103800000F93012002F480421023CDE90B030192B3
:1038100002240A220823CDE90D04089210934022C5
:10382000072308A8CDE911240199139300F0FCFEA9
:1038300080B99FED097B8DED027B9FED097B0346EF
:10384000214602A88DED047B069301F005F908B925
:1038500014B010BDFFF7A4FF0F000000020000002D
:10386000000000000010000000380240007000401E
:103870002DE9804800248DB000F06AFCFFF7A4FF1A
:10388000CDE90644CDE90844B64B00940A941A6B7E
:10389000B54842F010021A631A6B02F0100200924F
:1038A000009A01941A6B42F004021A631A6B02F038
:1038B00004020192019A02941A6B42F080021A6388
:1038C0001A6B02F080020292029A03941A6B42F081
:1038D00001021A631A6B02F001020392039A049424
:1038E0001A6B42F002021A631A6B02F0020204928F
:1038F000049A05941A6B42F008021A631B6B03F0DA
:103900000803182105932246059B00F05BFE9748AB
:103910002246022100F056FE954822464FF2100141
:10392000182500F04FFE4FF6C57203238E48089409
:1039300006A9CDE906234FF0010800F01BFD8A48D7
:103940000DEB05014FF0200A4FF0000BCDE90658B2
:10395000CDE9084400F00EFD834808940DEB050105
:10396000CDE906AB00F006FD42F23D3203237F486D
:1039700008940DEB0501CDE9062300F0FBFC0223C2
:103980007A4806930DEB0501CDE90784099400F010
:10399000F1FC01220023774808940DEB0501CDE9E5
:1039A000062300F0E7FC49F61272032371480894DD
:1039B0000DEB0501CDE9062300F0DCFC4FF2F372BC
:1039C00003236D4808940DEB0501CDE9062300F0B3
:1039D000D1FC04220023684808940DEB0501CDE9D1
:1039E000062300F0C7FC40F6CB620323604808942E
:1039F0000DEB0501CDE9062300F0BCFC4FF21003EE
:103A00005B4806930DEB0501CDE90784099400F0AE
:103A1000B1FC574808940DEB0501CDE906AB00F069
:103A2000A9FC4FF488135048089402220DEB0501BD
:103A3000CDE9062300F09EFC5048514B03604FF443
:103A4000E1370C264FF40049C0E90174C0E9034492
:103A5000C0E90564C0F81C9001F092FF00287ED1F7
:103A6000484B494AC3F81C90C3E90170C3E90300FD
:103A7000C3E9056018461A6001F082FF00286ED184
:103A8000424C434B23604FF44863CDE90600C4E940
:103A90000180E36020468023A36101F0B1FD00288E
:103AA0005DD10022002306A92046CDE9062301F0BE
:103AB00023FF002853D1374B374AD861C3E901703F
:103AC000C3E90300C3E9056018461A6001F058FF16
:103AD000002844D1314B32494FF41652C3E9020059
:103AE000C3E90406C3E906001846C3E9001201F061
:103AF00047FF024698BB2B48C0E90172C0E9032288
:103B0000C0E90562C261284A026001F039FF02463D
:103B100028BB264B26484FF48271C3E900014FF4BD
:103B20000070C3E906050A211846C3E90222C3E969
:103B30000422C3E90822C3E90A2101F0E5F870B9BB
:103B40001C481D49052240F6C31380E80E0000F012
:103B50003DFD20B9FDF74CFAFDF780FAFEE7FFF7CF
:103B60001FFE00BF00380240001002400008024063
:103B7000000C02400000024000040240201300201C
:103B8000004400406413002000480040D812002088
:103B9000001000403014002000140140A813002041
:103BA000004C0040EC130020005000408012002028
:103BB00000300140741200200030004082B00D4BF4
:103BC000002100915A6C42F480425A645A6C02F40B
:103BD00080420092009A01911A6C42F080521A645D
:103BE0001B6C03F080530193019B072002B000F08F
:103BF000EDBA00BF0038024010B51B4B026888B018
:103C000000249A42CDE90244CDE90444069401D04F
:103C100008B010BD03F5843300945A6C134842F485
:103C200080525A645A6C02F480520092009A0194B5
:103C30001A6B42F001021A631B6B03F0010301933C
:103C4000E0220223CDE9022302A905230693019A6B
:103C500000F090FB22462146232000F0C9FA2320E1
:103C600000F004FB08B010BD00300140000002402D
:103C70000E4B02689A4200D0704700B583B0002214
:103C800003F50A330192196C41F0100119641B6CA1
:103C900003F01003019336201146019B00F0A8FAAF
:103CA000362003B05DF804EB00F0E0BA00100040ED
:103CB0002DE9F0410368924A92B000249342CDE985
:103CC0000C44CDE90E44109452D08E4A93427CD0DD
:103CD0008D4A934200F0BB808C4A934206D08C4AB6
:103CE000934200F0E28012B0BDE8F081894B079466
:103CF0001A6C894842F480221A641A6C02F48022F9
:103D00000792079A08941A6B02252A431A631A6BC2
:103D10002A400892089A09941A6B42F008021A6322
:103D20001B6B0D9503F0080309934FF0010803275F
:103D300007260CA94FF400630C93CDE90E87099B6D
:103D4000109600F017FB4FF480730CA973480C9386
:103D5000CDE90F760D95CDF8388000F00BFB2246AB
:103D60002146272000F044FA272000F07FFABAE726
:103D7000684B00941A6C6A4842F400221A641A6C68
:103D800002F400220092009A01941A6B42F004029D
:103D90001A631B6B03F0040301934FF44062022388
:103DA000CDE90C230CA908230322CDE90F23019DA3
:103DB00000F0E0FA22462146342000F019FA3420BF
:103DC00000F054FA12B0BDE8F081524B02941A6C24
:103DD000534842F480121A641A6C02F48012029260
:103DE000029A03941A6B42F004021A631A6B02F0EF
:103DF00004020392039A04941A6B42F008021A63B5
:103E00001B6B03F0080304934FF48052032608252C
:103E10000CA90223CDE90C23CDE90F65049B00F02A
:103E2000A9FA04230CA90C933C48109502230D9386
:103E3000CDE90E4600F09EFA22462146352000F0DC
:103E4000D7F9352000F012FA12B0BDE8F081314BFD
:103E500005941A6C334842F400321A641A6C02F466
:103E600000320592059A06941A6B42F001021A6319
:103E70001B6B03F0010306930C220223CDE90C23F4
:103E800001220323CDE90E230CA907231093069DDD
:103E900000F070FA22462146262000F0A9F92620DB
:103EA00000F0E4F912B0BDE8F0811A4B0A945A6CA4
:103EB0001B4842F020025A645A6C02F020020A9217
:103EC0000A9A0B941A6B42F004021A631B6B03F0FC
:103ED00004030B93C0220223CDE90C230CA9082371
:103EE0000322CDE90F230B9D00F044FA2246214620
:103EF000472000F07DF9472000F0B8F9F3E600BF55
:103F0000004C004000500040004400400048004089
:103F1000001401400038024000040240000C02403E
:103F20000008024000000240BFF34F8F0549064BD6
:103F3000CA6802F4E0621343CB60BFF34F8F00BF47
:103F4000FDE700BF00ED00E00400FA0508B5FFF74B
:103F5000EBFF00BF08B5FFF7E7FF00BFFEE700BFBC
:103F600008B5FFF7E1FF00BF08B5FFF7DDFF00BFB1
:103F7000704700BF704700BF704700BF08B500F032
:103F800001F9BDE80840FDF77DB800BF014801F028
:103F9000ADBA00BF80120020014801F0D9BE00BFB9
:103FA00020130020014801F0D3BE00BF641300209D
:103FB000014801F0CDBE00BFA8130020014801F068
:103FC000C7BE00BFEC130020014801F0EBBB00BFEF
:103FD000D8120020014801F0BBBE00BF3014002001
:103FE000FDF760B8FDF76EB80120704708B503F023
:103FF000C9FF162303604FF0FF3008BD08B503F07A
:10400000C1FF16230360FEE770B5161E07DD0C46E0
:104010008D19AFF3008004F8010BA542F9D13046A9
:1040200070BD00BF70B5161E07DD0C468D1914F863
:10403000010BAFF30080AC42F9D1304670BD00BF38
:104040004FF0FF30704700BF4FF400534B6000202B
:10405000704700BF01207047002070470C490D4A8F
:104060000B6810B50C4C121B2BB11844904207D8AA
:104070000860184610BD094B0B6018449042F7D9F0
:1040800003F080FF0C2303604FF0FF33184610BD90
:10409000741400200000022000120000C815002047
:1040A000034AD2F8883043F47003C2F8883070476E
:1040B00000ED00E0DFF834D00D480E490E4A002331
:1040C00002E0D458C4500433C4188C42F9D30B4ACC
:1040D0000B4C002301E013600432A242FBD3FFF734
:1040E000DFFF03F055FFFFF7C3FB7047000002201E
:1040F000000000200C02002020CC0008100200204C
:10410000C8150020FEE7000038B50E4A0E4B1278A5
:104110001B6805464FF47A70B0FBF2F0B3FBF0F089
:1041200000F0B2F808B90F2D01D9012038BD0446BE
:10413000024629464FF0FF3000F05AF8034B204664
:104140001D6038BD3C0000203800002040000020E9
:1041500008B50B4B1A6842F400721A601A6842F4F0
:1041600080621A601A6842F480721A60032000F0BC
:104170002DF80020FFF7C8FFFFF720FD002008BD45
:10418000003C0240034A044B11681B780B44136047
:10419000704700BF781400203C000020014B1868D5
:1041A000704700BF7814002038B50446FFF7F6FFCB
:1041B000631C054602D0044B1B781C44FFF7EEFF3E
:1041C000431BA342FAD338BD3C0000200749CA680C
:1041D00003024FF6FF0003F4E0630240134343F091
:1041E000BF6343F40033CB60704700BF00ED00E0D5
:1041F0001C4BDB68C3F3022300B5C3F1070EBEF10D
:10420000040F03F1040C28BF4FF0040EBCF1060F9D
:104210001BD9033B4FF0FF3C0CFA03FC22EA0C02D3
:104220004FF0FF3C0CFA0EFC21EA0C0199400028EB
:1042300041EA02010CDB00F16040090100F5614038
:10424000C9B280F800135DF804FB00221346E7E7CB
:10425000054B00F00F0009010344C9B219765DF85F
:1042600004FB00BF00ED00E0FCEC00E0002807DBF1
:104270004109044A00F01F000123834042F8213025
:10428000704700BF00E100E00138B0F1807F10D23C
:1042900010B44FF0E023084C58614FF0F00C84F854
:1042A00023C00022072110469A615DF8044B196172
:1042B00070470120704700BF00ED00E070B5044674
:1042C000866DFFF76BFF94F83530022B06D0802304
:1042D0006365002384F83430012070BD23681A68B8
:1042E00022F016021A605A6922F080025A61226C8A
:1042F000054642B31A6822F008021A601A6822F0D2
:1043000001021A6005E0FFF749FF431B052B10D897
:1043100023681B6813F00103F5D1E16D3F228A4049
:10432000184601210023B26084F8351084F8343037
:1043300070BD032320226265184684F835300023BF
:1043400084F8343070BDA26C002AD3D1D6E700BF08
:1043500090F83530022B03D080234365012070474D
:104360000268052380F83530136823F0010300202C
:10437000136070472DE9F04F00220C68DFF830A27F
:10438000844E85B01346894605E00133102B02F1B7
:10439000020200F08A800121994001EA040BA14346
:1043A000F3D1D9F804C00CF003014D1E012D7FD9C3
:1043B000032940F0C0809140CD4307683D40294328
:1043C0001CF4403F0160E0D000210391DAF8441072
:1043D00041F48041CAF84410DAF8441001F48041F5
:1043E0000391039923F0030101F1804101F59C3110
:1043F00003F003078D68BF004FF00F0E0EFA07FEA3
:1044000025EA0E08644DA84224D005F58065A8422F
:1044100000F09580614DA84200F09880604DA84260
:1044200000F09B805F4DA84200F09E805E4DA84248
:1044300000F0A1805D4DA84200F0A480DFF874E197
:1044400070450CBF4FF0070E4FF0080E0EFA07F73D
:1044500048EA0708C1F80880B1686FEA0B051CF448
:10446000801F0CBF29404BEA0101B160F1681CF4C8
:10447000001F0CBF29404BEA0101F16071681CF478
:10448000003F0CBF29404BEA0101716031681CF408
:10449000803F03F101030CBF29404BEA0101102BBF
:1044A000316002F102027FF476AF05B0BDE8F08F13
:1044B000D9F80C50D0F808E005FA02F7032505FA00
:1044C00002F82EEA080E47EA0E078760476827EAD7
:1044D0000B0ECCF300179F4047EA0E076FEA080562
:1044E0004760C76807EA050ED9F80870974047EAA1
:1044F0000E070229C76001FA02F17FF45EAF4FEAAE
:10450000D30E00EB8E0E03F00708DEF82070009744
:10451000D9F810704FEA880807FA08F701970F27B3
:1045200007FA08F8009F27EA0808019F47EA0807EA
:10453000CEF8207041E703259540ED43D1E74FF0D9
:10454000010E0EFA07F748EA070883E74FF0020E5C
:104550000EFA07F748EA07087CE74FF0030E0EFA59
:1045600007F748EA070875E74FF0040E0EFA07F759
:1045700048EA07086EE74FF0050E0EFA07F748EA1B
:10458000070867E74FF0060E0EFA07F748EA070834
:1045900060E700BF003C014000000240000802400C
:1045A000000C0240001002400014024000180240BB
:1045B00000380240001C02400369194214BF012068
:1045C0000020704702B909048161704718B338B5FB
:1045D000D0E90031826804464CF6CC40186045F2C0
:1045E0005550186059609A60FFF7D8FD236805465A
:1045F000DA6891070AD0FFF7D1FD431B312B2368FE
:10460000F6D9DA689207F3D0032038BD4AF6AA2219
:104610001A60002038BD0120704700BF03684AF6C9
:10462000AA2200201A607047002800F0A2812DE91C
:10463000F0410368DD0782B004462FD59E498A68A1
:1046400002F00C02042A00F0ED808A6802F00C02ED
:10465000082A00F0E3806368B3F5803F00F0EC8047
:10466000B3F5A02F00F07581934D2A6822F48032B3
:104670002A602A6822F480222A60002B40F0E18020
:10468000FFF78CFD064605E0FFF788FD801B6428D8
:1046900000F201812B689B03F6D423689F0728D57D
:1046A000854A916811F00C0F00F09080916801F03C
:1046B0000C01082900F08680E368002B00F00E81D1
:1046C0007E4B7D4E01221A60FFF768FD054605E02E
:1046D000FFF764FD401B022800F2DD803368980775
:1046E000F6D53368226923F0F80343EAC203336046
:1046F00023681A0751D458072FD56F4A136C13F04B
:1047000080537FD000256E4E3368D90540F1B380C9
:10471000A368012B00F0C380052B00F02C81664EAE
:10472000326F22F001023267326F22F004023267E8
:10473000002B40F0B980FFF731FD41F28838074681
:1047400005E0FFF72BFDC01B404500F2A480336F4E
:104750009807F6D4002D40F00681A069C8B1564DE7
:10476000AB6803F00C03082B00F0C980534B002208
:1047700002281A6600F00981FFF710FD044605E0E3
:10478000FFF70CFD001B022800F285802B689B01BF
:10479000F6D4002002B0BDE8F08163690BB3474B4B
:1047A000454E0122C3F8802EFFF7F8FC054604E0D1
:1047B000FFF7F4FC401B02286DD8736F9B07F7D5F9
:1047C000236898E7526856023FF576AF3A4A126876
:1047D000950744D5E268012A41D0012002B0BDE826
:1047E000F081364A344EC2F8803EFFF7D7FC0546CA
:1047F00004E0FFF7D3FC401B02284CD8736F9F07DF
:10480000F7D4DDE70193136C43F080531364136C0A
:1048100003F080530193019B012574E74A6850021D
:104820007FF519AF244A126891037FF537AF6268AC
:10483000002A7FF433AFD0E71F4A136843F4803374
:104840001360FFF7ABFC1C4E054604E0FFF7A6FC27
:10485000401B64281FD833689A03F7D51DE7164913
:1048600020690A6822F0F80242EAC0020A601A07C8
:104870007FF541AF91E7336843F480733360FFF70E
:104880008DFC07463368DA053FF542AFFFF786FC3B
:10489000C01B0228F6D9032002B0BDE8F081064A09
:1048A000136F43F001031367FFF778FC024F0646CE
:1048B00041F288380BE000BF003802400000474258
:1048C00000700040FFF76AFC801B4045E3D83B6F57
:1048D0009B07F7D5002D3FF440AF44E0424A434EDA
:1048E0001360FFF75BFC054604E0FFF757FC401B35
:1048F0000228D0D833689907F7D42368F9E601284D
:104900003FF448AF6B68E26903F4800191427FF4A1
:1049100064AF226A03F03F0191427FF45EAF616AA7
:1049200047F6C0721A40B2EB811F7FF456AFA26AFD
:10493000520803F44031013AB1EB024F7FF44DAF1E
:10494000E26A03F07063B3EB026F14BF0120002032
:1049500020E7264B1A6842F480221A601A6842F453
:1049600080321A606DE7214A136C23F08053136480
:10497000F3E6012070471D4B1A6F42F004021A67DC
:104980001A6F42F001021A678EE7FFF707FC06462E
:1049900005E0FFF703FC801B02283FF67CAF2B6885
:1049A0009901F6D4D4E90731626A0B4343EA8213D2
:1049B000D4E90A21520843EA0163013A0A4943EA69
:1049C000024301226B600A66FFF7E8FB074D0446CD
:1049D00005E0FFF7E3FB001B02283FF65CAF2B6806
:1049E0009A01F6D5D5E600BF0000474200380240E4
:1049F000164908B58B6803F00C03042B1BD0082B59
:104A000017D14A684B68496813F4800302F03F02EB
:104A100013D10F48C1F38811A1FB0001FCF734F951
:104A20000A4B5B68C3F3014301335B00B0FBF3F057
:104A300008BD074808BD074808BD0648C1F38811EE
:104A40000023A1FB0001FCF71FF9E9E70038024051
:104A50000024F40000127A00002800F08780484A01
:104A6000136803F007038B422DE9F0410D4604461D
:104A700009D2CBB21370136803F007038B4202D044
:104A80000120BDE8F0812368980714D5590704D5A3
:104A90003C498A6842F4E0528A601A0704D53949D1
:104AA0008A6842F460428A603649A0688A6822F0C7
:104AB000F00202438A60DF0721D56268012A57D0DD
:104AC000931E012B2F4B1B684DD99907D8D52D4E1E
:104AD000B36823F003031343B360FFF75FFB41F2B6
:104AE0008838074604E0FFF759FBC01B404544D80F
:104AF000B368626803F00C03B3EB820FF3D1204A72
:104B0000136803F00703AB4206D9EBB213701368C6
:104B100003F00703AB42B3D123685A0706D51949FE
:104B2000E0688A6822F4E05202438A601B0707D5D6
:104B3000144A2169936823F4604343EAC1039360F4
:104B4000FFF756FF0F4A104C92681049C2F3031248
:104B50000346A25C0E48D34000680B60FFF7D4FA0E
:104B60000020BDE8F0819801B1D489E701207047A9
:104B7000044B1B689E03AAD482E7032081E700BF91
:104B8000003C02400038024060C7000838000020A6
:104B900040000020044B05499B68054A0868C3F3A0
:104BA0008223D35CD8407047003802403800002090
:104BB00070C70008044B05499B68054A0868C3F3A1
:104BC0004233D35CD84070470038024038000020A0
:104BD00070C700082DE9F04182B01D4616460C460C
:104BE0000746FFF7DBFA35442D1AFFF7D7FA274BB4
:104BF0001B68C3F3CB3305FB03F380460193731C9F
:104C0000396807D18B6834EA0303FBD0002002B077
:104C1000BDE8F0818B6834EA0303F7D1FFF7BEFAF1
:104C2000A0EB0800A84208D2019B002B019B03F1D6
:104C3000FF3308BF00250193E1E7D7E900315A6847
:104C4000B1F5827F22F0E0025A6013D0BA6AB2F561
:104C5000005F07D11A6822F400521A601A6842F401
:104C600000521A600122002387F8512087F8503043
:104C70000320CCE7BA68B2F5004F02D0B2F5806FDE
:104C8000E4D11A6822F040021A60DFE73800002001
:104C900038B513464268B2F5827F044606D00A460C
:104CA0000121FFF797FF78B9002038BD8268B2F57F
:104CB000004F1CD0B2F5806F0CD00A4620468021F0
:104CC000FFF788FF0028EFD0636D43F02003032037
:104CD000636538BD05680A46296821F040012960EE
:104CE0000121FFF777FF0028EED10020DDE7006803
:104CF000026822F0400202600A4620468021FFF747
:104D000069FF0028D0D0DFE700285CD070B50446EA
:104D1000406A002847D00023C4E9043394F8513096
:104D20000022A26203F0FF01002B42D094462168CA
:104D3000A568A269266A022384F851300B6823F023
:104D400040030B60636805F4044503F482732B434E
:104D5000E56805F400652B43256905F002052B4342
:104D6000656905F001052B43E56906F0800E02F444
:104D7000007605F0380533432B43120C00F0100089
:104D800043EA0E0302F0040243EA0C0302430B6001
:104D90004A60CB69002023F400630122CB61606587
:104DA00084F8512070BD6368B3F5827FB6D0E061AE
:104DB000B4E7204684F85010FEF71EFFD4E909033B
:104DC00003F4005CB3E70120704700BF2DE9F04118
:104DD000044690F85000012882B000F085801D46FE
:104DE000012384F8503088461746FFF7D7F994F826
:104DF0005130012B0646D8B209D0022001220023EF
:104E000084F8512084F8503002B0BDE8F081B8F148
:104E1000000FF3D0002FF1D0A2682068C4F83080D2
:104E200000230321B2F5004F84F85110C4E9103378
:104E30006365A786E786A363A387E38700F0858081
:104E400003685B06024603D4036843F04003036033
:104E5000E368B3F5006F4BD06368002B00F09780D8
:104E6000012F00F09480E38E9BB2ABB1681C40F040
:104E7000838023689A68910740F19480226B1278AE
:104E80001A73E18E236B013989B2E186E18E013319
:104E900089B223630029ECD161685B4B5B4A1B68D4
:104EA000A2FB03235B0D4FF47A7202FB03F3B1F50F
:104EB000827F019307D198E0019B2268013B019317
:104EC00093681B0602D5019B002BF5D1A36833B96B
:104ED00022680093D368009393680093009B606DF1
:104EE000003818BF012089E7022002B0BDE8F08138
:104EF0006168002976D1434633F8027BC76023639B
:104F0000E38E013B9BB2E386E38E9BB2002BC4D0C1
:104F10006B1C5ED183689F070FD5226B32F8023B72
:104F2000C360E38E2263013B9BB2E386E38E9BB2B8
:104F3000002BB1D083689F07EFD4FFF72FF9E38EE2
:104F40009BB2002BA8D02068E4E7036823F040035D
:104F50000360036843F48043036071E7226B1278B7
:104F60001A73E38E226B013B01329BB22263E3860C
:104F7000E38E9BB2002B8FD023689A689207EDD402
:104F8000FFF70CF9801BA842F2D3032036E798F80C
:104F900000300373E38E226B013B01329BB222632C
:104FA000E38660E7FFF7FAF8E38E9BB2002B7FF40D
:104FB00060AF71E7216B31F8023BD360E38E216370
:104FC000013B9BB2E386E38E9BB2002B3FF464AFC0
:104FD000226893689907EDD4FFF7E0F8801BA84298
:104FE000F1D3D2E7012F8FD185E733462A468021BE
:104FF0002046FFF7EFFD00283FF468AF636D2022E5
:1050000013436365626561E738000020819F5E1687
:105010002DE9F041044690F85000012882B000F0DC
:10502000AC801E46012384F8503090460F46FFF7AF
:10503000B5F8054694F8510063680128C2B211D052
:10504000B3F5827F09D002200122002384F8512089
:1050500084F8503002B0BDE8F081A1680029F2D197
:10506000042AF0D1002F00F08C80B8F1000F00F07E
:105070008880002E00F0858094F85120C4F8388094
:10508000042A1CBF052284F8512000226265C4E96D
:1050900010222268E687E6861168A68749062763FC
:1050A000A68603D4116841F040011160E168B1F5B2
:1050B000006F00F09E80002B00F09180012E00F028
:1050C0008E80089B01334FF0010628D05BE02168F9
:1050D0008B6898070FD5E38E9BB263B15EB1236BEB
:1050E0001B780B73E38E226B2168013B01329BB26C
:1050F0000026E38622638A6812F001020DD0E38F56
:105100009BB253B1A36BC9681970E38FA16B013BCC
:1051100001319BB2A163E3871646FFF73FF8E28EA9
:1051200092B2002AD3D1E38F9BB2002BCFD1794B1F
:10513000794A1B68A2FB032362684FF47A715B0D06
:1051400001FB03F3B2F5827F019307D1D2E0019B0B
:105150002268013B019393681B0602D5019B002B3B
:10516000F5D1A068002840F0828023680090DA68BA
:1051700000929B680093009B66E7022002B0BDE8A6
:10518000F081012060E7E38E9BB21BB9E38F9BB2F5
:10519000002BCCD02268936899070FD5E38E9BB281
:1051A00063B15EB1236B1B781373E38E226B013BFB
:1051B00001329BB222632268E3860026936813F0D3
:1051C000010304D0E18F89B2002940F08780FEF707
:1051D000E5FF089B401B9842D5D3032034E73B787A
:1051E0001373E38E226B013B01329BB22263E38691
:1051F00067E7002B3DD137F8023BD360E38E27638E
:10520000013B9BB2E386089B01334FF0010625D09A
:1052100032E023689A6892070DD5E28E92B252B1BD
:105220004EB1216B31F8022BDA60E28E2163013A34
:1052300092B20026E2869A6812F001020CD0E18F49
:1052400089B249B1A16BDB6821F8023BE38FA1630E
:10525000013B9BB21646E387FEF7A0FFE38E9BB2AD
:10526000002BD6D1E38F9BB2002BD2D15FE7002079
:10527000EAE6012EC7D1BEE7E38E9BB223B9E38FE6
:105280009BB2002B3FF453AF226893689F070DD564
:10529000E38E9BB253B14EB1216B31F8023BD36028
:1052A000E38E2163013B9BB2E3860026936813F0F3
:1052B00001030CD0E18F89B249B1D168A26B22F809
:1052C000021B1E46E38FA263013B9BB2E387FEF7FE
:1052D00065FF089B401B9842CED37EE7A16BD26846
:1052E0000A70E28FA16B013A013192B2A163E287A9
:1052F0001E466CE7089A2B4680212046FFF76AFC81
:1053000000283FF42EAF636D202213436365012014
:10531000626599E638000020819F5E162DE9F04114
:105320004668B6F5827F82B0044690461D460F4619
:105330006ED094F85030012B76D0012384F8503091
:10534000FEF72CFF94F851C0BCF1010F06465FFA3E
:105350008CF009D002200122002384F8512084F827
:10536000503002B0BDE8F081002FF4D0B8F1000F4A
:10537000F1D0A268A763B2F5004F2268A4F83C8080
:105380004FF000034FF0040184F85110C4E91033CA
:1053900063652363A386A4F83E80E386134607D1A2
:1053A000116821F040011160116821F48041116001
:1053B0001168480603D4116841F040011160E168AA
:1053C000002954D0E18F89B2A9B1691C3ED19368FC
:1053D000DB0744D5A36BD16823F8021BB4F83EC0A9
:1053E000A3630CF1FF3C1FFA8CFCA4F83EC0E38FD2
:1053F0009BB2002BEBD1324629462046FFF748FCF2
:1054000008B120236365606D003818BF0120A2E752
:105410008368002B8DD100950425134680F85150E8
:105420000A46FFF7F5FD9CE7022002B0BDE8F081D7
:10543000A26BDB6822F8023BE38FA263013B9BB2C5
:10544000E387E38F9BB2002BD5D023689A68D207FD
:10545000EED4FEF7A3FE801BA84243D2F1E7FEF78D
:105460009DFEE38F9BB2002BC5D02268AFE7E28F91
:1054700092B2002ABFD06F1C13D02BE0A26B1B7B13
:105480001370B4F83EC0A26B0CF1FF3C1FFA8CFC09
:10549000A4F83EC0E38F01329BB2A263002BAAD0D6
:1054A00023689A68D007E9D4FEF778FEE38F9BB2B1
:1054B000002BF5D19FE7A26B1B7B1370E38FA26BD0
:1054C000013B01329BB2A263E387E38F9BB2002BC7
:1054D00091D023689A68D107EDD4FEF75FFE801B58
:1054E000A842F2D3032036E7704700BF026810B528
:1054F0005168936803F0410CBCF1010F84B004467D
:105500005AD0980701D508065ED413F4B07F51D065
:1055100088064FD558060ED594F8510003285DD063
:10552000606D40F00400606500200090D06800903D
:1055300090680090009898060CD5606D40F00100CE
:1055400060650020029090680290106820F0400092
:1055500010600298D80508D5636D002043F0080359
:105560006365039093680393039B636D13B3536860
:1055700023F0E003536001208B0784F8510029D009
:105580005368E06C23F00303536040B1174B03658D
:10559000FEF7DEFE18B1636D43F040036365A06C57
:1055A00040B1124B0365FEF7D3FE18B1636D43F0B3
:1055B0004003636504B010BD11F0400FA1D0036C2F
:1055C00004B0BDE810401847636C204604B0BDE845
:1055D000104018472046FFF787FFEBE700230193B1
:1055E000D368019393680193019BE3E7F1550008A9
:1055F00008B5806B0023C387C386FFF775FF08BD1E
:10560000002800F0878010B590F83D30044603F084
:10561000FF02002B79D022683F49022384F83D30F5
:105620008A4213685DD0B2F1804F31D0A1F57C4140
:105630008A422DD001F580618A4229D001F580612E
:105640008A4225D001F578418A424AD001F570514D
:105650008A4221D001F580618A421DD001F5806126
:105660008A4219D0A1F598318A4215D001F580619E
:105670008A4211D001F580618A420DD0A069E168AB
:1056800023F08003034313606368D162936210E0E8
:10569000A16823F070030B432069A16923F44073D0
:1056A000034323F08003E0680B4361681360D0621A
:1056B00091620123536184F8463084F83E3084F8C7
:1056C0003F3084F8403084F8413084F8423084F828
:1056D000433084F8443084F8453084F83D3000206D
:1056E00010BDA068216923F07003034323F44073C5
:1056F0000B43A16923F080030B431360E368D3627B
:105700006368936263691363D3E780F83C20FEF714
:10571000AFFA80E7012070470000014090F83D306B
:10572000012B2FD103681949022280F83D20DA6845
:105730008B4242F00102DA6019D0B3F1804F16D0EB
:10574000134A934213D002F5806293420FD002F5C0
:10575000806293420BD002F57842934207D002F563
:105760007052934203D0A2F59432934204D19A68C6
:1057700002F00702062A07D01A6842F00102002050
:105780001A607047012070470020704700000140F8
:1057900000040040704700BF704700BF704700BF63
:1057A000704700BF03681A69910710B5044602D517
:1057B000DA6892075FD41A69500702D5DA68510790
:1057C00046D41A69120702D5DA6810072ED41A696E
:1057D000D20602D5DA68D00618D41A69D10702D5E4
:1057E000DA68D2075DD41A69100602D5DA681106A4
:1057F0005FD41A69520602D5DA68500661D41A6974
:10580000910602D5DA68920643D410BD6FF01001FC
:10581000082219612277DB6913F4407F204664D0A7
:10582000FFF7BAFF002223682277D6E76FF008015E
:10583000042219612277DB699907204652D1FFF7CC
:10584000A9FF2046FFF7AAFF002223682277BEE7C0
:105850006FF004010222196122779B6913F4407FE3
:1058600020463CD1FFF796FF2046FFF797FF002226
:1058700023682277A5E76FF0020101221961027700
:105880009B699B0725D0FFF787FF002223682277BB
:1058900091E76FF0200220461A61BDE8104000F049
:1058A0006BB86FF001021A612046FEF79BFB23687C
:1058B00099E76FF080021A61204600F05FF82368D4
:1058C00097E76FF040021A612046FFF769FF2368EF
:1058D00095E7FFF75FFF2046FFF760FFD5E7FFF78B
:1058E0005BFFC4E7FFF758FFAEE7FFF753FF204623
:1058F000FFF754FF96E700BF90F83C30012B37D0FC
:105900000368022230B480F83D205A680D689C6814
:1059100022F070022A435A60164A93421AD0B3F119
:10592000804F17D0A2F57C42934213D002F58062DB
:1059300093420FD002F5806293420BD002F5784279
:10594000934207D002F57052934203D0A2F59432ED
:10595000934204D14A6824F0800414439C600023DD
:10596000012280F83D2080F83C3030BC184670475A
:105970000220704700000140704700BF704700BF21
:10598000002800F08F8038B590F83D30044603F0D1
:10599000FF02002B00F081802368E068242284F855
:1059A0003D20DA6822F40052DA601969A26821F415
:1059B000405101432069196102436069D96802437B
:1059C000E06921F4164121F00C0102430A43DA6038
:1059D0005A69A069344922F4407202438B425A61E9
:1059E00035D0324A934232D0FFF7D4F8E369B3F5A9
:1059F000004F32D0636819219A00A0FB01019B0F70
:105A0000FBF742F92A49A1FB00325209642505FB44
:105A10001200000132302368A1FB0010120102EBDA
:105A200050129A601A6922F490421A615A6922F05F
:105A30002A025A61DA680025202142F40052DA6015
:105A4000256484F83D1084F83E10284638BDFFF7E1
:105A5000B1F8E369B3F5004FCCD16268192192180F
:105A60004FF000035B41A0FB0101FBF70DF9104B68
:105A7000A3FB00256D09642202FB1502D20032321D
:105A8000A3FB0232C2F342111209236801EB051194
:105A900002F4F8720A449A60C4E780F83C20FEF7EA
:105AA00007F979E701207047001001400014014018
:105AB0001F85EB512DE9F843054690F83D0020285D
:105AC00077D18946002940D01446002A3DD01E4691
:105AD00095F83C30012B6CD0012385F83C304FF019
