:020000040800F2
:1000000000000220D12D0008612C0008632C00089C
:10001000652C0008672C0008692C0008000000000F
:100020000000000000000000000000006B2C000831
:100030006D2C0008000000006F2C0008712C0008D7
:10004000212E0008212E0008212E0008212E000854
:10005000212E0008212E0008212E0008212E000844
:10006000212E0008212E0008212E0008212E000834
:10007000212E0008212E0008212E0008212E000824
:10008000212E0008212E0008212E0008212E000814
:10009000212E0008212E0008212E0008212E000804
:1000A000212E0008212E0008212E0008212E0008F4
:1000B000212E0008212E0008212E0008212E0008E4
:1000C000212E0008212E0008212E0008212E0008D4
:1000D000212E0008212E0008812C0008912C0008F8
:1000E000212E0008212E0008212E0008212E0008B4
:1000F000212E0008212E0008212E0008212E0008A4
:10010000212E0008212E0008212E0008212E000893
:10011000212E0008212E0008A12C0008212E000805
:10012000212E0008212E0008212E0008212E000873
:10013000212E0008212E0008212E0008212E000863
:10014000212E0008212E0008212E0008212E000853
:10015000212E0008212E0008212E0008212E000843
:10016000212E0008212E0008212E0008212E000833
:10017000212E0008212E0008212E0008000000007A
:08018000212E0008212E0008C9
:1001900010B5054C237833B9044B13B10448AFF3C1
:1001A00000800123237010BDF0010020000000003A
:1001B000E08C000808B5034B1BB103490348AFF3BB
:1001C000008008BD00000000F4010020E08C000861
:1001D00001F0FF01102A2BDB10F0070F08D010F8F8
:1001E000013B013A8B422DD010F0070F42B3F6D1FC
:1001F000F0B441EA012141EA014122F007047FF015
:1002000000070023F0E80256083C85EA010586EA6B
:10021000010685FA47F5A3FA87F586FA47F6A5FAA7
:1002200087F68EB9EED1F0BC01F0FF0102F00702B3
:1002300032B110F8013B013A83EA010313B1F8D15E
:100240000020704701387047002D06BF354603383F
:10025000073815F0010F07D1013015F4807F02BF78
:10026000013015F4C03F0130F0BC0138704700BFC9
:10027000034613F8012B002AFBD1181A01387047E6
:1002800081F0004102E000BF83F0004330B54FEA47
:1002900041044FEA430594EA050F08BF90EA020FB4
:1002A0001FBF54EA000C55EA020C7FEA645C7FEA47
:1002B000655C00F0E2804FEA5454D4EB5555B8BF6A
:1002C0006D420CDD2C4480EA020281EA030382EADB
:1002D000000083EA010180EA020281EA0303362D6D
:1002E00088BF30BD11F0004F4FEA01314FF4801C40
:1002F0004CEA113102D0404261EB410113F0004F52
:100300004FEA03334CEA133302D0524263EB430308
:1003100094EA050F00F0A780A4F10104D5F1200EA6
:100320000DDB02FA0EFC22FA05F2801841F1000101
:1003300003FA0EF2801843FA05F359410EE0A5F1D5
:1003400020050EF1200E012A03FA0EFC28BF4CF006
:10035000020C43FA05F3C01851EBE37101F00045BC
:1003600007D54FF0000EDCF1000C7EEB00006EEBC9
:100370000101B1F5801F1BD3B1F5001F0CD3490853
:100380005FEA30004FEA3C0C04F101044FEA4452AA
:1003900012F5800F80F09A80BCF1004F08BF5FEA31
:1003A000500C50F1000041EB045141EA050130BD11
:1003B0005FEA4C0C404141EB0101013C28BFB1F523
:1003C000801FE9D291F0000F04BF01460020B1FA6E
:1003D00081F308BF2033A3F10B03B3F120020CDA41
:1003E0000C3208DD02F1140CC2F10C0201FA0CF01F
:1003F00021FA02F10CE002F11402D8BFC2F1200C84
:1004000001FA02F120FA0CFCDCBF41EA0C01904039
:10041000E41AA2BF01EB0451294330BD6FEA040482
:100420001F3C1CDA0C340EDC04F11404C4F120026D
:1004300020FA04F001FA02F340EA030021FA04F37F
:1004400045EA030130BDC4F10C04C4F1200220FAD6
:1004500002F001FA04F340EA0300294630BD21FA14
:1004600004F0294630BD94F0000F83F4801306BFDA
:1004700081F480110134013D4EE77FEA645C18BFCE
:100480007FEA655C29D094EA050F08BF90EA020F65
:1004900005D054EA000C04BF1946104630BD91EA5D
:1004A000030F1EBF0021002030BD5FEA545C05D160
:1004B0004000494128BF41F0004130BD14F580049F
:1004C0003CBF01F5801130BD01F0004545F0FE4113
:1004D00041F470014FF0000030BD7FEA645C1ABF48
:1004E000194610467FEA655C1CBF0B46024650EA7F
:1004F000013406BF52EA033591EA030F41F40021AB
:1005000030BD00BF90F0000F04BF0021704730B530
:100510004FF4806404F132044FF000054FF0000105
:1005200050E700BF90F0000F04BF0021704730B5C6
:100530004FF4806404F1320410F0004548BF40429B
:100540004FF000013EE700BF42004FEAE2014FEAF0
:1005500031014FEA02701FBF12F07F4393F07F4FCB
:1005600081F06051704732F07F4208BF704793F0CE
:100570007F4F04BF41F40021704730B54FF46074E1
:1005800001F0004521F000411CE700BF50EA0102E4
:1005900008BF704730B54FF000050AE050EA01028D
:1005A00008BF704730B511F0004502D5404261EBFD
:1005B00041014FF4806404F132045FEA915C3FF43E
:1005C000D8AE4FF003025FEADC0C18BF03325FEADB
:1005D000DC0C18BF033202EBDC02C2F1200300FA8C
:1005E00003FC20FA02F001FA03FE40EA0E0021FAB1
:1005F00002F11444BDE600BF70B54FF0FF0C4CF49F
:10060000E06C1CEA11541DBF1CEA135594EA0C0F50
:1006100095EA0C0F00F0DEF82C4481EA030621EA8B
:100620004C5123EA4C5350EA013518BF52EA0335C6
:1006300041F4801143F4801338D0A0FB02CE4FF078
:100640000005E1FB02E506F00042E0FB03E54FF0A8
:100650000006E1FB03569CF0000F18BF4EF0010EA0
:10066000A4F1FF04B6F5007F64F5407404D25FEA9C
:100670004E0E6D4146EB060642EAC62141EA55514F
:100680004FEAC52040EA5E504FEACE2EB4F1FD0C91
:1006900088BFBCF5E06F1ED8BEF1004F08BF5FEA0F
:1006A000500E50F1000041EB045170BD06F00046C1
:1006B00046EA010140EA020081EA0301B4EB5C046E
:1006C000C2BFD4EB0C0541EA045170BD41F4801166
:1006D0004FF0000E013C00F3AB8014F1360FDEBF8B
:1006E000002001F0004170BDC4F10004203C35DA67
:1006F0000C341BDC04F11404C4F1200500FA05F3EA
:1007000020FA04F001FA05F240EA020001F000428A
:1007100021F0004110EBD37021FA04F642EB060100
:100720005EEA430E08BF20EAD37070BDC4F10C042A
:10073000C4F1200500FA04F320FA05F001FA04F2EE
:1007400040EA020001F0004110EBD37041F10001DA
:100750005EEA430E08BF20EAD37070BDC4F12005E5
:1007600000FA05F24EEA020E20FA04F301FA05F24D
:1007700043EA020321FA04F001F0004121FA04F2F5
:1007800020EA020000EBD3705EEA430E08BF20EAC5
:10079000D37070BD94F0000F0FD101F000464000FF
:1007A00041EB010111F4801F08BF013CF7D041EA81
:1007B000060195F0000F18BF704703F00046520085
:1007C00043EB030313F4801F08BF013DF7D043EA56
:1007D0000603704794EA0C0F0CEA135518BF95EA0C
:1007E0000C0F0CD050EA410618BF52EA4306D1D193
:1007F00081EA030101F000414FF0000070BD50EAB2
:10080000410606BF1046194652EA430619D094EA3B
:100810000C0F02D150EA013613D195EA0C0F05D125
:1008200052EA03361CBF104619460AD181EA030179
:1008300001F0004141F0FE4141F470014FF0000031
:1008400070BD41F0FE4141F4780170BD70B54FF0CC
:10085000FF0C4CF4E06C1CEA11541DBF1CEA13554C
:1008600094EA0C0F95EA0C0F00F0A7F8A4EB05042E
:1008700081EA030E52EA03354FEA013100F0888025
:100880004FEA03334FF0805545EA131343EA1263EE
:100890004FEA022245EA111545EA10654FEA0026A3
:1008A0000EF000419D4208BF964244F1FD0404F55C
:1008B000407402D25B084FEA3202B61A65EB0305B8
:1008C0005B084FEA32024FF480104FF4002CB6EB75
:1008D000020E75EB030E22BFB61A754640EA0C00F5
:1008E0005B084FEA3202B6EB020E75EB030E22BF35
:1008F000B61A754640EA5C005B084FEA3202B6EB76
:10090000020E75EB030E22BFB61A754640EA9C0034
:100910005B084FEA3202B6EB020E75EB030E22BF04
:10092000B61A754640EADC0055EA060E18D04FEAC2
:10093000051545EA16754FEA06164FEAC30343EA62
:1009400052734FEAC2025FEA1C1CC0D111F4801F2F
:100950000BD141EA00014FF000004FF0004CB6E728
:1009600011F4801F04BF01430020B4F1FD0C88BFC7
:10097000BCF5E06F3FF6AFAEB5EB030C04BFB6EBD2
:10098000020C5FEA500C50F1000041EB045170BDC5
:100990000EF0004E4EEA113114EB5C04C2BFD4EBF2
:1009A0000C0541EA045170BD41F480114FF0000E76
:1009B000013C90E645EA060E8DE60CEA135594EAF2
:1009C0000C0F08BF95EA0C0F3FF43BAF94EA0C0FF5
:1009D0000AD150EA01347FF434AF95EA0C0F7FF46A
:1009E00025AF104619462CE795EA0C0F06D152EABE
:1009F00003353FF4FDAE1046194622E750EA4106A2
:100A000018BF52EA43067FF4C5AE50EA41047FF4B2
:100A10000DAF52EA43057FF4EBAE12E74FF0FF3C17
:100A200006E000BF4FF0010C02E000BF4FF0010CE8
:100A30004DF804CD4FEA410C7FEA6C5C4FEA430C61
:100A400018BF7FEA6C5C1BD001B050EA410C0CBFB0
:100A500052EA430C91EA030F02BF90EA020F002012
:100A6000704710F1000F91EA030F58BF994208BF79
:100A700090422CBFD8176FEAE37040F00100704736
:100A80004FEA410C7FEA6C5C02D150EA013C07D18D
:100A90004FEA430C7FEA6C5CD6D152EA033CD3D0D8
:100AA0005DF8040B704700BF8446104662468C46D2
:100AB0001946634600E000BF01B5FFF7B7FF002805
:100AC00048BF10F1000F01BD4DF808EDFFF7F4FF2E
:100AD0000CBF012000205DF808FB00BF4DF808EDB9
:100AE000FFF7EAFF34BF012000205DF808FB00BFDC
:100AF0004DF808EDFFF7E0FF94BF012000205DF8FE
:100B000008FB00BF4DF808EDFFF7CEFF94BF0120B2
:100B100000205DF808FB00BF4DF808EDFFF7C4FFAB
:100B200034BF012000205DF808FB00BF4FEA410CF4
:100B30007FEA6C5C02D150EA013C0AD14FEA430CD7
:100B40007FEA6C5C02D152EA033C02D14FF0000014
:100B500070474FF0010070474FEA410212F5001252
:100B600015D211D56FF47873B3EB625212D94FEAF4
:100B7000C12343F0004343EA505311F0004F23FADE
:100B800002F018BF404270474FF00000704750EA33
:100B9000013005D111F0004008BF6FF000407047F0
:100BA0004FF00000704700BF4A0011D212F500124A
:100BB00011D20DD56FF47873B3EB62520ED44FEAB5
:100BC000C12343F0004343EA505323FA02F0704735
:100BD0004FF00000704750EA013002D14FF0FF3073
:100BE00070474FF0000070474FEA4102B2F1E04316
:100BF00024BFB3F5001CDCF1FE5C0DD901F0004C04
:100C00004FEAC0024CEA5070B2F1004F40EB830053
:100C100008BF20F00100704711F0804F21D113F17F
:100C20003872BCBF01F00040704741F480114FEAB8
:100C30005252C2F11802C2F1200C10FA0CF320FA41
:100C400002F018BF40F001004FEAC1234FEAD3235E
:100C500003FA0CFC40EA0C0023FA02F34FEA4303C8
:100C6000CCE77FEA625307D150EA01331EBF4FF051
:100C7000FE4040F44000704701F0004040F0FE406C
:100C800040F40000704700BF53B94AB9002908BFBB
:100C900000281CBF4FF0FF314FF0FF3000F0A6B925
:100CA000ADF1080C6DE904CE00F03CF8DDF804E08D
:100CB000DDE9022304B0704738B500220023044662
:100CC0000D46FFF70BFF28B920462946BDE83840FE
:100CD00000F00AB8204605F1004100F005F8404256
:100CE00061EB410138BD00BFD0B50C4B0022064678
:100CF0000F46FFF781FCFFF757FF0446FFF702FCA2
:100D0000074B0022FFF778FC02460B463046394677
:100D1000FFF7BAFAFFF748FF2146D0BD0000F03DCB
:100D20000000F0412DE9F047089E0D4604460F46AD
:100D3000002B4AD18A42944665D9B2FA82F343B174
:100D400002FA03FCC3F120029F4020FA02F217438B
:100D50009C404FEA1C4E1FFA8CF5B7FBFEF1220CAB
:100D60000EFB117742EA074201FB05F090420AD9D7
:100D70001CEB020201F1FF3780F01C81904240F22F
:100D8000198102396244121AA4B2B2FBFEF00EFBC2
:100D9000102244EA024400FB05F5A5420AD91CEBE7
:100DA000040400F1FF3280F00781A54240F2048183
:100DB0006444023840EA0140641B00211EB1DC405B
:100DC0000023C6E90043BDE8F0878B4208D9002E16
:100DD00000F0ED800021C6E900050846BDE8F08777
:100DE000B3FA83F1002949D1AB4202D3824200F227
:100DF000F880841A65EB030201201746002EE2D02A
:100E0000C6E90047DFE702B9FFDEB2FA82F3002B42
:100E100040F090808A1A4FEA1C471FFA8CFE01218D
:100E2000B2FBF7F507FB1520220C42EA00420EFB4D
:100E300005F0904208D91CEB020205F1FF3802D2FE
:100E4000904200F2CB804546121AA4B2B2FBF7F0F2
:100E500007FB102244EA02440EFB00FEA64508D917
:100E60001CEB040400F1FF3202D2A64500F2BB8065
:100E70001046A4EB0E0440EA05409FE7C1F12007AD
:100E80008B4022FA07FC4CEA030C05FA01F420FA25
:100E900007F3FD404FEA1C492343B5FBF9F81FFA5D
:100EA0008CFE09FB18551C0C44EA054408FB0EF5A2
:100EB000A54202FA01F200FA01F00BD91CEB04047E
:100EC00008F1FF3A80F08880A54240F28580A8F1C1
:100ED00002086444641B9DB2B4FBF9F309FB13449C
:100EE00045EA044403FB0EFEA64508D91CEB0404A6
:100EF00003F1FF356CD2A6456AD9023B644443EA4C
:100F00000843A3FB0295A4EB0E04AC42C846AE46D0
:100F100056D353D056B1B0EB080264EB0E0404FA7A
:100F200007F7CA40CC401743C6E9007418460021B1
:100F3000BDE8F087C3F1200102FA03FC20FA01F2B8
:100F400025FA01F19D402A434FEA1C471FFA8CFE07
:100F5000B1FBF7F007FB1015110C41EA054100FB4E
:100F60000EF58D4204FA03F408D91CEB010100F1DF
:100F7000FF382FD28D422DD902386144491B92B2DD
:100F8000B1FBF7F507FB151142EA014205FB0EF133
:100F9000914208D91CEB020205F1FF3816D29142AA
:100FA00014D9023D6244521A45EA004138E73146FD
:100FB000304608E73946E6E61046FBE64845A9D242
:100FC000B9EB020865EB0C0E013BA3E74546EAE7E7
:100FD0002B4694E74046D1E7D0467BE7023D62448A
:100FE00032E708460AE76444023842E7704700BF28
:100FF000014B1878704700BF10020020014B187099
:10100000704700BF10020020014B1878704700BFE6
:1010100024020020014B1868704700BF1402002012
:10102000014BD3E9000170472802002008B5FFF703
:10103000F1FF024B186000225A6008BD2802002010
:10104000024B00200021C3E9000170472802002064
:1010500010B5FFF7DFFF0446FFF7E2FF241A61EB4C
:1010600041010A2C71F1000101D2002010BD0124C0
:10107000024B1C70FFF7E4FF2046F7E72402002034
:10108000034A13685268134314BF012000207047BD
:1010900028020020014B1860704700BF200200208A
:1010A00010B501221021124802F0E9F8FFF7B2FF53
:1010B000044620210E4802F0DBF801280BD0012065
:1010C00001F002FFFFF7A6FF001BB0F5487FF0D349
:1010D000084801F0D1F9084801F0CEF900221021AA
:1010E000034802F0CCF84FF47A7001F0EDFE10BD29
:1010F00000100240F88C0008148D000808B520216B
:101100000B4802F0B5F801280BD001221021084845
:1011100002F0B5F80020FFF771FF002000F08EFA12
:1011200008BD00221021024802F0A9F8F8E700BF2C
:101130000010024008B50021044B1980044B1970BF
:101140004FF40072034804F07DF908BD320200201C
:10115000240200203802002010B50446FFF7EAFF01
:101160002046FFF785F8282382B22146034800680D
:1011700002F036FF00B910BD0120FCE7200200207C
:1011800008B50648FFF7E8FF00B108BD044801F0C4
:1011900073F94FF4FA7001F097FEF6E72C8D000812
:1011A0003C8D000808B50146034804F053F90038A7
:1011B00018BF012008BD00BF3802002010B5A24BA7
:1011C0001B681BB9FFF726FF9F4B18609F4B00223F
:1011D0001A709F4B1C78112C00F25E81DFE814F02E
:1011E00012003700440052005F006D007A00880052
:1011F000BA00C900F8000701180127019C00AB00E4
:10120000DA00E9009348FFF7A7FF38B9904A13784E
:1012100001331370FFF7FEFE8B4B1860FFF7FAFEE9
:10122000894B1B68C01AB0F5FA7FC0F043818A4B26
:101230001B78022B00F23E81854A00211170013398
:10124000854A1370FFF7E6FE7F4B186043E1FFF716
:10125000DBFE0028E2D08148FFF7A4FF0028DDD0A4
:1012600001347B4B1C70D9E77D48FFF775FF0028E0
:10127000D4D1774A137801331370FFF7CBFE724B4A
:101280001860CBE7FFF7C0FE0028C7D07348FFF710
:1012900089FF0028C2D001346D4B1C70BEE7714835
:1012A000FFF75AFF0028B9D1694A13780133137048
:1012B000FFF7B0FE644B1860B0E7FFF7A5FE00280B
:1012C000ACD06948FFF76EFF0028A7D00134604B0F
:1012D0001C70A3E76548FFF73FFF00289ED15C4ADA
:1012E000137801331370FFF795FE574B186095E79D
:1012F000FFF78AFE002891D05D48FFF753FF18B929
:101300005C48FFF74FFF18B10134514B1C7085E763
:101310004F4B0E221A7081E75748FFF71DFF002838
:101320007FF47CAF4A4A137801331370FFF772FEE3
:10133000454B186072E7FFF767FE00283FF46EAF79
:101340004648FFF72FFF00283FF468AF404B0822C4
:101350001A7063E74948FFF7FFFE00287FF45EAF8D
:101360003B4A137801331370FFF754FE364B186075
:1013700054E7FFF749FE00283FF450AF4048FFF71D
:1013800011FF18B10134324B1C7047E7304B10226B
:101390001A7043E73B48FFF7DFFE00287FF43EAFBB
:1013A0002B4A137801331370FFF734FE264B186075
:1013B00034E7FFF729FE00283FF430AF2748FFF756
:1013C000F1FE00283FF42AAF214B0A221A7025E7CC
:1013D0002D48FFF7C1FE00287FF420AF1C4A137888
:1013E00001331370FFF716FE174B186016E7FFF76F
:1013F0000BFE00283FF412AF1848FFF7D3FE18B1D8
:101400000134134B1C7009E70134114B1C7005E7C4
:101410001E48FFF7A1FE00287FF400AF0C4A1378A6
:1014200001331370FFF7F6FD074B1860F6E6FFF780
:10143000EBFD00283FF4F2AE0848FFF7B3FE38B3E7
:10144000034B12221A70E9E60C0200201002002061
:1014500038040020588D000830020020608D0008FC
:10146000648D0008708D00087C8D0008848D000854
:10147000908D00089C8D0008A88D0008B48D000890
:10148000C08D0008CC8D0008DC8D0008EC8D0008B4
:10149000134B12221A70C1E60023124A1360124A3B
:1014A00013700F4A1370114B01221A70104800F08C
:1014B000E3FFB3E60C4B1B78022B0DD90023094A3E
:1014C0001360094A1370064A1370084B02221A70FF
:1014D000084800F0D1FF10BD052001F0F5FCFAE747
:1014E000380400200C0200203002002010020020EE
:1014F000F88D0008148E000808B501220249034B3C
:10150000186802F0C0FF08BD34020020200200204D
:1015100008B50A4B1B681A6803689A4200D008BDD8
:10152000074A1388591C1180064A1178064AD1547B
:10153000FFF7E2FFFFF77AFDF1E700BF200200208E
:10154000320200203402002038020020F8B505469F
:101550008E09CFB2B301DBB2FF1AFFB2FFF7EAFD8B
:101560000024204609E01E23402205EB84110B488D
:10157000006802F035FD0134E4B2A3B2B342F2D305
:101580001FB9003818BF0120F8BD1E233A4605EBED
:1015900086110248006802F023FDF2E720020020D5
:1015A000044A13685168013341F10001136051602E
:1015B000704700BF1802002008B5054A13680133C0
:1015C0001360FFF75DFD00B908BDFFF741FDFBE7C4
:1015D0001402002008B5034B1A88034903F0C6FF24
:1015E00008BD00BF320200203802002008B5FFF716
:1015F00085FDFFF7FDFC00B108BDFFF7DFFDFBE750
:10160000014B1870704700BF3D040020014B18705B
:10161000704700BF3B040020014B1878704700BFA3
:101620003B040020014B1878704700BF3A040020AB
:10163000014B1878704700BF39040020014B187027
:10164000704700BF39040020014B1868704700BF85
:10165000500400202DE9F843FFF7F6FF0746002667
:1016600034460125A9467FE04C48FFF775FD002868
:101670006DD10134E4B2FFF7E7FF0746A84603E067
:10168000FFF7C2FC70B9A846FFF7DEFFC31BB3F536
:10169000C87F62D3022E60D80136F6B207464546AF
:1016A000002461E03E48FFF77DFD18B10134E4B24B
:1016B000A846E9E73B48FFF775FD0028F6D1A846A4
:1016C000E2E73948FFF748FD002842D10134E4B28F
:1016D000FFF7BAFF0746A846D6E7FFF795FC08B91B
:1016E000A846D1E72E48FFF75DFD18B10134E4B2FA
:1016F000A846C9E72B48FFF755FD0028F6D1A846B4
:10170000C2E72A48FFF728FD28BB0134E4B2FFF7FF
:101710009BFF0746A846B7E7FFF776FC08B9A8463F
:10172000B2E71F48FFF73EFD18B10134E4B2A84606
:10173000AAE71C48FFF736FD0028F6D1A846A3E724
:101740001B4800F099FE4FF00008C1469CE7A846F0
:101750009AE7A84698E7A84696E7022E16D91548B4
:1017600000F08AFEA9460025ADB1052CE8D801A3FA
:1017700053F824F06916000881160008C316000803
:10178000DB1600080317000819170008052001F0F0
:101790009BFB4546E8E74846BDE8F883289E0008DD
:1017A000608D0008489E0008509E0008749E000846
:1017B000989E0008C09E00082DE9F047FFF744FFFF
:1017C0000746002635460124A14605E19548FFF766
:1017D000C3FC002840F0DD800135EDB2FFF734FF97
:1017E0000746A04603E0FFF70FFC80B9A046FFF7CD
:1017F0002BFFC31BB3F5C87FC0F0E680022E00F2BA
:10180000E3800136F6B2074644460025E4E0864808
:10181000FFF7C8FC18B10135EDB2A046E7E78348F1
:10182000FFF7C0FC10B1A0460425E0E78048FFF7B1
:10183000B9FC002840F0AF80A046D8E740F2A441B0
:101840007C48FFF783FE002840F0A8800135EDB208
:10185000FFF7FAFE0746A046C9E7FFF7D5FB08B930
:10186000A046C4E77448FFF79DFC002800F098806C
:101870000135EDB2A046BAE77048FFF76DFC0028CD
:1018800040F090800135EDB2FFF7DEFE0746A0463E
:10189000ADE7FFF7B9FB08B9A046A8E76248FFF734
:1018A00081FC804618B10135EDB2A0469FE75F4844
:1018B000FFF778FC824610B14546A04697E75C48A2
:1018C000FFF770FC00286FD1A04690E740F2C341BB
:1018D0005B48FFF73BFE002869D10135EDB2FFF709
:1018E000B3FE0746A04682E7FFF78EFB08B9A04685
:1018F0007DE75448FFF756FC00285AD00135EDB279
:10190000A04674E75048FFF727FC002853D1013563
:10191000EDB2FFF799FE0746A04668E7FFF774FBB4
:1019200008B9A04663E74048FFF73CFC18B1013511
:10193000EDB2A0465BE73D48FFF734FC10B1A0468E
:101940000C2554E73A48FFF72DFCB0BBA0464EE704
:1019500040F28F613D48FFF7F9FD88BB0135EDB2DC
:10196000FFF772FE0746A04641E7FFF74DFB08B9B7
:10197000A0463CE73648FFF715FC18B30135EDB239
:10198000A04634E7334800F077FD4FF00008C14629
:101990002DE7A0462BE7A046042528E7A04626E72A
:1019A000A04624E7A04622E75546A0461FE7A046EA
:1019B0001DE7A0461BE7A04619E7A0460C2516E741
:1019C000A04614E7A04612E7022E23D9224800F0D1
:1019D00053FDA146002426460CB30B2DD2D801A3FB
:1019E00053F825F0CD170008E71700083D18000848
:1019F0005B1800087918000893180008CD18000833
:101A0000E9180008051900081D19000851190008F7
:101A10006B190008052001F057FA4446DCE74846F8
:101A2000BDE8F087E89E0008149F00081C9F00088E
:101A30002C9F0008308E0008389F0008509F000837
:101A4000D4920008809F0008989F0008989700088B
:101A5000C49F0008DC9F000804A0000808B5FFF739
:101A6000C7FA012840F0E381A14B00221A70A14B74
:101A70001B681BB9FFF7E8FD9E4B18609E4B1B7857
:101A8000112B00F2B581DFE813F0120022004B00A9
:101A900064007D008E009F00B000C300D500E80008
:101AA000FA000D011F0169017B018E01A00193481D
:101AB00000F0E2FC9248FFF74FFB70B98E4A1378B2
:101AC00001331370FFF7C0FD8A4B186005E08D48A5
:101AD00000F0D2FCFFF798FAC0B9FFF7B5FD854BCF
:101AE0001B68C01AB0F5FA7FC0F09081864B1B7856
:101AF000022B00F28B81804A002111700133824A4F
:101B00001370FFF7A1FD7B4B186090E17F48FFF752
:101B100049FB0028E1D0784A137801331370DCE7E1
:101B20007B4800F0A9FCFFF795FD40B9724A137895
:101B300001331370FFF788FD6E4B1860CDE77548D1
:101B400000F09AFC6C4B12221A70694B02221A7038
:101B5000C3E7714800F090FCFFF72EFE40B9664ADB
:101B6000137801331370FFF76FFD624B1860B4E711
:101B70006A4800F081FC604B12221A705C4B022212
:101B80001A70AAE7664800F077FC6648FFF7E4FAA7
:101B90000028A2D1584A137801331370FFF754FD7F
:101BA000544B186099E7604800F066FCFFF72CFA88
:101BB000002892D05548FFF7F5FA00288DD04E4AFC
:101BC00013780133137088E7584800F055FC5848E3
:101BD000FFF7C2FA002880D1474A13780133137007
:101BE000FFF732FD434B186077E7524800F044FCA2
:101BF000FFF70AFA00283FF470AF4448FFF7D2FA23
:101C000000283FF46AAF3C4A13780133137064E74D
:101C1000494800F031FC4948FFF79EFA00287FF45C
:101C20005CAF354A137801331370FFF70DFD314B6C
:101C3000186052E7424800F01FFCFFF7E5F9002862
:101C40003FF44BAF3148FFF7ADFA00283FF445AF02
:101C5000294A1378013313703FE73A4800F00CFC2F
:101C60003948FFF779FA00287FF437AF224A137812
:101C700001331370FFF7E8FC1E4B18602DE7334863
:101C800000F0FAFBFFF7C0F900283FF426AF1F4829
:101C9000FFF788FA00283FF420AF174A1378013382
:101CA00013701AE72A4800F0E7FB2A48FFF754FAB6
:101CB00000287FF412AF104A137801331370FFF736
:101CC000C3FC0C4B186008E7234800F0D5FBFFF776
:101CD0009BF900283FF401AF0C48FFF763FA002896
:101CE0003FF4FBAE044A137801331370F5E600BFEE
:101CF0003904002044040020E40400202CA0000843
:101D000038A0000850A00008E0040020608D000802
:101D100064A000087CA000089CA00008B4A00008F3
:101D2000D0A00008E4A0000810A1000828A1000825
:101D30003CA1000870A1000888A100089CA100082F
:101D4000CCA10008E4A10008F8A1000814A2000832
:101D500030A2000848A2000868A20008364800F037
:101D60008BFB3648FFF7F8F900287FF4B6AE344A0B
:101D7000137801331370FFF767FC324B1860ACE641
:101D8000314800F079FBFFF73FF900283FF4A5AE9A
:101D90002E48FFF707FA00283FF49FAE284A137831
:101DA0000133137099E62A4800F066FB2948FFF7D3
:101DB000D3F900287FF491AE214A137801331370D0
:101DC000FFF742FC1F4B186087E6234800F054FBE6
:101DD000FFF71AF900283FF480AE1C48FFF7E2F93C
:101DE00000283FF47AAE164A13780133137074E674
:101DF0000023144A1360194A1370114A1370184BC8
:101E000001221A70174800F037FB66E6134B1B7867
:101E1000022B0DD900230B4A1360104A1370084A95
:101E200013700F4B02221A700F4800F025FB08BDFB
:101E3000022001F049F8FAE784A200089CA20008F9
:101E4000E404002044040020C4A20008608D0008BF
:101E5000E0A20008FCA200081CA30008E004002087
:101E6000390400203CA3000854A3000810B590B02A
:101E700004463E4B4FF0000C83F800C03C4B1B68FF
:101E80001BB9FFF7E1FB3A4B1860002100913C229F
:101E900001A803F0D7FA374B1B78012B26D0022B71
:101EA00041D083B10023334A1370314A1360FFF7E6
:101EB000CBFB2F4B1B68C01A44F6E763984248D807
:101EC000002010B010BD21462B4800F0D5FA224664
:101ED0002A49684603F01AFA6846FFF73DF90028D8
:101EE000E5D1244A137801331370E0E721462448F2
:101EF00000F0C2FAFFF788F80028D8D02148FFF791
:101F000051F940B11B4A137801331370FFF79CFB62
:101F1000174B1860CBE70023164A1370144A13605E
:101F2000124A1370C3E7FFF76FF80028BFD01648B6
:101F3000FFF738F918B90D4B00221A70B7E70D4BAF
:101F400003221A70094B01221A70104800F094FA0B
:101F5000ADE70023064A1360064A1370034B0222C2
:101F60001A700B4800F088FAAAE700BF3A04002074
:101F700040040020E30400206CA3000888A30008AC
:101F80009CA30008608D0008B4A30008C4A3000847
:101F9000E8A3000870B590B005460E463E4B0022FF
:101FA0001A703E4B1B681BB9FFF74EFB3B4B18608A
:101FB000002100913C2201A803F044FA384B1C7820
:101FC000012C2BD0022C45D07CB10023344A137055
:101FD000324A1360FFF738FB304B1B68C01A314B95
:101FE00098424DD8002010B070BD324629462E4888
:101FF00000F042FA33462A462C49684603F086F937
:1020000069462B4800F038FA6846FFF7A5F8002823
:10201000E0D1234A137801331370DBE7254800F041
:102020002BFAFEF7F1FF0028D4D02348FFF7BAF8C7
:1020300040B11B4A137801331370FFF705FB174BB0
:102040001860C7E70023164A1370144A13601B4A2E
:102050001370BFE7FEF7D8FF0028BBD01848FFF782
:10206000A1F818B9154B00221A70B3E70C4B0322E4
:102070001A70124B01221A70124800F0FDF9A9E7FC
:102080000023064A1360064A13700C4B02221A7092
:102090000D4800F0F1F9A5E73A04002048040020BB
:1020A000E2040020BF2501000CA400082CA40008B5
:1020B00044A4000860A40008608D00083B040020D0
:1020C00074A4000884A40008A4A4000870B5A0B0FB
:1020D00006460D4614466C4B00221A706B4B1B686B
:1020E0001BB9FFF7B1FA694B1860002100917C22FF
:1020F00001A803F0A7F9664B1B78042B00F2B1800E
:10210000DFE803F003153F6393003146614800F0B8
:10211000B3F932466049684603F0F8F86846FFF7BD
:102120001BF850B95A4A13780133137005E05B4825
:1021300000F0A2F9FEF768FF80B9FFF785FA534B6C
:102140001B68C01A44F6E763984200F290804FF48F
:102150007A7000F0B9FE002020B070BD5048FFF743
:1021600021F820B14A4A137801331370E5E70024BF
:10217000474B1C70FFF768FA444B1860424B1C70C9
:10218000DBE71A232B55013400232B5529464548FC
:1021900000F072F9A1B22846FFF7D8F948B100243F
:1021A0003B4B1C70FFF750FA384B1860364B1C70D5
:1021B000C3E7374A137801331370FFF745FA334BFF
:1021C0001860394800F058F9B7E7384800F054F97A
:1021D000FEF71AFF0028B0D03548FEF7E3FF38B904
:1021E00000232B4A1370294A1360274A1370A4E76F
:1021F000274A137801331370FFF726FA234B186030
:102200002C4800F039F92C48FEF7CCFF002894D078
:102210001F4B05221A701C4B01221A700020FFF779
:10222000EFF9264800F028F987E7FEF7EDFE0028D1
:1022300083D02148FEF7B6FF60B1154B05221A7016
:10224000114B01221A700020FFF7DAF91B4800F049
:1022500013F972E70C4B00221A70194800F00CF9C0
:102260006BE700230A4A1370084A136065E70023EE
:10227000064A1360064A1370034B02221A70114873
:1022800000F0FAF863E700BF3C0400204C04002093
:10229000E1040020C4A40008E0A40008FCA4000895
:1022A00014A5000818A5000834A5000868A50008B2
:1022B000608D000884A50008ACA50008BCA5000836
:1022C000DCA50008FCA50008024A1368013313606E
:1022D000704700BF50040020044A1368516801335E
:1022E00041F1000113605160704700BF58040020A5
:1022F00070B586B0FFF79CF9012803D0FFF7AEFB5D
:1023000006B070BDFEF780FE002869D1FFF784F9A2
:10231000012875D1FFF786F9012877D1FFF794F9E5
:10232000414B1B68C31AB3F57A7F25D33E4B186027
:102330003E4A1388013313803D4A138801331380CA
:102340003C4A1388013B13803B4C2068FEF7FCF8A5
:1023500031A3D3E90023FDF799FFFEF745FC206088
:10236000364C2068FEF7F0F82DA3D3E90023FDF7E3
:102370008DFFFEF739FC2060FFF754F90128BFD12B
:102380002F4B1B78012BBBD12E4D2F4B1A882F4979
:10239000284602F0BBFF254B1E882D4C264B1868A3
:1023A000FEF7D2F8CDE90401244B1868FEF7CCF80B
:1023B000CDE902011F4B1B8801931D4B1B88009325
:1023C0003346244A2449204602F0A0FF2046FDF768
:1023D0004FFF821C92B221462846FFF777FE8FE717
:1023E0001E48FEF7DFFE002890D01D4C2046FFF768
:1023F000F1F8237B302B89D00020FFF707F985E720
:1024000042F2B3211748FFF7C5FD79E71648FFF7F9
:102410002DFD75E7AFF300804BB0389CF9D52C3F0C
:102420002D431CEBE2362A3FE80600200400002082
:10243000EC060020000000200C0000200800002016
:102440003D040020F00600200200002064A60008E1
:10245000E80400201000002078A600081CA6000850
:102460006004002028A600085CA60008014B186044
:10247000704700BF300700200FB470B5ADF5027D86
:1024800086AC54F8046B002502954FF4FE72294681
:1024900003A802F0D7FF01950194234632464FF47A
:1024A000007102A802F0C0FF0446642382B202A9B0
:1024B0000548006801F094FD20460DF5027DBDE859
:1024C000704004B0704700BF300700202DE9F04F86
:1024D0008DB000240794089409940A940B940194F5
:1024E000974B1A6B42F010021A631A6B02F010023B
:1024F0000192019A02941A6B42F004021A631A6B59
:1025000002F004020292029A03941A6B42F08002D3
:102510001A631A6B02F080020392039A04941A6BF6
:1025200042F001021A631A6B02F001020492049A4B
:1025300005941A6B42F002021A631A6B02F002024F
:102540000592059A06941A6B42F008021A631B6BF7
:1025500003F008030693069B7A4F2246182138465B
:1025600000F08DFEDFF8E88101221146404600F0C0
:1025700086FE22464FF21001734800F080FE4FF6AF
:10258000C57307934FF0030ACDF820A0099407A95B
:10259000384600F077FD182307934FF00109CDF876
:1025A000209009940A9407A9384600F06BFD202377
:1025B00007930894099407A9384600F063FD42F692
:1025C00036330793CDF820A0099407A9404600F0C0
:1025D00059FDCDF81C90CDF8209009940A9407A9D4
:1025E000404600F04FFD0823079302250895099403
:1025F0000A9405230B9307A9404600F043FDCDF84C
:102600001C9008940994514E07A9304600F03AFDF9
:1026100048F202130793CDF820A0099407A9304689
:1026200000F030FD10230793089509940A940623BF
:102630000B9307A9304600F025FDE023079308958A
:1026400009940A9405230B9307A9304600F01AFD5C
:102650004FF2B3130793CDF820A00994DFF8F4B03C
:1026600007A9584600F00EFD042307930894099427
:1026700007A9584600F006FD4FF4806307930895BC
:1026800009940A9405230B9307A9584600F0FAFC15
:1026900040F6CF630793CDF820A0099407A92A48F4
:1026A00000F0F0FC4FF210030793CDF8209009944E
:1026B0000A9407A9244800F0E5FC4FF4A4530793BB
:1026C000089509940A9406230B9307A9404600F045
:1026D000D9FC4FF4007307930894099407A9304676
:1026E00000F0D0FC4FF4E0530793089509940A9446
:1026F0000A230B9307A9304600F0C4FC202307935C
:102700000894099407A9104800F0BCFC4FF410731A
:1027100007931223089309940A9404230B9307A99F
:10272000584600F0AFFC07954FF4901308930994B6
:1027300007A9384600F0A6FC0DB0BDE8F08F00BF39
:102740000038024000100240000C0240000002402D
:10275000000802400004024038B505460C4601213D
:102760001C4800F085FD012801D0C8B138BD022009
:1027700000F0AAFB0121174800F07AFD0128F4D1EE
:10278000052000F0A1FB0121124800F071FD012895
:10279000EBD12B780BB90123237001232B70E5E7D4
:1027A000022000F091FB01210A4800F061FD0028A1
:1027B000DCD1052000F088FB0121064800F058FD1F
:1027C0000028D3D12B78012B02D000232B70CDE72A
:1027D0002370FAE70000024072B6FEE708B50B4826
:1027E0000B4B03604FF4E133436000238360C3600D
:1027F00003610C22426183614FF40043C36101F025
:102800008BFB00B908BDFFF7E7FF00BF7C07002086
:102810000044004008B50B480B4B03604FF4E13314
:10282000436000238360C36003610C2242618361C3
:102830004FF40043C36101F06FFB00B908BDFFF71F
:10284000CBFF00BFC00700200048004000B583B0A8
:102850000023009301930E480E4A02600122426059
:1028600083604FF44863C3608023836101F0B8F94B
:1028700050B90023009301936946054801F0DCF943
:1028800020B903B05DF804FBFFF7A6FFFFF7A4FF34
:10289000340700200010004008B50A480A4B0360C6
:1028A0004FF4E133436000238360C3600361082277
:1028B00042618361C36101F05EFB00B908BDFFF7AF
:1028C0008BFF00BF040800200014014000B595B044
:1028D0003022002108A802F0B5FD002303930493E1
:1028E00005930693079301931E4A116C41F08051A2
:1028F0001164126C02F080520192019A02931A4AFA
:10290000116841F480411160126802F48042029221
:10291000029A0222089201210B9110210C910E9231
:102920000F930823109340231193129207231393BC
:1029300008A800F0ABFC80B90F2303930223049393
:1029400080230593002306930793012103A800F039
:1029500007FF20B915B05DF804FBFFF73DFFFFF757
:102960003BFF00BF003802400070004000B585B05A
:1029700001248DF80E4000F07BFAFFF7A7FFFFF768
:10298000A5FDFFF72BFFFFF745FFFFF75FFFFFF701
:1029900083FF2D48FFF76AFD0223009323462B4A4D
:1029A0000C212B48FFF768FD2A4800F0AFFF2A48AA
:1029B000FEF770FBFEF7A0FDFEF7E2FBFEF770FBF3
:1029C00005E0FEF7FBFB06E0FEF732FE50B9FEF72E
:1029D0000FFB0128F5D1FEF72BFE0128F4D0FFF7FD
:1029E0003DF8F1E7FEF704FB0028F0D0FEF700FB0E
:1029F0000446FEF71DFE024621461848FFF73CFD3F
:102A00001748FFF739FD02E0322000F05DFAFEF7CB
:102A1000EDFDFFF76DFC0DF10E010DF10F00FFF75D
:102A20009BFE9DF80F30002BEED09DF80E30002B52
:102A3000EAD00C48FFF720FD0120FEF7E1FD00235E
:102A40008DF80E30E0E700BF04080020D4A600088F
:102A5000E8A6000834070020C007002010A70008DF
:102A600048A7000868A7000800B583B000210091BE
:102A70000C4B5A6C42F480425A645A6C02F4804205
:102A80000092009A01911A6C42F080521A641B6CF9
:102A900003F080530193019B072000F029FA03B053
:102AA0005DF804FB0038024002680E4B9A4200D0E9
:102AB000704700B583B00021019103F50A331A6C09
:102AC00042F010021A641B6C03F010030193019B87
:102AD0000A46362000F01EFA362000F053FA03B002
:102AE0005DF804FB001000402DE9F0418CB000239C
:102AF0000793089309930A930B930368504A9342F0
:102B000008D0504A934232D04F4A934275D00CB00D
:102B1000BDE8F081002400944C4B1A6C42F4003262
:102B20001A641A6C02F400320092009A01941A6B33
:102B300042F001021A631B6B03F001030193019B36
:102B40000C230793022308930123099303230A9379
:102B500007230B9307A93E4800F094FA224621462A
:102B6000262000F0D7F9262000F00CFACFE7002449
:102B70000294364B1A6C42F480221A641A6C02F4E6
:102B800080220292029A03941A6B42F002021A63A4
:102B90001A6B02F002020392039A04941A6B42F039
:102BA00008021A631B6B03F008030493049B4FF4A1
:102BB000006307934FF00208CDF8208001270997A2
:102BC00003260A9607250B9507A9224800F05AFA12
:102BD0004FF480730793CDF8208009970A960B95E0
:102BE00007A91D4800F04EFA22462146272000F092
:102BF00091F9272000F0C6F989E700210591134BD0
:102C00005A6C42F020025A645A6C02F0200205927B
:102C1000059A06911A6B42F004021A631B6B03F0CB
:102C200004030693069B4023079312230893032370
:102C30000A9308230B9307A9084800F023FA66E7D4
:102C400000440040004800400014014000380240A9
:102C50000000024000040240000C02400008024054
:102C6000FEE7FEE7FEE7FEE7FEE7704770477047C6
:102C700008B500F017F9FEF79FFCFFF725FB08BD2C
:102C800008B5024801F0A2FA08BD00BF7C07002089
:102C900008B5024801F09AFA08BD00BFC00700203D
:102CA00008B5024800F07AFE08BD00BF34070020D6
:102CB00010B5044602680A4B1B689A4203D02046AE
:102CC000FEF726FC10BD074A1378591C11700649FF
:102CD0000878064AD0540122014801F0D4FBEEE7FF
:102CE0007C07002048080020490800204C080020EC
:102CF00010B50446FEF754FC2046FFF7EDFA10BD70
:102D00000120704708B502F005FC162303604FF060
:102D1000FF3008BD08B54FF0FF31FFF7F3FFFEE7C6
:102D200070B50C461646002506E0AFF3008021463C
:102D300001F8010B01350C46B542F6DB304670BD9B
:102D400070B50C461646002504E014F8010BAFF3ED
:102D500000800135B542F8DB304670BD4FF0FF30E2
:102D600070474FF400534B600020704701207047BC
:102D70000020704710B503460C4A0D490D48006805
:102D800040B10C4800680344521A934206D8094ADD
:102D9000136010BD0748084C0460F2E702F0BAFB6C
:102DA0000C2303604FF0FF30F3E700BF0000022068
:102DB00000120000CC080020200A0020034AD2F8AC
:102DC000883043F47003C2F88830704700ED00E0AB
:102DD000DFF834D00D480E490E4A002302E0D458E3
:102DE000C4500433C4188C42F9D30B4A0B4C002353
:102DF00001E013600432A242FBD3FFF7DFFF02F0D1
:102E00008FFBFFF7B3FD7047000002200000002099
:102E1000EC010020F0AB0008F0010020200A0020A7
:102E2000FEE7000010B504460E4B1A784FF47A7393
:102E3000B3FBF2F30C4A1068B0FBF3F000F0B0F80B
:102E400068B90F2C01D901200AE0002221464FF079
:102E5000FF3000F05FF8054B1C60002000E001200F
:102E600010BD00BF1C000020180000202000002022
:102E700008B50B4B1A6842F400721A601A6842F4E3
:102E800080621A601A6842F480721A60032000F0AF
:102E90002FF80020FFF7C6FFFFF7E6FD002008BD72
:102EA000003C0240034A1168034B1B780B4413603B
:102EB000704700BFD00800201C000020014B18689C
:102EC000704700BFD008002038B50446FFF7F6FF72
:102ED0000546B4F1FF3F02D0044B1B781C44FFF7BA
:102EE000EDFF401BA042FAD338BD00BF1C000020FC
:102EF000074AD36823F4E0631B041B0C000200F4B0
:102F0000E060034343F0BF6343F40033D360704792
:102F100000ED00E000B5194BDB68C3F30223C3F1F9
:102F2000070CBCF1040F28BF4FF0040C03F1040E92
:102F3000BEF1060F18D9033B4FF0FF3E0EFA0CFC12
:102F400021EA0C0199400EFA03FE22EA0E020A431E
:102F500000280BDB1201D2B200F1604000F56140A5
:102F600080F800235DF804FB0023E5E700F00F0084
:102F70001201D2B2024B1A54F4E700BF00ED00E098
:102F800014ED00E0002807DB00F01F0240090123D8
:102F90009340024A42F82030704700BF00E100E051
:102FA0000138B0F1807F0BD24FF0E0235861054A21
:102FB000F02182F823100020986107221A617047DF
:102FC0000120704700ED00E070B50446866DFFF704
:102FD00075FF94F83530DBB2022B06D08023636591
:102FE000002384F83430012070BD05462268136840
:102FF00023F0160313602268536923F080035361A2
:10300000236CE3B12268136823F00803136022687D
:10301000136823F00103136023681B6813F0010F8A
:1030200011D0FFF74BFF431B052BF5D92023636518
:10303000032084F83500002384F83430D4E7A36CEF
:10304000002BDFD1E3E7E26D3F239340B360012320
:1030500084F83530002084F83400C5E790F8353026
:10306000DBB2022B03D08023436501207047052388
:1030700080F835300268136823F0010313600020E4
:103080007047000000230F2B00F2E98070B582B07A
:1030900065E085684FEA430E032404FA0EF425EA3E
:1030A0000405CC6804FA0EF42C438460446824EAD6
:1030B00002044A68C2F300129A40224342605CE074
:1030C000DC08083450F8242003F00705AD004FF069
:1030D0000F0E0EFA05FE22EA0E0E0A69AA4042EA17
:1030E0000E0240F824205CE0072200E0002202FAF1
:1030F0000EF22A4302345A4D45F82420594A946866
:103100006FEA0C0224EA0C054E6816F4801F01D009
:103110004CEA0405534CA560E46802EA04054E68D5
:1031200016F4001F01D04CEA04054E4CE5606468BB
:1031300002EA04054E6816F4003F01D04CEA04058B
:10314000484C6560246822404D6815F4803F01D0EA
:103150004CEA0402434C226001330F2B7DD801223C
:103160009A400C6804EA020C32EA0404F4D14C6878
:1031700004F00304013C012C8BD94A6802F00302DD
:10318000032A09D0C4685D000322AA4024EA02048D
:103190008A68AA402243C2604A6802F00302022AF7
:1031A0008ED004684FEA430E032202FA0EF224EA9C
:1031B00002044A6802F0030202FA0EF2224302609D
:1031C0004A6812F4403FC7D000220192264A546C4C
:1031D00044F480445464526C02F480420192019A97
:1031E0009C08A51C1E4A52F8255003F0030E4FEA16
:1031F0008E0E0F2202FA0EF225EA02051B4A9042B9
:103200003FF474AF02F5806290421AD002F58062FA
:10321000904218D002F58062904216D002F580628A
:10322000904214D002F58062904212D002F5806282
:10323000904210D002F5806290423FF455AF0822D0
:1032400055E7012253E7022251E703224FE7042208
:103250004DE705224BE7062249E702B070BD7047F3
:1032600000380140003C01400038024000000240AC
:103270000369194201D001207047002070470AB14C
:10328000816170470904816170470000002800F0E7
:10329000E08170B582B00446036813F0010F3BD0A3
:1032A0009F4B9B6803F00C03042B2CD09C4B9B681A
:1032B00003F00C03082B21D06368B3F5803F4FD097
:1032C000B3F5A02F52D0964B1A6822F480321A60C0
:1032D0001A6822F480221A606368002B50D0FFF72E
:1032E000EDFD05468E4B1B6813F4003F14D1FFF72C
:1032F000E5FD401B6428F5D90320B1E1884B5B68EC
:1033000013F4800FD8D0864B1B6813F4003F03D012
:103310006368002B00F09F81236813F0020F54D0E4
:103320007F4B9B6813F00C0F3ED07D4B9B6803F0E6
:103330000C03082B33D0E368002B68D0794B0122B3
:103340001A60FFF7BBFD0546754B1B6813F0020FB3
:1033500054D1FFF7B3FD401B0228F5D903207FE1CC
:103360006F4A136843F480331360B5E76C4B1A68F7
:1033700042F480221A601A6842F480321A60ABE785
:10338000FFF79CFD0546664B1B6813F4003FC3D056
:10339000FFF794FD401B6428F5D9032060E1604BE2
:1033A0005B6813F4800FC6D15D4B1B6813F0020FEE
:1033B00003D0E368012B40F05081594A136823F091
:1033C000F803216943EAC1031360236813F0080F6F
:1033D00042D063696BB3534B0122C3F8802EFFF7D1
:1033E0006DFD05464E4B5B6F13F0020F34D1FFF7B6
:1033F00065FD401B0228F5D9032031E1484A1368D6
:1034000023F0F803216943EAC1031360DDE7454B6C
:1034100000221A60FFF752FD0546414B1B6813F06E
:10342000020FD2D0FFF74AFD401B0228F5D9032036
:1034300016E13C4B0022C3F8802EFFF73FFD054606
:10344000374B5B6F13F0020F06D0FFF737FD401BC1
:103450000228F5D9032003E1236813F0040F77D085
:103460002F4B1B6C13F0805F33D1002301932C4B47
:103470001A6C42F080521A641B6C03F08053019363
:10348000019B0125284B1B6813F4807F23D0A36880
:10349000012B34D0052B38D0214B1A6F22F00102BA
:1034A0001A671A6F22F004021A67A368002B3DD036
:1034B000FFF704FD06461A4B1B6F13F0020F46D1AF
:1034C000FFF7FCFC801B41F288339842F3D90320BC
:1034D000C6E00025D6E7144A136843F480731360EE
:1034E000FFF7ECFC0646104B1B6813F4807FCED12F
:1034F000FFF7E4FC801B0228F5D90320B0E0084A5E
:10350000136F43F001031367CFE7054B1A6F42F0C7
:1035100004021A671A6F42F001021A67C5E700BF7A
:10352000003802400000474200700040FFF7C6FC30
:103530000646524B1B6F13F0020F08D0FFF7BEFC7C
:10354000801B41F288339842F3D9032088E0EDB91B
:10355000A369002B00F08380484A926802F00C02B5
:10356000082A51D0022B17D0454B00221A66FFF7CC
:10357000A5FC0446414B1B6813F0007F42D0FFF7C7
:103580009DFC001B0228F5D9032069E03B4A136C1F
:1035900023F080531364DBE7394B00221A66FFF7F0
:1035A0008DFC0546354B1B6813F0007F06D0FFF7F6
:1035B00085FC401B0228F5D9032051E0E369226A0B
:1035C0001343626A43EA8213A26A5208013A43EA49
:1035D0000243E26A43EA0263284A5360284B01220D
:1035E0001A66FFF76BFC0446244B1B6813F0007F40
:1035F00006D1FFF763FC001B0228F5D903202FE05A
:1036000000202DE000202BE0012B2BD01B4B5B6812
:1036100003F48001E269914226D103F03F02216A5E
:103620008A4223D1616A47F6C0721A40B2EB811F09
:103630001ED103F44031A26A5208013AB1EB024FA5
:1036400018D103F07063E26AB3EB026F14D100206B
:1036500006E001207047012002E0012000E0002088
:1036600002B070BD0120FBE70120F9E70120F7E778
:103670000120F5E70120F3E70120F1E700380240DF
:103680000000474208B5334B9B6803F00C03042B42
:103690005BD0082B5BD12F4B5A6802F03F025B686E
:1036A00013F4800F2CD02B4B5868C0F388104FEACE
:1036B000401CBCEB000C6EEB0E0E4FEA8E1343EA7F
:1036C0009C634FEA8C11B1EB0C0163EB0E03DB0042
:1036D00043EA5173C90011EB000C43F10003590296
:1036E00000234FEA4C2041EADC51FDF7CDFA194B9B
:1036F0005B68C3F3014301335B00B0FBF3F027E0E9
:10370000144B5868C0F388104FEA401CBCEB000C07
:103710006EEB0E0E4FEA8E1343EA9C634FEA8C1158
:10372000B1EB0C0163EB0E03DB0043EA5173C900FC
:1037300011EB000C43F10003990200234FEA8C20A7
:1037400041EA9C51FDF7A0FAD1E7034800E00348A5
:1037500008BD00BF0038024000127A000024F400C7
:10376000002800F09B8070B50D4604464F4B1B6847
:1037700003F007038B4208D2CBB24C4A1370136894
:1037800003F007038B4240F08B80236813F0020F95
:1037900017D013F0040F04D0454A936843F4E05364
:1037A0009360236813F0080F04D0414A936843F4F0
:1037B000604393603E4A936823F0F003A1680B4393
:1037C0009360236813F0010F32D06368012B21D07E
:1037D0009A1E012A25D9364A126812F0020F61D0CA
:1037E00033498A6822F0030213438B60FFF766FBBC
:1037F00006462F4B9B6803F00C036268B3EB820F05
:1038000016D0FFF75BFB801B41F288339842F0D95A
:10381000032042E0264A126812F4003FE0D1012062
:103820003BE0234A126812F0007FD9D1012034E036
:103830001E4B1B6803F00703AB4207D9EAB21B4BD0
:103840001A701B6803F00703AB422DD1236813F0F5
:10385000040F06D0164A936823F4E053E1680B4343
:103860009360236813F0080F07D0114A936823F47C
:103870006043216943EAC1039360FFF703FF0C4BE8
:103880009B68C3F303130B4AD35CD8400A4B186000
:103890000A4B1868FFF7C6FA002070BD0120704778
:1038A0000120FAE70120F8E70120F6E7003C02409A
:1038B000003802409CA700081800002020000020CB
:1038C000014B1868704700BF1800002008B5FFF7CB
:1038D000F7FF044B9B68C3F38223034AD35CD840B1
:1038E00008BD00BF00380240ACA7000808B5FFF7CC
:1038F000E7FF044B9B68C3F34233034AD35CD840D1
:1039000008BD00BF00380240ACA7000890F83D3069
:10391000DBB2012B37D1022380F83D300268D36837
:1039200043F00103D3600368194A934220D0B3F1F6
:10393000804F1DD0A2F57C42934219D002F58062DF
:10394000934215D002F58062934211D002F578427D
:1039500093420DD002F57052934209D0A2F59432F1
:10396000934205D01A6842F001021A6000207047A5
:103970009A6802F00702062A07D01A6842F001028C
:103980001A6000207047012070470020704700BF78
:1039900000000140704770477047704710B50446FB
:1039A00003681A6912F0020F11D0DA6812F0020FE0
:1039B0000DD06FF002021A610123037703689B693F
:1039C00013F0030F70D0FFF7E6FF0023237723687F
:1039D0001A6912F0040F12D0DA6812F0040F0ED038
:1039E0006FF004021A610223237723689B6913F4A2
:1039F000407F5FD02046FFF7CEFF00232377236868
:103A00001A6912F0080F12D0DA6812F0080F0ED0FF
:103A10006FF008021A61042323772368DB6913F02F
:103A2000030F4ED02046FFF7B6FF0023237723680D
:103A30001A6912F0100F12D0DA6812F0100F0ED0BF
:103A40006FF010021A61082323772368DB6913F4EF
:103A5000407F3DD02046FFF79EFF00232377236859
:103A60001A6912F0010F03D0DA6812F0010F36D193
:103A700023681A6912F0800F03D0DA6812F0800F01
:103A800034D123681A6912F0400F03D0DA6812F0BB
:103A9000400F32D123681A6912F0200F03D0DA6880
:103AA00012F0200F30D110BDFFF774FF2046FFF752
:103AB00073FF8AE72046FFF76DFF2046FFF76CFF94
:103AC0009BE72046FFF766FF2046FFF765FFACE760
:103AD0002046FFF75FFF2046FFF75EFFBDE76FF070
:103AE00001021A612046FFF703F9C1E76FF0800277
:103AF0001A61204600F0E7F8C3E76FF040021A6150
:103B00002046FFF74AFFC5E76FF020021A61204602
:103B100000F0D8F8C7E700000368304A904212D09E
:103B2000B0F1804F0FD0A2F57C4290420BD002F54D
:103B30008062904207D002F58062904203D002F585
:103B40007842904203D123F070034A681343234A1A
:103B500090422AD0B0F1804F27D0A2F57C4290420B
:103B600023D002F5806290421FD002F5806290421D
:103B70001BD002F57842904217D002F57052904265
:103B800013D002F5806290420FD002F5806290421D
:103B90000BD0A2F59832904207D002F58062904295
:103BA00003D002F58062904203D123F44073CA68C7
:103BB000134323F080034A69134303608B68C36295
:103BC0000B688362054B984203D003F580639842EB
:103BD00001D10B6903630123436170470000014079
:103BE00040B310B5044690F83D30F3B1022384F899
:103BF0003D30214651F8040BFFF78EFF012384F876
:103C0000463084F83E3084F83F3084F8403084F801
:103C1000413084F8423084F8433084F8443084F8EA
:103C2000453084F83D30002010BD80F83C30FEF770
:103C30003BFFDBE70120704790F83C20012A3DD094
:103C400010B40346012280F83C20022280F83D2077
:103C500002685068946820F0700C086840EA0C0014
:103C600050601A68164882421AD0B2F1804F17D0BD
:103C7000A0F57C40824213D000F5806082420FD0D4
:103C800000F5806082420BD000F57840824207D078
:103C900000F57050824203D0A0F59430824204D1E6
:103CA00024F08004496821439160012283F83D207B
:103CB000002083F83C005DF8044B704702207047F9
:103CC0000000014070477047026802F10C0353E89E
:103CD000003F23F490730C3242E800310029F3D105
:103CE000026802F1140353E8003F23F00103143289
:103CF00042E800310029F3D1036B012B05D02023CA
:103D000080F83E30002303637047026802F10C0321
:103D100053E8003F23F010030C3242E80031002941
:103D2000F3D1ECE790F83D30DBB2212B01D002203B
:103D300070478368B3F5805F17D0036A5A1C02622C
:103D40001A7803685A60C38C9BB2013B9BB2C38450
:103D50004BB90268D36823F08003D3600268D3684C
:103D600043F04003D360002070470369002BE4D187
:103D7000036A1B880268C3F308035360036A0233B3
:103D80000362E0E710B504460268136923F4405368
:103D9000C1680B431361836802691A4343691A437C
:103DA000C3691A430168CB6823F4164323F00C035C
:103DB0001343CB600268536923F4407381690B435A
:103DC00053610368314A934206D002F58062934200
:103DD00002D0FFF77BFD01E0FFF788FDE369B3F553
:103DE000004F29D00021031849411B1841F100015F
:103DF000C90041EA5371DB00181863684FEA830277
:103E00004FEA937341F10001FCF73EFF204AA2FB09
:103E100000314909642303FB11031B013233A2FB68
:103E200003235B0903F0F00202EB011203F00F031E
:103E3000216813448B6010BD0023021843EB03017B
:103E4000121841F10001C90041EA5271D200101864
:103E500041F10001626892185B41FCF715FF0C4AC2
:103E6000A2FB00314909642303FB1103DB00323359
:103E7000A2FB03235B095A0002F4F87202EB011261
:103E800003F00703216813448B60D4E7001001405E
:103E90001F85EB512DE9F84305460F461646994616
:103EA000DDF820802B681C6837EA04040CBF01246D
:103EB0000024B4422DD1B8F1FF3FF3D0B8F1000F88
:103EC00005D0FEF7FBFFA0EB09004045EAD92A68C0
:103ED00002F10C0353E8003F23F4D0730C3242E8A4
:103EE00000310029F3D12A6802F1140353E8003F9E
:103EF00023F00103143242E800310029F3D12023DA
:103F000085F83D3085F83E30002385F83C300320AD
:103F100000E00020BDE8F88358B310B5044690F8DF
:103F20003D300BB3242384F83D302268D36823F45A
:103F30000053D3602046FFF725FF2268136923F45E
:103F4000904313612268536923F02A035361226866
:103F5000D36843F40053D36000202064202384F806
:103F60003D3084F83E3010BD80F83C30FEF7BCFD9B
:103F7000D8E701207047002830D010B5044690F8EB
:103F80003D3033B3242384F83D302268D36823F4D2
:103F90000053D3602046FFF7F5FE2268136923F42F
:103FA000904313612268536923F02203536122680E
:103FB000536943F0080353612268D36843F4005304
:103FC000D36000202064202384F83D3084F83E3004
:103FD00010BD80F83C30FEF787FDD3E70120704725
:103FE0002DE9F04182B01E4690F83D30DBB2202B27
:103FF00054D104460D469046002953D0002A53D090
:1040000090F83C30012B51D0012380F83C30002344
:104010000364212380F83D30FEF750FF0746A4F8E3
:104020002480A4F82680A368B3F5805F05D04FF004
:104030000008002384F83C3012E0236913B14FF0EC
:104040000008F6E7A8460025F3E738F8023B2268A7
:10405000C3F308035360E28C92B2013A92B2E28455
:10406000E38C9BB273B100963B4600228021204630
:10407000FFF710FFE0B9002DE7D015F8012B2368FA
:104080005A60E8E700963B46002240212046FFF7B1
:1040900001FF78B9202384F83D3000E0022002B00F
:1040A000BDE8F0810120FAE70120F8E70220F6E7F9
:1040B0000320F4E70320F2E7704708B50168CA68F7
:1040C00022F04002CA60202280F83D20FFF7F4FF72
:1040D000002008BD704708B5806B0023C385C384EA
:1040E000FFF7F8FF08BD704790F83E30DBB2222B97
:1040F00067D18368B3F5805F4DD0826AB3F5805F86
:1041000004D0002B54D10369002B51D103685B68A4
:104110001370836A01338362C38D9BB2013B9BB2F0
:10412000C385002B4FD100B583B00268D36823F05C
:104130002003D3600268D36823F48073D3600268DD
:10414000536923F001035361202380F83E30036B51
:10415000012B33D100230363026802F10C0353E8FF
:10416000003F23F010030C3242E800310029F3D164
:1041700003681A6812F0100F06D0002201921A6824
:1041800001925B680193019B818DFFF7ACFF0020DA
:1041900003B05DF804FB0269002AAED1826A0368AD
:1041A0005B68C3F308031380836A02338362B3E757
:1041B00003685B6803F07F031370AAE7FEF778FDDE
:1041C000E5E70220704700207047000030B583B05B
:1041D000044602681368D068516913F00F0505D1D1
:1041E00013F0200F02D010F0200F19D12DB111F0D3
:1041F000010119D110F4907F16D1216B01297DD0D6
:1042000013F0800F03D010F0800F40F0158113F0F1
:10421000400F03D010F0400F40F0128103B030BDCA
:104220002046FFF761FFF9E713F0010F06D010F405
:10423000807F03D0226C42F00102226413F0040F4D
:1042400004D019B1226C42F00202226413F0020F72
:1042500004D019B1226C42F00402226413F0080F5A
:1042600007D010F0200F00D119B1226C42F00802E3
:104270002264226C002AD1D013F0200F02D010F05B
:10428000200F29D123685B6903F04003226C12F0F0
:10429000080F00D163B32046FFF716FD23685B6962
:1042A00013F0400F20D0226802F1140353E8003FBE
:1042B00023F04003143242E800310029F3D1A36B0C
:1042C00073B1614A1A65A06BFEF7C8FE0028A5D03D
:1042D000A06B036D9847A1E72046FFF705FFD1E7E4
:1042E0002046FFF7F7FE99E72046FFF7F3FE95E734
:1042F0002046FFF7EFFE002323648FE713F0100F33
:104300003FF47EAF10F0100F3FF47AAF002301931B
:104310001368019353680193019B536913F0400F95
:1043200050D0A26B13685B689BB2002B3FF476AF52
:10433000A18D99427FF672AFE385D369B3F5807F93
:1043400037D0226802F10C0353E8003F23F4807356
:104350000C3242E800310029F3D1226802F1140343
:1043600053E8003F23F00103143242E800310029F2
:10437000F3D1226802F1140353E8003F23F0400315
:10438000143242E800310029F3D1202384F83E3072
:1043900000232363226802F10C0353E8003F23F05B
:1043A00010030C3242E800310029F3D1A06BFEF774
:1043B0000BFEA18DE38D9BB2C91A89B22046FFF78F
:1043C00092FE2BE7A18DE38D9BB2C91A89B2E38DD2
:1043D0009BB2002B3FF422AF00293FF41FAF2268AD
:1043E00002F10C0353E8003F23F490730C3242E8CF
:1043F00000300028F3D1226802F1140353E8003F93
:1044000023F00103143242E800300028F3D12023C6
:1044100084F83E3000232363226802F10C0353E842
:10442000003F23F010030C3242E800300028F3D1A3
:104430002046FFF758FEF1E62046FFF773FCEDE655
:104440002046FFF73AFEE9E6D74000088162828500
:10445000C28500230364222280F83E2080F83C308D
:10446000036923B10268D36843F48073D3600268A0
:10447000536943F0010353610268D36843F020039A
:10448000D3600020704708B590F83E30DBB2202B97
:104490000DD171B17AB190F83C30012B0DD00123D0
:1044A00080F83C3000230363FFF7D0FF00E00220D8
:1044B00008BD0120FCE70120FAE70220F8E72DE91A
:1044C000FF4755EC104B002D0E4619462B46BBBF3F
:1044D00005F100431D4600232D230B700D9BDDF8D5
:1044E00030A0914623F02008BCBF22461446B8F104
:1044F000460F05D0B8F1450F00D10136022100E08A
:10450000032103AB019302AB009345EC104B5346E0
:10451000324601F0C9F8B8F1470F074602D119F049
:10452000010F22D0B8F1460F07EB060910D13B78F6
:10453000302B0AD10022002320462946FCF7C4FA7A
:1045400018B9C6F10106CAF80060DAF800309944DB
:104550000022002320462946FCF7B6FA08B1CDF820
:104560000C903022039B4B4507D3039B0E9ADB1B19
:104570003846136004B0BDE8F087591C03911A70E7
:10458000F0E7F7B503460029B8BF494203F8022B0C
:10459000B4BF2D222B22092942702ADD0DF107021A
:1045A00017460A26944691FBF6F506FB151430349F
:1045B0000CF8014C0C46632C02F1FF322946F1DC69
:1045C0003031ACF1020402F8011C411C2246BA420F
:1045D0000AD30DF10902A2EB0C02BC4288BF0022F3
:1045E0001344181A03B0F0BD12F8015B01F8015F23
:1045F000EDE7302330318370C170031DF1E7000017
:104600002DE9F04F2DED028B8DB00C46DDF860806A
:1046100016461F46054600F033FFD0F800A050466E
:10462000FBF726FE00230A9323680593D8F8003091
:1046300094F818B0073323F0070303F10802C8F811
:104640000020D3E9008929F000430793CDF81880B2
:1046500008EE100AC4E91289DDE906019E4B4FF00D
:10466000FF32FCF763FA88BBDDE906019A4B4FF095
:10467000FF32FCF73DFA48BB002200234046494682
:10468000FCF72CFA10B12D2384F84330934A944B55
:10469000BBF1470F94BF9046984603232361059BC7
:1046A00023F0040323604FF00009009733460BAA60
:1046B0002146284600F0DAF9013040F090804FF0B2
:1046C000FF300DB0BDEC028BBDE8F08F42464B468B
:1046D00040464946FCF72AFA40B14B46002BBCBF86
:1046E0002D2384F843307F4A7F4BD1E763680BF07A
:1046F000DF0206925A1C3FD106236360059B616866
:1047000043F48062002303930AABCDE901B309AB04
:1047100049EC108B009322600DF123032846FFF72C
:10472000CEFE069B0999472B804608D1C81C02DBA8
:104730006368994241DDABF102035FFA83FBBBF191
:10474000650F20D801395A4604F150000991FFF74E
:1047500018FF0A9A1318012A8146236102DC226895
:10476000D20701D5013323619DF82330002B9CD063
:104770002D2384F8433098E7069A472ABED1002BB0
:10478000BCD10123B9E7BBF1660F18D100296368DA
:104790000BDD216113B92268D00702D501330B4428
:1047A0002361A1654FF00009DEE713B92268D20743
:1047B00001D50233F4E70123F2E74FF0670B0A9BC0
:1047C000994205DB23682161D807EAD54B1CE7E74E
:1047D0000029D4BFC1F1020201221344E0E723689B
:1047E0005A0507D42369424631462846B847013066
:1047F0002CD164E7BBF1650F40F2E080D4E91201EF
:1048000000220023FCF760F9002834D0374A012346
:1048100031462846B84701303FF451AFDDE909235E
:104820009A4202DB2368D80710D518EE103A524698
:1048300031462846B84701303FF441AF4FF00008F9
:1048400004F11A090A9B013B434509DC23689B07D5
:1048500000F10781E0680B9B9842B8BF184630E72B
:1048600001234A4631462846B84701303FF427AF76
:1048700008F10108E6E7099B002B39DC1B4A0123FC
:1048800031462846B84701303FF419AFDDE9093217
:10489000134302D12368D907D8D518EE103A5246EF
:1048A00031462846B84701303FF409AF4FF00009C0
:1048B00004F11A0A099B5B424B4501DC0A9B92E713
:1048C0000123524631462846B84701303FF4F7AE3F
:1048D00009F10109EEE700BFFFFFEF7FB4A7000871
:1048E000B8A70008BCA70008C0A70008C4A7000814
:1048F0000A9AA36D9A42A8BF1A46002A914637DC4D
:104900004FF0000B29EAE97904F11A02A36D05932F
:10491000A3EB09035B4533DCDDE909239A423BDB6A
:104920002368DA0738D4DDE90932A2EB0309059BD5
:10493000D21A9145A8BF9146B9F1000F35DC4FF06E
:10494000000829EAE97904F11A0ADDE909239B1A2A
:10495000A3EB090343457FF779AF01235246314664
:104960002846B84701303FF4AAAE08F10108ECE749
:104970001346314642462846B8470130C0D19EE62C
:104980000123314628460592B84701303FF497AEDF
:10499000059A0BF1010BB9E718EE103A5246314671
:1049A0002846B8470130BED189E6059A4B464244B5
:1049B00031462846B8470130C1D180E60A9A012A1B
:1049C00001DCDB073AD50123424631462846B84789
:1049D00001303FF474AE18EE103A52463146284684
:1049E000B84701303FF46BAED4E912010022002336
:1049F000DDF828A0FCF768F8D8B90AF1FF3308F110
:104A0000010231462846B84701300ED157E601234E
:104A1000524631462846B84701303FF450AE08F1BF
:104A200001080A9B013B4345F1DC4B4604F150026F
:104A3000DAE64FF0000804F11A0AF2E701234246D1
:104A4000DFE701234A4631462846B84701303FF4A4
:104A500036AE08F10108E3680B995B1A4345F0DCB8
:104A6000F8E64FF0000804F11909F4E72DE9F047E2
:104A7000164699468A680B69DDF820809342B8BFD4
:104A80001346336091F8432007460C460AB10133C0
:104A900033602368990642BF336802333360256868
:104AA00015F0060506D104F1190AE36832689B1A6D
:104AB000AB4226DC94F84320131E226818BF012362
:104AC00092062BD404F1430249463846C0470130D0
:104AD0001ED02368226903F00603042B02BFE56899
:104AE0003368ED1AA3680CBF25EAE57500259342EB
:104AF000C4BF9B1AED1800261A34B5421AD1002003
:104B000008E00123524649463846C047013003D1E8
:104B10004FF0FF30BDE8F0870135C6E7E1185A1CB9
:104B2000302081F84300224494F8451082F8431065
:104B30000233C7E70123224649463846C0470130C1
:104B4000E6D00136D9E700002DE9FF470F7E0C9D26
:104B5000782F914680460C469A4601F1430207D8C9
:104B6000622F0AD8002F00F0D480582F00F0C080A8
:104B700004F1420584F842703AE0A7F16303152B73
:104B8000F6D801A151F823F0E14B0008F54B0008DD
:104B9000714B0008714B0008714B0008714B000805
:104BA000F54B0008714B0008714B0008714B000871
:104BB000714B0008F94C0008214C0008B34C000868
:104BC000714B0008714B00081B4D0008714B000829
:104BD000214C0008714B0008714B0008BB4C0008C9
:104BE0002B681A1D1B682A6004F1420584F84230C4
:104BF00001239FE020682B68070603F10401296068
:104C000001D51E6803E04606FBD5B3F90060002E0F
:104C100003DA2D23764284F843305A480A2312E0FF
:104C20002B682068191D2960050601D51E6802E061
:104C30004106FBD51E8853486F2F0CBF08230A235B
:104C4000002184F843106568A560002DA2BF21688B
:104C500021F0040121600EB9002D4BD01546B6FBA2
:104C6000F3F103FB1167C75D05F8017D3746BB42D1
:104C70000E46F4D9082B0BD12368DE0708D523692B
:104C800061689942DEBF302305F8013C05F1FF352C
:104C9000521B2261CDF800A04B4603AA2146404694
:104CA000FFF7E4FE01304AD14FF0FF3004B0BDE819
:104CB000F087236843F0200323603348782784F883
:104CC0004570236829681F0651F8046B02D45F06FB
:104CD00048BFB6B2DF0748BF43F02003296048BF92
:104CE00023601EB9236823F0200323601023A7E765
:104CF0002448E4E71546BDE72B6826686169181D5E
:104D0000286035061B6801D5196002E07006FBD5E6
:104D10001980002323611546BCE72B681A1D2A6001
:104D20001D68626800212846FBF752FA08B1401B53
:104D3000606063682361002384F84330AAE7236935
:104D40002A4649464046D0470130ADD023689B07EC
:104D500013D4E068039B9842B8BF1846A6E7012326
:104D6000324649464046D04701309DD00135E36880
:104D700003995B1AAB42F2DCEBE7002504F119065C
:104D8000F5E700BFC6A70008D7A700082DE9F04F38
:104D900087B0174603938B685A1EB2F5AE7F83BF68
:104DA0006FF4AE755B190293002386BF40F25D136A
:104DB0008B6002930B688B46002543F4F0634BF83D
:104DC0001C3BCDE9045580460C465E46AA46A946E2
:104DD0000195A26852B13B681B784E2B64D8402BDA
:104DE0003CD8A3F12B01C8B20E283AD9B9F1000F73
:104DF00003D0236823F4807323600AF1FF3ABAF1E9
:104E0000010F00F213815E4500F20581012528465D
:104E100007B0BDE8F08FA3F161020D2AE6D801A129
:104E200051F822F0634F0008ED4D0008ED4D0008E9
:104E3000ED4D0008C34F00089B4F0008ED4D0008E2
:104E4000ED4D0008714F0008ED4D0008ED4D0008D4
:104E5000ED4D0008ED4D0008294F0008A3F1410277
:104E6000DBE70E29C2D801A050F821F01B4F000843
:104E7000ED4D00081B4F0008AF4F0008ED4D000836
:104E8000C94E0008054F0008054F0008054F0008EF
:104E9000054F0008054F0008054F0008054F0008A2
:104EA000054F0008054F00086E2B09D8602BB2D8BB
:104EB000542B77D0592B99D1072D97D1082529E06C
:104EC000742B6FD0792BF6E72168C8051AD5029BA1
:104ED00021F08001216009F101091BB1013B013280
:104EE0000293A260A368013BA3602369013323619D
:104EF0007B68013B002B7B6040F384803B6801337F
:104F00003B6066E71AEB050F7FF470AF226822F46E
:104F1000C072226006F8013BE4E7226810067FF5C4
:104F200065AF22F08002F4E7BAF1000F0ED1B9F1BB
:104F3000000F0ED1226802F4E061B1F5E06F08D1F4
:104F400022F4F06222604FF0010AE3E7BAF1020FA7
:104F500055D0012D02D0042D7FF448AF0135EDB2BC
:104F6000D8E7BAF1010F7FF441AF4FF0020AD1E761
:104F70007DB9B9F1000F7FF43CAF226802F4E06123
:104F8000B1F5E06F7FF439AF22F4F06222600125C1
:104F9000C0E7032DE2D0052DDEE7022D7FF426AF1A
:104FA0000325B7E7062D7FF421AF0725B2E7226876
:104FB00091057FF51BAF22F420722260CDF804909A
:104FC000A8E7226802F4A061B1F5806F06D0500511
:104FD0007FF50CAFB9F1000F3FF40FAF910558BF4B
:104FE000019922F4F06258BFA9EB010142F4C072AA
:104FF00058BFCDE9041622604FF000098AE74FF050
:10500000030A87E7D4F8803139464046984700289C
:105010003FF4DFAEEAE6D4F87C3116F8011D3A46DB
:10502000404698472369013B2361ECE66B1E062B43
:1050300025D8022D36D85E457FF6E8AED4F87C310F
:1050400016F8011D3A46404698472369013B236103
:10505000F1E70298D4F87C3110F8011D02903A462D
:10506000404698472369013B23610AF1FF3A5FFA02
:105070008AFABAF1020FECD1033DEDB2761B236838
:10508000DA052FD55B0510D55E457FF6BFAED4F8A7
:105090007C3116F8011D3A46404698472369013B8A
:1050A0002361F1E7AA460296DFE716F8011C23699F
:1050B000652903F1FF3306F1FF3523610CD0452943
:1050C0000AD0D4F87C313A4640469847236916F80E
:1050D000021C013BB51E2361D4F87C313A464046A0
:1050E00098472E46256815F0100558D1357023686D
:1050F00003F4C063B3F5806F1CD1019B4B45A3EB58
:10510000090224D100225946404602F079FC039B53
:1051100021681B6811F0020F57EC106B03F10402B9
:1051200020D003990A601B68C3E90067E368013374
:10513000E3606CE6049B002BE4D005990A232A4621
:105140000131404602F0E4FC049B059EC21A04F2C1
:105150006F139E4228BF04F5B7761249304600F01F
:10516000D5F8CFE711F0040F03990A60DBD1D3F82B
:10517000008010EE102A10EE100A3B463946FBF76D
:10518000D5FC28B1084800F0FFF988ED000ACDE70A
:1051900030463946FBF728FDC8F80000C6E7002571
:1051A00035E600BFE8A700087DAB0008002310B576
:1051B0000446C0E90033C0E904338360818143665B
:1051C000C2818361194608225C3000F03BF9054B2F
:1051D0006362054BA362054BE362054B24622363C4
:1051E00010BD00BF4D5300086F530008A7530008BF
:1051F000CB530008024A0349034800F069B800BFD6
:1052000024000020D17E00083000002041680C4BB3
:10521000994210B5044601D002F05AFEA168094B2C
:10522000994202D0204602F053FEE168064B9942B3
:1052300004D02046BDE8104002F04ABE10BD00BFB9
:10524000D40800203C090020A409002010B50B4B15
:105250000B4C0C4A1A60204600220421FFF7A6FFDF
:1052600004F1680001220921FFF7A0FF04F1D0003A
:105270000222BDE810401221FFF798BF0C0A00205F
:10528000D4080020F5510008014800F06DB900BFB6
:10529000150A0020014800F068B900BF150A002077
:1052A00010B50446FFF7F0FF236A1BB1BDE81040BC
:1052B000FFF7F0BF044B2362044B1B68002BF5D1B2
:1052C000FFF7C4FFF2E700BF0D5200080C0A0020F0
:1052D0002DE9F8430746884614460026D4E901958F
:1052E000B9F1010905D52468002CF7D13046BDE895
:1052F000F883AB89012B07D9B5F90E30013303D000
:1053000029463846C04706436835E9E70EB400B57C
:105310009CB01DAB029006906FF0004109480791C8
:105320000491094953F8042B05910068019302A9DF
:1053300002F04AFC029B00221A701CB05DF804EBDC
:1053400003B070477C0000200802FFFF10B50C4638
:10535000B1F90E1000F0BAF80028ABBF636DA38955
:105360001B1823F48053ACBF6365A38110BD2DE9E6
:10537000F0411F468B89DB0505460C46164605D5D0
:10538000B1F90E100223002200F08EF8A389B4F9BF
:105390000E1023F48053A38132463B462846BDE8D5
:1053A000F04100F0A5B810B50C46B1F90E1000F0B0
:1053B0007BF8431CA38915BF606523F4805343F435
:1053C0008053A38118BFA38110BDB1F90E1000F066
:1053D0005BB830B51446002C9BB005461A4605DA7A
:1053E0008B2303604FF0FF301BB030BD4FF40273CE
:1053F000ADF80C3014BF04F1FF332346029305933C
:105400004FF6FF7300910491ADF80E3069461E9B74
:1054100002F0DAFB431CBCBF8B232B60002CE3D0D3
:10542000009B00221A70DFE707B5009313460A4677
:10543000014603480068FFF7CCFF03B05DF804FBAA
:105440007C00002002440346934200D1704703F8D9
:10545000011BF9E70A7870B56AB970BD9A4209D1A3
:105460000C46054614F8013F002BF6D015F8016FE5
:105470009E42F7D001300378002BEFD11846ECE7BD
:10548000004870477001002038B5064D00230446DF
:1054900008462B60FDF762FC431C02D12B6803B168
:1054A000236038BD100A002038B5074D0446084671
:1054B000114600222A601A46FDF75AFC431C02D10D
:1054C0002B6803B1236038BD100A002038B5074DA2
:1054D00004460846114600222A601A46FDF720FCC1
:1054E000431C02D12B6803B1236038BD100A002091
:1054F00038B5074D04460846114600222A601A4670
:10550000FDF71EFC431C02D12B6803B1236038BD9C
:10551000100A0020014B1868704700BF7C00002073
:1055200070B50D4D0D4C641BA4100026A64209D188
:105530000B4D0C4C03F0D4FB641BA4100026A642B8
:1055400005D170BD55F8043B98470136EEE755F894
:10555000043B98470136F2E7E8AB0008E8AB0008E7
:10556000E8AB0008ECAB0008704770470A44914272
:1055700000F1FF3300D1704710B511F8014B03F86B
:10558000014F9142F9D110BD9FED010A704700BF54
:105590000000C07F2DE9F74F03690C69A34207465D
:1055A0007EDB013C01F1140800F1140505EB8403D6
:1055B000019358F8243055F8242001339A424FEAD9
:1055C000840B08EB8409B2FBF3F631D34FF0000EE5
:1055D0004046AC46F24650F8042B93B206FB03E378
:1055E0004FEA124E1A0C9BB2AAEB0303DCF800A0A0
:1055F00013FA8AF306FB0E220093009B4FEA124E29
:1056000092B2C2EB1A4202EB2342BDF80030814550
:1056100043EA02434CF8043B4FEA224ADBD255F8F6
:105620000B302BB9019B043B9D421A462CD33C61A5
:10563000384601F0F1F9002822DB01362946002026
:1056400058F8042BD1F800C093B2C31A120C13FA05
:105650008CF3C2EB1C4202EB23429BB243EA0243AF
:10566000C14541F8043B4FEA2240E9D255F82420D5
:1056700005EB840322B9043B9D421A460AD33C61E0
:10568000304603B0BDE8F08F1268043B002ACED14B
:10569000013CC9E71268043B002AF0D1013CEBE76A
:1056A0000020EEE7000000002DE9F04F2DED048B07
:1056B000C56993B08DED020B57EC106BDDF880805F
:1056C000079104460A920D9375B9102000F02AFE46
:1056D0000246E06120B9AE4BEF21AE4802F064FC17
:1056E000C0E901550560C560E369196851B15A68A0
:1056F0004A60012393408B60204600F007FFE36976
:1057000000221A603B1EBBBF23F00043039300231B
:105710000122ACBFC8F80030C8F800209E4BDDF86D
:105720000C8033EA08031BD10D9A42F20F73136009
:10573000C8F31303334300F09385219B63B9974B60
:1057400027E0974B00930833219A1360009813B019
:10575000BDEC048BBDE8F08F904B00930333F3E76F
:105760009DED027B002251EC170BB0EE478AF0EE64
:10577000678A0023FBF7A8F9814660B10D9A0123DF
:105780001360219B002B00F06885864B219A1360E3
:10579000013B0093DAE710AA11A92046B0EE480AAF
:1057A000F0EE680A01F04EFAC8F30A558246002D61
:1057B0007FD018EE903AC3F3130343F07F5351ECBC
:1057C000180B43F44013A5F2FF35CDF83890194675
:1057D0000022754BFAF758FD67A3D3E90023FAF7C7
:1057E0000BFF67A3D3E90023FAF750FD06462846CE
:1057F0000F46FAF797FE64A3D3E90023FAF7FCFEFD
:1058000002460B4630463946FAF740FD06460F463B
:10581000FBF7A2F900228346002330463946FBF706
:105820005DF948B15846FAF77DFE32463B46FBF734
:105830004BF908B90BF1FF3BBBF1160F57D85B4B87
:1058400003EBCB03D3E9002351EC180BFBF746F92C
:1058500000284ED00BF1FF3B00230C93109B5B1BE9
:105860005A1E45BFC3F1010305930023002306928E
:1058700054BF05930693BBF1000F3CDB069BCDF8AC
:105880002CB05B44069300230893079B092B68D830
:10589000052BC4BF043B0793079BA3F10203CCBFB6
:1058A00000250125032B00F28580DFE803F02E3B65
:1058B0003958DDE910531D4405F23243202BC1BF96
:1058C000C3F1400308FA03F805F2124326FA03F382
:1058D000D6BFC3F1200348EA030006FA03F0FAF743
:1058E00011FE0122A1F1F873013D0E926FE7012331
:1058F000B3E70C90B2E7059BA3EB0B030593CBF149
:105900000003089300230B93BFE7002309930A9B2E
:10591000002B52DC0123019304931A460A920BE0F8
:105920000123F3E7002309930A9B5B4401930133AE
:10593000012B0493B8BF0123E0690021042202F186
:1059400014069E423DD94160204600F09FFD009024
:10595000002839D1164B024640F2AF11BDE60123B3
:10596000E1E701250023079309954FF0FF330193E9
:10597000049300221223D1E761436F63A787D23FCC
:10598000B3C8608B288AC63FFB799F501344D33F2E
:10599000FAA7000811A800080000F07FF6A7000889
:1059A000EDA70008C5A700080000F83F00A90008FF
:1059B00069A8000801230993D7E70A9B0193049380
:1059C000BAE701315200BAE7E369009A1A60049B12
:1059D0000E2B00F2A880002D00F0A580BBF1000F77
:1059E00038DDC04B0BF00F0203EBC2031BF4807FCA
:1059F000D3E900674FEA2B1819D0BB4B51EC180BB9
:105A0000D3E90823FAF722FFCDE9020108F00F08D5
:105A10000325DFF8D492B8F1000F0AD1DDE90201C5
:105A200032463B46FAF712FFCDE902012BE0022590
:105A3000EFE718F0010F08D030463946D9E90023C6
:105A4000FAF7DAFD013506460F464FEA680809F114
:105A50000809E0E700F09F80CBF10006A14BA24FC0
:105A600006F00F0203EBC203D3E9002351EC180B3D
:105A7000FAF7C2FDCDE90201361100230225002EFE
:105A80007ED1002BD0D10C9BDDE90289002B00F0E8
:105A90008480964B002240464946FBF71FF80028B9
:105AA0007BD0049B002B78D0019B002B39DD904BE1
:105AB000002240464946FAF79FFDCDE90201019ECA
:105AC0000BF1FF370135DDE902892846FAF72AFD97
:105AD00042464B46FAF790FD864B0022FAF7D6FB7A
